:100000000C94710B0C94720A0C94340A0C94E10A4F
:100010000C948E0B0C94350B0C949B090C94B00A29
:100020000C948E0B0C948E0B0C948E0B0C9417105E
:100030000C948E0B0C948E0B0C948E0B0C94001065
:100040000C948E0B0C948E0B0C9442090C948E0B1A
:100050000C948E0B0C948E0B0C948E0B0C948E0BBC
:100060000C94A62A0C948E0B0C948E0B0C948E0B75
:100070000C94DB100C948E0B0C948E0BA2A0C84039
:10008000A6A42F248120AF00010204081020408084
:10009000FE00FF00000300010000009604001900AC
:1000A000640000000000FDFF14000000190064005F
:1000B00000000000FDFF1400000032005A00320072
:1000C0005A0000001400C8000A005A0014000F0073
:1000D000FEFF3200DE030A005A0014000F00FEFF8C
:1000E0003200DE030F001E000000000000000000D0
:1000F00058020F001900000000000000000000007E
:1001000000000000000000000000000000000000EF
:1001100000000000000000000000000000000000DF
:1001200000000000000000000000000000000000CF
:1001300000000000000000000000000000000000BF
:100140000000000000000001000C106C1100000015
:10015000000000000000000000000000000000009F
:10016000000000000000000000000000007C00FF14
:1001700033FF337C0000000000000000000000009E
:100180000000003C003C00000000003C003C00007F
:10019000000000000000000002101E901FF0037E0F
:1001A000021E1E901FF0037E021E001000000000C1
:1001B000007804FC0CCC0CFF3FFF3FCC0CCC0F882C
:1001C0000700000000000000303838381C380E00EE
:1001D000078003C001E038703838381C0000000088
:1001E00000001FB83FFC31C621E2373E1E1C1C0038
:1001F0003600220000000000000000000027003F41
:10020000001F0000000000000000000000000000CF
:10021000000000F003FC0FFE1F0738012001200042
:100220000000000000000000000000012001200785
:1002300038FE1FFC0FF0030000000000000000006B
:1002400000980CB80EE003F80FF80FE003B80E9812
:100250000C0000000000000000800180018001F01F
:100260000FF00F80018001800100000000000000FD
:10027000000000000000B800F80078000000000056
:10028000000000000000000000800180018001806B
:100290000180018001800180010000000000000059
:1002A00000000000000038003800380000000000A6
:1002B000000000000000000018001C000E00078075
:1002C00003C001E000700038001C000E000000F8C0
:1002D00007FE1F061E03338331C330633033301EE5
:1002E00018FE1FF8070000000000000C300C300E54
:1002F00030FF3FFF3F003000300030000000001CA6
:10030000301E38073C033E03378333C331E3307775
:10031000303E301C3000000C0C0E1C0738C330C3BC
:1003200030C330C330C330E7397E1F3C0E0000C0FD
:1003300003E003700338031C030E030703FF3FFFB2
:100340003F0003000300003F0C7F1C6338633063F1
:1003500030633063306330E338C31F830F0000C065
:100360000FF01FF839DC30CE30C730C330C330C394
:1003700039801F000F000003000300030003300357
:100380003C030FC303F3003F000F00030000000015
:100390000FBC1FFE39E730C330C330C330E730FE37
:1003A00039BC1F000F00003C007E00E730C330C3A3
:1003B00030C338C31CC30EE707FE03FC0000000077
:1003C0000000000000701C701C701C000000000089
:1003D00000000000000000000000000000709C70A1
:1003E000FC707C0000000000000000000000000025
:1003F00000C000E001F00338071C0E0E1C07380394
:10040000300000000000000000600660066006602A
:1004100006600660066006600660060000000000D8
:1004200000033007380E1C1C0E3807F003E001C033
:10043000000000000000001C001E000700030083F5
:1004400037C337E30077003E001C0000000000F8CF
:100450000FFE1F0718F333FB371B36FB37FB37073D
:1004600036FE03F80100000038003FE007FC061FDD
:10047000061F06FC06E007003F003800000000FFF2
:100480003FFF3FC330C330C330C330E730FE39BC19
:100490001F000F00000000F003FC0F0E1C073803C4
:1004A000300330033007380E1C0C0C00000000FF36
:1004B0003FFF3F033003300330033007380E1CFC8E
:1004C0000FF00300000000FF3FFF3FC330C330C305
:1004D00030C330C330C3300330033000000000FFAE
:1004E0003FFF3FC300C300C300C300C300C30003FA
:1004F00000030000000000F003FC0F0E1C0738038F
:1005000030C330C330C330C73FC63F00000000FFD8
:100510003FFF3FC000C000C000C000C000C000FFDF
:100520003FFF3F000000000000000003300330FFE9
:100530003FFF3F03300330000000000000000000D8
:100540000E001E003800300030003000300038FF50
:100550001FFF0700000000FF3FFF3FC000E001F069
:100560000338071C0E0E1C0738033000000000FF84
:100570003FFF3F00300030003000300030003000DE
:1005800030003000000000FF3FFF3F1E007800E019
:1005900001E00178001E00FF3FFF3F00000000FF68
:1005A0003FFF3F0E003800F000C0030007001CFFB3
:1005B0003FFF3F00000000F003FC0F0E1C07380354
:1005C00030033007380E1CFC0FF00300000000FF62
:1005D0003FFF3F83018301830183018301C701FE44
:1005E000007C0000000000F003FC0F0E1C07380325
:1005F000300336073E0E1CFC3FF03300000000FFC6
:100600003FFF3F8301830183038307830FC71DFEE1
:10061000387C30000000003C0C7E1CE738C330C33F
:1006200030C330C330C7398E1F0C0F0000000000EC
:1006300000030003000300FF3FFF3F03000300032C
:1006400000000000000000FF07FF1F00380030001E
:1006500030003000300038FF1FFF070000000007A7
:10066000003F00F801C00F003E003EC00FF8013F00
:1006700000070000000000FF3FFF3F001C00068055
:100680000380030006001CFF3FFF3F000000000343
:10069000300F3C1C0E3003E001E00130031C0E0F54
:1006A0003C03300000000003000F003C00F000C0DD
:1006B0003FC03FF0003C000F0003000000000003BB
:1006C00030033C033E0333C331E33033301F300F7C
:1006D0003003300000000000000000FF3FFF3F0338
:1006E0003003300330033000000000000000000E33
:1006F000001C0038007000E000C00180030007000B
:100700000E001C001800000000000003300330033E
:10071000300330FF3FFF3F0000000000000000609A
:1007200000700038001C000E0007000E001C00388E
:100730000070006000000000C000C000C000C000E9
:10074000C000C000C000C000C000C000C006087CDF
:10075000110000000000000000065F060000070313
:1007600000070300247E247E2400242B6A1200004C
:1007700063130864630036495620500000070300E5
:100780000000003E4100000000413E000000083E25
:100790001C3E080008083E08080000E06000000059
:1007A0000808080808000060600000002010080425
:1007B00002003E5149453E0000427F400000625128
:1007C000494946002249494936001814127F100051
:1007D0002F49494931003C4A494930000171090516
:1007E0000300364949493600064949291E00006C74
:1007F0006C00000000EC6C000000081422410000B6
:100800002424242424000041221408000201590950
:1008100006003E415D551E007E1111117E007F498C
:10082000494936003E41414122007F4141413E005D
:100830007F49494941007F09090901003E41494971
:100840007A007F0808087F0000417F4100003040A7
:1008500040403F007F08142241007F40404040005C
:100860007F0204027F007F0204087F003E41414175
:100870003E007F09090906003E4151215E007F09C3
:100880000919660026494949320001017F0101002A
:100890003F4040403F001F2040201F003F403C4061
:1008A0003F006314081463000708700807007149CB
:1008B00045430000007F4141000002040810200071
:1008C0000041417F0000040201020480808080809A
:1008D00080000003070000002054545478007F4437
:1008E00044443800384444442800384444447F0099
:1008F000385454540800087E0909000018A4A4A420
:100900007C007F040478000000007D4000004080EF
:10091000847D00007F102844000000007F4000001C
:100920007C04180478007C040478000038444444B3
:100930003800FC444444380038444444FC004478C3
:1009400044040800085454542000043E4424000089
:100950003C40207C00001C2040201C003C6030609B
:100960003C006C10106C00009CA0603C00006454C3
:10097000544C0000083E4141000000007700000098
:100980000041413E08000201020100003C262326EE
:100990003C4D074901080830383C3E3E3C383008A1
:1009A00008060E1E3E3E1E0E0609093800FE00FE19
:1009B00000FF01FF01FF01FE00FE003800090300F7
:1009C00000000002020207020503020702020240C1
:1009D00040000000000103030303030303030303B8
:1009E0000303030303070F1F1F3F3F7F7F7F7F7FAB
:1009F0003F1F0F0003030303030303030303030366
:100A000003030303070707070707070303010000A2
:100A10000000000000FFFF000000000000000000D8
:100A2000011F7FFFFFFFFFFFE7C3E7FFFFFFFFFFA0
:100A3000FFFEF0000000000000000000070F3F7FF5
:100A4000FFFFFFFCFCFFFFFFFFFFFFFFFF7CC3007A
:100A50000000000000FFFF00000000000000000098
:100A600000F0F8FCFEFEFEFEFCFCFDFBF7F7EFDFFE
:100A70000B00000000000000010303FFFFFFFFFF69
:100A8000FFFFFF7F7FFFFFFFFEFCF8E0807FFF009E
:100A90000000000000FFFF00000000000000000058
:100AA0000000000000000000000080FDFFFFFFFFCD
:100AB000FF7F1F3F7F7FFEFEFCF8F8F0F0E0C0C034
:100AC000E0C0C0C0C08080000000000000FFFF0048
:100AD0000000000000FFFF000001010303070707FB
:100AE0000F0707070303070F0F3F7FFFFFFEFEFF00
:100AF000FFFFFFFFAF030000000000000000000048
:100B000000000000000000000000000000FFFF00E7
:100B10000000000000FFFF3F7FFFFFFCF8FCFFFF2D
:100B2000FFFFFFFFFFFFE8C0C080800000000080E3
:100B3000F9FFFFFFFFFF7F7F7F7FFF7F7F7F3F1FEB
:100B400001000000000000000000000000FFFF00A6
:100B500000000000FEFFFFFFFFFFFFFF7FFFFFFF22
:100B6000FFFEFCF0E00000000000000000011F7F1D
:100B7000FFFFFFFFFFC7C7CFFFFFFFFFFFFFFEF035
:100B800000000000000000000000000000FFFF0067
:100B90000000000000F0F8D8D8F8D8D8D8D89818B5
:100BA0001818181818181818181818181818F8F805
:100BB000FCFCFCFEFCFCFCFCF8F0F0D8D818181883
:100BC00018181818181818181818181818F8F00005
:100BD00000F80D620E960EA60EB40EC20ED00EDFF9
:100BE0000EEB0EF90E0C0F1C0F2C0F320F4172651D
:100BF00020796F7520737572653F0053415645200B
:100C00005550202020444F574E2020454E544552E9
:100C100000202020202020202020202020202020F4
:100C2000200043414E43454C2020444F574E202046
:100C300020555020204F4B004143432D5A206461E2
:100C40006D70696E6700414343205820262059206B
:100C5000202020005472696D20503A20202020521C
:100C60003A0020202020202020202020202020208A
:100C700020200052004E0052657665727365204751
:100C800059524F00202020202020202020202020EA
:100C900020202020006E6F20007965730059657355
:100CA000004E6F2000412054726920005920547278
:100CB000692000582051756164002B2051756164D2
:100CC00000582051756164002B20517561640055F6
:100CD0004152542000427564647900545249200006
:100CE00051756164004241434B2020202020202088
:100CF000202020202020202020200020004572726B
:100D00000020202020004E410041524D4544004823
:100D100065666E79436F70746572322076302E3955
:100D20002E39004F4B20003100580032002B005864
:100D30000059002B004100580055415254200042F8
:100D40007564647900545249200051756164004112
:100D50004C54484C4400535441424C45004143528A
:100D60004F202000400FAD2F560F8A0F4F38000044
:100D7000400F912FA00FA40F602CBA0FA40FEA2AE6
:100D8000EF0F8A0F423404108A0F453204108A0F85
:100D90009B3104108A0FDD364B10821034369810C8
:100DA000E50CFA2BE210E50CF42E18114811C02BBB
:100DB000E2105E116C2D18114811742FF80DE50C1E
:100DC000102B000074115F2F0000594157090920B2
:100DD00000526F6C6C2020202020202020005069C1
:100DE000746368202620526F6C6C005069746368CD
:100DF00020202020202020002D54414B45204F460C
:100E0000462050524F50454C4C45525321210A2DFB
:100E1000507265737320636F6E74696E75650A2D09
:100E20005475726E204F66662051756164636F70F1
:100E30007465722E0A0A2D517561642077696C6C95
:100E400020737461727465640A696E2041524D4565
:100E5000442054414B4543415245207374617465AD
:100E60000A00507265737320436F6E74696E756506
:100E70002061667465722063616C69627261746975
:100E80006F6E2E0A0A756E706C75672062617474DD
:100E90006572792E0A004779726F205049442045C7
:100EA0006469746F720053656C66204C6576656C7E
:100EB000696E6700416C74697475646520486F6C75
:100EC00064004D6F64652053657474696E677300C8
:100ED0004D6973632E2053657474696E6773005394
:100EE000656E736F72205465737400526563656933
:100EF00076657220546573740053656E736F72204B
:100F000043616C6962726174696F6E0053746963E6
:100F10006B2043656E746572696E670045534320AC
:100F200043616C6962726174696F6E0044656275D9
:100F30006700466163746F7279205265736574004F
:100F400020202020202020202020202020202020A1
:100F5000204D454E55000A0A426174743A20202003
:100F600020202020760A0A0A52583A202D202053A9
:100F70004E3A2020202053543A202D0A466C793ACC
:100F8000202020426F6172643A004241434B205559
:100F900050202020444F574E2020454E54455200AB
:100FA0000A0A0A00202020202020202020202020A3
:100FB0002020202020444F4E45000A0A0A4D313A95
:100FC000202020202020204D343A0A4D323A202083
:100FD00020202020204D333A0A4553432043616CA2
:100FE0006962726174696F6E206D6F64650A000AD0
:100FF000524553544152540A202020202020424F71
:10100000415244000A503A202020202020204C69E0
:101010006D3A0A493A202020202020204C696D3A60
:101020000A443A202020202020204C696D3A0A4EA4
:101030006F6973652046696C7465723A0A54726907
:101040006D20503A20202020523A004672616D6592
:1010500020547970653A0A42756464792053797333
:1010600074656D3A0A426F617264204469723A0A8B
:10107000466C792020204469723A0A536F6E61727F
:101080003A004241434B2050524556204E45585459
:10109000204348414E4745004175746F20446973B1
:1010A00061726D3A0A566F6C7420416C61726D3AD0
:1010B0002020202020202F3130760A5468726F744F
:1010C000746C65206D696E3A0A537469636B2053C2
:1010D00063616C653A0A502D52204C696E6B6564F1
:1010E0003A004779726F20583A0A4779726F20594F
:1010F0003A0A4779726F205A3A0A416363202058AE
:101100003A0A4163632020593A0A41636320205A16
:101110003A0A426174743A00204348202020525811
:101120002D312020202052582D320A41696C3A0A74
:10113000456C653A0A5275643A0A5468723A0A4133
:1011400075783A0A52583A004241434B20202020F9
:101150002020202020434F4E54494E554500424107
:10116000434B20434C52202020202020202020448C
:101170004F4E45004E4F20202020202020202020B0
:101180002020202020205945530000407A10F35A97
:1011900000A0724E18090010A5D4E80000E87648B7
:1011A000170000E40B54020000CA9A3B000000E163
:1011B000F505000080969800000040420F000000F6
:1011C000A08601000000102700000000E8030000D6
:1011D00000006400000000000A00000000000100A0
:1011E000000000002C76D888DC674F0823DFC1DFC1
:1011F000AE59E1B1B796E5E3E453C63AE6519976C4
:1012000096E8E6C28426EB898C9B62ED407C6FFCFD
:10121000EFBC9C9F40F2BAA56FA5F490055A2AF73F
:101220005C936B6CF9676DC11BFCE0E40D47FEF548
:1012300020E6B500D0ED902E0300943577050080B0
:10124000841E080000204E0A000000C80C3333330F
:10125000330F986E12831141EF8D2114893BE655AF
:1012600016CFFEE6DB18D1844B381BF77C1D901D92
:10127000A4BBE424203284725E228100C9F124ECF4
:10128000A1E53D2778941F920F920FB60F9211247B
:101290002F933F934F935F936F937F938F939F937E
:1012A000AF93BF93CF93DF93EF93FF938091BA05F2
:1012B0009091BB0501969093BB058093BA05C091B0
:1012C0001D05D0911E05CE018F779070009799F47F
:1012D000CE01880F892F881F990B91958770806B9D
:1012E00060E00E94F10B80E160E00E94F10B80E081
:1012F00060E00E94F10BFE01E35EFE4F808161E041
:101300000E94F10B2196D370D0931E05C0931D054A
:10131000FF91EF91DF91CF91BF91AF919F918F910D
:101320007F916F915F914F913F912F910F900FBEE1
:101330000F901F9018951F920F920FB60F921124C5
:101340000F931F932F933F934F935F936F937F93CD
:101350008F939F93AF93BF93CF93DF93EF93FF93BD
:1013600016B18091F907182786B18093F907C091CB
:101370008400D0918500012F15FF18C086B185FF2C
:1013800005C0D0930708C093060810C080E00E94F3
:10139000552680915E0690915F069093EE078093AC
:1013A000ED078091D5078F718093D50700FF0BC0A3
:1013B00086B180FF05C0D0930908C093080803C018
:1013C00081E00E94552617FF2DC08091D706379BDC
:1013D0000BC0D0930D08C0930C08813019F5469AC4
:1013E000449A429A439A1EC0813061F48091D50795
:1013F000807F41F480914F0581FD04C04698449858
:101400004298439883E00E94552680915E06909111
:101410005F069093F2078093F1078091D5078F7252
:101420008093D50701FF0BC086B181FF05C0D09323
:101430000B08C0930A0803C082E00E945526FF9162
:10144000EF91DF91CF91BF91AF919F918F917F915C
:101450006F915F914F913F912F911F910F910F903D
:101460000FBE0F901F9018951F920F920FB60F92FC
:1014700011242F933F934F935F936F937F938F9399
:101480009F93AF93BF93EF93FF9389B183FF09C0FD
:1014900080918400909185009093030880930208C6
:1014A00010C083E00E942C2680915E0690915F061A
:1014B0009093F4078093F3078091D507827F809300
:1014C000D507FF91EF91BF91AF919F918F917F9140
:1014D0006F915F914F913F912F910F900FBE0F90A1
:1014E0001F9018951F920F920FB60F9211242F93F1
:1014F0003F934F935F936F937F938F939F93AF939C
:10150000BF93EF93FF9389B182FF09C0809184005C
:10151000909185009093FD078093FC0710C080E0B8
:101520000E942C2680915E0690915F069093F607AC
:101530008093F5078091D507817F8093D507FF9130
:10154000EF91BF91AF919F918F917F916F915F913B
:101550004F913F912F910F900FBE0F901F901895B4
:101560001F920F920FB60F9211242F933F934F9318
:101570005F936F937F938F939F93AF93BF93EF93FB
:10158000FF9389B180FF09C080918400909185000C
:101590009093FF078093FE0703C081E00E942C26F2
:1015A000FF91EF91BF91AF919F918F917F916F913B
:1015B0005F914F913F912F910F900FBE0F901F9011
:1015C00018951F920F920FB60F9211242F933F93ED
:1015D0004F935F936F937F938F939F93AF93BF933B
:1015E000EF93FF938091D3068F3FF9F48091DE064D
:1015F00080FF1BC083B182FF09C08091BA05909122
:10160000BB059093FB078093FA071EC08091BA0533
:101610009091BB052091FA073091FB07821B930B39
:101620009093D3058093D2050FC083B182FF09C088
:101630008091840090918500909301088093000828
:1016400003C082E00E942C26FF91EF91BF91AF91E1
:101650009F918F917F916F915F914F913F912F91CA
:101660000F900FBE0F901F9018951F920F920FB6FC
:101670000F9211242F933F934F935F936F937F9318
:101680008F939F93AF93BF93EF93FF9383B180FFAB
:101690000CC0809184009091850090930F088093F6
:1016A0000E0881E08093CE060BC084E00E94552690
:1016B0008091E0059091E1059093D7058093D60540
:1016C000FF91EF91BF91AF919F918F917F916F911A
:1016D0005F914F913F912F910F900FBE0F901F90F0
:1016E000189511241FBECFEFD8E0DEBFCDBF11E0AB
:1016F000A0E0B1E0E4E2FDE702C005900D92A43164
:10170000B107D9F718E0A4E1B1E001C01D92A13200
:10171000B107E1F70E9489180C94903E0C940000E8
:10172000EF92FF920F931F93CF93DF93EC0100E0B2
:1017300010E0E62EFF240AC0299ACE010E94F40E82
:101740002998CE010E94F40E0F5F1F4F0E151F0542
:101750009CF3DF91CF911F910F91FF90EF9008952F
:1017600084B1806F84B985B1806F85B908950F9376
:101770001F9313B11095107F0091BF051092CD05F6
:10178000112321F18091A207813011F40E94110FE1
:101790008091BF05811759F080915E0690915F0698
:1017A000845D9E4F90931501809314010FC020918A
:1017B0005E0630915F064091140150911501421769
:1017C000530720F491E09093CD0505C0802F8095BC
:1017D0001093BF0581231F910F9108958091BF053C
:1017E00008955D986795662767959BB19F77962BBF
:1017F0009BB998E05C9887FF02C0599A01C059983C
:101800005C9A915011F0880FF5CF5D9A08956F772B
:1018100060931C01880F880F880F80931B01089527
:1018200080931C0160931B010895262F2695269511
:10183000269530E03695322F222737952795280FA9
:10184000311DE62FF0E0E770F070E857FF4FE491AC
:1018500091E0411190E080911A018170D901A35E5D
:10186000BE4F891729F0E0958C91E823EC930895F9
:101870008C918E2B8C93089508950895089580E09F
:1018800094E0EDE1F1E0DF019C011D922150304038
:10189000E1F780E060E00E94070C10921A010895C1
:1018A0008F929F92BF92CF92DF92EF92FF920F930F
:1018B0001F93DF93CF930F92CDB7DEB74C01E62E87
:1018C000F42EC22EDD24BB24042F10E04FC0832F42
:1018D000877029F4F4010894811C911CB490CC20E9
:1018E00079F560911B01862F877019F5C801831B5C
:1018F000910988309105ECF0630F669566956695C1
:10190000A62FB0E0B695BA2FAA27B795A7958091D4
:101910001C018D0DA80FB11D80911A01A35EBE4F51
:1019200080FF04C08B2D80958C9301C0BC92395FE1
:1019300017C080911C01630F4B2D41708D0D0CC0A1
:101940008C2D813069F4B0FE0BC080911C01609138
:101950001B01630F8D0D41E039830E94150C398105
:10196000B6943F5F3F1508F4B2CFD394DE1410F461
:1019700030E0F8CF0F90CF91DF911F910F91FF9042
:10198000EF90DF90CF90BF909F908F900895262F7B
:10199000FC0164913196449102960E94500C089586
:1019A0008A3051F480911B0190911701890F809327
:1019B0001B0110921C010895E0911801F09119018A
:1019C0000995609116014091170120E00E94500C8A
:1019D00080911C0190911601890F80931C0108953C
:1019E000EF92FF92CF93DF93E82EE7017E01F92E6D
:1019F000E70102C00E94D00C89918823D9F7DF91BA
:101A0000CF91FF90EF900895CF93DF93EC0102C048
:101A10000E94D00CFE01219684918823C9F7DF91A2
:101A2000CF91089590911A01882311F0916001C01F
:101A30009E7F90931A010895EF92FF920F931F9348
:101A4000DF93CF9300D00F92CDB7DEB7182F822F40
:101A50004A835B8369830E94120D812F69810E94F2
:101A6000070C4A815B818A0102C00E94D00CF801F8
:101A700081918F018823C9F70E94120D0F900F905A
:101A80000F90CF91DF911F910F91FF90EF900895EC
:101A90000F931F93082F10E004C080E20E94D00C27
:101AA0001F5F1017D0F31F910F9108950F931F938D
:101AB000DF93CF930F92CDB7DEB78C0169830E947D
:101AC000F00CF80101900020E9F73197E01BF10BD1
:101AD0006981862F8E1B0E94480D0F90CF91DF9158
:101AE0001F910F9108950F931F93DF93CF930F9240
:101AF000CDB7DEB78C0169830E94040DC8010E9436
:101B0000923B6981681B862F0E94480D0F90CF91F0
:101B1000DF911F910F910895EF92FF920F931F9302
:101B2000DF93CF9300D0CDB7DEB7182F7A01802F87
:101B30002A8369830E94120D812F69810E94070CFC
:101B4000C7012A81622F0E94730D80E00E94120D4E
:101B50000F900F90CF91DF911F910F91FF90EF9019
:101B60000895BF92CF92DF92EF92FF920F931F934F
:101B7000DF93CF93CDB7DEB762970FB6F894DEBF91
:101B80000FBECDBFF82EB62ECA01B901302F32508C
:101B9000432F22E06E010894C11CD11C86013A8BB0
:101BA0000E94603B8E2D0E94120D8F2D6B2D0E9486
:101BB000070CC6013A89632F0E94560D80E00E94EF
:101BC000120D62960FB6F894DEBF0FBECDBFCF9157
:101BD000DF911F910F91FF90EF90DF90CF90BF901A
:101BE0000895EF920F93E02E05E00E94B10D0F9142
:101BF000EF900895DF92EF92FF920F931F93DF9380
:101C0000CF93CDB7DEB728970FB6F894DEBF0FBEDF
:101C1000CDBFD82E162FCA017E010894E11CF11CFD
:101C2000B7014AE050E028870E94BD3B802F0E9408
:101C3000120D8D2D612F0E94070CC7012885622F80
:101C40000E94560D80E00E94120D28960FB6F8945F
:101C5000DEBF0FBECDBFCF91DF911F910F91FF90DF
:101C6000EF90DF90089516BC81E085BBEEE6F0E0D2
:101C70008081816080830895EEE6F0E080818E7F30
:101C8000808308950F931F93CF93DF93082FCEE6A1
:101C9000D0E018810E943C0E81E860E00E94F10BC8
:101CA000802F8F7360E00E94F10B1883DF91CF913A
:101CB0001F910F910895BC01009711F46DE477E036
:101CC00086E191E044E050E00E94823B0895CF938A
:101CD000DF93559A569A579A549A519A5E9889EF7B
:101CE00090E00197F1F700C000005E9A89EF90E064
:101CF0000197F1F700C00000CCE7D0E003C060E03E
:101D00000E94F10BFE01219684918823C1F780E0A7
:101D100090E00E945B0E82E085BD0E94330EDF9151
:101D2000CF910895CF92DF92EF92FF920F931F937E
:101D3000DF93CF930F92CDB7DEB76C0125B1269517
:101D400026952695217000E010E0E62EFF2424C0A1
:101D500085B186958695869580958170880F880FC8
:101D6000880F95B1977F982B95B9C60129830E945A
:101D7000F40E85B186958695869580958170880F3D
:101D8000880F880F95B1977F982B95B9C6010E944F
:101D9000F40E0F5F1F4F29810E151F05CCF2217025
:101DA000220F220F220F85B1877F822B85B90F90DA
:101DB000CF91DF911F910F91FF90EF90DF90CF9027
:101DC00008950FC0000000000000000000000000A7
:101DD0000000000000000000000000000000000003
:101DE0000197009779F708951F93CF93DF93EC0144
:101DF00008C01AE084E690E00E94E10E1150D1F78D
:101E000021972097B1F7DF91CF911F910895509AB4
:101E1000489A229880E18093690084E08DBB8CBB56
:101E200008951092A2072B981092E9051092E805E8
:101E300086E490E062E00E94900B80E090E00E94D7
:101E40004D2F08958091D806823039F48091D906BB
:101E5000813019F40E94110F089581E08093A20748
:101E60008EE190E064E070E00E94920E2B9A8CEB81
:101E700092E061E00E94900B1092E9051092E80553
:101E800010921E0610921D0682E090E00E944D2FD7
:101E900080E090E0DC018093680690936906A0934F
:101EA0006A06B0936B068093800690938106A09398
:101EB0008206B09383068093980690939906A09328
:101EC0009A06B0939B068093540590935505A09372
:101ED0005605B093570580936C0590936D05A093BC
:101EE0006E05B0936F058093840590938505A0934C
:101EF0008605B0938705089581ED96E060E970E06E
:101F000049EB50E00E94823B08950F931F93DF93AB
:101F1000CF930F92CDB7DEB78C0169830E94043C4A
:101F20006981861719F0C8010E940C3C0F90CF916F
:101F3000DF911F910F910895CF92DF92EF92FF9260
:101F40000F931F93CF93DF93EC017B016A0100E0B5
:101F500010E008C0C701800F911F69910E94850F92
:101F60000F5F1F4F0C151D05A8F3DF91CF911F9137
:101F70000F91FF90EF90DF90CF90089581ED96E064
:101F800060E070E049EB50E00E949C0F0895F894E7
:101F900081ED96E060E070E049EB50E00E949C0F1C
:101FA00078948CEB92E061E00E94900B08950E947F
:101FB0007C0FE4E4F7E020EF35E080E694E0219345
:101FC0003193938B828B31872087958F848F47E065
:101FD000EE34F407A1F70E94C70F089580E090E067
:101FE0000E94043C8E3F19F00E94D70F089581EDA6
:101FF00096E060E070E049EB50E00E94F43B089509
:102000001F920F920FB60F9211248F939F9380917E
:102010005E0690915F06019690935F0680935E0640
:102020009F918F910F900FBE0F901F9018951F9248
:102030000F920FB60F9211248F939F938091BD053D
:102040009091BE0501969093BE058093BD059F912A
:102050008F910F900FBE0F901F90189581E0809385
:10206000810080936F0010925F0610925E0693E0ED
:102070009093B1008093700017BA1092B200109242
:10208000BE051092BD0508952091D3062F3F61F43F
:1020900010921F059093CD008093CC0086E0809332
:1020A000CA0088E98093C90008959091C80095FFFF
:1020B000FCCF8093CE000895EF92FF920F931F9371
:1020C000CF93DF93082F192FC0E0D0E0E62EFF2436
:1020D00006C0F80181918F010E9455102196CE15FE
:1020E000DF05BCF3DF91CF911F910F91FF90EF902F
:1020F00008958091A207813009F45CC080E090E0EF
:1021000020E0FC01ED54F84F3081230F0196883018
:102110009105B9F78091BB07281709F04BC0809152
:10212000B307833421F0863509F044C02AC080917A
:10213000B407853081F0863018F48130D9F505C0B8
:102140008630C9F08730B1F519C08EE190E064E0C7
:102150000E94920E089580E091E061E00E945C1080
:1021600081ED96E066E50E945C1082E091E061E01E
:102170000E945C1008950E94C70F08950E94402994
:1021800008958091B4076091B5074091B6079FEF1D
:10219000699FB0011124680F711D6F52794F242F70
:1021A000332727FD3095E7EBF7E0CB01BF01532F35
:1021B0000E94A93B08951F920F920FB60F9211240F
:1021C0002F933F934F935F936F937F938F939F933F
:1021D000AF93BF93EF93FF938091C80087FFFCCF2D
:1021E0008091CE008093AE0780912005882399F0DE
:1021F00080915E0690915F062091AF073091B00705
:10220000821B930B8531910530F0109220051092BE
:102210001F051092A807E0911F05F0E08091AE071E
:10222000ED54F84F808380912005882319F0813088
:10223000C1F406C010921F0581E08093200507C0FD
:1022400080911F05883019F40E9479100AC0F89413
:1022500080915E0690915F069093B0078093AF07E0
:10226000789480911F058F5F80931F0580911F05D3
:10227000893021F410921F0510922005FF91EF91F3
:10228000BF91AF919F918F917F916F915F914F918E
:102290003F912F910F900FBE0F901F901895EF92C6
:1022A000FF920F931F93CF93DF93082F192FC0E056
:1022B000D0E0E62EFF2406C0F80181918F010E9434
:1022C00055102196CE15DF05BCF3DF91CF911F91FC
:1022D0000F91FF90EF90089590E080979C01220F5E
:1022E000331F280F391F83E0220F331F8A95E1F730
:1022F000235B3E4FC901089590E080979C01220F17
:10230000331F280F391F220F331F2F5A384FC9018F
:1023100008950E94B3380E94EE0F0E947A268091A1
:10232000D3068F3F31F48091DE0680FF02C00E9409
:10233000070F3E9A3C9A3A9A3B9A4698449842989C
:102340004398219A239A139810928000109281004A
:10235000109282008091D3068F3F21F48AE090E0B2
:102360000E9444100E94D52A0E9401290E94B00BAD
:102370000E942E100E94670E0E943F0C0E94AB38F4
:1023800078948EE190E00E94F40E08950E94B127A7
:102390008091EA059091EB05009741F48091BD058D
:1023A0009091BE059093EB058093EA058091BD0561
:1023B0009091BE052091EA053091EB05821B930BAD
:1023C0008B30910530F00E9468381092EB05109226
:1023D000EA05089583E00E944D2F0E94C611FDCFAB
:1023E0001092C1071092C2071092C3071092C5073E
:1023F0001092CA0702C00E94C6118091D20682FFC5
:10240000FACF81FFF8CF08958091E705882309F47A
:102410006CC18091CC05813009F067C18091D507EE
:10242000807F09F062C18091C5068E7F8093C506CA
:102430008091E8059091E905009741F480915C0650
:1024400090915D069093E9058093E8058091A2073D
:10245000813009F054C02091CC05822F90E0FC011E
:10246000EE0FFF1F43E0880F991F4A95E1F7E80F31
:10247000F91FEC5FF94F8481958121E08139920742
:1024800084F01092570680915C0690915D06209131
:10249000E8053091E905821B930B21E08233920716
:1024A00058F56091D606662309F41FC180911D0678
:1024B00090911E06009741F480915C0690915D0614
:1024C00090931E0680931D0680915C0690915D0698
:1024D00020911D0630911E06821B930B70E048EE82
:1024E00053E0649F9001659F300D749F300D11245F
:1024F0002817390708F0F9C00E94110F08958823A2
:1025000009F0F3C02091CC05822F90E0FC01EE0F82
:10251000FF1F23E0880F991F2A95E1F7E80FF91FA5
:10252000EC5FF94F848195812EEF80379207FCF4A0
:102530001092570680915C0690915D062091E80507
:102540003091E905821B930B21E08233920778F0EA
:102550008091D306882341F48091D50790E08F7055
:102560009070009709F0C1C00E94220F0895209139
:10257000CC05822F90E0FC01EE0FFF1FA3E0880F37
:10258000991FAA95E1F7E80FF91FEC5FF94F8081D9
:10259000918121E081399207ACF010925706809129
:1025A0005C0690915D062091E8053091E905821B5B
:1025B000930B21E08233920708F497C081E0809367
:1025C000DA0657C02091CC05822F90E0FC01EE0F77
:1025D000FF1F63E0880F991F6A95E1F7E80FF91F65
:1025E000EC5FF94F808191812EEF80379207BCF428
:1025F0001092570680915C0690915D062091E80547
:102600003091E905821B930B21E08233920708F495
:102610006CC01092DA0680E590E064E02DC0209155
:10262000CC05822F90E0FC01EE0FFF1F43E0880FE6
:10263000991F4A95E1F7E80FF91FEC5FF94F828186
:1026400093812EEF80379207F4F410925706809111
:102650005C0690915D062091E8053091E905821BAA
:10266000930B21E08233920708F43FC082E080930D
:102670001C0680E590E068E00E94920E1092E90549
:102680001092E80508952091CC05822F90E0FC017E
:10269000EE0FFF1F23E0880F991F2A95E1F7E80F3F
:1026A000F91FEC5FF94F8281938121E08139920714
:1026B000E4F01092570680915C0690915D0620919F
:1026C000E8053091E905821B930B21E082339207E4
:1026D00060F081E080931C0680E590E064E00E9459
:1026E000920E1092E9051092E80508958091E70591
:1026F000882309F487C08091D507807F09F082C0C4
:102700008091E8059091E905009741F480915C067D
:1027100090915D069093E9058093E80580911006FD
:102720009091110621E0813992078CF010925706A2
:1027300080915C0690915D062091E8053091E90555
:10274000821B930B8135910500F180E218C08091C6
:102750001006909111062EEF80379207B4F4109274
:10276000570680915C0690915D062091E8053091B6
:10277000E905821B930B8135910538F080E4809345
:10278000C4061092E9051092E80580910E0690911A
:102790000F0621E081399207BCF010925706809114
:1027A0005C0690915D062091E8053091E905821B59
:1027B000930B8135910530F180E18093C40610922E
:1027C000E9051092E805089580910E0690910F0694
:1027D0002EEF80379207B4F41092570680915C0672
:1027E00090915D062091E8053091E905821B930BDD
:1027F0008135910538F080E88093C4061092E90590
:102800001092E8050895109299051092980510927B
:102810009B0510929A0510929D0510929C0580913F
:10282000D806823039F486E292E090939F05809337
:102830009E0504C010929F0510929E050E940325DC
:1028400008958F929F92AF92BF92CF92DF92EF92B4
:10285000FF920F931F93CF93DF930E94B127209194
:10286000CC05822F90E0FC01EE0FFF1F23E0880FC4
:10287000991F2A95E1F7E80FF91FEC5FF94F868160
:1028800097819093C7058093C6050E94212AF894EA
:1028900080915E0690915F0690935D0680935C0642
:1028A00078940E94481B21E0209357068091D3061C
:1028B000882389F48091D507807F69F4809116067A
:1028C000909117063EEF803793071CF41092CC05C9
:1028D00002C02093CC058091EA059091EB052091F0
:1028E0005C0630915D06009729F43093EB05209348
:1028F000EA056AC0281B390B2530310508F464C08D
:102900000E94683880914107882379F02091490618
:1029100030914A0690E04091C5062817390714F413
:10292000426001C04D7F4093C5068091C506882353
:1029300051F085B1869580958170880F95B19D7F06
:10294000982B95B901C029988091D3068F3FC1F586
:1029500020912105222381F080911606909117067F
:102960004EEF8037940734F484E080931C06109275
:10297000210526C0213071F080911606909117062E
:1029800051E08139950724F081E080931C0616C040
:102990002B30B1F0809116069091170621E0803916
:1029A000920774F480911606909117063EEF8137D6
:1029B000930734F082E080931C068BE0809321051E
:1029C0001092EB051092EA05C091C605D091C7059B
:1029D000C233D1054CF40E9404120E9403140E94D9
:1029E000F81A0E94341B6BC38091A207882329F434
:1029F0000E9403140E94761362C310921E06109266
:102A00001D062091CC05822F90E0FC01EE0FFF1FE8
:102A100013E0880F991F1A95E1F7E80FF91FEC5F93
:102A2000F94F80819181E090DD06FF24E89EB0019E
:102A3000E99E700DF89E700D1124882777FD809512
:102A4000982F0E94C2392DEC3CEC4CE45DE30E94CF
:102A5000763A0E948F397093C1056093C00520912A
:102A6000CC05822F90E0FC01EE0FFF1FA3E0880F42
:102A7000991FAA95E1F7E80FF91FEC5FF94F8281E2
:102A80009381E89EB001E99E700DF89E700D1124AF
:102A9000882777FD8095982F0E94C2392DEC3CEC59
:102AA0004CE45DE30E94763A0E948F397093C3052F
:102AB0006093C2052091CC05822F90E0FC01EE0FBF
:102AC000FF1F63E0880F991F6A95E1F7E80FF91F70
:102AD000EC5FF94F84819581E89EB001E99E700D0D
:102AE000F89E700D1124882777FD8095982F0E94FD
:102AF000C2392DEC3CEC4CE45DE30E94763A0E9436
:102B00008F397093C5056093C4058091D8068130D4
:102B100071F44091D9068091370690913806209142
:102B2000B8053091B905413009F057C034C0609103
:102B3000370670913806CB018C0F9D1F90939D0531
:102B400080939C05882777FD8095982F0E94C23935
:102B500020E030E040E05FE30E94763A0E948F3947
:102B60009B0170933806609337064091B8055091E9
:102B7000B905CE01821B930B841B950B909399058D
:102B800080939805C40FD51FC21BD30BD0939B0510
:102B9000C0939A053DC0B9016C0F7D1FAE01421B69
:102BA000530B481B590B5093990540939805AB0163
:102BB000481B590B50939B0540939A05680F791F4A
:102BC00070939D0560939C05C80FD91FC21BD30B42
:102BD000D0939F05C0939E051BC0A9014C0F5D1F9C
:102BE00050939B0540939A05AE01421B530B5093A3
:102BF0009F0540939E059E01281B390B3093990534
:102C000020939805C80FD91FD0939D05C0939C05AC
:102C100080911C06813009F02EC19091D8068091D8
:102C2000DA06913009F0A3C06091C0057091C1052A
:102C3000E090C205F090C30580909E0590909F059E
:102C4000A0909A05B0909B05C0909C05D0909D05E2
:102C50000091980510919905813009F049C08827A5
:102C600077FD8095982F0E94C2392EEA37E441E221
:102C70005FE30E94763A0E948F39EB017093C105A1
:102C80006093C005B701882777FD8095982F0E9433
:102C9000C2392EEA37E441E25FE30E94763A0E94AD
:102CA0008F399B017093C3056093C2058C0E9D1EE6
:102CB000CC1ADD0ACE01820F931F800F911F9093D3
:102CC000990580939805A20EB31EAC1ABD0AB09266
:102CD0009B05A0929A05C21AD30AD0929D05C09274
:102CE0009C05821A930A90929F0580929E052EC1A0
:102CF000882777FD8095982F0E94C23926E636E610
:102D000046E65FE30E94763A0E948F39EB017093AA
:102D1000C1056093C005B701882777FD8095982F7E
:102D20000E94C23926E636E646E65FE30E94763A1E
:102D30000E948F397093C3056093C205060F171F59
:102D40001093990500939805C61AD70AD0929D054D
:102D5000C0929C05AC1ABD0AB0929B05A0929A0540
:102D6000C80DD91DD0939F05C0939E05EFC081303B
:102D700011F001E001C00FEFC091C205D091C30571
:102D800060919C0570919D05882777FD8095982F0F
:102D90000E94C2394B015C01602F772767FD709557
:102DA000872F972F0E94C2396B017C01BE018827B3
:102DB00077FD8095982F0E94C2392DEC3CEC4CE8B1
:102DC0005FE30E94763A9B01AC01C701B6010E9405
:102DD000763A9B01AC01C501B4010E94BE380E9445
:102DE0008F3970939D0560939C05E02EFF24E7FCCE
:102DF000F094EC9EB001ED9E700DFC9E700D1124C0
:102E0000882777FD8095982F0E94C23920E030E016
:102E100040E05FE30E94763A0E948F39FB01709395
:102E2000C3056093C2052091980530919905809162
:102E30009A0590919B056091C0057091C105E69E31
:102E4000A001E79E500DF69E500D11245093C10530
:102E50004093C005240F351F2E0F3F1F3093990557
:102E600020939805841B950B8E0F9F1F90939B05B5
:102E700080939A056BC00E9495207B018C01609124
:102E8000980570919905882777FD8095982F0E9465
:102E9000C239A80197010E94BF380E948F397093F0
:102EA00099056093980560919A0570919B05882714
:102EB00077FD8095982F0E94C239A80197010E9442
:102EC000BF380E948F3970939B0560939A0580915B
:102ED000D806C0909C05D0909D05813031F5B60193
:102EE000882777FD8095982F0E94C239A801970105
:102EF0000E94BF380E948F3970939D0560939C0596
:102F000060919E0570919F05882777FD8095982F89
:102F10000E94C239A80197010E94BF380E948F39D0
:102F200070939F0560939E0511C0B601882777FDB9
:102F30008095982F0E94C239A80197010E94BF383E
:102F40000E948F3970939D0560939C050091D8066F
:102F50008091CF069091D006013049F520919805D7
:102F600030919905281B390B3093990520939805CA
:102F700020919C0530919D05281B390B30939D05B0
:102F800020939C0520919A0530919B05280F391FAD
:102F900030939B0520939A0520919E0530919F05C3
:102FA000280F391F30939F0520939E053AC020912A
:102FB0008807C22FDD27C7FDD095C89FB001C99FE4
:102FC000700DD89F700D11246A5D7D4F882777FDA5
:102FD0008095982F0E94C2396B017C018091C405B5
:102FE0009091C505C89FB001C99F700DD89F700D05
:102FF0001124882777FD8095982F0E94C2392DECE7
:103000003CEC4CE45EE30E94763A9B01AC01C701C4
:10301000B6010E94BE380E948F3970939F0560935D
:103020009E0580919805909199058436910534F418
:1030300084E690E0909399058093980580919A0595
:1030400090919B058436910534F484E690E090934A
:103050009B0580939A0580919C0590919D058436EF
:10306000910534F484E690E090939D0580939C054F
:10307000013069F480919E0590919F0584369105F9
:1030800034F484E690E090939F0580939E058091B0
:10309000D3068F3FA1F484E091E061E00E945C10D0
:1030A0008DE396E06CE00E945C1088E995E068E0B2
:1030B0000E945C1086E091E061E00E945C108091CB
:1030C000D507807F79F00E9403148091A207813098
:1030D00049F40E9403250E94110F8091C50681606A
:1030E0008093C5060E94032580915706813021F404
:1030F0001092E9051092E805DF91CF911F910F9191
:10310000FF90EF90DF90CF90BF90AF909F908F9007
:1031100008951092E7050E94891110924F051092B0
:10312000C50681E080931C06809321058DE396E01F
:103130009093B2078093B1071092A3070E94F011F9
:103140008091D706813011F40E94EA110E94B338B1
:103150000E942114FDCF6F927F928F929F92AF9227
:10316000BF92CF92DF92EF92FF920F931F93DF9364
:10317000CF93CDB7DEB72E970FB6F894DEBF0FBE54
:10318000CDBFC982DA82EB82FC820D831E832F833E
:10319000388749875A876B877C878D879E87EF8C16
:1031A000F8A009A11AA16D807E80C801B7010E9414
:1031B000573B9C01B901882777FD8095982F0E9485
:1031C000C23920E030E040E85FE30E94723A18160E
:1031D000CCF469817A81882777FD8095982F0E94A9
:1031E000C2399B01AC01C801B7010E94763A20E0C8
:1031F00030E040E251E40E942739F5016083718399
:1032000082839383C801B701F501248535854685FE
:1032100057850E94BE380E948F396B01C801B701E3
:1032200020E030E040E850E40E94723A1816BCF406
:10323000B301882777FD8095982F0E94C23920E03E
:1032400030E048EC52E40E9427399B01AC01F501C3
:1032500064817581868197810E94BF3832C0C80120
:10326000B70120E030E040E850EC0E94233987FFAE
:1032700015C0B301882777FD8095982F0E94C23929
:1032800020E030E048EC52E40E9427399B01AC0179
:10329000F501648175818681978111C0F501648093
:1032A000758086809780C401B3012AE037ED43E240
:1032B0005CE30E94763A9B01AC01C401B3010E9419
:1032C000BE38F5016483758386839783B6018827AA
:1032D00077FD8095982F0E94C2393B014C0169858A
:1032E0007A85882777FD8095982F0E94C2399B01A7
:1032F000AC01C401B3010E94763A20E030E040EA1C
:1033000051E40E942739F50160877187828793878E
:10331000E486F58606871787E480F58006811781A5
:103320006F817885882777FD8095982F0E94C23914
:103330009B01AC01C801B7010E948B22F501648397
:10334000758386839783E080F180028113816B818E
:103350007C81882777FD8095982F0E94C2399B0138
:10336000AC01C801B7010E948B22F5016083718313
:1033700082839383E084F184028513856B857C8549
:10338000882777FD8095982F0E94C2399B01AC0158
:10339000C801B7010E948B227B018C01F501608777
:1033A0007187828793876081718182819381248173
:1033B0003581468157810E94BF38A80197010E943C
:1033C000BF382E960FB6F894DEBF0FBECDBFCF919B
:1033D000DF911F910F91FF90EF90DF90CF90BF9002
:1033E000AF909F908F907F906F900895AF92BF9213
:1033F000CF92DF92EF92FF920F931F93DF93CF93C1
:10340000CDB7DEB72E970FB6F894DEBF0FBECDBF97
:10341000C982DA82EB82FC820D831E832F83388778
:1034200049875A876B877C878D879E87EB8CFC8CBE
:103430000D8D1E8D69817A81882777FD8095982F63
:103440000E94C2399B01AC01C801B7010E94763AC3
:1034500020E030E040EA51E40E942739F501608322
:10346000718382839383C801B7012485358546859E
:1034700057850E94BE380E948F396B01C801B70181
:1034800020E030E040E85FE30E94723A181654F002
:10349000C801B70120E030E040E85FEB0E9423392B
:1034A00087FF22C06D817E81882777FD8095982FC8
:1034B0000E94C2399B01AC01C801B7010E94763A53
:1034C00020E030E048E453E40E9427399B01AC013E
:1034D000F50164817581868197810E94BF38F5016D
:1034E000648375838683978389859A85C89EB00196
:1034F000C99E700DD89E700D1124882777FD809588
:10350000982F0E94C23920E030E040EA51E40E9446
:103510002739F5016087718782879387E486F5866E
:1035200006871787E480F580068117816F8178858B
:10353000882777FD8095982F0E94C2399B01AC01A6
:10354000C801B7010E948B22F501648375838683CD
:103550009783E080F180028113816B817C818827D1
:1035600077FD8095982F0E94C2399B01AC01C8015C
:10357000B7010E948B22F50160837183828393835C
:10358000E084F184028513856B857C85882777FD2F
:103590008095982F0E94C2399B01AC01C801B701E8
:1035A0000E948B227B018C01F501608771878287E5
:1035B00093876081718182819381248135814681E5
:1035C00057810E94BF38A80197010E94BF382E96EC
:1035D0000FB6F894DEBF0FBECDBFCF91DF911F9124
:1035E0000F91FF90EF90DF90CF90BF90AF90089534
:1035F00080E090E0DC018093680690936906A093D8
:103600006A06B0936B068093800690938106A09320
:103610008206B09383068093980690939906A093B0
:103620009A06B0939B068093540590935505A093FA
:103630005605B093570580936C0590936D05A09344
:103640006E05B0936F058093840590938505A093D4
:103650008605B093870580938E0790938F07A0937C
:103660009007B0939107089580E090E0DC0180938B
:10367000180690931906A0931A06B0931B06809320
:10368000CA069093CB06A093CC06B093CD060895BE
:103690002F923F924F925F926F927F928F929F9262
:1036A000AF92BF92CF92DF92EF92FF920F931F9350
:1036B000DF93CF9300D000D000D0CDB7DEB76091BC
:1036C000310770913207882777FD8095982F0E94E7
:1036D000C23920E030E04AE754E40E942739B62E90
:1036E000C72ED82EE92E209047063090480620910C
:1036F000390630913A0640913B0650913C060E94B3
:10370000763A3B014C0160E070E080E89FE32B2DAE
:103710003C2D4D2D5E2D0E94BE387B018C01B101E8
:10372000882777FD8095982F0E94C2399B01AC01B4
:10373000C801B7010E94763A9B01AC01C401B301F4
:103740000E94BF386093390670933A0680933B0617
:1037500090933C066091070770910807882777FDD2
:103760008095982F0E94C23920E030E04AE754E467
:103770000E942739B62EC72ED82EE92E209041065A
:103780003090420620911F0630912006409121067C
:10379000509122060E94763A3B014C0160E070E0B5
:1037A00080E89FE32B2D3C2D4D2D5E2D0E94BE38D1
:1037B0007B018C01B101882777FD8095982F0E94AD
:1037C000C2399B01AC01C801B7010E94763A9B0146
:1037D000AC01C401B3010E94BF3860931F0670930F
:1037E000200680932106909322066091EB0670914B
:1037F000EC06882777FD8095982F0E94C23920E03B
:1038000030E04AE754E40E942739B62EC72ED82E5E
:10381000E92E20903F06309040062091E20530913D
:10382000E3054091E4055091E5050E94763A3B019D
:103830004C0160E070E080E89FE32B2D3C2D4D2D86
:103840005E2D0E94BE387B018C01B101882777FD77
:103850008095982F0E94C2399B01AC01C801B70125
:103860000E94763A9B01AC01C401B3010E94BF38AB
:10387000A62E972E882E792E862F992DA82DB72D1E
:103880008093E2059093E305A093E405B093E505EA
:103890006091F9067091FA06882777FD8095982F38
:1038A0000E94C23920E030E04AE754E40E94273900
:1038B000B62EC72ED82EE92E20913D0630913E0619
:1038C0003E832D832091600630916106409162060F
:1038D000509163060E94763A1B012C0160E070E073
:1038E00080E89FE32B2D3C2D4D2D5E2D0E94BE3890
:1038F0007B018C01ED81FE81BF01882777FD8095DA
:10390000982F0E94C2399B01AC01C801B7010E94E7
:10391000763A9B01AC01C201B1010E94BF386093AD
:10392000600670936106809362069093630600D0F0
:1039300000D08A2D992DA82DB72DEDB7FEB7818324
:103940009283A383B483C090DF06D090E006E0901A
:10395000E106F090E2060091E3061091E406209162
:10396000E5063091E6064091E7065091E806609141
:10397000E9067091EA068091EB069091EC06E4E688
:10398000AE2EE6E0BE2E0E94F6190E948F3970938B
:103990003806609337068091600690916106A09189
:1039A0006206B0916306EDB7FEB781839283A3836D
:1039B000B483C090ED06D090EE06E090EF06F09054
:1039C000F0060091F1061091F2062091F306309175
:1039D000F4064091F5065091F6066091F706709155
:1039E000F8068091F9069091FA06BCE7AB2EB6E096
:1039F000BB2E0E94F6190E948F397093B90560930F
:103A0000B805EDB6FEB60894E11CF11C6091C40542
:103A10007091C505882777FD8095982F0E94C2393F
:103A200020E030E040E05FE30E94763A9B01AC0189
:103A300060911F06709120068091210690912206C8
:103A40000E94BE38F7016083718382839383C090A4
:103A5000FB06D090FC06E090FD06F090FE0600917B
:103A6000FF06109100072091010730910207409155
:103A70000307509104076091050770910607809134
:103A8000070790910807A4E9AA2EA6E0BA2E0E9483
:103A9000F6190E948F397093D0066093CF0660911B
:103AA000430670914406709561957F4F809142075F
:103AB000992787FD9095681B790B882777FD80955E
:103AC000982F0E94C239A62E972E882E792E6091AB
:103AD000450670914606709561957F4F809143072A
:103AE000992787FD9095681B790B882777FD80952E
:103AF000982F0E94C23969837A838B839C8380913B
:103B0000410690914206E0901806F0901906009147
:103B10001A0610911B0660913F0670914006882797
:103B200077FD8095982F0E94C2392BE13FE24DED41
:103B30005CE30E94763A9B01AC01C801B7010E9488
:103B4000BF389B01AC0120931806309319064093AF
:103B50001A0650931B06E090CA06F090CB0600911F
:103B6000CC061091CD0660913D0670913E068827E7
:103B700077FD8095982F0E94C2392BE13FE24DEDF1
:103B80005CE30E94763A9B01AC01C801B7010E9438
:103B9000BF389B01AC012093CA063093CB064093FB
:103BA000CC065093CD06E0901507F09016070F90C5
:103BB0000F900F900F906A2D792D882D972D20E072
:103BC00030E040E252E40E94233987FF49C06A2D69
:103BD000792D882D972D20E030E040E252EC0E94B4
:103BE000723A1816ECF5B701882777FD8095982F63
:103BF0000E94C23920E030E04AE754E40E942739AD
:103C00006B01E82EB92E20911806309119064091CB
:103C10001A0650911B067D2D0E94763A1B012C013D
:103C200060E070E080E89FE32C2D3D2D4E2D5B2D54
:103C30000E94BE382A2D392D482D572D0E94763AE4
:103C40009B01AC01C201B1010E94BF389B01AC01D4
:103C5000209318063093190640931A0650931B06BA
:103C6000E0902307F090240759814A813B812C8101
:103C7000652F742F832F922F20E030E040E252E432
:103C80000E94233987FF52C059814A813B812C8190
:103C9000652F742F832F922F20E030E040E252EC0A
:103CA0000E94723A18160CF041C0B701882777FDC0
:103CB0008095982F0E94C23920E030E04AE754E412
:103CC0000E9427396B01E82EB92E2091CA06309147
:103CD000CB064091CC065091CD067D2D0E94763AC0
:103CE0003B014C0160E070E080E89FE32C2D3D2D0E
:103CF0004E2D5B2D0E94BE38B981AA81EB80DC80FD
:103D00002B2F3A2F4E2D5D2D0E94763A9B01AC0150
:103D1000C401B3010E94BF389B01AC012093CA06C5
:103D20003093CB064093CC065093CD06E090180616
:103D3000F090190600911A0610911B06E0920006F9
:103D4000F092010600930206109303062090CA0623
:103D50003090CB064090CC065090CD0620924A057C
:103D600030924B0540924C0550924D058091D906FA
:103D7000882309F08EC09091DA06913009F089C04D
:103D80008091D806C090C005D090C1052091C20591
:103D90003091C3053E832D83813009F049C0B601BF
:103DA000882777FD8095982F0E94C23920E030E067
:103DB00040E05FE30E94763AA62E972E882E792E59
:103DC000ED81FE81BF01882777FD8095982F0E94A5
:103DD000C23920E030E040E05FE30E94763AD62E20
:103DE000C72EB82E692EC801B7012A2D392D482DAE
:103DF000572D0E94BE38D6012B2F3A2F4B2D562D12
:103E00000E94BE38609300067093010680930206FC
:103E100090930306C201B1012A2D392D482D572D4B
:103E20000E94BE38D6012B2F3A2F4B2D562D2EC077
:103E30002D813E81B901882777FD8095982F0E94BA
:103E4000C23920E030E040E05FE30E94763A9B0117
:103E5000AC01C801B7010E94BF386093000670939F
:103E600001068093020690930306B601882777FD2A
:103E70008095982F0E94C23920E030E040E05FE357
:103E80000E94763A9B01AC01C201B1010E94BF3889
:103E900091C09091DA06891799F56091C2057091E9
:103EA000C305882777FD8095982F0E94C23920E0AE
:103EB00030E040E05FE30E94763A9B01AC01C8012C
:103EC000B7010E94BE38609300067093010680938C
:103ED0000206909303066091C0057091C105882782
:103EE00077FD8095982F0E94C23920E030E040E0B5
:103EF0005FE30E94763A9B01AC01C201B10158C058
:103F0000813009F05FC0992309F05CC06091C00561
:103F10007091C105882777FD8095982F0E94C2393E
:103F200020E030E040E05FE30E94763AD62EC72ED4
:103F3000B82EA92E6091C2057091C305882777FD20
:103F40008095982F0E94C23920E030E040E05FE386
:103F50000E94763A962E872E782E692EC801B701D8
:103F6000D601F5012B2F3A2F4F2F5E2F0E94BF381D
:103F7000D401F3012B2F3A2F4F2F5E2F0E94BE3812
:103F800060930006709301068093020690930306E7
:103F9000C201B101D601F5012B2F3A2F4F2F5E2F11
:103FA0000E94BE38D401F3012B2F3A2F4F2F5E2FE2
:103FB0000E94BE3860934A0570934B0580934C0570
:103FC00090934D0580911C0680FD96C06091370648
:103FD00070913806882777FD8095982F0E94C23906
:103FE0003B014C0100D000D0809100069091010669
:103FF000A0910206B0910306EDB7FEB781839283CC
:10400000A383B483C0900907D0900A07E0900B0700
:10401000F0900C0700910D0710910E0720910F07EB
:1040200030911007409111075091120760911307CA
:10403000709114078091150790911607F0E5AF2E47
:10404000F5E0BF2E0E94AB189B01AC01C401B30187
:104050000E94BF380E948F397093380660933706EC
:104060006091B8057091B905882777FD8095982FE4
:104070000E94C2393B014C0180914A0590914B0549
:10408000A0914C05B0914D05EDB7FEB781839283A9
:10409000A383B483C0901707D0901807E090190746
:1040A000F0901A0700911B0710911C0720911D0723
:1040B00030911E0740911F07509120076091210702
:1040C000709122078091230790912407E8E6AE2E95
:1040D000E5E0BE2E0E94AB189B01AC01C401B30108
:1040E0000E94BF380E948F397093B9056093B8055C
:1040F0000F900F900F900F9026960FB6F894DEBF9A
:104100000FBECDBFCF91DF911F910F91FF90EF9028
:10411000DF90CF90BF90AF909F908F907F906F90E7
:104120005F904F903F902F900895AF92BF92CF92A3
:10413000DF92EF92FF920F931F9300D000D08091F7
:10414000390690913A06A0913B06B0913C06B058D2
:10415000EDB7FEB781839283A383B483C090250714
:10416000D0902607E0902707F090280700912907B4
:1041700010912A0720912B0730912C0740912D0791
:1041800050912E0760912F07709130078091310771
:1041900090913207A0E8AA2EA5E0BA2E0E94F61947
:1041A000609358067093590680935A0690935B0665
:1041B0000F900F900F900F908091D3068F3F09F0D2
:1041C000F4C08091DE0680FFF0C080911C06843030
:1041D00009F0EBC0489AF8946091D2057091D3052C
:1041E00080E090E00E94C0397B018C0178947F2DA3
:1041F000912F20E030E849E054E40E94233987FF02
:10420000B4C080912705882329F5809125059091D8
:1042100026058330910534F401969093260580930A
:104220002505C9C06E2D7F2D802F912F0E949439B6
:104230007093C9066093C80680E090E0DC0180932B
:104240008E0790938F07A0939007B093910781E01A
:10425000809327056091C8067091C90680E090E0C0
:104260000E94C0392E2D3F2D402F512F0E94BE3865
:10427000F62E072F182FE92E862F902FA12FBE2D57
:104280008093AC069093AD06A093AE06B093AF06B4
:104290006F2D702F812F9E2D20E030E048E452E4F6
:1042A0000E94233987FF5CC06F2D702F812F9E2DB8
:1042B00020E030E048E452EC0E94723A18160CF00C
:1042C0004FC01092220500D000D08F2D902FA12F2B
:1042D000BE2DEDB7FEB781839283A383B483C090D4
:1042E0003307D0903407E0903507F09036070091FF
:1042F0003707109138072091390730913A074091DC
:104300003B0750913C0760913D0770913E078091BB
:104310003F0790914007FAE8AF2EF7E0BF2E0E94CA
:10432000F6190E948F397B018C01709326056093EA
:1043300025050F900F900F900F906091AC06709133
:10434000AD068091AE069091AF0620E030E0A90165
:104350000E942339882321F4F0922405E09223055A
:10436000609125057091260504C060912305709128
:104370002405882777FD8095982F0E94C2399B01DC
:10438000AC01609158067091590680915A0690913F
:104390005B060E94BF38609358067093590680935D
:1043A0005A0690935B06489806C010922605109214
:1043B0002505109227057091580660915906909135
:1043C0005A0680915B06AB019C01652F742F832FE9
:1043D000922F1F910F91FF90EF90DF90CF90BF90A1
:1043E000AF9008956F927F928F929F92AF92BF92FB
:1043F000CF92DF92EF92FF920F931F93CF93DF93B1
:10440000EC016B01BC0197FF04C066277727681B8E
:10441000790B882777FD8095982F0E94C2392FEF5E
:1044200036EE4BED5EE20E94BF38162F072FF82EB6
:10443000E92EB601882777FD8095982FD7FC2BC0F1
:104440000E94C2395B016C01D801F7012B2F3A2F72
:104450004F2F5E2F0E94BE383B014C01C601B501B3
:10446000D801F7012B2F3A2F4F2F5E2F0E94BF3814
:104470009B01AC01C401B3010E94273920E030E068
:1044800040E053E40E94763A9B01AC0160E070E0AA
:1044900080E093E42AC00E94C2395B016C01D8011C
:1044A000F7012B2F3A2F4F2F5E2F0E94BF383B0171
:1044B0004C01A8019701652F742F832F922FA6011D
:1044C00095010E94BE389B01AC01C401B3010E945A
:1044D000273920E030E040E053E40E94763A9B0127
:1044E000AC0160E070E080EC93E40E94BE38D7FD40
:1044F00090580E948F39CB01DF91CF911F910F917E
:10450000FF90EF90DF90CF90BF90AF909F908F90F3
:104510007F906F900895AF92BF92CF92DF92EF920B
:10452000FF920F931F93D62EC72EB82EA92E790176
:104530008A01A6019501652F742F832F922FA80160
:1045400097010E94723A1816B4F017FB109517F9EC
:104550001095A6019501652F742F832F922FA80126
:1045600097010E94233987FD06C09601C501E32EFD
:10457000F22E092F182F6E2D7F2D802F912F1F9136
:104580000F91FF90EF90DF90CF90BF90AF90089584
:10459000681779073CF0709561957F4F6817790728
:1045A0000CF4BC01CB01089580E090E008956F9277
:1045B0007F928F929F92AF92BF92CF92DF92EF92B3
:1045C000FF920F931F93FC0120813181428153811F
:1045D000E480F58006811781A084B184C284D384ED
:1045E000CA01B9010E94763A3B014C01C801B701EA
:1045F000A80197010E94763A9B01AC01C401B30166
:104600000E94BF387B018C01C601B501A60195014E
:104610000E94763A9B01AC01C801B7010E94BF38E5
:10462000262F372F482F592F20932C0530932D05F7
:1046300040932E0550932F050E94DD3A1F910F9154
:10464000FF90EF90DF90CF90BF90AF909F908F90B2
:104650007F906F900895EF92FF920F931F93CF93E7
:10466000DF93EC010E94D7227B018C016093280527
:104670007093290580932A0590932B056881798191
:104680008A819B81A80197010E94273968837983D9
:104690008A839B836C817D818E819F81A801970194
:1046A0000E9427396C837D838E839F8368857985FB
:1046B0008A859B85A80197010E9427396887798799
:1046C0008A879B87DF91CF911F910F91FF90EF9089
:1046D0000895CF92DF92EF92FF920F931F93CF93A3
:1046E000DF93EC018B01688179818A819B81F801DC
:1046F00020813181428153810E94763A6B017C0195
:104700006C817D818E819F81F80124813581468174
:1047100057810E94763A9B01AC01C701B6010E9405
:10472000BF386B017C01688579858A859B85F80196
:1047300020853185428553850E94763A9B01AC01E4
:10474000C701B6010E94BF38DF91CF911F910F9131
:10475000FF90EF90DF90CF900895AF92BF92CF92ED
:10476000DF92EF92FF920F931F93CF93DF93EC01B1
:104770008B017A016C817D818E819F81F80120857A
:104780003185428553850E94763A5B016C016885CC
:1047900079858A859B85F8012481358146815781F9
:1047A0000E94763A9B01AC01C601B5010E94BE3859
:1047B000F7016083718382839383688579858A8515
:1047C0009B85F80120813181428153810E94763A94
:1047D0005B016C01688179818A819B81F801208568
:1047E0003185428553850E94763A9B01AC01C60112
:1047F000B5010E94BE38F701648375838683978371
:10480000688179818A819B81F80124813581468183
:1048100057810E94763A5B016C016C817D818E81AB
:104820009F81F80120813181428153810E94763A33
:104830009B01AC01C601B5010E94BE38F70160873B
:10484000718782879387DF91CF911F910F91FF909E
:10485000EF90DF90CF90BF90AF900895CF92DF920E
:10486000EF92FF920F931F93CF93DF937B018C0105
:10487000EA016901288139814A815B810E94763A87
:10488000F6016083718382839383C801B7012C8111
:104890003D814E815F810E94763AF6016483758383
:1048A00086839783C801B701288539854A855B854A
:1048B0000E94763AF6016087718782879387DF913D
:1048C000CF911F910F91FF90EF90DF90CF900895BF
:1048D000EF92FF920F931F93CF93DF93EC018B0125
:1048E0007A01688179818A819B81F80120813181F7
:1048F000428153810E94BF38F701608371838283B4
:1049000093836C817D818E819F81F8012481358123
:10491000468157810E94BF38F7016483758386837F
:104920009783688579858A859B85F80120853185FF
:10493000428553850E94BF38F7016087718782875F
:104940009387DF91CF911F910F91FF90EF90089582
:10495000EF92FF920F931F93DC01FB0120E030E008
:1049600040E85FE3208331834283538318966D913F
:104970007D918D919C911B9790586483758386835C
:10498000978314966D917D918D919C911797608777
:1049900071878287938718966D917D918D919C91F7
:1049A0001B976487758786879787208B318B428B0F
:1049B000538B6D917D918D919C9113979058648B41
:1049C000758B868B978B1496ED90FD900D911C91B5
:1049D000179717FB109517F91095E08EF18E028F3F
:1049E000138F8D919D910D90BC91A02D848F958FEB
:1049F000A68FB78F20A331A342A353A31F910F917A
:104A0000FF90EF900895F8948091BD059091BE05B8
:104A10009093EC078093EB0778942091EB0730910B
:104A2000EC078091DE079091DF072817390738F0EF
:104A3000281B390B3093D9072093D80708C08095DD
:104A40009095820F931F9093D9078093D807409138
:104A5000D8075091D90789E991E0489F9001499F73
:104A6000300D589F300D112480EA9FE0821B930B7C
:104A70000DC01092B200853691053CF02091B20035
:104A80002832E0F38055904001C001979093E407ED
:104A90008093E3078091E3079091E40718161906C5
:104AA00044F3809130058F5F8093300580919805A5
:104AB0009091990597FF05C01092E6071092E507BF
:104AC0000AC024E08F37920714F08EE794E09093A9
:104AD000E6078093E50780919A0590919B0597FFE3
:104AE00005C01092DD071092DC070AC024E08F3762
:104AF000920714F08EE794E09093DD078093DC0733
:104B000080919C0590919D0597FF05C01092EA0742
:104B10001092E9070AC024E08F37920714F08EE75D
:104B200094E09093EA078093E90780919E05909125
:104B30009F0597FF05C01092DB071092DA070AC0A5
:104B400024E08F37920714F08EE794E09093DB0710
:104B50008093DA07469A449A429A8091D806813027
:104B600011F4439A09C0823039F4809130058530C0
:104B700019F4439A109230058091DC0690E0805E33
:104B80009C4F0DC01092B200853691053CF02091EB
:104B9000B2002D32E0F38055904001C00197909310
:104BA000E4078093E3078091E3079091E4071816E8
:104BB000190644F31092E2071092E10739C02091E0
:104BC000E1073091E2078091E5079091E607281709
:104BD000390708F046982091E1073091E20780916B
:104BE000DC079091DD072817390708F044982091D9
:104BF000E1073091E2078091E9079091EA072817D1
:104C0000390708F042982091E1073091E20780913E
:104C1000DA079091DB072817390708F0439880914D
:104C2000E1079091E20704969093E2078093E107F1
:104C30008091E1079091E20724E08238920708F41E
:104C4000BECFF8948091BD059091BE059093DF078B
:104C50008093DE0778940895209184003091850038
:104C600090E0880F991FFC01E450F84F408151817A
:104C7000DC01A253BA4F4217530748F42091840035
:104C80003091850080819181281B390B0AC02081D9
:104C90003181809184009091850020953095280F76
:104CA000391F11963C932E930895209184003091E2
:104CB000850090E00596880F991FFC01E450F84F9D
:104CC00040815181DC01A253BA4F4217530740F48F
:104CD00080819181281B390B11963C932E93089566
:104CE0004081518140955095420F531F11965C931E
:104CF0004E93089520988091D3068823F1F4109262
:104D0000CC05529850985398229885E18093690079
:104D100087E08DBB8CBB809168008A6080936800BF
:104D200080916C00816080936C0080917300816041
:104D3000809373008BB38A608BBB81E08093CC053A
:104D40003D9838983F9839988091680086608093A4
:104D5000680080916C00816080936C0080916D0090
:104D6000836A80936D008BB386608BBB8091D5077F
:104D700081608093D5078091D50780618093D507A6
:104D8000F89480915E0690915F069093F40780936B
:104D9000F30780915E0690915F069093F6078093EB
:104DA000F50778948091F1079091F2079093F207BC
:104DB0008093F1078091ED079091EE079093EE07B5
:104DC0008093ED070895F89490E0FC01EE0FFF1F2B
:104DD000EE0FFF1FE80FF91FE60FF11DEE0FFF1F8B
:104DE000E253FA4F208131817894C9010895F894F3
:104DF00090E070E09C01220F331F220F331F280F19
:104E0000391FA901460F571F440F551FFA01E253DE
:104E1000FA4F8081918178944C5B584FFA01408120
:104E20005181841B950B260F371F2258384FF901EB
:104E30006081772767FD70950E94443BCB01089500
:104E4000F894882311F540915E0650915F066091B9
:104E5000F3077091F407461B570B4531510520F0BD
:104E60008091D507816034C040915E0650915F0605
:104E70006091F5077091F607461B570B45315105B8
:104E800068F18091D507826023C0813039F5409167
:104E90005E0650915F066091F1077091F207461B24
:104EA000570B4531510520F08091D507806110C026
:104EB00040915E0650915F066091ED077091EE079C
:104EC000461B570B4531510548F08091D50780624C
:104ED0008093D507789420E030E041C0282F30E05F
:104EE000C901880F991FA901B3E0440F551FBA9556
:104EF000E1F7840F951FFC01E253FA4F4681578179
:104F00005093F8074093F70778944091F707509132
:104F1000F807825A984FFC0180819181481B590BF8
:104F20005093F8074093F7078091F7079091F8079F
:104F3000F901EE0FFF1FEE0FFF1FE20FF31FEF57F8
:104F4000F84F6081772767FD70950E94443B70930E
:104F5000F8076093F7072091F7073091F807C90128
:104F60000895CF92DF92EF92FF920F931F93CF930A
:104F7000DF93C0E0D0E02DC00330110539F48C2F51
:104F80000E942027F701918380831AC08C2F602F05
:104F90000E94F726F601E00FF11FEE0FFF1FEC5FF6
:104FA000F94F91838083808191818F30910544F402
:104FB000808191813FEF823F930714F0118210822C
:104FC0000F5F1F4F05301105B9F62196C230D1058C
:104FD000C9F000E010E06E01CC0CDD1CCC0CDD1C37
:104FE000CC0EDD1E7E01EE0CFF1CCE0153E0880FBF
:104FF000991F5A95E1F7E80EF91E8AE096E0E80E4F
:10500000F91EBACFDF91CF911F910F91FF90EF90D2
:10501000DF90CF90089563E276E0282F30E0F90129
:10502000EE0FFF1F93E0220F331F9A95E1F7E20F77
:10503000F31FE60FF71F1182108240EB56E0282F76
:1050400030E0F901EE0FFF1FA3E0220F331FAA95F6
:10505000E1F7E20FF31FE40FF51F2EEF3FEF31836F
:105060002083A82FB0E0FD01EE0FFF1F93E0AA0FF1
:10507000BB1F9A95E1F7EA0FFB1FE60FF71F13829C
:105080001282A82FB0E0FD01EE0FFF1F93E0AA0FE0
:10509000BB1F9A95E1F7EA0FFB1FE40FF51F33835F
:1050A0002283A82FB0E0FD01EE0FFF1F93E0AA0FAF
:1050B000BB1F9A95E1F7EA0FFB1FE60FF71F15825A
:1050C0001482A82FB0E0FD01EE0FFF1F93E0AA0F9E
:1050D000BB1F9A95E1F7EA0FFB1FE40FF51F35831D
:1050E0002483A82FB0E0FD01EE0FFF1F93E0AA0F6D
:1050F000BB1F9A95E1F7EA0FFB1FE60FF71F178218
:105100001682A82FB0E0FD01EE0FFF1F93E0AA0F5B
:10511000BB1F9A95E1F7EA0FFB1FE40FF51F3783DA
:105120002683A82FB0E0FD01EE0FFF1F93E0AA0F2A
:10513000BB1F9A95E1F7EA0FFB1FE60FF71F1186D9
:105140001086682F70E0FB01EE0FFF1FB3E0660FC3
:10515000771FBA95E1F7E60FF71FE40FF51F3187C8
:1051600020870895DF92EF92FF920F931F93CF93C2
:10517000DF93D82E282F30E08901000F111F73E034
:10518000220F331F7A95E1F7020F131F0D5D194FA0
:10519000282F30E0E901CC0FDD1F53E0220F331F31
:1051A0005A95E1F7C20FD31FC055D94FEE24FF2403
:1051B0008D2D6E2D0E94E3269C01009781F0F80151
:1051C000808191818217930718F43183208307C06F
:1051D000888199812817390710F439832883089426
:1051E000E11CF11C0E5F1F4F2296F5E0EF16F10453
:1051F000F9F6DF91CF911F910F91FF90EF90DF9023
:10520000089515981698179811981498129808955B
:10521000EF92FF920F931F93CF93DF938B017A014D
:10522000C82FD0E00E94DE2ACC0FDD1FC056DA4F17
:10523000998388838881998160EB75E04AE050E02A
:105240000E94DE3B888199818017910750F0888108
:105250009981E816F90628F080EB95E068E071E0A6
:1052600004C080EB95E06BE071E00E94B23B80EB04
:1052700095E0DF91CF911F910F91FF90EF900895EE
:10528000EF92FF920F931F93DF93CF930F92CDB7BF
:10529000DEB725B126952695269521701092A10599
:1052A0001092A0051092A3051092A2051092A505D8
:1052B0001092A4051092A7051092A6051092A905B8
:1052C0001092A8051092AB051092AA0559E1E52E9F
:1052D000F12C0091A6051091A70585E029830E9475
:1052E000DE2A080F191F1093A7050093A605009149
:1052F000A8051091A90586E00E94DE2A080F191F53
:105300001093A9050093A8050091AA051091AB057B
:1053100087E00E94DE2A080F191F1093AB05009347
:10532000AA050091A0051091A10581E00E94DE2A46
:10533000080F191F1093A1050093A0050091A20565
:105340001091A30584E00E94DE2A080F191F109314
:10535000A3050093A2050091A4051091A50582E084
:105360000E94DE2A080F191F1093A5050093A405BB
:105370008FE097E20197F1F700C0000085B18695B4
:105380008695869580958170880F880F880F95B1D6
:10539000977F982B95B90894E108F1082981E114C9
:1053A000F10409F096CF2170220F220F220F85B150
:1053B000877F822B85B920E030E009E110E0F90118
:1053C000EE0FFF1FE056FA4F80819181B8010E94D5
:1053D000303B718360832F5F3F4F2630310579F773
:1053E0008091D20684608093D206A0E7B7E080E087
:1053F00090E0FC01EE0FFF1FE056FA4F2081318153
:105400002D933D9301968630910599F70F90CF919A
:10541000DF911F910F91FF90EF90089583E00E941C
:10542000DE2A24E630E0AC01429FC001439F900D8C
:10543000529F900D112464E771E00E94303BCB0134
:10544000089585E00E94DE2A209176073091770743
:10545000821B930B909344068093430686E00E9440
:10546000DE2A2091780730917907821B930B909365
:1054700046068093450687E00E94DE2A20917A073F
:1054800030917B07821B930B9093480680934706CD
:1054900081E00E94DE2A2091700730917107821B03
:1054A000930B90933E0680933D0680913D0690912C
:1054B0003E0697FF03C0909581959F4F82309105DE
:1054C00024F410923E0610923D0684E00E94DE2AEB
:1054D0002091720730917307821B930B90934006C3
:1054E00080933F0680913F069091400697FF03C04E
:1054F000909581959F4F8230910524F4109240063B
:1055000010923F0682E00E94DE2A209174073091BB
:105510007507821B930B90934206809341068091FE
:1055200041069091420697FF03C0909581959F4F49
:105530008230910524F410924206109241060E9496
:105540000E2A90934A0680934906089578941F92F4
:105550000F920FB60F9211242F938F939F93EF9377
:10556000FF9320913105E22FF0E080917800909137
:105570007900EE0FFF1FE05FF74F91838083822F4A
:105580008F5F87708093310580937C00EAE7F0E0BD
:10559000808180648083FF91EF919F918F912F9103
:1055A0000F900FBE0F901F9018958FEF80937E0085
:1055B00010927C008FED80937A000895F894E82F84
:1055C000F0E0EE0FFF1FE05FF74F2081318178940C
:1055D000C90108958091BC05882311F084FDFFCF97
:1055E000089590E0880F991F8B52944FFC012591EC
:1055F0003491C9010895CF93DF93EC01009731F402
:10560000C0914405D0914505209739F087E060E0CE
:105610000E94070CCE010E94040DDF91CF910895E6
:10562000CF92DF92EF92FF920F931F93CF93DF936E
:105630008091BC0580FD9BC085FF2BC080E090E081
:10564000DC018093180690931906A0931A06B09374
:105650001B068093CA069093CB06A093CC06B0930A
:10566000CD068093380590933905A0933A05B09301
:105670003B0580933C0590933D05A0933E05B09378
:105680003F058093400590934105A0934205B09358
:1056900043052091CC05822F90E0FC01EE0FFF1F07
:1056A00043E0880F991F4A95E1F7E80FF91FEC5F77
:1056B000F94F248135814091DD0650E0429FC001C1
:1056C000439F900D529F900D112464E170E00E9461
:1056D000443B8B017093C5056093C405C091CF0610
:1056E000D091D006CC0FDD1FCC0FDD1FD093D0069C
:1056F000C093CF06BE016A5D7D4F882777FD8095F8
:10570000982F0E94C2396B017C01B801882777FD70
:105710008095982F0E94C23920E030E040E05FE39E
:105720000E94763A9B01AC01C701B6010E94BE38C7
:105730000E948F3970939F0560939E0581E060E31E
:10574000AE0129E000E00E94FA0D4091C40550919D
:10575000C50582E060E329E00E94FA0D40919E05B4
:1057600050919F0584E060E329E00E94FA0DDF91EB
:10577000CF911F910F91FF90EF90DF90CF90089500
:105780000F931F93CF93DF938091BC05882369F11A
:1057900084FF19C015E088EC90E062E00E94920E50
:1057A00086E490E061E00E94900B1150A1F70E9406
:1057B00040290E94C70F85EE9CE090934505809399
:1057C00044050E94FB2AC0E7D7E010E0812F60E388
:1057D0000E94070C49915991812F60E325E000E078
:1057E0000E94FA0D1F5F163089F7DF91CF911F914C
:1057F0000F9108950F9380E060E30E94070C81E011
:1058000064EF71E046E752E00E9408290E94F00C24
:1058100081E060E30E94070C84E064EF71E046E7FA
:1058200052E00E9408290E94F00C82E060E30E948E
:10583000070C82E064EF71E046E752E00E9408291D
:105840000E94F00C83E060E30E94070C85E062ECAC
:1058500071E042E553E00E9408290E94F00C84E0C8
:1058600060E30E94070C86E062EC71E042E553E0E1
:105870000E9408290E94F00C85E060E30E94070C5A
:1058800087E062EC71E042E553E00E9408290E9443
:10589000F00C86E060E30E94070C0E940E2A9C0137
:1058A000B901882777FD8095982F0E94C2399B0106
:1058B000AC0186E060E300E00E94F10D0F910895D5
:1058C0008091BC0580FF10C089E491E00E945B0ECE
:1058D00080E060E00E94070C89E09DE00E94040DDA
:1058E00080E090E00E945B0E8091BC0584FF04C0C4
:1058F0001092D7060E94C70F83E062E10E94070C56
:1059000080919805909199056CEE75E04AE050E021
:105910000E94BD3B8CEE95E065E00E94560D83E051
:105920006EE40E94070C80919E0590919F056CEE9D
:1059300075E04AE050E00E94BD3B8CEE95E065E0EA
:105940000E94560D84E062E10E94070C80919A0546
:1059500090919B056CEE75E04AE050E00E94BD3BE3
:105960008CEE95E065E00E94560D84E06EE40E94A6
:10597000070C80919C0590919D056CEE75E04AE0C6
:1059800050E00E94BD3B8CEE95E065E00E94560D14
:105990000895813099F0813018F08230E1F415C01B
:1059A00080918907882329F48CEE95E06BEE7DE0E9
:1059B00009C08CEE95E06EED7DE004C08CEE95E0C4
:1059C00061ED7DE00E948B3B08958CEE95E06AECE2
:1059D0007DE00E948B3B0895FC018081813049F07D
:1059E000813018F0823049F407C0809189078130F6
:1059F00009F082E08083089510820895AF92BF92EB
:105A0000CF92DF92EF920F931F93DF93CF930F927A
:105A1000CDB7DEB7182F6A0159018E2D69830E9418
:105A2000120D812F69810E94070C002311F0C6011D
:105A300001C0C5010E94040D80E00E94120D0F906C
:105A4000CF91DF911F910F91EF90DF90CF90BF909A
:105A5000AF90089580913205813021F40E94C70FE4
:105A6000109232050895EF920F931F93182F2091F3
:105A7000D5078091CC0530E02F70307001E0211502
:105A8000310509F000E091E0813009F490E0812FC8
:105A900062E147E25DE029E23DE0E92E0E94FE2C52
:105AA0008091D5072091CC05807F01E009F000E0CE
:105AB00091E0222309F490E0812F6EE14BE25DE05A
:105AC00029E23DE0E92E0E94FE2C80E00E94120DAA
:105AD0001F910F91EF9008950F931F93CF93DF9332
