:100000000C94720B0C94730A0C94350A0C94E20A4B
:100010000C948F0B0C94360B0C949C090C94B10A25
:100020000C948F0B0C948F0B0C948F0B0C9418105A
:100030000C948F0B0C948F0B0C948F0B0C94011061
:100040000C948F0B0C948F0B0C9443090C948F0B16
:100050000C948F0B0C948F0B0C948F0B0C948F0BB8
:100060000C94ED270C948F0B0C948F0B0C948F0B2E
:100070000C94E9100C948F0B0C948F0BA2A0C84029
:10008000A6A42F248120AF00010204081020408084
:10009000FE00FF00000300010000009604001900AC
:1000A000640000000000FDFF14000000190064005F
:1000B00000000000FDFF1400000032005A00320072
:1000C0005A0000001400C8000A005A0014000F0073
:1000D000FEFF3200DE030A005A0014000F00FEFF8C
:1000E0003200DE030F001E000000000000000000D0
:1000F00058020F001900000000000000000000007E
:1001000000000000000000000000000000000000EF
:1001100000000000000000000000000000000000DF
:1001200000000000000000000000000000000000CF
:1001300000000000000000000000000000000000BF
:100140000000000000000001000C107A1100000007
:10015000000000000000000000000000000000009F
:10016000000000000000000000000000007C00FF14
:1001700033FF337C0000000000000000000000009E
:100180000000003C003C00000000003C003C00007F
:10019000000000000000000002101E901FF0037E0F
:1001A000021E1E901FF0037E021E001000000000C1
:1001B000007804FC0CCC0CFF3FFF3FCC0CCC0F882C
:1001C0000700000000000000303838381C380E00EE
:1001D000078003C001E038703838381C0000000088
:1001E00000001FB83FFC31C621E2373E1E1C1C0038
:1001F0003600220000000000000000000027003F41
:10020000001F0000000000000000000000000000CF
:10021000000000F003FC0FFE1F0738012001200042
:100220000000000000000000000000012001200785
:1002300038FE1FFC0FF0030000000000000000006B
:1002400000980CB80EE003F80FF80FE003B80E9812
:100250000C0000000000000000800180018001F01F
:100260000FF00F80018001800100000000000000FD
:10027000000000000000B800F80078000000000056
:10028000000000000000000000800180018001806B
:100290000180018001800180010000000000000059
:1002A00000000000000038003800380000000000A6
:1002B000000000000000000018001C000E00078075
:1002C00003C001E000700038001C000E000000F8C0
:1002D00007FE1F061E03338331C330633033301EE5
:1002E00018FE1FF8070000000000000C300C300E54
:1002F00030FF3FFF3F003000300030000000001CA6
:10030000301E38073C033E03378333C331E3307775
:10031000303E301C3000000C0C0E1C0738C330C3BC
:1003200030C330C330C330E7397E1F3C0E0000C0FD
:1003300003E003700338031C030E030703FF3FFFB2
:100340003F0003000300003F0C7F1C6338633063F1
:1003500030633063306330E338C31F830F0000C065
:100360000FF01FF839DC30CE30C730C330C330C394
:1003700039801F000F000003000300030003300357
:100380003C030FC303F3003F000F00030000000015
:100390000FBC1FFE39E730C330C330C330E730FE37
:1003A00039BC1F000F00003C007E00E730C330C3A3
:1003B00030C338C31CC30EE707FE03FC0000000077
:1003C0000000000000701C701C701C000000000089
:1003D00000000000000000000000000000709C70A1
:1003E000FC707C0000000000000000000000000025
:1003F00000C000E001F00338071C0E0E1C07380394
:10040000300000000000000000600660066006602A
:1004100006600660066006600660060000000000D8
:1004200000033007380E1C1C0E3807F003E001C033
:10043000000000000000001C001E000700030083F5
:1004400037C337E30077003E001C0000000000F8CF
:100450000FFE1F0718F333FB371B36FB37FB37073D
:1004600036FE03F80100000038003FE007FC061FDD
:10047000061F06FC06E007003F003800000000FFF2
:100480003FFF3FC330C330C330C330E730FE39BC19
:100490001F000F00000000F003FC0F0E1C073803C4
:1004A000300330033007380E1C0C0C00000000FF36
:1004B0003FFF3F033003300330033007380E1CFC8E
:1004C0000FF00300000000FF3FFF3FC330C330C305
:1004D00030C330C330C3300330033000000000FFAE
:1004E0003FFF3FC300C300C300C300C300C30003FA
:1004F00000030000000000F003FC0F0E1C0738038F
:1005000030C330C330C330C73FC63F00000000FFD8
:100510003FFF3FC000C000C000C000C000C000FFDF
:100520003FFF3F000000000000000003300330FFE9
:100530003FFF3F03300330000000000000000000D8
:100540000E001E003800300030003000300038FF50
:100550001FFF0700000000FF3FFF3FC000E001F069
:100560000338071C0E0E1C0738033000000000FF84
:100570003FFF3F00300030003000300030003000DE
:1005800030003000000000FF3FFF3F1E007800E019
:1005900001E00178001E00FF3FFF3F00000000FF68
:1005A0003FFF3F0E003800F000C0030007001CFFB3
:1005B0003FFF3F00000000F003FC0F0E1C07380354
:1005C00030033007380E1CFC0FF00300000000FF62
:1005D0003FFF3F83018301830183018301C701FE44
:1005E000007C0000000000F003FC0F0E1C07380325
:1005F000300336073E0E1CFC3FF03300000000FFC6
:100600003FFF3F8301830183038307830FC71DFEE1
:10061000387C30000000003C0C7E1CE738C330C33F
:1006200030C330C330C7398E1F0C0F0000000000EC
:1006300000030003000300FF3FFF3F03000300032C
:1006400000000000000000FF07FF1F00380030001E
:1006500030003000300038FF1FFF070000000007A7
:10066000003F00F801C00F003E003EC00FF8013F00
:1006700000070000000000FF3FFF3F001C00068055
:100680000380030006001CFF3FFF3F000000000343
:10069000300F3C1C0E3003E001E00130031C0E0F54
:1006A0003C03300000000003000F003C00F000C0DD
:1006B0003FC03FF0003C000F0003000000000003BB
:1006C00030033C033E0333C331E33033301F300F7C
:1006D0003003300000000000000000FF3FFF3F0338
:1006E0003003300330033000000000000000000E33
:1006F000001C0038007000E000C00180030007000B
:100700000E001C001800000000000003300330033E
:10071000300330FF3FFF3F0000000000000000609A
:1007200000700038001C000E0007000E001C00388E
:100730000070006000000000C000C000C000C000E9
:10074000C000C000C000C000C000C000C006088AD1
:10075000110000000000000000065F060000070313
:1007600000070300247E247E2400242B6A1200004C
:1007700063130864630036495620500000070300E5
:100780000000003E4100000000413E000000083E25
:100790001C3E080008083E08080000E06000000059
:1007A0000808080808000060600000002010080425
:1007B00002003E5149453E0000427F400000625128
:1007C000494946002249494936001814127F100051
:1007D0002F49494931003C4A494930000171090516
:1007E0000300364949493600064949291E00006C74
:1007F0006C00000000EC6C000000081422410000B6
:100800002424242424000041221408000201590950
:1008100006003E415D551E007E1111117E007F498C
:10082000494936003E41414122007F4141413E005D
:100830007F49494941007F09090901003E41494971
:100840007A007F0808087F0000417F4100003040A7
:1008500040403F007F08142241007F40404040005C
:100860007F0204027F007F0204087F003E41414175
:100870003E007F09090906003E4151215E007F09C3
:100880000919660026494949320001017F0101002A
:100890003F4040403F001F2040201F003F403C4061
:1008A0003F006314081463000708700807007149CB
:1008B00045430000007F4141000002040810200071
:1008C0000041417F0000040201020480808080809A
:1008D00080000003070000002054545478007F4437
:1008E00044443800384444442800384444447F0099
:1008F000385454540800087E0909000018A4A4A420
:100900007C007F040478000000007D4000004080EF
:10091000847D00007F102844000000007F4000001C
:100920007C04180478007C040478000038444444B3
:100930003800FC444444380038444444FC004478C3
:1009400044040800085454542000043E4424000089
:100950003C40207C00001C2040201C003C6030609B
:100960003C006C10106C00009CA0603C00006454C3
:10097000544C0000083E4141000000007700000098
:100980000041413E08000201020100003C262326EE
:100990003C4D074901080830383C3E3E3C383008A1
:1009A00008060E1E3E3E1E0E0609093800FE00FE19
:1009B00000FF01FF01FF01FE00FE003800090300F7
:1009C00000000002020207020503020702020240C1
:1009D00040000000000103030303030303030303B8
:1009E0000303030303070F1F1F3F3F7F7F7F7F7FAB
:1009F0003F1F0F0003030303030303030303030366
:100A000003030303070707070707070303010000A2
:100A10000000000000FFFF000000000000000000D8
:100A2000011F7FFFFFFFFFFFE7C3E7FFFFFFFFFFA0
:100A3000FFFEF0000000000000000000070F3F7FF5
:100A4000FFFFFFFCFCFFFFFFFFFFFFFFFF7CC3007A
:100A50000000000000FFFF00000000000000000098
:100A600000F0F8FCFEFEFEFEFCFCFDFBF7F7EFDFFE
:100A70000B00000000000000010303FFFFFFFFFF69
:100A8000FFFFFF7F7FFFFFFFFEFCF8E0807FFF009E
:100A90000000000000FFFF00000000000000000058
:100AA0000000000000000000000080FDFFFFFFFFCD
:100AB000FF7F1F3F7F7FFEFEFCF8F8F0F0E0C0C034
:100AC000E0C0C0C0C08080000000000000FFFF0048
:100AD0000000000000FFFF000001010303070707FB
:100AE0000F0707070303070F0F3F7FFFFFFEFEFF00
:100AF000FFFFFFFFAF030000000000000000000048
:100B000000000000000000000000000000FFFF00E7
:100B10000000000000FFFF3F7FFFFFFCF8FCFFFF2D
:100B2000FFFFFFFFFFFFE8C0C080800000000080E3
:100B3000F9FFFFFFFFFF7F7F7F7FFF7F7F7F3F1FEB
:100B400001000000000000000000000000FFFF00A6
:100B500000000000FEFFFFFFFFFFFFFF7FFFFFFF22
:100B6000FFFEFCF0E00000000000000000011F7F1D
:100B7000FFFFFFFFFFC7C7CFFFFFFFFFFFFFFEF035
:100B800000000000000000000000000000FFFF0067
:100B90000000000000F0F8D8D8F8D8D8D8D89818B5
:100BA0001818181818181818181818181818F8F805
:100BB000FCFCFCFEFCFCFCFCF8F0F0D8D818181883
:100BC00018181818181818181818181818F8F00005
:100BD00000F90D630E970EA70EB50EC30ED10EE0F1
:100BE0000EEC0EFA0E0D0F1D0F2D0F330F41726517
:100BF00020796F7520737572653F004D65617300D4
:100C000053415645205550202020444F574E202018
:100C1000454E544552002020202020202020202016
:100C20002020202020200043414E43454C202044DA
:100C30004F574E202020555020204F4B004143431A
:100C40002D5A2064616D70696E67005472696D2061
:100C5000503A20202020523A00202020202020201E
:100C60002020202020202020200052004E0052650D
:100C70007665727365204759524F0020202020204E
:100C80002020202020202020202020006E6F200007
:100C900079657300596573004E6F200041205472CE
:100CA00069200059205472692000582051756164F0
:100CB000002B205175616400582051756164002B30
:100CC000205175616400554152542000427564649E
:100CD0007900545249200051756164004241434BF0
:100CE0002020202020202020202020202020202004
:100CF000200020004572720020202020004E41007C
:100D000041524D4544004865666E79436F70746585
:100D100072322076312E302E30004F4B20003100C1
:100D2000580032002B00580059002B004100580099
:100D30005541525420004275646479005452492050
:100D4000005175616400414C54484C440053544177
:100D5000424C45004143524F202000410FB52C57D3
:100D60000F8B0F56350000410F992CA10FA50F6A6C
:100D700029BB0FA50F3128F00F8B0F543105108BB5
:100D80000F4D2F05108B0FA32E05108B0FE4334C46
:100D90001083103B339910DC0C0429E310DC0C00A9
:100DA0002C19114911CA28E3105F11782A19114929
:100DB000117C2CF90DDC0C5728000075116B2C00F0
:100DC00000594157202020202020202020200052A0
:100DD0006F6C6C202020202020202020005069747F
:100DE0006368202620526F6C6C2000506974636821
:100DF0002020202020202020002D54414B45204F32
:100E000046462050524F50454C4C45525321210AE2
:100E10002D507265737320636F6E74696E75650A09
:100E20002D5475726E204F66662051756164636F34
:100E3000707465722E0A0A2D517561642077696C91
:100E40006C20737461727465640A696E2041524D3E
:100E500045442054414B45434152452073746174CD
:100E6000650A00507265737320436F6E74696E7506
:100E7000652061667465722063616C696272617479
:100E8000696F6E2E0A0A756E706C756720626174E8
:100E9000746572792E0A004779726F205049442098
:100EA000456469746F720053656C66204C657665A5
:100EB0006C696E6700416C74697475646520486F75
:100EC0006C64004D6F64652053657474696E67735C
:100ED000004D6973632E2053657474696E677300E7
:100EE00053656E736F722054657374005265636549
:100EF0006976657220546573740053656E736F7202
:100F00002043616C6962726174696F6E0053746929
:100F1000636B2043656E746572696E670045534369
:100F20002043616C6962726174696F6E004465622E
:100F3000756700466163746F7279205265736574DA
:100F400000202020202020202020202020202020C1
:100F500020204D454E55000A0A426174743A202003
:100F60002020202020760A0A0A52583A202D2020DC
:100F7000534E3A2020202053543A202D0A466C79B3
:100F80003A202020426F6172643A004241434B2074
:100F90005550202020444F574E2020454E54455256
:100FA000000A0A0A002020202020202020202020C3
:100FB000202020202020444F4E45000A0A0A4D31AF
:100FC0003A202020202020204D343A0A4D323A2069
:100FD0002020202020204D333A0A455343204361EE
:100FE0006C6962726174696F6E206D6F64650A006E
:100FF0000A524553544152540A20202020202042B6
:101000004F415244000A503A202020202020204CFA
:10101000696D3A0A493A202020202020204C696D31
:101020003A0A443A202020202020204C696D3A0AB8
:101030004E6F6973652046696C7465723A0A547222
:10104000696D20503A20202020523A004672616D8E
:101050006520547970653A0A427564647920537941
:101060007374656D3A0A426F617264204469723A22
:101070000A466C792020204469723A0A536F6E61E7
:10108000723A004241434B2050524556204E45583B
:1010900054204348414E4745004175746F204469D0
:1010A0007361726D3A0A566F6C7420416C61726D97
:1010B0003A2020202020202F3130760A5468726F89
:1010C00074746C65206D696E3A0A537469636B20A1
:1010D0005363616C653A0A502D52204C696E6B6502
:1010E000643A004779726F20583A0A4779726F2044
:1010F000593A0A4779726F205A3A0A4163632020AD
:10110000583A0A4163632020593A0A416363202018
:101110005A3A0A426174743A00204348202020520F
:10112000582D312020202052582D320A41696C3A26
:101130000A456C653A0A5275643A0A5468723A0A6A
:101140004175783A0A52583A004241434B202020D8
:10115000202020202020434F4E54494E5545004228
:1011600041434B20434C522020202020202020208F
:10117000444F4E45004E4F2020202020202020208C
:10118000202020202020205945530000407A10F3D1
:101190005A00A0724E18090010A5D4E80000E876A5
:1011A00048170000E40B54020000CA9A3B000000FC
:1011B000E1F505000080969800000040420F000015
:1011C00000A08601000000102700000000E80300D6
:1011D0000000006400000000000A000000000001A0
:1011E00000000000002C76D888DC674F0823DFC1A0
:1011F000DFAE59E1B1B796E5E3E453C63AE651995B
:101200007696E8E6C28426EB898C9B62ED407C6F83
:10121000FCEFBC9C9F40F2BAA56FA5F490055A2A3A
:10122000F75C936B6CF9676DC11BFCE0E40D47FE46
:10123000F520E6B500D0ED902E030094357705003B
:1012400080841E080000204E0A000000C80C3333C2
:1012500033330F986E12831141EF8D2114893BE6D1
:101260005516CFFEE6DB18D1844B381BF77C1D905A
:101270001DA4BBE424203284725E228100C9F124C3
:10128000ECA1E53D270078941F920F920FB60F92C4
:1012900011242F933F934F935F936F937F938F937B
:1012A0009F93AF93BF93CF93DF93EF93FF9380917F
:1012B000A6059091A70501969093A7058093A60592
:1012C000C0911D05D0911E05CE018F7790700097BB
:1012D00099F4CE01880F892F881F990B91958770FB
:1012E000806B60E00E94F20B80E160E00E94F20BF4
:1012F00080E060E00E94F20BFE01E35EFE4F808121
:1013000061E00E94F20B2196D370D0931E05C0932A
:101310001D05FF91EF91DF91CF91BF91AF919F910B
:101320008F917F916F915F914F913F912F910F908E
:101330000FBE0F901F9018951F920F920FB60F922D
:1013400011240F931F932F933F934F935F936F93AA
:101350007F938F939F93AF93BF93CF93DF93EF933D
:10136000FF9316B18091ED07182786B18093ED07A2
:10137000C0918400D0918500012F15FF18C086B15F
:1013800085FF05C0D093FB07C093FA0710C080E02B
:101390000E94C82380914E0690914F069093E207D9
:1013A0008093E1078091C9078F718093C90700FF7F
:1013B0000BC086B180FF05C0D093FD07C093FC072A
:1013C00003C081E00E94C82317FF2DC08091CB0687
:1013D000379B0BC0D0930108C0930008813019F5EA
:1013E000469A449A429A439A1EC0813061F4809191
:1013F000C907807F41F480913B0581FD04C0469878
:1014000044984298439883E00E94C82380914E06F6
:1014100090914F069093E6078093E5078091C90766
:101420008F728093C90701FF0BC086B181FF05C091
:10143000D093FF07C093FE0703C082E00E94C82339
:10144000FF91EF91DF91CF91BF91AF919F918F91DC
:101450007F916F915F914F913F912F911F910F91CC
:101460000F900FBE0F901F9018951F920F920FB6FE
:101470000F9211242F933F934F935F936F937F931A
:101480008F939F93AF93BF93EF93FF9389B183FFA4
:1014900009C080918400909185009093F707809314
:1014A000F60710C083E00E949F2380914E06909122
:1014B0004F069093E8078093E7078091C907827FE2
:1014C0008093C907FF91EF91BF91AF919F918F9149
:1014D0007F916F915F914F913F912F910F900FBE30
:1014E0000F901F9018951F920F920FB60F92112414
:1014F0002F933F934F935F936F937F938F939F931C
:10150000AF93BF93EF93FF9389B182FF09C080919E
:101510008400909185009093F1078093F00710C0AC
:1015200080E00E949F2380914E0690914F069093F9
:10153000EA078093E9078091C907817F8093C907F3
:10154000FF91EF91BF91AF919F918F917F916F919B
:101550005F914F913F912F910F900FBE0F901F9071
:1015600018951F920F920FB60F9211242F933F934D
:101570004F935F936F937F938F939F93AF93BF939B
:10158000EF93FF9389B180FF09C08091840090910F
:1015900085009093F3078093F20703C081E00E94D7
:1015A0009F23FF91EF91BF91AF919F918F917F9179
:1015B0006F915F914F913F912F910F900FBE0F90C0
:1015C0001F9018951F920F920FB60F9211242F9310
:1015D0003F934F935F936F937F938F939F93AF93BB
:1015E000BF93EF93FF938091C7068F3FF9F48091EB
:1015F000D20680FF1BC083B182FF09C08091A6057F
:101600009091A7059093EF078093EE071EC08091FD
:10161000A6059091A7052091EE073091EF07821B58
:10162000930B9093BF058093BE050FC083B182FFDB
:1016300009C080918400909185009093F507809374
:10164000F40703C082E00E949F23FF91EF91BF91B6
:10165000AF919F918F917F916F915F914F913F914A
:101660002F910F900FBE0F901F9018951F920F9201
:101670000FB60F9211242F933F934F935F936F9365
:101680007F938F939F93AF93BF93EF93FF9383B118
:1016900080FF0CC080918400909185009093030896
:1016A0008093020881E08093C2060BC084E00E9410
:1016B000C8238091CC059091CD059093C30580936C
:1016C000C205FF91EF91BF91AF919F918F917F9153
:1016D0006F915F914F913F912F910F900FBE0F909F
:1016E0001F90189511241FBECFEFD8E0DEBFCDBFED
:1016F00011E0A0E0B1E0E8E6F6E702C005900D9247
:10170000A431B107D9F718E0A4E1B1E001C01D92FE
:10171000A531B107E1F70E9493180C94323B0C9469
:101720000000EF92FF920F931F93CF93DF93EC0192
:1017300000E010E0E62EFF240AC0299ACE010E94A4
:10174000F50E2998CE010E94F50E0F5F1F4F0E1562
:101750001F059CF3DF91CF911F910F91FF90EF90A8
:10176000089584B1806F84B985B1806F85B908957B
:101770000F931F9313B11095107F0091AB0510923A
:10178000B905112321F180919607813011F40E944F
:10179000120F8091AB05811759F080914E06909100
:1017A0004F06845D9E4F90931501809314010FC0E6
:1017B00020914E0630914F06409114015091150131
:1017C0004217530720F491E09093B90505C0802F8C
:1017D00080951093AB0581231F910F9108958091FF
:1017E000AB0508955D986795662767959BB19F77D0
:1017F000962B9BB998E05C9887FF02C0599A01C06C
:1018000059985C9A915011F0880FF5CF5D9A089520
:101810006F7760931C01880F880F880F80931B01DE
:10182000089580931C0160931B010895262F26952F
:101830002695269530E03695322F22273795279525
:10184000280F311DE62FF0E0E770F070E857FF4FEA
:10185000E49191E0411190E080911A018170D901E9
:10186000A35EBE4F891729F0E0958C91E823EC9395
:1018700008958C918E2B8C93089508950895089562
:1018800080E094E0EDE1F1E0DF019C011D92215048
:101890003040E1F780E060E00E94080C10921A01ED
:1018A00008958F929F92BF92CF92DF92EF92FF9214
:1018B0000F931F93DF93CF930F92CDB7DEB74C01F9
:1018C000E62EF42EC22EDD24BB24042F10E04FC0E0
:1018D000832F877029F4F4010894811C911CB49023
:1018E000CC2079F560911B01862F877019F5C8010E
:1018F000831B910988309105ECF0630F669566951E
:101900006695A62FB0E0B695BA2FAA27B795A795EA
:1019100080911C018D0DA80FB11D80911A01A35E4D
:10192000BE4F80FF04C08B2D80958C9301C0BC926C
:10193000395F17C080911C01630F4B2D41708D0DD5
:101940000CC08C2D813069F4B0FE0BC080911C015D
:1019500060911B01630F8D0D41E039830E94160CCD
:101960003981B6943F5F3F1508F4B2CFD394DE14AB
:1019700010F430E0F8CF0F90CF91DF911F910F91CD
:10198000FF90EF90DF90CF90BF909F908F90089541
:10199000262FFC0164913196449102960E94510CCD
:1019A00008958A3051F480911B0190911701890F9D
:1019B00080931B0110921C010895E0911801F09191
:1019C00019010995609116014091170120E00E94CC
:1019D000510C80911C0190911601890F80931C017C
:1019E0000895EF92FF92CF93DF93E82EE7017E01F7
:1019F000F92EE70102C00E94D10C89918823D9F702
:101A0000DF91CF91FF90EF900895CF93DF93EC019A
:101A100002C00E94D10CFE01219684918823C9F74F
:101A2000DF91CF91089590911A01882311F0916070
:101A300001C09E7F90931A010895EF92FF920F9339
:101A40001F93DF93CF9300D00F92CDB7DEB7182F3F
:101A5000822F4A835B8369830E94130D812F6981E2
:101A60000E94080C4A815B818A0102C00E94D10C4D
:101A7000F80181918F018823C9F70E94130D0F90FF
:101A80000F900F90CF91DF911F910F91FF90EF90EA
:101A900008950F931F93082F10E004C080E20E9466
:101AA000D10C1F5F1017D0F31F910F9108950F9362
:101AB0001F93DF93CF930F92CDB7DEB78C0169836D
:101AC0000E94F10CF80101900020E9F73197E01B2A
:101AD000F10B6981862F8E1B0E94490D0F90CF91CB
:101AE000DF911F910F9108950F931F93DF93CF9371
:101AF0000F92CDB7DEB78C0169830E94050DC80136
:101B00000E9442386981681B862F0E94490D0F9000
:101B1000CF91DF911F910F910895EF92FF920F9354
:101B20001F93DF93CF9300D0CDB7DEB7182F7A0184
:101B3000802F2A8369830E94130D812F69810E945F
:101B4000080CC7012A81622F0E94740D80E00E9458
:101B5000130D0F900F90CF91DF911F910F91FF9078
:101B6000EF900895BF92CF92DF92EF92FF920F9382
:101B70001F93DF93CF93CDB7DEB762970FB6F8947C
:101B8000DEBF0FBECDBFF82EB62ECA01B901302F71
:101B90003250432F22E06E010894C11CD11C8601F3
:101BA0003A8B0E9410388E2D0E94130D8F2D6B2DB5
:101BB0000E94080CC6013A89632F0E94570D80E0ED
:101BC0000E94130D62960FB6F894DEBF0FBECDBF14
:101BD000CF91DF911F910F91FF90EF90DF90CF9009
:101BE000BF900895EF920F93E02E05E00E94B20D92
:101BF0000F91EF900895DF92EF92FF920F931F9352
:101C0000DF93CF93CDB7DEB728970FB6F894DEBF3A
:101C10000FBECDBFD82E162FCA017E010894E11C3D
:101C2000F11CB7014AE050E028870E945F38802FFE
:101C30000E94130D8D2D612F0E94080CC70128856D
:101C4000622F0E94570D80E00E94130D28960FB658
:101C5000F894DEBF0FBECDBFCF91DF911F910F91E2
:101C6000FF90EF90DF90089516BC81E085BBEEE613
:101C7000F0E08081816080830895EEE6F0E080816D
:101C80008E7F808308950F931F93CF93DF93082F48
:101C9000CEE6D0E018810E943D0E81E860E00E940F
:101CA000F20B802F8F7360E00E94F20B1883DF919C
:101CB000CF911F910F910895BC01009711F46DE42D
:101CC00077E086E191E044E050E00E9432380895E8
:101CD000CF93DF93559A569A579A549A519A5E9891
:101CE00089EF90E00197F1F700C000005E9A89EF5C
:101CF00090E00197F1F700C00000CCE7D0E003C00E
:101D000060E00E94F20BFE01219684918823C1F7C6
:101D100080E090E00E945C0E82E085BD0E94340E5F
:101D2000DF91CF910895CF92DF92EF92FF920F93C0
:101D30001F93DF93CF930F92CDB7DEB76C0125B120
:101D4000269526952695217000E010E0E62EFF24CA
:101D500024C085B186958695869580958170880F7B
:101D6000880F880F95B1977F982B95B9C601298365
:101D70000E94F50E85B18695869586958095817031
:101D8000880F880F880F95B1977F982B95B9C6015A
:101D90000E94F50E0F5F1F4F29810E151F05CCF213
:101DA0002170220F220F220F85B1877F822B85B9E8
:101DB0000F90CF91DF911F910F91FF90EF90DF90E7
:101DC000CF9008950FC00000000000000000000048
:101DD0000000000000000000000000000000000003
:101DE00000000197009779F708951F93CF93DF9331
:101DF000EC0108C01AE084E690E00E94E20E115067
:101E0000D1F721972097B1F7DF91CF911F910895D6
:101E1000509A489A229880E18093690084E08DBBB3
:101E20008CBB0895109296072B981092D5051092AE
:101E3000D40586E490E062E00E94910B80E090E09F
:101E40000E94592C08958091CC06823039F48091FB
:101E5000CD06813019F40E94120F089581E080931D
:101E600096078EE190E064E070E00E94930E2B9A5A
:101E70008CEB92E061E00E94910B1092D5051092DC
:101E8000D40510920A061092090682E090E00E94A2
:101E9000592C80E090E0DC0180935806909359061D
:101EA000A0935A06B0935B068093700690937106D8
:101EB000A0937206B0937306809388069093890668
:101EC000A0938A06B0938B068093400590934105BA
:101ED000A0934205B093430580935805909359050C
:101EE000A0935A05B0935B0580937005909371059C
:101EF000A0937205B0937305089585EC96E060E9B0
:101F000070E049EB50E00E94323808950F931F9320
:101F1000DF93CF930F92CDB7DEB78C0169830E9418
:101F2000A6386981861719F0C8010E94AE380F9053
:101F3000CF91DF911F910F910895CF92DF92EF9291
:101F4000FF920F931F93CF93DF93EC017B016A0104
:101F500000E010E008C0C701800F911F69910E9446
:101F6000860F0F5F1F4F0C151D05A8F3DF91CF9152
:101F70001F910F91FF90EF90DF90CF90089585EC27
:101F800096E060E070E049EB50E00E949D0F0895FC
:101F9000F89485EC96E060E070E049EB50E00E9438
:101FA0009D0F78948CEB92E061E00E94910B089574
:101FB0000E947D0FE8E3F7E020EF35E080E694E053
:101FC00021933193938B828B31872087958F848FD8
:101FD00047E0E234F407A1F70E94C80F089580E0BB
:101FE00090E00E94A6388E3F19F00E94D80F089505
:101FF00085EC96E060E070E049EB50E00E94963896
:1020000008951F920F920FB60F9211248F939F93F2
:1020100080914E0690914F06019690934F068093C3
:102020004E069F918F910F900FBE0F901F901895A5
:102030001F920F920FB60F9211248F939F9380914E
:10204000A9059091AA0501969093AA058093A905E8
:102050009F918F910F900FBE0F901F90189581E068
:102060008093810080936F0010924F0610924E066D
:1020700093E09093B1008093700017BA1092B20071
:102080001092AA051092A90508952091C7062F3F26
:1020900061F410921F059093CD008093CC0086E0F0
:1020A0008093CA0088E98093C90008959091C80080
:1020B00095FFFCCF8093CE000895EF92FF920F938F
:1020C0001F93CF93DF93082F192FC0E0D0E0E62EA7
:1020D000FF2406C0F80181918F010E9456102196BD
:1020E000CE15DF05BCF3DF91CF911F910F91FF90CB
:1020F000EF90089580919607813009F469C080E0DF
:1021000090E020E0FC01E955F84F3081230F019663
:1021100088309105B9F78091AF07281709F058C0AA
:102120008091A707833421F0863509F051C037C06C
:102130008091A8078530E9F0863030F4813051F085
:10214000823009F045C00CC0863019F1873009F0A3
:102150003FC022C08EE190E064E00E94930E08959B
:1021600080E091E061E00E945D1083ED96E062E620
:1021700008C080E091E061E00E945D1085EC96E08F
:1021800066E50E945D1082E091E061E00E945D10D2
:1021900008950E94C80F08950E94B3260895809163
:1021A000A8076091A9074091AA079FEF699FB00116
:1021B0001124680F711D6B53794F242F332727FD8E
:1021C0003095EBEAF7E0CB01BF01532F0E944B386B
:1021D00008951F920F920FB60F9211242F933F93E1
:1021E0004F935F936F937F938F939F93AF93BF931F
:1021F000EF93FF938091C80087FFFCCF8091CE00C2
:102200008093A20780912005882399F080914E0643
:1022100090914F062091A3073091A407821B930B46
:102220008531910530F01092200510921F05109213
:102230009C07E0911F05F0E08091A207E955F84F57
:10224000808380912005882319F08130C1F406C075
:1022500010921F0581E08093200507C080911F0523
:10226000883019F40E947A100AC0F89480914E06C2
:1022700090914F069093A4078093A3077894809140
:102280001F058F5F80931F0580911F05893021F402
:1022900010921F0510922005FF91EF91BF91AF9111
:1022A0009F918F917F916F915F914F913F912F916E
:1022B0000F900FBE0F901F901895EF92FF920F9303
:1022C0001F93CF93DF93082F192FC0E0D0E0E62EA5
:1022D000FF2406C0F80181918F010E9456102196BB
:1022E000CE15DF05BCF3DF91CF911F910F91FF90C9
:1022F000EF90089590E080979C01220F331F280FE4
:10230000391F83E0220F331F8A95E1F7235B3E4F8D
:10231000C901089590E080979C01220F331F280F78
:10232000391F220F331F2F5A384FC90108950E94B9
:10233000BA350E94EF0F0E94ED238091C7068F3FB0
:1023400031F48091D20680FF02C00E94080F3E9AAD
:102350003C9A3A9A3B9A4698449842984398219AD4
:10236000239A13981092800010928100109282009C
:102370008091C7068F3F21F48AE090E00E944510CB
:102380000E941C280E9474260E94B10B0E942F10EC
:102390000E94680E0E94400C0E94B23578948EE133
:1023A00090E00E94F50E08950E9424258091D605A4
:1023B0009091D705009741F48091A9059091AA05C5
:1023C0009093D7058093D6058091A9059091AA0591
:1023D0002091D6053091D705821B930B8B30910548
:1023E00030F00E946F351092D7051092D6050895EF
:1023F00083E00E94592C0E94D411FDCF1092B507A2
:102400001092B6071092B7071092B9071092BE0744
:1024100002C00E94D4118091C60682FFFACF81FFCC
:10242000F8CF08958091D305882309F46CC1809179
:10243000B805813009F067C18091C907807F09F034
:1024400062C18091B5068E7F8093B5068091D405D8
:102450009091D505009741F48091480690914906E6
:102460009093D5058093D40580919607813009F02B
:1024700054C02091B805822F90E0FC01EE0FFF1FA1
:1024800043E0880F991F4A95E1F7E80FF91FE051E3
:10249000FA4F8481958121E08139920784F010926E
:1024A000430680914806909149062091D4053091C9
:1024B000D505821B930B21E08233920758F560917A
:1024C000CA06662309F41FC18091090690910A0685
:1024D000009741F4809148069091490690930A062E
:1024E000809309068091480690914906209109063B
:1024F00030910A06821B930B70E048EE53E0649F14
:102500009001659F300D749F300D112428173907F5
:1025100008F0F9C00E94120F0895882309F0F3C053
:102520002091B805822F90E0FC01EE0FFF1F23E001
:10253000880F991F2A95E1F7E80FF91FE051FA4F2C
:10254000848195812EEF80379207FCF41092430628
:1025500080914806909149062091D4053091D50587
:10256000821B930B21E08233920778F08091C7069B
:10257000882341F48091C90790E08F709070009794
:1025800009F0C1C00E94230F08952091B805822F41
:1025900090E0FC01EE0FFF1FA3E0880F991FAA95A2
:1025A000E1F7E80FF91FE051FA4F8081918121E0B6
:1025B00081399207ACF010924306809148069091C1
:1025C00049062091D4053091D505821B930B21E05B
:1025D0008233920708F497C081E08093CE0657C0FB
:1025E0002091B805822F90E0FC01EE0FFF1F63E001
:1025F000880F991F6A95E1F7E80FF91FE051FA4F2C
:10260000808191812EEF80379207BCF410924306AF
:1026100080914806909149062091D4053091D505C6
:10262000821B930B21E08233920708F46CC0109256
:10263000CE0680E590E064E02DC02091B805822FA1
:1026400090E0FC01EE0FFF1F43E0880F991F4A95B1
:10265000E1F7E80FF91FE051FA4F828193812EEFE5
:1026600080379207F4F410924306809148069091C7
:1026700049062091D4053091D505821B930B21E0AA
:102680008233920708F43FC082E08093080680E519
:1026900090E068E00E94930E1092D5051092D40548
:1026A00008952091B805822F90E0FC01EE0FFF1FE6
:1026B00023E0880F991F2A95E1F7E80FF91FE051F1
:1026C000FA4F8281938121E081399207E4F01092E0
:1026D000430680914806909149062091D405309197
:1026E000D505821B930B21E08233920760F081E0D5
:1026F0008093080680E590E064E00E94930E1092BB
:10270000D5051092D40508958091D305882309F446
:1027100087C08091C907807F09F082C08091D4056D
:102720009091D505009741F4809148069091490613
:102730009093D5058093D4058091FC059091FD057B
:1027400021E0813992078CF010924306809148066F
:10275000909149062091D4053091D505821B930BA9
:102760008135910500F180E218C08091FC059091BF
:10277000FD052EEF80379207B4F410924306809146
:102780004806909149062091D4053091D505821BC9
:10279000930B8135910538F080E48093B406109254
:1027A000D5051092D4058091FA059091FB0521E0A2
:1027B00081399207BCF010924306809148069091AF
:1027C00049062091D4053091D505821B930B8135A4
:1027D000910530F180E18093B4061092D5051092F6
:1027E000D40508958091FA059091FB052EEF80376E
:1027F0009207B4F4109243068091480690914906DE
:102800002091D4053091D505821B930B813591051C
:1028100038F080E88093B4061092D5051092D40564
:1028200008951092850510928405109287051092E4
:10283000860510928905109288058091CC06823019
:1028400039F486E292E090938B0580938A0504C068
:1028500010928B0510928A050E94762208958F921D
:102860009F92AF92BF92CF92DF92EF92FF920F931F
:102870001F93CF93DF930E9424252091B805822FC8
:1028800090E0FC01EE0FFF1F23E0880F991F2A95AF
:10289000E1F7E80FF91FE051FA4F86819781909395
:1028A000B3058093B2050E949427F89480914E0658
:1028B00090914F06909349068093480678940E9421
:1028C000881C21E0209343068091C706882389F461
:1028D0008091C907807F69F4809102069091030678
:1028E0003EEF803793071CF41092B80502C0209386
:1028F000B8058091D6059091D70520914806309172
:102900004906009729F43093D7052093D6056AC06D
:10291000281B390B2530310508F464C00E946F353F
:1029200080913507882379F020913506309136065D
:1029300090E04091B5062817390714F4426001C0B1
:102940004D7F4093B5068091B506882351F085B13F
:10295000869580958170880F95B19D7F982B95B94C
:1029600001C029988091C7068F3FC1F520912105AC
:10297000222381F080910206909103064EEF80376A
:10298000940734F484E0809308061092210526C051
:10299000213071F0809102069091030651E0813957
:1029A000950724F081E08093080616C02B30B1F023
:1029B000809102069091030621E08039920774F419
:1029C00080910206909103063EEF8137930734F021
:1029D00082E0809308068BE0809321051092D70552
:1029E0001092D605C091B205D091B305C233D1057E
:1029F0002CF40E9412120E9411146BC3809196074E
:102A0000882329F40E9411140E94841362C3109237
:102A10000A06109209062091B805822F90E0FC0169
:102A2000EE0FFF1F13E0880F991F1A95E1F7E80FCB
:102A3000F91FE051FA4F80819181E090D106FF2487
:102A4000E89EB001E99E700DF89E700D1124882754
:102A500077FD8095982F0E94C9362DEC3CEC4CE414
:102A60005DE30E947D370E9496367093AD056093BA
:102A7000AC052091B805822F90E0FC01EE0FFF1FFE
:102A8000A3E0880F991FAA95E1F7E80FF91FE0511D
:102A9000FA4F82819381E89EB001E99E700DF89E05
:102AA000700D1124882777FD8095982F0E94C936D4
:102AB0002DEC3CEC4CE45DE30E947D370E949636A1
:102AC0007093AF056093AE052091B805822F90E01A
:102AD000FC01EE0FFF1F63E0880F991F6A95E1F775
:102AE000E80FF91FE051FA4F84819581E89EB0010B
:102AF000E99E700DF89E700D1124882777FD809552
:102B0000982F0E94C9362DEC3CEC4CE45DE30E940A
:102B10007D370E9496367093B1056093B005809121
:102B2000CC06813071F44091CD06809123069091BE
:102B300024062091A4053091A505413009F057C025
:102B400034C06091230670912406CB018C0F9D1F29
:102B50009093890580938805882777FD8095982F25
:102B60000E94C93620E030E040E05FE30E947D37FC
:102B70000E9496369B017093240660932306409131
:102B8000A4055091A505CE01821B930B841B950BC8
:102B90009093850580938405C40FD51FC21BD30B6A
:102BA000D0938705C09386053DC0B9016C0F7D1F8A
:102BB000AE01421B530B481B590B509385054093A4
:102BC0008405AB01481B590B50938705409386053C
:102BD000680F791F7093890560938805C80FD91F06
:102BE000C21BD30BD0938B05C0938A051BC0A901D0
:102BF0004C0F5D1F5093870540938605AE01421B25
:102C0000530B50938B0540938A059E01281B390B6B
:102C10003093850520938405C80FD91FD09389056B
:102C2000C093880580910806813009F02EC19091EB
:102C3000CC068091CE06913009F0A3C06091AC051E
:102C40007091AD05E090AE05F090AF0580908A05DB
:102C500090908B05A0908605B0908705C090880560
:102C6000D09089050091840510918505813009F087
:102C700049C0882777FD8095982F0E94C9362EEA93
:102C800037E441E25FE30E947D370E949636EB0114
:102C90007093AD056093AC05B701882777FD8095EB
:102CA000982F0E94C9362EEA37E441E25FE30E9482
:102CB0007D370E9496369B017093AF056093AE05F9
:102CC0008C0E9D1ECC1ADD0ACE01820F931F800F41
:102CD000911F9093850580938405A20EB31EAC1AB4
:102CE000BD0AB0928705A0928605C21AD30AD09277
:102CF0008905C0928805821A930A90928B0580926A
:102D00008A052EC1882777FD8095982F0E94C936A5
:102D100026E636E646E65FE30E947D370E94963659
:102D2000EB017093AD056093AC05B701882777FD83
:102D30008095982F0E94C93626E636E646E65FE380
:102D40000E947D370E9496367093AF056093AE0562
:102D5000060F171F1093850500938405C61AD70A1E
:102D6000D0928905C0928805AC1ABD0AB092870539
:102D7000A0928605C80DD91DD0938B05C0938A05F6
:102D8000EFC0813011F001E001C00FEFC091AE053E
:102D9000D091AF056091880570918905882777FDEE
:102DA0008095982F0E94C9364B015C01602F7727D0
:102DB00067FD7095872F972F0E94C9366B017C01A4
:102DC000BE01882777FD8095982F0E94C9362DEC8B
:102DD0003CEC4CE85FE30E947D379B01AC01C701EE
:102DE000B6010E947D379B01AC01C501B4010E9470
:102DF000C5350E9496367093890560938805E02E4C
:102E0000FF24E7FCF094EC9EB001ED9E700DFC9E5B
:102E1000700D1124882777FD8095982F0E94C93660
:102E200020E030E040E05FE30E947D370E9496366C
:102E3000FB017093AF056093AE052091840530913E
:102E4000850580918605909187056091AC0570910C
:102E5000AD05E69EA001E79E500DF69E500D112493
:102E60005093AD054093AC05240F351F2E0F3F1F27
:102E70003093850520938405841B950B8E0F9F1F2F
:102E800090938705809386056BC00E943D1F7B0150
:102E90008C016091840570918505882777FD809568
:102EA000982F0E94C936A80197010E94C6350E943A
:102EB00096367093850560938405609186057091C0
:102EC0008705882777FD8095982F0E94C936A8012D
:102ED00097010E94C6350E949636709387056093CD
:102EE00086058091CC06C0908805D09089058130F8
:102EF00031F5B601882777FD8095982F0E94C93655
:102F0000A80197010E94C6350E94963670938905E4
:102F10006093880560918A0570918B05882777FDFD
:102F20008095982F0E94C936A80197010E94C63546
:102F30000E94963670938B0560938A0511C0B60186
:102F4000882777FD8095982F0E94C936A8019701A0
:102F50000E94C6350E949636709389056093880555
:102F60000091CC068091C3069091C406013049F5CA
:102F70002091840530918505281B390B30938505F8
:102F8000209384052091880530918905281B390BF1
:102F90003093890520938805209186053091870517
:102FA000280F391F309387052093860520918A05C5
:102FB00030918B05280F391F30938B0520938A059C
:102FC0003AC020917C07C22FDD27C7FDD095C89F4E
:102FD000B001C99F700DD89F700D11246A5D7D4F9F
:102FE000882777FD8095982F0E94C9366B017C0158
:102FF0008091B0059091B105C89FB001C99F700D37
:10300000D89F700D1124882777FD8095982F0E94F6
:10301000C9362DEC3CEC4CE45EE30E947D379B010D
:10302000AC01C701B6010E94C5350E949636709367
:103030008B0560938A05809184059091850584367F
:10304000910534F484E690E090938505809384059F
:1030500080918605909187058436910534F484E645
:1030600090E09093870580938605809188059091E4
:1030700089058436910534F484E690E090938905BF
:1030800080938805013069F480918A0590918B05C1
:103090008436910534F484E690E090938B05809318
:1030A0008A058091C7068F3FA1F484E091E061E03A
:1030B0000E945D1089E296E06CE00E945D1084E859
:1030C00095E068E00E945D1086E091E061E00E947A
:1030D0005D108091C907807F79F00E941114809162
:1030E0009607813049F40E9476220E94120F809147
:1030F000B50681608093B5060E94762280914306D2
:10310000813021F41092D5051092D405DF91CF9132
:103110001F910F91FF90EF90DF90CF90BF90AF90F5
:103120009F908F9008951092D3050E94971110924E
:103130003B051092B50681E0809308068093210537
:1031400089E296E09093A6078093A50710929707CF
:103150008091850090E09093BB068093BA060E9410
:10316000FE118091CB06813011F40E94F8110E946B
:10317000BA350E942F14FDCF6F927F928F929F924B
:10318000AF92BF92CF92DF92EF92FF920F931F9375
:10319000DF93CF93CDB7DEB72E970FB6F894DEBF8F
:1031A0000FBECDBFC982DA82EB82FC820D831E8303
:1031B0002F83388749875A876B877C878D879E87BF
:1031C000EF8CF8A009A11AA16D807E80C801B7011B
:1031D0000E9407389C01B901882777FD8095982FB8
:1031E0000E94C93620E030E040E85FE30E94793772
:1031F0001816CCF469817A81882777FD8095982FFD
:103200000E94C9369B01AC01C801B7010E947D37FD
:1032100020E030E040E251E40E942E36F501608368
:10322000718382839383C801B701F50124853585B5
:10323000468557850E94C5350E9496366B01C801A8
:10324000B70120E030E040E850E40E9479371816DA
:10325000BCF4B301882777FD8095982F0E94C9366A
:1032600020E030E048EC52E40E942E369B01AC0195
:10327000F50164817581868197810E94C63532C0CF
:10328000C801B70120E030E040E850EC0E942A3647
:1032900087FF15C0B301882777FD8095982F0E947E
:1032A000C93620E030E048EC52E40E942E369B0103
:1032B000AC01F501648175818681978111C0F501AA
:1032C0006480758086809780C401B3012AE037ED61
:1032D00043E25CE30E947D379B01AC01C401B30172
:1032E0000E94C535F5016483758386839783B60193
:1032F000882777FD8095982F0E94C9363B014C01A5
:1033000069857A85882777FD8095982F0E94C93630
:103310009B01AC01C401B3010E947D3720E030E085
:1033200040EA51E40E942E36F5016087718782875A
:103330009387E486F58606871787E480F580068103
:1033400017816F817885882777FD8095982F0E9457
:10335000C9369B01AC01C801B7010E943321F501B8
:103360006483758386839783E080F1800281138173
:103370006B817C81882777FD8095982F0E94C936C4
:103380009B01AC01C801B7010E943321F5016083A4
:10339000718382839383E084F184028513856B8536
:1033A0007C85882777FD8095982F0E94C9369B01E0
:1033B000AC01C801B7010E9433217B018C01F501EA
:1033C0006087718782879387608171818281938111
:1033D00024813581468157810E94C635A801970115
:1033E0000E94C6352E960FB6F894DEBF0FBECDBF35
:1033F000CF91DF911F910F91FF90EF90DF90CF90D1
:10340000BF90AF909F908F907F906F900895AF92F4
:10341000BF92CF92DF92EF92FF920F931F93DF93B1
:10342000CF93CDB7DEB72E970FB6F894DEBF0FBEA1
:10343000CDBFC982DA82EB82FC820D831E832F838B
:10344000388749875A876B877C878D879E87EB8C67
:10345000FC8C0D8D1E8D69817A81882777FD809582
:10346000982F0E94C9369B01AC01C801B7010E9488
:103470007D3720E030E040EA51E40E942E36F5012D
:103480006083718382839383C801B7012485358566
:10349000468557850E94C5350E9496366B01C80146
:1034A000B70120E030E040E85FE30E94793718166A
:1034B00054F0C801B70120E030E040E85FEB0E9423
:1034C0002A3687FF22C06D817E81882777FD80950F
:1034D000982F0E94C9369B01AC01C801B7010E9418
:1034E0007D3720E030E048E453E40E942E369B0113
:1034F000AC01F50164817581868197810E94C63592
:10350000F501648375838683978389859A85C89E30
:10351000B001C99E700DD89E700D1124882777FDCB
:103520008095982F0E94C93620E030E040EA51E4AF
:103530000E942E36F5016087718782879387E48623
:10354000F58606871787E480F580068117816F81ED
:103550007885882777FD8095982F0E94C9369B0132
:10356000AC01C801B7010E943321F5016483758362
:1035700086839783E080F180028113816B817C8157
:10358000882777FD8095982F0E94C9369B01AC0152
:10359000C801B7010E943321F501608371838283E2
:1035A0009383E084F184028513856B857C8588276D
:1035B00077FD8095982F0E94C9369B01AC01C80108
:1035C000B7010E9433217B018C01F501608771876F
:1035D0008287938760817181828193812481358183
:1035E000468157810E94C635A80197010E94C635C1
:1035F0002E960FB6F894DEBF0FBECDBFCF91DF91F0
:103600001F910F91FF90EF90DF90CF90BF90AF9000
:10361000089580E090E0DC0180935806909359066D
:10362000A0935A06B0935B06809370069093710640
:10363000A0937206B09373068093880690938906D0
:10364000A0938A06B0938B06809340059093410522
:10365000A0934205B0934305809358059093590574
:10366000A0935A05B0935B05809370059093710504
:10367000A0937205B093730580938207909383079C
:10368000A0938407B093850708952F923F924F929D
:103690005F926F927F928F929F92AF92BF92CF92E2
:1036A000DF92EF92FF920F931F93DF93CF93CDB7EB
:1036B000DEB728970FB6F894DEBF0FBECDBF60907F
:1036C000040670900506809006069090070680918B
:1036D000BC069091BD06A091BE06B091BF0689833D
:1036E0009A83AB83BC8380914A0690914B06A0914C
:1036F0004C06B0914D0620904A0630904B06409003
:103700004C0650904D06E0905006F0905106009106
:103710005206109153068091CE059091CF05A0914D
:10372000D005B091D1058D839E83AF83B887C80142
:10373000B70129813A814B815C810E947D3723ED5D
:1037400039ED49E45AE30E947D375B016C016D81DC
:103750007E818F819885A40193010E947D3723ED9E
:1037600039ED49E45AE30E947D379B01AC01C60163
:10377000B5010E94C6359B01AC01C201B1010E9496
:10378000C5359B01AC0120934A0630934B0640930C
:103790004C0650934D062090BC063090BD064090DC
:1037A000BE065090BF0620914A0630914B064091CC
:1037B0004C0650914D06A0900B06B0900C06C090A0
:1037C0000D06D0900E06C801B7010E947D3723ED8B
:1037D00039ED49E45AE30E947D377B018C01C60133
:1037E000B501A40193010E947D3723ED39ED49E431
:1037F0005AE30E947D379B01AC01C801B7010E94CA
:10380000C5359B01AC01C201B1010E94C6359B01C7
:10381000AC012093BC063093BD064093BE06509386
:10382000BF06609004067090050680900606909092
:10383000070620914A0630914B0640914C06509164
:103840004D066D817E818F8198850E947D3723EDA5
:1038500039ED49E45AE30E947D377B018C01C601B2
:10386000B50129813A814B815C810E947D3723ED2E
:1038700039ED49E45AE30E947D379B01AC01C80150
:10388000B7010E94C6359B01AC01C401B3010E947F
:10389000C6359B01AC012093040630930506409386
:1038A00006065093070628960FB6F894DEBF0FBEA3
:1038B000CDBFCF91DF911F910F91FF90EF90DF90DF
:1038C000CF90BF90AF909F908F907F906F905F90C0
:1038D0004F903F902F90089580E090E0DC0180931E
:1038E000040690930506A0930606B09307068093FE
:1038F000BC069093BD06A093BE06B093BF0680930E
:103900004A0690934B06A0934C06B0934D0608953B
:103910006F927F928F929F92AF92BF92CF92DF92DF
:10392000EF92FF920F931F93CF93DF936091250740
:1039300070912607882777FD8095982F0E94C936B9
:1039400020E030E04AE754E40E942E367B018C01EF
:10395000C0913306D09134067F2D912F20912506FA
:103960003091260640912706509128060E947D3707
:103970005B016C0160E070E080E89FE32E2D3F2D3D
:10398000402F512F0E94C5357B018C01BE01882735
:1039900077FD8095982F0E94C9369B01AC01C80124
:1039A000B7010E947D379B01AC01C601B5010E94A1
:1039B000C63560932506709326068093270690935C
:1039C00028066091FB067091FC06882777FD80959C
:1039D000982F0E94C93620E030E04AE754E40E9464
:1039E0002E367B018C01C0912D06D0912E067F2DA5
:1039F000912F20910B0630910C0640910D065091AD
:103A00000E060E947D375B016C0160E070E080E88B
:103A10009FE32E2D3F2D402F512F0E94C5357B0156
:103A20008C01BE01882777FD8095982F0E94C936AA
:103A30009B01AC01C801B7010E947D379B01AC011D
:103A4000C601B5010E94C63560930B0670930C0643
:103A500080930D0690930E066091DF067091E0064C
:103A6000882777FD8095982F0E94C93620E030E0A6
:103A70004AE754E40E942E367B018C01C0912B064C
:103A8000D0912C067F2D912F2091CE053091CF051E
:103A90004091D0055091D1050E947D375B016C01AA
:103AA00060E070E080E89FE32E2D3F2D402F512FE6
:103AB0000E94C5357B018C01BE01882777FD80956A
:103AC000982F0E94C9369B01AC01C801B7010E9422
:103AD0007D379B01AC01C601B5010E94C635D62ECB
:103AE000C72EB82EA92EA6019501852F942FA32F9E
:103AF000B22F8093CE059093CF05A093D005B093BD
:103B0000D1056091ED067091EE06882777FD8095CE
:103B1000982F0E94C93620E030E04AE754E40E9422
:103B20002E36F62E072F182FE92EC0912906D09198
:103B30002A0620915006309151064091520650912C
:103B400053060E947D373B014C0160E070E080E845
:103B50009FE32F2D302F412F5E2D0E94C5357B0115
:103B60008C01BE01882777FD8095982F0E94C93669
:103B70009B01AC01C801B7010E947D379B01AC01DC
:103B8000C401B3010E94C63560935006709351067C
:103B9000809352069093530600D000D0A601950161
:103BA000852F942FA32FB22FEDB7FEB78183928379
:103BB000A383B483C090D306D090D406E090D506FA
:103BC000F090D6060091D7061091D8062091D9061C
:103BD0003091DA064091DB065091DC066091DD06FB
:103BE0007091DE068091DF069091E006A4E5AA2E92
:103BF000A6E0BA2E0E94071A0E94963670932406F9
:103C0000609323068091500690915106A091520630
:103C1000B0915306EDB7FEB781839283A383B4833B
:103C2000C090E106D090E206E090E306F090E40652
:103C30000091E5061091E6062091E7063091E8062E
:103C40004091E9065091EA066091EB067091EC060E
:103C50008091ED069091EE06FCE6AF2EF6E0BF2EC9
:103C60000E94071A0E9496367093A5056093A405DA
:103C7000CDB7DEB721966091B0057091B105882768
:103C800077FD8095982F0E94C93620E030E040E013
:103C90005FE30E947D379B01AC0160910B06709140
:103CA0000C0680910D0690910E060E94C535688322
:103CB00079838A839B83C090EF06D090F006E090D2
:103CC000F106F090F2060091F3061091F4062091AF
:103CD000F5063091F6064091F7065091F80660918E
:103CE000F9067091FA068091FB069091FC06E4E8D3
:103CF000AE2EE6E0BE2E0E94071A0E949636709302
:103D0000C4066093C30680912F069091300680917F
:103D100031069091320680912D0690912E062091C9
:103D200085008091BA069091BB0630E00F900F900D
:103D30000F900F908217930750F480918500209187
:103D4000BA063091BB0690E0821B930B0AC08091AB
:103D5000BA069091BB062091850080959095820FC0
:103D6000911D9093C1068093C0068091BA069091F0
:103D7000BB066091C0067091C106860F971F909395
:103D8000BB068093BA06A0900406B0900506C090CA
:103D90000606D0900706C0912B06D0912C0680E035
:103DA00090E00E94C7367B018C01BE01882777FD19
:103DB0008095982F0E94C93623ED39ED49E45AE3E6
:103DC0000E947D37A80197010E947D372FE632E1DE
:103DD00043E85AE30E947D379B01AC01C601B5015F
:103DE0000E94C6359B01AC01209304063093050662
:103DF0004093060650930706A090BC06B090BD06FF
:103E0000C090BE06D090BF066091290670912A0628
:103E1000882777FD8095982F0E94C93623ED39EDCC
:103E200049E45AE30E947D37A80197010E947D373B
:103E30002FE632E143E85AE30E947D379B01AC0153
:103E4000C601B5010E94C6359B01AC012093BC069A
:103E50003093BD064093BE065093BF06DF91CF91CD
:103E60001F910F91FF90EF90DF90CF90BF90AF9098
:103E70009F908F907F906F900895AF92BF92CF9256
:103E8000DF92EF92FF920F931F9300D000D08091AA
:103E9000250690912606A0912706B0912806B058D5
:103EA000EDB7FEB781839283A383B483C0901907D3
:103EB000D0901A07E0901B07F0901C0700911D0797
:103EC00010911E0720911F07309120074091210774
:103ED0005091220760912307709124078091250754
:103EE00090912607ECE6AE2EE5E0BE2E0E94071A62
:103EF0006093440670934506809346069093470668
:103F00000F900F900F900F908091C7068F3F09F090
:103F1000F4C08091D20680FFF0C080910806843002
:103F200009F0EBC0489AF8946091BE057091BF0506
:103F300080E090E00E94C7367B018C0178947F2D51
:103F4000912F20E030E849E054E40E942A3687FFB0
:103F5000B4C080912705882329F58091250590918B
:103F600026058330910534F40196909326058093BD
:103F70002505C9C06E2D7F2D802F912F0E949B3665
:103F80007093B9066093B80680E090E0DC018093FE
:103F9000820790938307A0938407B093850781E0FD
:103FA000809327056091B8067091B90680E090E093
:103FB0000E94C7362E2D3F2D402F512F0E94C53510
:103FC000F62E072F182FE92E862F902FA12FBE2D0A
:103FD00080939C0690939D06A0939E06B0939F06A7
:103FE0006F2D702F812F9E2D20E030E048E452E4A9
:103FF0000E942A3687FF5CC06F2D702F812F9E2D67
:1040000020E030E048E452EC0E94793718160CF0BA
:104010004FC01092220500D000D08F2D902FA12FDD
:10402000BE2DEDB7FEB781839283A383B483C09086
:104030002707D0902807E0902907F0902A070091E1
:104040002B0710912C0720912D0730912E074091BE
:104050002F0750913007609131077091320780919E
:10406000330790913407BEE7AB2EB7E0BB2E0E941A
:10407000071A0E9496367B018C0170932605609387
:1040800025050F900F900F900F9060919C067091F6
:104090009D0680919E0690919F0620E030E0A90148
:1040A0000E942A36882321F4F0922405E092230509
:1040B000609125057091260504C0609123057091DB
:1040C0002405882777FD8095982F0E94C9369B018B
:1040D000AC0160914406709145068091460690912E
:1040E00047060E94C6356093440670934506809348
:1040F000460690934706489806C0109226051092EF
:10410000250510922705709144066091450690910F
:10411000460680914706AB019C01652F742F832FC3
:10412000922F1F910F91FF90EF90DF90CF90BF9053
:10413000AF9008956F927F928F929F92AF92BF92AD
:10414000CF92DF92EF92FF920F931F93CF93DF9363
:10415000EC016B01BC0197FF04C066277727681B41
:10416000790B882777FD8095982F0E94C9362FEF0D
:1041700036EE4BED5EE20E94C635162F072FF82E65
:10418000E92EB601882777FD8095982FD7FC2BC0A4
:104190000E94C9365B016C01D801F7012B2F3A2F21
:1041A0004F2F5E2F0E94C5353B014C01C601B50162
:1041B000D801F7012B2F3A2F4F2F5E2F0E94C635C3
:1041C0009B01AC01C401B3010E942E3620E030E017
:1041D00040E053E40E947D379B01AC0160E070E059
:1041E00080E093E42AC00E94C9365B016C01D801CB
:1041F000F7012B2F3A2F4F2F5E2F0E94C6353B0120
:104200004C01A8019701652F742F832F922FA601CF
:1042100095010E94C5359B01AC01C401B3010E9408
:104220002E3620E030E040E053E40E947D379B01D1
:10423000AC0160E070E080EC93E40E94C535D7FDEE
:1042400090580E949636CB01DF91CF911F910F912C
:10425000FF90EF90DF90CF90BF90AF909F908F90A6
:104260007F906F900895AF92BF92CF92DF92EF92BE
:10427000FF920F931F93D62EC72EB82EA92E790129
:104280008A01A6019501652F742F832F922FA80113
:1042900097010E9479371816B4F017FB109517F99B
:1042A0001095A6019501652F742F832F922FA801D9
:1042B00097010E942A3687FD06C09601C501E32EAC
:1042C000F22E092F182F6E2D7F2D802F912F1F91E9
:1042D0000F91FF90EF90DF90CF90BF90AF90089537
:1042E000681779073CF0709561957F4F68177907DB
:1042F0000CF4BC01CB01089580E090E008952F926A
:104300003F924F925F926F927F928F929F92AF9265
:10431000BF92CF92DF92EF92FF920F931F935B01B8
:104320006C0139014A010E94C9367B018C01C4012C
:10433000B3010E94C9369B01AC01C801B7010E94BC
:104340002E36F62E072F182FE92E9501B7FE03C043
:10435000309521953F4FC30177FE03C0909581951D
:104360009F4F281739078CF56F2D702F812F9E2DA9
:1043700020E030E44FE054E40E947D371B012C0123
:104380006F2D702F812F9E2D29E23CE54FE85EE3D3
:104390000E947D372F2D302F412F5E2D0E947D37BB
:1043A00020E030E040E85FE30E94C6359B01AC01AD
:1043B000C201B1010E942E360E94963697FE35C08A
:1043C000D7FC31C0685F784F30C06F2D702F812FC0
:1043D0009E2D20E030E44FE054E40E947D373B0105
:1043E0004C016F2D702F812F9E2D2F2D302F412F9F
:1043F0005E2D0E947D3729E23CE54FE85EE30E9496
:10440000C6359B01AC01C401B3010E942E369B014D
:10441000AC0160E070E081E694E40E94C5350E9442
:104420009636D7FE02C068507740CB011F910F919E
:10443000FF90EF90DF90CF90BF90AF909F908F90C4
:104440007F906F905F904F903F902F9008956F9264
:104450007F928F929F92AF92BF92CF92DF92EF9214
:10446000FF920F931F935B016C01DC01CB01B595AB
:10447000A795979587952FEDE22E29E5F22E27E354
:10448000022F2FE5122FE81AF90A0A0B1B0BC8019D
:10449000B70120E030E040E05FE30E947D373B0160
:1044A0004C01C601B501A80197010E947D37A80102
:1044B00097010E947D379B01AC0160E070E080E4D1
:1044C00090E40E94C5359B01AC01C401B3010E9478
:1044D0007D371F910F91FF90EF90DF90CF90BF90AD
:1044E000AF909F908F907F906F900895F8948091F7
:1044F000A9059091AA059093E0078093DF0778942F
:104500002091DF073091E0078091D2079091D30787
:104510002817390738F0281B390B3093CD07209323
:10452000CC0708C080959095820F931F9093CD077C
:104530008093CC074091CC075091CD0789E991E059
:10454000489F9001499F300D589F300D112480EAFB
:104550009FE0821B930B0DC01092B200853691052F
:104560003CF02091B2002832E0F38055904001C029
:1045700001979093D8078093D7078091D7079091A0
:10458000D8071816190644F3809128058F5F809389
:104590002805809184059091850597FF05C01092AC
:1045A000DA071092D9070AC024E08F37920714F077
:1045B0008EE794E09093DA078093D907809186057F
:1045C0009091870597FF05C01092D1071092D007F0
:1045D0000AC024E08F37920714F08EE794E090939E
:1045E000D1078093D007809188059091890597FF26
:1045F00005C01092DE071092DD070AC024E08F3755
:10460000920714F08EE794E09093DE078093DD0725
:1046100080918A0590918B0597FF05C01092CF0776
:104620001092CE070AC024E08F37920714F08EE76D
:1046300094E09093CF078093CE07469A449A429A8B
:104640008091CC06813011F4439A09C0823039F44C
:1046500080912805853019F4439A1092280580919D
:10466000D00690E0805E9C4F0DC01092B20085365F
:1046700091053CF02091B2002D32E0F3805590403E
:1046800001C001979093D8078093D7078091D707EF
:104690009091D8071816190644F31092D607109275
:1046A000D50739C02091D5073091D6078091D90719
:1046B0009091DA072817390708F046982091D50716
:1046C0003091D6078091D0079091D10728173907EC
:1046D00008F044982091D5073091D6078091DD07E6
:1046E0009091DE072817390708F042982091D507E6
:1046F0003091D6078091CE079091CF0728173907C0
:1047000008F043988091D5079091D607049690932E
:10471000D6078093D5078091D5079091D60724E0DE
:104720008238920708F4BECFF8948091A905909141
:10473000AA059093D3078093D20778940895209187
:1047400084003091850090E0880F991FFC01E051B2
:10475000F84F40815181DC01A654BA4F42175307EC
:1047600048F4209184003091850080819181281B3C
:10477000390B0AC02081318180918400909185009D
:1047800020953095280F391F11963C932E9308954C
:10479000209184003091850090E00596880F991F44
:1047A000FC01E051F84F40815181DC01A654BA4F21
:1047B0004217530740F480819181281B390B1196D1
:1047C0003C932E9308954081518140955095420F1E
:1047D000531F11965C934E93089520988091C706BD
:1047E0008823F1F41092B805529850985398229863
:1047F00085E18093690087E08DBB8CBB8091680068
:104800008A608093680080916C00816080936C0066
:10481000809173008160809373008BB38A608BBB3F
:1048200081E08093B8053D9838983F9839988091F9
:10483000680086608093680080916C00816080933E
:104840006C0080916D00836A80936D008BB38660ED
:104850008BBB8091C90781608093C9078091C9078C
:1048600080618093C907F89480914E0690914F061D
:104870009093E8078093E70780914E0690914F064A
:104880009093EA078093E90778948091E5079091E7
:10489000E6079093E6078093E5078091E107909102
:1048A000E2079093E2078093E1070895F89490E07F
:1048B000FC01EE0FFF1FEE0FFF1FE80FF91FE60FC1
:1048C000F11DEE0FFF1FE654FA4F208131817894DD
:1048D000C9010895F89490E070E09C01220F331F05
:1048E000220F331F280F391FA901460F571F440FEE
:1048F000551FFA01E654FA4F808191817894485C03
:10490000584FFA0140815181841B950B260F371FA8
:104910002E58384FF9016081772767FD70950E9406
:10492000F437CB010895F894882311F540914E0691
:1049300050914F066091E7077091E807461B570BAF
:104940004531510520F08091C907816034C0409104
:104950004E0650914F066091E9077091EA07461B99
:10496000570B4531510568F18091C907826023C01A
:10497000813039F540914E0650914F066091E50720
:104980007091E607461B570B4531510520F0809189
:10499000C907806110C040914E0650914F0660914A
:1049A000E1077091E207461B570B4531510548F06E
:1049B0008091C90780628093C907789420E030E035
:1049C00041C0282F30E0C901880F991FA901B3E029
:1049D000440F551FBA95E1F7840F951FFC01E6546B
:1049E000FA4F468157815093EC074093EB07789438
:1049F0004091EB075091EC078E5A984FFC01808153
:104A00009181481B590B5093EC074093EB07809121
:104A1000EB079091EC07F901EE0FFF1FEE0FFF1F60
:104A2000E20FF31FEB58F84F6081772767FD709511
:104A30000E94F4377093EC076093EB072091EB072B
:104A40003091EC07C9010895CF92DF92EF92FF9267
:104A50000F931F93CF93DF93C0E0D0E02DC00330BE
:104A6000110539F48C2F0E949324F70191838083E0
:104A70001AC08C2F602F0E946A24F601E00FF11FEC
:104A8000EE0FFF1FE051FA4F918380838081918167
:104A90008F30910544F4808191813FEF823F9307ED
:104AA00014F0118210820F5F1F4F05301105B9F607
:104AB0002196C230D105C9F000E010E06E01CC0CA7
:104AC000DD1CCC0CDD1CCC0EDD1E7E01EE0CFF1CB3
:104AD000CE0153E0880F991F5A95E1F7E80EF91EB1
:104AE00086EF95E0E80EF91EBACFDF91CF911F91C6
:104AF0000F91FF90EF90DF90CF9008956FE076E0F8
:104B0000282F30E0F901EE0FFF1F93E0220F331F33
:104B10009A95E1F7E20FF31FE60FF71F118210825B
:104B200040EA56E0282F30E0F901EE0FFF1FA3E026
:104B3000220F331FAA95E1F7E20FF31FE40FF51FD1
:104B40002EEF3FEF31832083A82FB0E0FD01EE0F61
:104B5000FF1F93E0AA0FBB1F9A95E1F7EA0FFB1F17
:104B6000E60FF71F13821282A82FB0E0FD01EE0FAF
:104B7000FF1F93E0AA0FBB1F9A95E1F7EA0FFB1FF7
:104B8000E40FF51F33832283A82FB0E0FD01EE0F61
:104B9000FF1F93E0AA0FBB1F9A95E1F7EA0FFB1FD7
:104BA000E60FF71F15821482A82FB0E0FD01EE0F6B
:104BB000FF1F93E0AA0FBB1F9A95E1F7EA0FFB1FB7
:104BC000E40FF51F35832483A82FB0E0FD01EE0F1D
:104BD000FF1F93E0AA0FBB1F9A95E1F7EA0FFB1F97
:104BE000E60FF71F17821682A82FB0E0FD01EE0F27
:104BF000FF1F93E0AA0FBB1F9A95E1F7EA0FFB1F77
:104C0000E40FF51F37832683A82FB0E0FD01EE0FD8
:104C1000FF1F93E0AA0FBB1F9A95E1F7EA0FFB1F56
:104C2000E60FF71F11861086682F70E0FB01EE0F6C
:104C3000FF1FB3E0660F771FBA95E1F7E60FF71F86
:104C4000E40FF51F318720870895DF92EF92FF92DE
:104C50000F931F93CF93DF93D82E282F30E0890135
:104C6000000F111F73E0220F331F7A95E1F7020F37
:104C7000131F015F194F282F30E0E901CC0FDD1F12
:104C800053E0220F331F5A95E1F7C20FD31FC056CE
:104C9000D94FEE24FF248D2D6E2D0E9456249C01A9
:104CA000009781F0F801808191818217930718F4B1
:104CB0003183208307C0888199812817390710F430
:104CC000398328830894E11CF11C0E5F1F4F229644
:104CD000F5E0EF16F104F9F6DF91CF911F910F91F6
:104CE000FF90EF90DF9008951598169817981198F7
:104CF000149812980895EF92FF920F931F93CF93F9
:104D0000DF938B017A01C82FD0E00E942528CC0FB9
:104D1000DD1FC457DA4F99838883888199816CE9B4
:104D200075E04AE050E00E948038888199818017C0
:104D3000910750F088819981E816F90628F08CE9EE
:104D400095E068E071E004C08CE995E06BE071E00B
:104D50000E9454388CE995E0DF91CF911F910F911B
:104D6000FF90EF900895EF92FF920F931F93DF93C0
:104D7000CF930F92CDB7DEB725B126952695269510
:104D8000217010928D0510928C0510928F05109253
:104D90008E05109291051092900510929305109235
:104DA0009205109295051092940510929705109215
:104DB000960559E1E52EF12C00919205109193058D
:104DC00085E029830E942528080F191F1093930559
:104DD00000939205009194051091950586E00E943C
:104DE0002528080F191F109395050093940500912D
:104DF00096051091970587E00E942528080F191F36
:104E0000109397050093960500918C0510918D05E0
:104E100081E00E942528080F191F10938D0500932B
:104E20008C0500918E0510918F0584E00E94252845
:104E3000080F191F10938F0500938E0500919005A0
:104E40001091910582E00E942528080F191F1093E8
:104E50009105009390058FE097E20197F1F700C06C
:104E6000000085B186958695869580958170880F1E
:104E7000880F880F95B1977F982B95B90894E10812
:104E8000F1082981E114F10409F096CF2170220F75
:104E9000220F220F85B1877F822B85B920E030E079
:104EA00009E110E0F901EE0FFF1FE457FA4F80818E
:104EB0009181B8010E94E037718360832F5F3F4F7B
:104EC0002630310579F78091C60684608093C60646
:104ED000A4E6B7E080E090E0FC01EE0FFF1FE4578E
:104EE000FA4F208131812D933D93019686309105B3
:104EF00099F70F90CF91DF911F910F91FF90EF9055
:104F0000089583E00E94252824E630E0AC01429F0A
:104F1000C001439F900D529F900D112464E771E0F2
:104F20000E94E037CB010895CF93DF9385E00E9484
:104F3000252820916A0730916B07821B930B909371
:104F4000300680932F0686E00E94252820916C076A
:104F500030916D07821B930B90933206809331063C
:104F600087E00E94252820916E0730916F07821BF1
:104F7000930B909334068093330681E00E9425289A
:104F80002091640730916507821B930BC9E2D6E03C
:104F9000998388838881998184E00E9425282091C3
:104FA000660730916707821B930B9B838A838A81F4
:104FB0009B8182E00E942528209168073091690733
:104FC000821B930B9D838C838C819D810E94812702
:104FD0009D878C87DF91CF91089578941F920F92CF
:104FE0000FB60F9211242F938F939F93EF93FF93FC
:104FF00020912905E22FF0E08091780090917900CE
:10500000EE0FFF1FEC5FF74F91838083822F8F5F3E
:1050100087708093290580937C00EAE7F0E0808127
:1050200080648083FF91EF919F918F912F910F90DA
:105030000FBE0F901F9018958FEF80937E001092F7
:105040007C008FED80937A000895F894E82FF0E0CB
:10505000EE0FFF1FEC5FF74F208131817894C9017B
:1050600008958091A805882311F084FDFFCF08954D
:1050700090E0880F991F8B52944FFC012591349139
:10508000C9010895CF93DF93EC01009731F4C091EB
:105090003005D0913105209739F087E060E00E941B
:1050A000080CCE010E94050DDF91CF910895EF927B
:1050B0000F938091A80580FD6AC085FF1BC080E02A
:1050C00090E0DC018093040690930506A093060609
:1050D000B09307068093BC069093BD06A093BE06CE
:1050E000B093BF0680934A0690934B06A0934C065C
:1050F000B0934D0680E062E10E94080C8BEF9BE0CC
:105100000E94050D20910406309105064091060687
:105110005091070681E060E309E0EE240E94B20DA1
:105120002091BC063091BD064091BE065091BF064D
:1051300082E060E30E94B20D20914A0630914B0656
:1051400040914C0650914D0683E060E30E94B20D01
:105150002091360530913705409138055091390539
:1051600084E060E30E94B20D40912B0650912C0622
:1051700085E060E324E001E00E94FB0D4091C00661
:105180005091C10686E060E324E00E94FB0D0F9180
:10519000EF9008950F931F93CF93DF938091A8050D
:1051A000882369F184FF19C015E088EC90E062E083
:1051B0000E94930E86E490E061E00E94910B1150F2
:1051C000A1F70E94B3260E94C80F8CED9CE090933B
:1051D0003105809330050E944228C4E6D7E010E0F4
:1051E000812F60E30E94080C49915991812F60E35F
:1051F00025E000E00E94FB0D1F5F163089F7DF916C
:10520000CF911F910F9108950F9380E060E30E946A
:10521000080C81E064EF71E046E752E00E947B26D3
:105220000E94F10C81E060E30E94080C84E064EFCE
:1052300071E046E752E00E947B260E94F10C82E07A
:1052400060E30E94080C82E064EF71E046E752E000
:105250000E947B260E94F10C83E060E30E94080C10
:1052600085E062EC71E042E553E00E947B260E94FB
:10527000F10C84E060E30E94080C86E062EC71E0CF
:1052800042E553E00E947B260E94F10C85E060E33A
:105290000E94080C87E062EC71E042E553E00E9456
:1052A0007B260E94F10C86E060E30E94080C0E94BD
:1052B00081279C01B901882777FD8095982F0E944E
:1052C000C9369B01AC0186E060E300E00E94F20D6C
:1052D0000F9108958091A80580FF10C089E491E0A6
:1052E0000E945C0E80E060E00E94080C80E09DE07F
:1052F0000E94050D80E090E00E945C0E8091A80560
:1053000084FF04C01092CB060E94C80F83E062E1C4
:105310000E94080C809184059091850568ED75E0E8
:105320004AE050E00E945F3888ED95E065E00E9419
:10533000570D83E06EE40E94080C80918A059091DD
:105340008B0568ED75E04AE050E00E945F3888ED1B
:1053500095E065E00E94570D84E062E10E94080C30
:10536000809186059091870568ED75E04AE050E0F0
:105370000E945F3888ED95E065E00E94570D84E05B
:105380006EE40E94080C809188059091890568ED73
:1053900075E04AE050E00E945F3888ED95E065E0F6
:1053A0000E94570D0895813099F0813018F08230B5
:1053B000E1F415C080917D07882329F488ED95E0FC
:1053C0006BEE7DE009C088ED95E06DED7DE004C0F9
:1053D00088ED95E06FEC7DE00E943B38089588ED04
:1053E00095E061EC7DE00E943B380895FC018081EE
:1053F000813059F0813018F0823059F409C0809121
:105400007D07882311F481E001C082E08083089544
:1054100010820895AF92BF92CF92DF92EF920F93D6
:105420001F93DF93CF930F92CDB7DEB7182F6A018A
:1054300059018E2D69830E94130D812F69810E946D
:10544000080C002311F0C60101C0C5010E94050D22
:1054500080E00E94130D0F90CF91DF911F910F916B
:10546000EF90DF90CF90BF90AF90089580912A0584
:10547000813021F40E94C80F10922A050895EF92FE
:105480000F931F93182F2091C9078091B80530E022
:105490002F70307001E02115310509F000E091E036
:1054A000813009F490E0812F62E14EE15DE020E27D
:1054B0003DE0E92E0E940A2A8091C9072091B80593
:1054C000807F01E009F000E091E0222309F490E000
:1054D000812F6EE142E25DE020E23DE0E92E0E9494
:1054E0000A2A80E00E94130D1F910F91EF900895FA
:1054F0000F931F93CF93DF931092D3058091A8054C
:1055000080FF0CC08091B8050E947E2580E060E09D
:1055100042EF5CE022E100E00E948D0D8091A80541
:1055200084FFBFC080911408882309F0B5C020E033
:1055300030E008EE13E08091B8054091B805609125
:10554000B80590E0FC01EE0FFF1FEE0FFF1FE80F04
:10555000F91FE20FF31FEE0FFF1FE85CF84F70E03A
:10556000CB01880F991F880F991F860F971F820FF5
:10557000931F880F991F8056994F50E0DA01AA0FA8
:10558000BB1FAA0FBB1FA40FB51FA20FB31FAA0FEB
:10559000BB1FA15FB94FEC01888199814D915C914E
:1055A000840F951F96958795918380834091B805C8
:1055B0008091B80550E0FA01EE0FFF1FEE0FFF1FBC
:1055C000E40FF51FE20FF31FEE0FFF1FE45BF84F30
:1055D00090E0DC01AA0FBB1FAA0FBB1FA80FB91FC9
:1055E000A20FB31FAA0FBB1FA056B94F8D919C915C
:1055F000918380838091B8056091B8054091B8058A
:1056000090E0FC01EE0FFF1FEE0FFF1FE80FF91FE8
:10561000E20FF31FEE58F84F70E0CB01880F991F8F
:10562000880F991F860F971F820F931F880F991F4E
:10563000815F994F50E0DA01AA0FBB1FAA0FBB1F71
:10564000A40FB51FA20FB31FAA0FBB1FA056B94FBF
:10565000EC01888199814D915C911197841B950B88
:10566000B8010E94E03760832F5F3F4F253031053E
:1056700009F061CF2091B80581E090E002C0880F69
:10568000991F2A95E2F72091C606282BE5ECF6E053
:1056900021830E94C80F05C088EC90E063E00E945F
:1056A000910B8091A80586FF04C08091B8050E94E7
:1056B0007E25109214088091B8050E942526C0E02E
:1056C000D0E011E0CE018F5F6EE10E94080C809166
:1056D000B80590E0FC01EE0FFF1FEE0FFF1FE80F73
:1056E000F91FEC0FFD1FEE0FFF1FE15FF94F8081E7
:1056F000918168ED75E04AE050E00E94803888EDC5
:1057000095E00E94F10C82EF9CE00E94050D8091D3
:10571000B80590E0FC01EE0FFF1FEE0FFF1FE80F32
:10572000F91FEC0FFD1FEE0FFF1FE056F94F8081B0
:10573000918168ED75E04AE050E00E94803888ED84
:1057400095E00E94F10C8091B805882329F4C430BB
:1057500019F48DEF9CE045C02091B8058091B80503
:1057600030E0D901AA0FBB1FAA0FBB1FA20FB31FA6
:10577000AC0FBD1FAA0FBB1FA15FB94F90E0FC018A
:10578000EE0FFF1FEE0FFF1FE80FF91FEC0FFD1FBD
:10579000EE0FFF1FE056F94F2D913C91119780813C
:1057A000918128173907A0F08091B80590E0FC019D
:1057B000EE0FFF1FEE0FFF1FE80FF91FEC0FFD1F8D
:1057C000EE0FFF1FE056F94F80819181009739F469
:1057D00084EF9CE00E94050D1093140804C088EF2C
:1057E0009CE00E94050D2196C530D10509F06ACFD5
:1057F00086E00E943F2ADF91CF911F910F9108957B
:105800000F931F93CF93DF931092D3050E9424250B
:10581000C0E0D0E0CE018F5F182F68E10E94080C35
:10582000FE01EE0FFF1FE051FA4F40815181809140
:10583000C90790E08F70907001E0009709F400E0D4
:10584000812F64E225E00E94FB0DFE01EE0FFF1F99
:10585000E650FA4F408151818091C907807F01E075
:1058600009F400E0812F64E525E00E94FB0D2196FC
:10587000C530D10579F686E00E943F2ADF91CF91AD
:105880001F910F910895CF92EF92FF920F931F9364
:10589000942F322F2C2D332311F0A80101C0A70122
:1058A000092F0E948D0D1F910F91FF90EF90CF90C7
:1058B00008951F93182F66E0869FB0011124655A42
:1058C000724F80E395E046E050E00E94323810933A
:1058D0002D051F9108958091A80580FF05C08DEECC
:1058E0009BE00E94050D089584FF05C00E94D80F1B
:1058F00084E00E94592C08958091A8058823C1F066
:1059000084FF16C08091C6068670863061F482E0FE
:1059100080933B0581E08093CB060E94C80F84E012
:105920000E94592C08958EE190E062E00E94930E4F
:1059300008958091A80580FF10C089E491E00E943D
:105940005C0E80E060E00E94080C80E09DE00E9418
:10595000050D80E090E00E945C0E8091A80584FF18
:1059600003C081E00E94592C0895CF92EF92FF92DC
:105970000F931F938091A80580FF31C080E060E005
:105980000E94080C86E09DE00E94050D8091C606ED
:1059900001E082FF00E085E06CE34AE15DE024EF96
:1059A0003CE0EE240E940A2A0091C60610E0017035
:1059B000107085E066E64EE15DE020E23DE00E9489
:1059C0000A2A8091C60601E081FF00E085E062E7D7
:1059D00042E25DE020E23DE0EE240E940A2A80914E
:1059E000A80584FF04C081E00E94592C94C00E9445
:1059F00081279C01B901882777FD8095982F0E9407
:105A0000C93620E030E040E251E40E942E369B018E
:105A1000AC019091B506927082E064E208E0E92E54
:105A20000E94B20D83E066E00E94080C8091080697
:105A3000813019F484E59DE009C0823019F48DE4C9
:105A40009DE004C0843021F486E49DE00E94050DB1
:105A500021E08091CC06813009F020E083E060E312
:105A600040E001E41DE0BCE3EB2EBDE0FB2EA5E031
:105A7000CA2E0E94432C21E08091C706811120E0AC
:105A800083E064E540E006E31DE0F0E3EF2EFDE097
:105A9000FF2EE5E0CE2E0E94432C85E00E943F2A97
:105AA00086E068E10E94080C89E491E00E945C0EA7
:105AB0008091CE06813051F48091CC06813019F46A
:105AC0008EE29DE00CC08CE29DE009C08091CC0686
:105AD000813019F48AE29DE002C088E29DE00E94D4
