:100000000C94890B0C948A0A0C944C0A0C94F90AEF
:100010000C94A60B0C944D0B0C94B3090C94C80AC9
:100020000C94A60B0C94A60B0C94A60B0C943D10F0
:100030000C94A60B0C94A60B0C94A60B0C942610F7
:100040000C94A60B0C94A60B0C945A090C94A60BBA
:100050000C94A60B0C94A60B0C94A60B0C94A60B5C
:100060000C94C4290C94A60B0C94A60B0C94A60B10
:100070000C940E110C94A60B0C94A60B05A84CCD59
:10008000B2D44EB93836A9020C50B9918688083CD2
:10009000A6AAAA2ABE000000803FA2A0C840A6A42B
:1000A0002F248120AF000102040810204080FE9020
:1000B0000100FF0000030001000000960800190085
:1000C000640000000000FDFF14000000190064003F
:1000D00000000000FDFF1400000032005A00320052
:1000E0005A0000001400C8000A005A0014000F0053
:1000F000FEFF3200E3030A005A0014000F00FEFF67
:100100003200E3030F001E000000000000000000AA
:1001100058020F001900000000000000000000005D
:1001200000000000000000000000000000000000CF
:1001300000000000000000000000000000000000BF
:1001400000000000000000000000000000000000AF
:10015000000000000000000000000000000000009F
:10016000000000000000000000000000000000008F
:10017000000000000001000C109F110000000000B2
:10018000000000000000000000000000000000006F
:1001900000000000000000000000007C00FF33FFB2
:1001A000337C0000000000000000000000000000A0
:1001B000003C003C00000000003C003C000000004F
:1001C00000000000000002101E901FF0037E021EBF
:1001D0001E901FF0037E021E001000000000007839
:1001E00004FC0CCC0CFF3FFF3FCC0CCC0F8807006D
:1001F000000000000000303838381C380E0007803E
:1002000003C001E038703838381C000000000000DE
:100210001FB83FFC31C621E2373E1E1C1C003600D1
:10022000220000000000000000000027003F001F27
:1002300000000000000000000000000000000000BE
:1002400000F003FC0FFE1F07380120012000000012
:10025000000000000000000000012001200738FE1F
:100260001FFC0FF0030000000000000000000098D9
:100270000CB80EE003F80FF80FE003B80E980C006E
:1002800000000000000000800180018001F00FF0FC
:100290000F800180018001000000000000000000CC
:1002A00000000000B800F800780000000000000026
:1002B00000000000000000800180018001800180BA
:1002C00001800180018001000000000000000000AA
:1002D0000000000038003800380000000000000076
:1002E00000000000000018001C000E00078003C082
:1002F00001E000700038001C000E000000F807FE4E
:100300001F061E03338331C330633033301E18FEA3
:100310001FF8070000000000000C300C300E30FF0A
:100320003FFF3F003000300030000000001C301E56
:1003300038073C033E03378333C331E33077303E25
:10034000301C3000000C0C0E1C0738C330C330C307
:1003500030C330C330E7397E1F3C0E0000C003E0DD
:1003600003700338031C030E030703FF3FFF3F0026
:1003700003000300003F0C7F1C633863306330636D
:100380003063306330E338C31F830F0000C00FF0C9
:100390001FF839DC30CE30C730C330C330C33980AA
:1003A0001F000F00000300030003000330033C03A1
:1003B0000FC303F3003F000F0003000000000FBC59
:1003C0001FFE39E730C330C330C330E730FE39BCDD
:1003D0001F000F00003C007E00E730C330C330C375
:1003E00038C31CC30EE707FE03FC0000000000003A
:1003F000000000701C701C701C0000000000000059
:100400000000000000000000000000709C70FC7004
:100410007C0000000000000000000000000000C0A0
:1004200000E001F00338071C0E0E1C0738033000F3
:1004300000000000000000600660066006600660C4
:10044000066006600660066006000000000000030B
:100450003007380E1C1C0E3807F003E001C0000006
:1004600000000000001C001E00070003008337C3CB
:1004700037E30077003E001C0000000000F80FFE8C
:100480001F0718F333FB371B36FB37FB370736FEE6
:1004900003F80100000038003FE007FC061F061FBC
:1004A00006FC06E007003F003800000000FF3FFFA9
:1004B0003FC330C330C330C330E730FE39BC1F0008
:1004C0000F00000000F003FC0F0E1C073803300380
:1004D00030033007380E1C0C0C00000000FF3FFFFB
:1004E0003F033003300330033007380E1CFC0FF09D
:1004F0000300000000FF3FFF3FC330C330C330C3E1
:1005000030C330C3300330033000000000FF3FFF32
:100510003FC300C300C300C300C300C30003000304
:100520000000000000F003FC0F0E1C07380330C36E
:1005300030C330C330C73FC63F00000000FF3FFF5D
:100540003FC000C000C000C000C000C000FF3FFFAF
:100550003F000000000000000003300330FF3FFFB9
:100560003F033003300000000000000000000E00D8
:100570001E003800300030003000300038FF1FFF10
:100580000700000000FF3FFF3FC000E001F003381C
:10059000071C0E0E1C0738033000000000FF3FFF51
:1005A0003F003000300030003000300030003000BC
:1005B0003000000000FF3FFF3F1E007800E001E038
:1005C0000178001E00FF3FFF3F00000000FF3FFFDB
:1005D0003F0E003800F000C0030007001CFF3FFF83
:1005E0003F00000000F003FC0F0E1C07380330032F
:1005F0003007380E1CFC0FF00300000000FF3FFF27
:100600003F83018301830183018301C701FE007CD5
:100610000000000000F003FC0F0E1C07380330033D
:1006200036073E0E1CFC3FF03300000000FF3FFF8A
:100630003F8301830183038307830FC71DFE387C3B
:1006400030000000003C0C7E1CE738C330C330C3D0
:1006500030C330C7398E1F0C0F00000000000003AC
:100660000003000300FF3FFF3F03000300030000FF
:100670000000000000FF07FF1F00380030003000BE
:100680003000300038FF1FFF070000000007003F68
:1006900000F801C00F003E003EC00FF8013F000708
:1006A0000000000000FF3FFF3F001C0006800380A9
:1006B000030006001CFF3FFF3F0000000003300F57
:1006C0003C1C0E3003E001E00130031C0E0F3C0324
:1006D000300000000003000F003C00F000C03FC0ED
:1006E0003FF0003C000F0003000000000003300357
:1006F0003C033E0333C331E33033301F300F30034C
:10070000300000000000000000FF3FFF3F03300307
:10071000300330033000000000000000000E001C19
:100720000038007000E000C00180030007000E00E8
:100730001C001800000000000003300330033003E9
:1007400030FF3FFF3F00000000000000006000702D
:100750000038001C000E0007000E001C003800705E
:10076000006000000000C000C000C000C000C00069
:10077000C000C000C000C000C000C00608AF11002B
:1007800000000000000000065F06000007030007ED
:100790000300247E247E2400242B6A1200006313AD
:1007A000086463003649562050000007030000002B
:1007B000003E4100000000413E000000083E1C3E9B
:1007C000080008083E08080000E060000000080873
:1007D0000808080000606000000020100804020003
:1007E0003E5149453E0000427F4000006251494968
:1007F00046002249494936001814127F10002F493B
:10080000494931003C4A494930000171090503005A
:10081000364949493600064949291E00006C6C00DA
:10082000000000EC6C0000000814224100002424A9
:100830002424240000412214080002015909060062
:100840003E415D551E007E1111117E007F494949D0
:1008500036003E41414122007F4141413E007F49F7
:10086000494941007F09090901003E4149497A008F
:100870007F0808087F0000417F4100003040404071
:100880003F007F08142241007F40404040007F022B
:1008900004027F007F0204087F003E4141413E0088
:1008A0007F09090906003E4151215E007F090919AF
:1008B000660026494949320001017F0101003F409D
:1008C00040403F001F2040201F003F403C403F0071
:1008D0006314081463000708700807007149454352
:1008E0000000007F41410000020408102000004188
:1008F000417F00000402010204808080808080002B
:100900000003070000002054545478007F444444FE
:100910003800384444442800384444447F00385464
:1009200054540800087E0909000018A4A4A47C00FF
:100930007F040478000000007D4000004080847D3A
:1009400000007F102844000000007F4000007C046D
:10095000180478007C0404780000384444443800CB
:10096000FC444444380038444444FC004478440483
:100970000800085454542000043E442400003C4025
:10098000207C00001C2040201C003C6030603C00AB
:100990006C10106C00009CA0603C00006454544C2F
:1009A0000000083E414100000000770000000041C7
:1009B000413E08000201020100003C2623263C7B48
:1009C000077701080830383C3E3E3C3830080806BE
:1009D0000E1E3E3E1E0E0609093800FE00FE00FFF8
:1009E00001FF01FF01FE00FE0038000903000000C6
:1009F0000002020207020503020702020240400051
:100A000000000001030303030303030303030303C1
:100A1000030303070F1F1F3F3F7F7F7F7F7F3F1F22
:100A20000F0003030303030303030303030303038D
:100A30000303070707070707070303010000000078
:100A4000000000FFFF000000000000000000011F88
:100A50007FFFFFFFFFFFE7C3E7FFFFFFFFFFFFFE93
:100A6000F0000000000000000000070F3F7FFFFFC4
:100A7000FFFCFCFFFFFFFFFFFFFFFF7CC300000048
:100A8000000000FFFF00000000000000000000F078
:100A9000F8FCFEFEFEFEFCFCFDFBF7F7EFDF0B00B3
:100AA000000000000000010303FFFFFFFFFFFFFF46
:100AB000FF7F7FFFFFFFFEFCF8E0807FFF0000006C
:100AC000000000FFFF000000000000000000000028
:100AD000000000000000000080FDFFFFFFFFFF7F1F
:100AE0001F3F7F7FFEFEFCF8F8F0F0E0C0C0E0C0E2
:100AF000C0C0C08080000000000000FFFF000000B8
:100B0000000000FFFF0000010103030707070F07B4
:100B100007070303070F0F3F7FFFFFFEFEFFFFFFE7
:100B2000FFFFAF0300000000000000000000000015
:100B30000000000000000000000000FFFF000000B7
:100B4000000000FFFF3F7FFFFFFCF8FCFFFFFFFFFF
:100B5000FFFFFFFFE8C0C080800000000080F9FFB9
:100B6000FFFFFFFF7F7F7F7FFF7F7F7F3F1F0100B2
:100B70000000000000000000000000FFFF00000077
:100B80000000FEFFFFFFFFFFFFFF7FFFFFFFFFFEF5
:100B9000FCF0E00000000000000000011F7FFFFFEC
:100BA000FFFFFFC7C7CFFFFFFFFFFFFFFEF0000003
:100BB0000000000000000000000000FFFF00000037
:100BC000000000F0F8D8D8F8D8D8D8D89818181855
:100BD000181818181818181818181818F8F8FCFC0D
:100BE000FCFEFCFCFCFCF8F0F0D8D818181818181B
:100BF0001818181818181818181818F8F0000027DE
:100C00000E910EC50ED50EE30EF10EFF0E0E0F1A4D
:100C10000F280F3B0F4B0F5B0F610F41726520795F
:100C20006F7520737572653F004D656173005341A8
:100C30005645205550202020444F574E2020454EE9
:100C40005445520020202020202020202020202039
:100C5000202020200043414E43454C2020444F5744
:100C60004E202020555020204F4B004143432D5A09
:100C70002064616D70696E67005472696D20503A2E
:100C800020202020523A0020202020202020202038
:100C9000202020202020200052004E005265766542
:100CA000727365204759524F0020202020202020B9
:100CB000202020202020202020006E6F2000796539
:100CC0007300596573004E6F2000412054726920F3
:100CD0000059205472692000582051756164002B1E
:100CE000205175616400582051756164002B2051BA
:100CF0007561640055415254200042756464790066
:100D0000545249200051756164004241434B2020F8
:100D100020202020202020202020202020202000F3
:100D200020004572720020202020004E41004152D8
:100D30004D4544004865666E79436F707465723244
:100D40002076312E302E30004F4B200031005800DD
:100D500032002B00580059002B004100580055412B
:100D60005254200042756464790054524920005165
:100D700075616400414C54484C4400535441424C0A
:100D800045004143524F2020006F0F742E850FB94C
:100D90000F223700006F0F582ECF0FD30F292BE9EA
:100DA0000FD30F082A1E10B90F13333310B90F0CCD
:100DB000313310B90F62303310B90FB0357A10B13A
:100DC00010F834C7100A0D092B11110A0DBF2D4759
:100DD000117711CB2A11118D11372C471177113B47
:100DE0002E270E0A0D2E2A0000A3112A2E000059CC
:100DF00041572020202020202020202000526F6CEE
:100E00006C2020202020202020200050697463685E
:100E1000202620526F6C6C2000506974636820207B
:100E2000202020202020002D54414B45204F4646B5
:100E30002050524F50454C4C45525321210A2D50C1
:100E40007265737320636F6E74696E75650A2D54D5
:100E500075726E204F66662051756164636F7074A1
:100E600065722E0A0A2D517561642077696C6C20B9
:100E7000737461727465640A696E2041524D454411
:100E80002054414B45434152452073746174650AB7
:100E900000507265737320436F6E74696E756520C0
:100EA00061667465722063616C6962726174696FF6
:100EB0006E2E0A0A756E706C7567206261747465B7
:100EC00072792E0A004779726F2050494420456498
:100ED00069746F720053656C66204C6576656C6949
:100EE0006E6700416C74697475646520486F6C644A
:100EF000004D6F64652053657474696E6773004DAF
:100F00006973632E2053657474696E67730053654B
:100F10006E736F72205465737400526563656976F1
:100F2000657220546573740053656E736F7220434D
:100F3000616C6962726174696F6E00537469636B8E
:100F40002043656E746572696E67004553432043A4
:100F5000616C6962726174696F6E00446562756785
:100F600000466163746F7279205265736574002066
:100F70002020202020202020202020202020202071
:100F80004D454E55000A0A426174743A20202020D3
:100F9000202020760A0A0A52583A202D2020534E4B
:100FA0003A2020202053543A202D0A466C793A20CA
:100FB0002020426F6172643A004241434B205550F9
:100FC000202020444F574E2020454E544552000AC1
:100FD0000A0A00202020202020202020202020205D
:100FE00020202020444F4E45000A0A0A4D313A2065
:100FF0002020202020204D343A0A4D323A20202053
:10100000202020204D333A0A4553432043616C6928
:1010100062726174696F6E206D6F64650A000A52B6
:101020004553544152540A202020202020424F4151
:101030005244000A503A202020202020204C696D84
:101040003A0A493A202020202020204C696D3A0A93
:10105000443A202020202020204C696D3A0A4E6F0F
:101060006973652046696C7465723A0A5472696DD9
:1010700020503A20202020523A004672616D6520AF
:10108000547970653A0A42756464792053797374AF
:10109000656D3A0A426F617264204469723A0A4689
:1010A0006C792020204469723A0A536F6E61723A5B
:1010B000004241434B2050524556204E4558542043
:1010C0004348414E4745004175746F204469736140
:1010D000726D3A0A566F6C7420416C61726D3A20E1
:1010E00020202020202F3130760A5468726F7474CB
:1010F0006C65206D696E3A0A537469636B205363A3
:10110000616C653A0A502D52204C696E6B65643AE9
:10111000004779726F20523A0A4779726F20503A2D
:101120000A4779726F20593A0A4163632020503A86
:101130000A4163632020523A0A41636320205A3AED
:101140000A426174743A0020434820202052582DEE
:10115000312020202052582D320A41696C3A0A452C
:101160006C653A0A5275643A0A5468723A0A4175D3
:10117000783A0A52583A004241434B20202020201E
:1011800020202020434F4E54494E554500424143B4
:101190004B20434C52202020202020202020444F50
:1011A0004E45004E4F2020202020202020202020AF
:1011B00020202020205945530000407A10F35A0087
:1011C000A0724E18090010A5D4E80000E876481770
:1011D0000000E40B54020000CA9A3B000000E1F555
:1011E00005000080969800000040420F000000A01B
:1011F0008601000000102700000000E80300000046
:10120000006400000000000A00000000000100006F
:101210000000002C76D888DC674F0823DFC1DFAEE2
:1012200059E1B1B796E5E3E453C63AE651997696AB
:10123000E8E6C28426EB898C9B62ED407C6FFCEF74
:10124000BC9C9F40F2BAA56FA5F490055A2AF75CA2
:10125000936B6CF9676DC11BFCE0E40D47FEF52054
:10126000E6B500D0ED902E0300943577050080841C
:101270001E080000204E0A000000C80C3333333330
:101280000F986E12831141EF8D2114893BE655169C
:10129000CFFEE6DB18D1844B381BF77C1D901DA4D4
:1012A000BBE424203284725E228100C9F124ECA1C7
:1012B000E53D270078941F920F920FB60F921124EC
:1012C0002F933F934F935F936F937F938F939F934E
:1012D000AF93BF93CF93DF93EF93FF938091B805C4
:1012E0009091B90501969093B9058093B805C09186
:1012F0002B05D0912C05CE018F779070009799F433
:10130000CE01880F892F881F990B91958770806B6C
:1013100060E00E94090C80E160E00E94090C80E01E
:1013200060E00E94090CFE01E55DFE4F808161E0F6
:101330000E94090C2196D370D0932C05C0932B05E5
:10134000FF91EF91DF91CF91BF91AF919F918F91DD
:101350007F916F915F914F913F912F910F900FBEB1
:101360000F901F9018951F920F920FB60F92112495
:101370000F931F932F933F934F935F936F937F939D
:101380008F939F93AF93BF93CF93DF93EF93FF938D
:1013900016B180911F08182786B180931F08C0914D
:1013A0008400D0918500012F15FF18C086B185FFFC
:1013B00005C0D0932D08C0932C0810C080E00E9477
:1013C0007025809170069091710690931408809317
:1013D00013088091FB078F718093FB0700FF0BC000
:1013E00086B180FF05C0D0932F08C0932E0803C09C
:1013F00081E00E94702517FF2DC08091EF06379B7A
:101400000BC0D0933308C0933208813019F5469A47
:10141000449A429A439A1EC0813061F48091FB073E
:10142000807F41F480914D0581FD04C04698449829
:101430004298439883E00E947025809170069091B5
:10144000710690931808809317088091FB078F729C
:101450008093FB0701FF0BC086B181FF05C0D093CD
:101460003108C093300803C082E00E947025FF91CC
:10147000EF91DF91CF91BF91AF919F918F917F912C
:101480006F915F914F913F912F911F910F910F900D
:101490000FBE0F901F9018951F920F920FB60F92CC
:1014A00011242F933F934F935F936F937F938F9369
:1014B0009F93AF93BF93EF93FF9389B183FF09C0CD
:1014C000809184009091850090932908809328084A
:1014D00010C083E00E9447258091700690917106AC
:1014E00090931A08809319088091FB07827F80935C
:1014F000FB07FF91EF91BF91AF919F918F917F91EA
:101500006F915F914F913F912F910F900FBE0F9070
:101510001F9018951F920F920FB60F9211242F93C0
:101520003F934F935F936F937F938F939F93AF936B
:10153000BF93EF93FF9389B182FF09C0809184002C
:1015400090918500909323088093220810C080E03A
:101550000E944725809170069091710690931C0817
:1015600080931B088091FB07817F8093FB07FF918D
:10157000EF91BF91AF919F918F917F916F915F910B
:101580004F913F912F910F900FBE0F901F90189584
:101590001F920F920FB60F9211242F933F934F93E8
:1015A0005F936F937F938F939F93AF93BF93EF93CB
:1015B000FF9389B180FF09C08091840090918500DC
:1015C000909325088093240803C081E00E9447255A
:1015D000FF91EF91BF91AF919F918F917F916F910B
:1015E0005F914F913F912F910F900FBE0F901F90E1
:1015F00018951F920F920FB60F9211242F933F93BD
:101600004F935F936F937F938F939F93AF93BF930A
:10161000EF93FF938091EB068F3FF9F48091F606EC
:1016200080FF1BC083B182FF09C08091B8059091F3
:10163000B90590932108809320081EC08091B805B9
:101640009091B9052091200830912108821B930BBD
:101650009093D1058093D0050FC083B182FF09C05C
:1016600080918400909185009093270880932608AC
:1016700003C082E00E944725FF91EF91BF91AF9197
:101680009F918F917F916F915F914F913F912F919A
:101690000F900FBE0F901F9018951F920F920FB6CC
:1016A0000F9211242F933F934F935F936F937F93E8
:1016B0008F939F93AF93BF93EF93FF9383B180FF7B
:1016C0000CC08091840090918500909335088093A0
:1016D000340881E08093E4060BC084E00E9470250A
:1016E0008091DE059091DF059093D5058093D40518
:1016F000FF91EF91BF91AF919F918F917F916F91EA
:101700005F914F913F912F910F900FBE0F901F90BF
:10171000189511241FBECFEFD8E0DEBFCDBF11E07A
:10172000A0E0B1E0E6E0FBE702C005900D92A23236
:10173000B107D9F718E0A2E2B1E001C01D92A734C9
:10174000B107E1F70E94C7180C94813D0C9400008A
:10175000EF92FF920F931F93CF93DF93EC0100E082
:1017600010E0E62EFF240AC0299ACE010E940C0F39
:101770002998CE010E940C0F0F5F1F4F0E151F05F9
:101780009CF3DF91CF911F910F91FF90EF900895FF
:1017900084B1806F84B985B1806F85B908950F9346
:1017A0001F9313B11095107F0091BD051092CB05CA
:1017B000112321F18091C807813011F40E94290F73
:1017C0008091BD05811759F0809170069091710646
:1017D000845D9E4F90932301809322010FC020913E
:1017E00070063091710640912201509123014217F9
:1017F000530720F491E09093CB0505C0802F80958E
:101800001093BD0581231F910F9108958091BD050F
:1018100008955D986795662767959BB19F77962B8E
:101820009BB998E05C9887FF02C0599A01C059980B
:101830005C9A915011F0880FF5CF5D9A08956F77FB
:1018400060932A01880F880F880F809329010895DB
:1018500080932A01609329010895262F26952695C5
:10186000269530E03695322F222737952795280F79
:10187000311DE62FF0E0E770F070EA55FF4FE4917C
:1018800091E0411190E0809128018170D901A55D1E
:10189000BE4F891729F0E0958C91E823EC930895C9
:1018A0008C918E2B8C93089508950895089580E06F
:1018B00094E0EBE2F1E0DF019C011D922150304009
:1018C000E1F780E060E00E941F0C1092280108956B
:1018D0008F929F92BF92CF92DF92EF92FF920F93DF
:1018E0001F93DF93CF930F92CDB7DEB74C01E62E57
:1018F000F42EC22EDD24BB24042F10E04FC0832F12
:10190000877029F4F4010894811C911CB490CC20B8
:1019100079F560912901862F877019F5C801831B1D
:10192000910988309105ECF0630F66956695669590
:10193000A62FB0E0B695BA2FAA27B795A7958091A4
:101940002A018D0DA80FB11D80912801A55DBE4F04
:1019500080FF04C08B2D80958C9301C0BC92395FB1
:1019600017C080912A01630F4B2D41708D0D0CC063
:101970008C2D813069F4B0FE0BC080912A016091FA
:101980002901630F8D0D41E039830E942D0C3981AF
:10199000B6943F5F3F1508F4B2CFD394DE1410F431
:1019A00030E0F8CF0F90CF91DF911F910F91FF9012
:1019B000EF90DF90CF90BF909F908F900895262F4B
:1019C000FC0164913196449102960E94680C08953E
:1019D0008A3051F48091290190912501890F8093DB
:1019E000290110922A010895E0912601F091270122
:1019F0000995609124014091250120E00E94680C26
:101A000080912A0190912401890F80932A010895E1
:101A1000EF92FF92CF93DF93E82EE7017E01F92E3C
:101A2000E70102C00E94E80C89918823D9F7DF9171
:101A3000CF91FF90EF900895CF93DF93EC0102C018
:101A40000E94E80CFE01219684918823C9F7DF915A
:101A5000CF91089590912801882311F0916001C0E1
:101A60009E7F909328010895EF92FF920F931F930A
:101A7000DF93CF9300D00F92CDB7DEB7182F822F10
:101A80004A835B8369830E942A0D812F69810E94AA
:101A90001F0C4A815B818A0102C00E94E80CF80198
:101AA00081918F018823C9F70E942A0D0F900F9012
:101AB0000F90CF91DF911F910F91FF90EF900895BC
:101AC0000F931F93082F10E004C080E20E94E80CDF
:101AD0001F5F1017D0F31F910F9108950F931F935D
:101AE000DF93CF930F92CDB7DEB78C0169830E944D
:101AF000080DF80101900020E9F73197E01BF10B88
:101B00006981862F8E1B0E94600D0F90CF91DF910F
:101B10001F910F9108950F931F93DF93CF930F920F
:101B2000CDB7DEB78C0169830E941C0DC8010E94ED
:101B3000913A6981681B862F0E94600D0F90CF91AA
:101B4000DF911F910F910895EF92FF920F931F93D2
:101B5000DF93CF9300D0CDB7DEB7182F7A01802F57
:101B60002A8369830E942A0D812F69810E941F0C9C
:101B7000C7012A81622F0E948B0D80E00E942A0DEE
:101B80000F900F90CF91DF911F910F91FF90EF90E9
:101B90000895BF92CF92DF92EF92FF920F931F931F
:101BA000DF93CF93CDB7DEB762970FB6F894DEBF61
:101BB0000FBECDBFF82EB62ECA01B901302F32505C
:101BC000432F22E06E010894C11CD11C86013A8B80
:101BD0000E945F3A8E2D0E942A0D8F2D6B2D0E9440
:101BE0001F0CC6013A89632F0E946E0D80E00E948F
:101BF0002A0D62960FB6F894DEBF0FBECDBFCF910F
:101C0000DF911F910F91FF90EF90DF90CF90BF90E9
:101C10000895EF920F93E02E05E00E94C90D0F91F9
:101C2000EF900895DF92EF92FF920F931F93DF934F
:101C3000CF93CDB7DEB728970FB6F894DEBF0FBEAF
:101C4000CDBFD82E162FCA017E010894E11CF11CCD
:101C5000B7014AE050E028870E94AE3A802F0E94E8
:101C60002A0D8D2D612F0E941F0CC7012885622F20
:101C70000E946E0D80E00E942A0D28960FB6F894FF
:101C8000DEBF0FBECDBFCF91DF911F910F91FF90AF
:101C9000EF90DF90089516BC81E085BBEEE6F0E0A2
:101CA0008081816080830895EEE6F0E080818E7F00
:101CB000808308950F931F93CF93DF93082FCEE671
:101CC000D0E018810E94540E81E860E00E94090C67
:101CD000802F8F7360E00E94090C1883DF91CF91F1
:101CE0001F910F910895BC01009711F46BE777E005
:101CF00084E291E044E050E00E94813A0895CF935D
:101D0000DF93559A569A579A549A519A5E9889EF4A
:101D100090E00197F1F700C000005E9A89EF90E033
:101D20000197F1F700C00000CAE9D0E003C060E00D
:101D30000E94090CFE01219684918823C1F780E05E
:101D400090E00E94730E82E085BD0E944B0EDF91F1
:101D5000CF910895CF92DF92EF92FF920F931F934E
:101D6000DF93CF930F92CDB7DEB76C0125B12695E7
:101D700026952695217000E010E0E62EFF2424C071
:101D800085B186958695869580958170880F880F98
:101D9000880F95B1977F982B95B9C60129830E942A
:101DA0000C0F85B186958695869580958170880FF4
:101DB000880F880F95B1977F982B95B9C6010E941F
:101DC0000C0F0F5F1F4F29810E151F05CCF22170DC
:101DD000220F220F220F85B1877F822B85B90F90AA
:101DE000CF91DF911F910F91FF90EF90DF90CF90F7
:101DF00008950FC000000000000000000000000077
:101E000000000000000000000000000000000000D2
:101E10000197009779F708951F93CF93DF93EC0113
:101E200008C01AE084E690E00E94F90E1150D1F744
:101E300021972097B1F7DF91CF911F910895509A84
:101E4000489A229880E18093690084E08DBB8CBB26
:101E500008951092C8072B981092E7051092E60596
:101E600086E490E062E00E94A80B80E090E00E948F
:101E7000182E08958091F006823039F48091F10691
:101E8000813019F40E94290F089581E08093C807DA
:101E90008EE190E064E070E00E94AA0E2B9A8CEB39
:101EA00092E061E00E94A80B1092E7051092E6050F
:101EB00010921C0610921B0682E090E00E94182EE1
:101EC00080E090E0DC0180937A0690937B06A093FB
:101ED0007C06B0937D068093920690939306A09320
:101EE0009406B09395068093AA069093AB06A093B0
:101EF000AC06B093AD068093520590935305A09322
:101F00005405B093550580936A0590936B05A09393
:101F10006C05B0936D058093820590938305A09323
:101F20008405B0938505089587EE96E06EEA70E02B
:101F300049EC50E00E94813A08950F931F93DF937C
:101F4000CF930F92CDB7DEB78C0169830E94F53A2B
:101F50006981861719F0C8010E94FD3A0F90CF9150
:101F6000DF911F910F910895CF92DF92EF92FF9230
:101F70000F931F93CF93DF93EC017B016A0100E085
:101F800010E008C0C701800F911F69910E949D0F4A
:101F90000F5F1F4F0C151D05A8F3DF91CF911F9107
:101FA0000F91FF90EF90DF90CF90089587EE96E02D
:101FB00060E070E049EC50E00E94B40F0895F8949E
:101FC00087EE96E060E070E049EC50E00E94B40FCC
:101FD00078948CEB92E061E00E94A80B08950E9437
:101FE000940FECE5F7E020EF35E080E694E02193F4
:101FF0003193938B828B31872087958F848F47E035
:10200000E636F407A1F70E94DF0F089587EE96E009
:1020100060E070E049EC50E00E94E53A8091E7060C
:102020008E3F41F48091E8069091E90621E08039E5
:10203000920719F00E94EF0F089587EE96E060E096
:1020400070E049EC50E00E94E53A08951F920F922B
:102050000FB60F9211248F939F93809170069091E9
:102060007106019690937106809370069F918F91EF
:102070000F900FBE0F901F9018951F920F920FB6E2
:102080000F9211248F939F938091BB059091BC0573
:1020900001969093BC058093BB059F918F910F9003
:1020A0000FBE0F901F90189581E080938100809360
:1020B0006F00109271061092700693E09093B10039
:1020C0008093700017BA1092B2001092BC05109263
:1020D000BB0508952091EB062F3F61F410922D056A
:1020E0009093CD008093CC0086E08093CA0088E96D
:1020F0008093C90008959091C80095FFFCCF80930C
:10210000CE000895EF92FF920F931F93CF93DF932A
:10211000082F192FC0E0D0E0E62EFF2406C0F801FA
:1021200081918F010E947B102196CE15DF05BCF3B3
:10213000DF91CF911F910F91FF90EF9008958091C3
:10214000C807813009F469C080E090E020E0FC011C
:10215000E752F84F3081230F019688309105B9F787
:102160008091E107281709F058C08091D90783347E
:1021700021F0863509F051C037C08091DA078530EB
:10218000E9F0863030F4813051F0823009F045C0FA
:102190000CC0863019F1873009F03FC022C08EE1B3
:1021A00090E064E00E94AA0E089580E091E061E072
:1021B0000E94821087EF96E062E608C080E091E01E
:1021C00061E00E94821087EE96E066E50E94821030
:1021D00082E091E061E00E94821008950E94DF0F8A
:1021E00008950E945B2808958091DA076091DB07CB
:1021F0004091DC079FEF699FB0011124680F711DAA
:102200006951794F242F332727FD3095EDEDF7E005
:10221000CB01BF01532F0E949A3A08951F920F924B
:102220000FB60F9211242F933F934F935F936F93A9
:102230007F938F939F93AF93BF93EF93FF9380917F
:10224000C80087FFFCCF8091CE008093D407809197
:102250002E05882399F08091700690917106209147
:10226000D5073091D607821B930B8531910530F04D
:1022700010922E0510922D051092CE07E0912D059B
:10228000F0E08091D407E752F84F808380912E05CB
:10229000882319F08130C1F406C010922D0581E029
:1022A00080932E0507C080912D05883019F40E9477
:1022B0009F100AC0F89480917006909171069093D7
:1022C000D6078093D507789480912D058F5F8093F2
:1022D0002D0580912D05893021F410922D05109245
:1022E0002E05FF91EF91BF91AF919F918F917F91BB
:1022F0006F915F914F913F912F910F900FBE0F9073
:102300001F901895EF92FF920F931F93CF93DF9337
:10231000082F192FC0E0D0E0E62EFF2406C0F801F8
:1023200081918F010E947B102196CE15DF05BCF3B1
:10233000DF91CF911F910F91FF90EF90089590E062
:1023400080979C01220F331F280F391F83E0220F33
:10235000331F8A95E1F725583E4FC901089590E053
:1023600080979C01220F331F280F391F220F331F24
:102370002158384FC90108950E9486370E940610DF
:102380000E9495258091EB068F3F31F48091F606EF
:1023900080FF02C00E941F0F3E9A3C9A3A9A3B9AD5
:1023A0004698449842984398219A239A13981092F9
:1023B000800010928100109282008091EB068F3F86
:1023C00021F48AE090E00E946A100E94F3290E94A2
:1023D0001C280E94C80B0E9454100E947F0E0E946D
:1023E000570C0E947E3778948EE190E00E940C0F8B
:1023F00008950E94CC268091E8059091E905009708
:1024000041F48091BB059091BC059093E9058093C0
:10241000E8058091BB059091BC052091E8053091BD
:10242000E905821B930B8B30910530F00E943B37FE
:102430001092E9051092E805089583E00E94182E95
:102440000E94F911FDCF1092E7071092E807109251
:10245000E9071092EB071092F00702C00E94F911F1
:102460008091EA0682FFFACF81FFF8CF089580912C
:10247000E505882309F46CC18091CA05813009F013
:1024800067C18091FB07807F09F062C18091D70608
:102490008E7F8093D7068091E6059091E70500979F
:1024A00041F480916A0690916B069093E7058093C2
:1024B000E6058091C807813009F054C02091CA0513
:1024C000822F90E0FC01EE0FFF1F43E0880F991F61
:1024D0004A95E1F7E80FF91FEE5FF94F8481958186
:1024E00021E08139920784F01092650680916A0696
:1024F00090916B062091E6053091E705821B930BC6
:1025000021E08233920758F56091EE06662309F4C4
:102510001FC180911B0690911C06009741F4809189
:102520006A0690916B0690931C0680931B0680911F
:102530006A0690916B0620911B0630911C06821B47
:10254000930B70E048EE53E0649F9001659F300D5F
:10255000749F300D11242817390708F0F9C00E9424
:10256000290F0895882309F0F3C02091CA05822F0E
:1025700090E0FC01EE0FFF1F23E0880F991F2A95C2
:10258000E1F7E80FF91FEE5FF94F848195812EEF97
:1025900080379207FCF41092650680916A0690914C
:1025A0006B062091E6053091E705821B930B21E035
:1025B0008233920778F08091EB06882341F4809172
:1025C000FB0790E08F709070009709F0C1C00E94E7
:1025D0003A0F08952091CA05822F90E0FC01EE0F7A
:1025E000FF1FA3E0880F991FAA95E1F7E80FF91FD5
:1025F000EE5FF94F8081918121E081399207ACF043
:102600001092650680916A0690916B062091E6050E
:102610003091E705821B930B21E08233920708F487
:1026200097C081E08093F20657C02091CA05822F9F
:1026300090E0FC01EE0FFF1F63E0880F991F6A9581
:10264000E1F7E80FF91FEE5FF94F808191812EEFDE
:1026500080379207BCF41092650680916A069091CB
:102660006B062091E6053091E705821B930B21E074
:102670008233920708F46CC01092F20680E590E075
:1026800064E02DC02091CA05822F90E0FC01EE0F7E
:10269000FF1F43E0880F991F4A95E1F7E80FF91FE4
:1026A000EE5FF94F828193812EEF80379207F4F429
:1026B0001092650680916A0690916B062091E6055E
:1026C0003091E705821B930B21E08233920708F4D7
:1026D0003FC082E080931A0680E590E068E00E94A7
:1026E000AA0E1092E7051092E60508952091CA05FA
:1026F000822F90E0FC01EE0FFF1F23E0880F991F4F
:102700002A95E1F7E80FF91FEE5FF94F8281938177
:1027100021E081399207E4F01092650680916A0603
:1027200090916B062091E6053091E705821B930B93
:1027300021E08233920760F081E080931A0680E501
:1027400090E064E00E94AA0E1092E7051092E60560
:1027500008958091E505882309F487C08091FB07DF
:10276000807F09F082C08091E6059091E70500978F
:1027700041F480916A0690916B069093E7058093EF
:10278000E60580910E0690910F0621E081399207AF
:102790008CF01092650680916A0690916B062091EC
:1027A000E6053091E705821B930B8135910500F119
:1027B00080E218C080910E0690910F062EEF8037B0
:1027C0009207B4F41092650680916A0690916B06A8
:1027D0002091E6053091E705821B930B8135910529
:1027E00038F080E48093D6061092E7051092E60553
:1027F00080910C0690910D0621E081399207BCF082
:102800001092650680916A0690916B062091E6050C
:102810003091E705821B930B8135910530F180E102
:102820008093D6061092E7051092E60508958091F0
:102830000C0690910D062EEF80379207B4F410929B
:10284000650680916A0690916B062091E6053091AD
:10285000E705821B930B8135910538F080E8809362
:10286000D6061092E7051092E60508951092970596
:1028700010929605109299051092980510929B055A
:1028800010929A058091F006823039F486E292E047
:1028900090939D0580939C0504C010929D05109215
:1028A0009C050E941E2408958F929F92AF92BF9222
:1028B000CF92DF92EF92FF920F931F93CF93DF930C
:1028C0000E94CC262091CA05822F90E0FC01EE0FD9
:1028D000FF1F23E0880F991F2A95E1F7E80FF91FE2
:1028E000EE5FF94F868197819093C5058093C4056B
:1028F0000E941629F8948091700690917106909329
:102900006B0680936A0678940E94C31C21E0209392
:1029100065068091EB06882389F48091FB07807F10
:1029200069F480911406909115063EEF8037930765
:102930001CF41092CA0502C02093CA058091E805D4
:102940009091E90520916A0630916B06009729F471
:102950003093E9052093E80579C0281B390B253011
:10296000310508F473C00E943B3760915907662314
:10297000F1F0E0905306F090540600915506109146
:10298000560670E0882777FD8095982F0E9495382D
:102990009B01AC01C801B7010E94F6379091D706A0
:1029A00087FF02C0926001C09D7F9093D7068091FF
:1029B000D706882351F085B1869580958170880F60
:1029C00095B19D7F982B95B901C029988091EB0610
:1029D0008F3FC1F520912F05222381F080911406AD
:1029E000909115064EEF8037940734F484E080937D
:1029F0001A0610922F0526C0213071F0809114061E
:102A00009091150651E08139950724F081E080937B
:102A10001A0616C02B30B1F080911406909115065D
:102A200021E08039920774F4809114069091150684
:102A30003EEF8137930734F082E080931A068BE0F3
:102A400080932F051092E9051092E805C091C40506
:102A5000D091C505C233D1052CF40E9437120E94D3
:102A600036146BC38091C807882329F40E9436145A
:102A70000E94A91362C310921C0610921B0620919B
:102A8000CA05822F90E0FC01EE0FFF1F13E0880FB4
:102A9000991F1A95E1F7E80FF91FEE5FF94F808152
:102AA0009181E090F506FF24E89EB001E99E700D4B
:102AB000F89E700D1124882777FD8095982F0E942D
:102AC00095382DEC3CEC4CE45DE30E9449390E94C2
:102AD00062387093BF056093BE052091CA05822FAE
:102AE00090E0FC01EE0FFF1FA3E0880F991FAA954D
:102AF000E1F7E80FF91FEE5FF94F82819381E89EBD
:102B0000B001E99E700DF89E700D1124882777FDA5
:102B10008095982F0E9495382DEC3CEC4CE45DE3B9
:102B20000E9449390E9462387093C1056093C005C4
:102B30002091CA05822F90E0FC01EE0FFF1F63E099
:102B4000880F991F6A95E1F7E80FF91FEE5FF94FBB
:102B500084819581E89EB001E99E700DF89E700D0C
:102B60001124882777FD8095982F0E9495382DECA9
:102B70003CEC4CE45DE30E9449390E94623870935A
:102B8000C3056093C2058091F006813071F44091D5
:102B9000F10680913506909136062091B605309168
:102BA000B705413009F057C034C0609135067091C7
:102BB0003606CB018C0F9D1F90939B0580939A0541
:102BC000882777FD8095982F0E94953820E030E087
:102BD00040E05FE30E9449390E9462389B01709394
:102BE0003606609335064091B6055091B705CE0183
:102BF000821B930B841B950B9093970580939605EE
:102C0000C40FD51FC21BD30BD0939905C093980551
:102C10003DC0B9016C0F7D1FAE01421B530B481B19
:102C2000590B5093970540939605AB01481B590BE0
:102C30005093990540939805680F791F70939B05F1
:102C400060939A05C80FD91FC21BD30BD0939D0563
:102C5000C0939C051BC0A9014C0F5D1F50939905A3
:102C600040939805AE01421B530B50939D05409332
:102C70009C059E01281B390B3093970520939605E0
:102C8000C80FD91FD0939B05C0939A0580911A064F
:102C9000813009F02EC19091F0068091F2069130BA
:102CA00009F0A3C06091BE057091BF05E090C0051A
:102CB000F090C10580909C0590909D05A09098058E
:102CC000B0909905C0909A05D0909B05009196050B
:102CD00010919705813009F049C0882777FD8095CC
:102CE000982F0E9495382EEA37E441E25FE30E9474
:102CF00049390E946238EB017093BF056093BE05AD
:102D0000B701882777FD8095982F0E9495382EEA85
:102D100037E441E25FE30E9449390E9462389B0137
:102D20007093C1056093C0058C0E9D1ECC1ADD0A00
:102D3000CE01820F931F800F911F90939705809370
:102D40009605A20EB31EAC1ABD0AB0929905A092C8
:102D50009805C21AD30AD0929B05C0929A05821A8E
:102D6000930A90929D0580929C052EC1882777FD3D
:102D70008095982F0E94953826E636E646E65FE372
:102D80000E9449390E946238EB017093BF0560933D
:102D9000BE05B701882777FD8095982F0E9495384A
:102DA00026E636E646E65FE30E9449390E9462382D
:102DB0007093C1056093C005060F171F1093970508
:102DC00000939605C61AD70AD0929B05C0929A0521
:102DD000AC1ABD0AB0929905A0929805C80DD91DEC
:102DE000D0939D05C0939C05EFC0813011F001E0A8
:102DF00001C00FEFC091C005D091C10560919A0547
:102E000070919B05882777FD8095982F0E949538B3
:102E10004B015C01602F772767FD7095872F972FF7
:102E20000E9495386B017C01BE01882777FD809553
:102E3000982F0E9495382DEC3CEC4CE85FE30E9403
:102E400049399B01AC01C701B6010E9449399B0178
:102E5000AC01C501B4010E9491370E9462387093A1
:102E60009B0560939A05E02EFF24E7FCF094EC9E0E
:102E7000B001ED9E700DFC9E700D1124882777FD2A
:102E80008095982F0E94953820E030E040E05FE385
:102E90000E9449390E946238FB017093C10560931A
:102EA000C0052091960530919705809198059091E5
:102EB00099056091BE057091BF05E69EA001E79E51
:102EC000500DF69E500D11245093BF054093BE0542
:102ED000240F351F2E0F3F1F309397052093960523
:102EE000841B950B8E0F9F1F9093990580939805D7
:102EF0006BC00E94E5207B018C016091960570916A
:102F00009705882777FD8095982F0E949538A8010E
:102F100097010E9492370E946238709397056093E0
:102F200096056091980570919905882777FD8095A1
:102F3000982F0E949538A80197010E9492370E940D
:102F4000623870939905609398058091F006C0905F
:102F50009A05D0909B05813031F5B601882777FD21
:102F60008095982F0E949538A80197010E9492376A
:102F70000E94623870939B0560939A0560919C054E
:102F800070919D05882777FD8095982F0E94953830
:102F9000A80197010E9492370E94623870939D05A4
:102FA00060939C0511C0B601882777FD8095982F06
:102FB0000E949538A80197010E9492370E946238BA
:102FC00070939B0560939A050091F0068091E50649
:102FD0009091E606013049F52091960530919705CC
:102FE000281B390B309397052093960520919A055D
:102FF00030919B05281B390B30939B0520939A0534
:103000002091980530919905280F391F3093990523
:103010002093980520919C0530919D05280F391F1C
:1030200030939D0520939C053AC02091AE07C22F96
:10303000DD27C7FDD095C89FB001C99F700DD89FEF
:10304000700D11246A5D7D4F882777FD8095982F3C
:103050000E9495386B017C018091C2059091C30557
:10306000C89FB001C99F700DD89F700D112488278B
:1030700077FD8095982F0E9495382DEC3CEC4CE420
:103080005EE30E9449399B01AC01C701B6010E9471
:1030900091370E94623870939D0560939C058091E2
:1030A0009605909197058436910534F484E690E076
:1030B0009093970580939605809198059091990536
:1030C0008436910534F484E690E0909399058093DA
:1030D000980580919A0590919B058436910534F46A
:1030E00084E690E090939B0580939A05013069F403
:1030F00080919C0590919D058436910534F484E679
:1031000090E090939D0580939C058091EB068F3F06
:10311000A1F484E091E061E00E9482108BE396E0EC
:103120006CE00E94821086E995E068E00E948210BF
:1031300086E091E061E00E9482108091FB07807F31
:1031400079F00E9436148091C807813049F40E94BA
:103150001E240E94290F8091D70681608093D70694
:103160000E941E2480916506813021F41092E705AB
:103170001092E605DF91CF911F910F91FF90EF9094
:10318000DF90CF90BF90AF909F908F900895109256
:10319000E5050E94BC1110924D051092D70681E002
:1031A00080931A0680932F058BE396E09093D807BF
:1031B0008093D7071092C9078091850090E0909383
:1031C000DD068093DC060E9423128091EF06813099
:1031D00011F40E941D120E9486378FE00E94182E63
:1031E0000E945414FDCF6F927F928F929F92AF9264
:1031F000BF92CF92DF92EF92FF920F931F93DF93D4
:10320000CF93CDB7DEB72E970FB6F894DEBF0FBEC3
:10321000CDBFC982DA82EB82FC820D831E832F83AD
:10322000388749875A876B877C878D879E87EF8C85
:10323000F8A009A11AA16D807E80C801B7010E9483
:10324000563A9C01B901882777FD8095982F0E94F6
:10325000953820E030E040E85FE30E9445391816D9
:10326000CCF469817A81882777FD8095982F0E9418
:1032700095389B01AC01C801B7010E94493920E093
:1032800030E040E251E40E94FA37F5016083718337
:1032900082839383C801B701F5012485358546856E
:1032A00057850E9491370E9462386B01C801B701AF
:1032B00020E030E040E850E40E9445391816BCF4A4
:1032C000B301882777FD8095982F0E94953820E0DC
:1032D00030E048EC52E40E94FA379B01AC01F50162
:1032E00064817581868197810E94923732C0C801BE
:1032F000B70120E030E040E850EC0E94F63787FF4D
:1033000015C0B301882777FD8095982F0E949538C6
:1033100020E030E048EC52E40E94FA379B01AC0117
:10332000F501648175818681978111C0F501648002
:10333000758086809780C401B3012AE037ED43E2AF
:103340005CE30E9449399B01AC01C401B3010E94B6
:103350009137F5016483758386839783B601882747
:1033600077FD8095982F0E9495383B014C01698527
:103370007A85882777FD8095982F0E9495389B0144
:10338000AC01C401B3010E94493920E030E040EAB9
:1033900051E40E94FA37F50160877187828793872D
:1033A000E486F58606871787E480F5800681178115
:1033B0006F817885882777FD8095982F0E949538B2
:1033C0009B01AC01C801B7010E94DB22F5016483B7
:1033D000758386839783E080F180028113816B81FE
:1033E0007C81882777FD8095982F0E9495389B01D6
:1033F000AC01C801B7010E94DB22F5016083718333
:1034000082839383E084F184028513856B857C85B8
:10341000882777FD8095982F0E9495389B01AC01F5
:10342000C801B7010E94DB227B018C01F501608796
:1034300071878287938760817181828193812481E2
:103440003581468157810E949237A80197010E94D9
:1034500092372E960FB6F894DEBF0FBECDBFCF9138
:10346000DF911F910F91FF90EF90DF90CF90BF9071
:10347000AF909F908F907F906F900895AF92BF9282
:10348000CF92DF92EF92FF920F931F93DF93CF9330
:10349000CDB7DEB72E970FB6F894DEBF0FBECDBF07
:1034A000C982DA82EB82FC820D831E832F833887E8
:1034B00049875A876B877C878D879E87EB8CFC8C2E
:1034C0000D8D1E8D69817A81882777FD8095982FD3
:1034D0000E9495389B01AC01C801B7010E9449398F
:1034E00020E030E040EA51E40E94FA37F5016083C1
:1034F000718382839383C801B7012485358546850E
:1035000057850E9491370E9462386B01C801B7014C
:1035100020E030E040E85FE30E944539181654F09F
:10352000C801B70120E030E040E85FEB0E94F637C9
:1035300087FF22C06D817E81882777FD8095982F37
:103540000E9495389B01AC01C801B7010E9449391E
:1035500020E030E048E453E40E94FA379B01AC01DC
:10356000F50164817581868197810E949237F5010A
:10357000648375838683978389859A85C89EB00105
:10358000C99E700DD89E700D1124882777FD8095F7
:10359000982F0E94953820E030E040EA51E40E94E4
:1035A000FA37F5016087718782879387E486F5860D
:1035B00006871787E480F580068117816F817885FB
:1035C000882777FD8095982F0E9495389B01AC0144
:1035D000C801B7010E94DB22F501648375838683ED
:1035E0009783E080F180028113816B817C81882741
:1035F00077FD8095982F0E9495389B01AC01C801FA
:10360000B7010E94DB22F50160837183828393837B
:10361000E084F184028513856B857C85882777FD9E
:103620008095982F0E9495389B01AC01C801B70185
:103630000E94DB227B018C01F50160877187828704
:103640009387608171818281938124813581468154
:1036500057810E949237A80197010E9492372E96B7
:103660000FB6F894DEBF0FBECDBFCF91DF911F9193
:103670000F91FF90EF90DF90CF90BF90AF900895A3
:1036800080E090E0DC0180937A0690937B06A09323
:103690007C06B0937D068093920690939306A09348
:1036A0009406B09395068093AA069093AB06A093D8
:1036B000AC06B093AD068093520590935305A0934A
:1036C0005405B093550580936A0590936B05A093BC
:1036D0006C05B0936D058093820590938305A0934C
:1036E0008405B09385058093B4079093B507A093A4
:1036F000B607B093B70708952F923F924F925F920B
:103700006F927F928F929F92AF92BF92CF92DF92F1
:10371000EF92FF920F931F93DF93CF93CDB7DEB756
:1037200028970FB6F894DEBF0FBECDBF20906C0671
:1037300030906D0640906E0650906F066090720655
:103740007090730680907406909075062091DE0646
:103750003091DF064091E0065091E1068091E0054E
:103760009091E105A091E205B091E30589839A83E8
:10377000AB83BC83E0901606F09017060091180604
:1037800010911906C401B3010E94493923ED39EDA6
:1037900049E45AE30E9449395B016C0169817A81ED
:1037A0008B819C81A80197010E94493923ED39ED55
:1037B00049E45AE30E9449399B01AC01C601B501B5
:1037C0000E9492379B01AC01C201B1010E94913766
:1037D0009B01AC0120936C0630936D0640936E06FE
:1037E00050936F068091DE069091DF06A091E0066F
:1037F000B091E1068D839E83AF83B88720916C06DC
:1038000030916D0640916E0650916F0620901D0616
:1038100030901E0640901F0650902006E09016063D
:10382000F09017060091180610911906C401B30113
:103830000E94493923ED39ED49E45AE30E944939A0
:103840005B016C01C201B101A80197010E944939D5
:1038500023ED39ED49E45AE30E9449399B01AC015B
:10386000C601B5010E9491379B01AC016D817E813B
:103870008F8198850E9492379B01AC012093DE06D0
:103880003093DF064093E0065093E1066090160601
:1038900070901706809018069090190620916C067B
:1038A00030916D0640916E0650916F06E090DE06F5
:1038B000F090DF060091E0061091E10669817A81BF
:1038C0008B819C810E94493923ED39ED49E45AE30B
:1038D0000E9449395B016C01C201B101A801970145
:1038E0000E94493923ED39ED49E45AE30E944939F0
:1038F0009B01AC01C601B5010E9492379B01AC014E
:10390000C401B3010E9492379B01AC0120931606BB
:1039100030931706409318065093190628960FB651
:10392000F894DEBF0FBECDBFCF91DF911F910F91F5
:10393000FF90EF90DF90CF90BF90AF909F908F90CF
:103940007F906F905F904F903F902F90089580E010
:1039500090E0DC018093160690931706A09318065A
:10396000B09319068093DE069093DF06A093E006DD
:10397000B093E10680936C0690936D06A0936E065B
:10398000B0936F0608952F923F924F925F926F927D
:103990007F928F929F92AF92BF92CF92DF92EF92DF
:1039A000FF920F931F93DF93CF93CDB7DEB72C9782
:1039B0000FB6F894DEBF0FBECDBF6091490770917E
:1039C0004A07882777FD8095982F0E94953820E038
:1039D00030E04AE754E40E94FA377B018C01A09062
:1039E0004F06B0905006C0905106D09052067F2DE1
:1039F000912F209137063091380640913906509129
:103A00003A060E9449393B014C0160E070E080E8D1
:103A10009FE32E2D3F2D402F512F0E949137A6015D
:103A200095010E9449399B01AC01C401B3010E9478
:103A300092376093370670933806809339069093D7
:103A40003A0660911F0770912007882777FD8095BF
:103A5000982F0E94953820E030E04AE754E40E9415
:103A6000FA377B018C01A0904306B0904406C090C9
:103A70004506D09046067F2D912F20911D0630914E
:103A80001E0640911F06509120060E9449393B01B5
:103A90004C0160E070E080E89FE32E2D3F2D402F29
:103AA000512F0E949137A60195010E9449399B012F
:103AB000AC01C401B3010E94923760931D0670935C
:103AC0001E0680931F069093200660910307709155
:103AD0000407882777FD8095982F0E94953820E06D
:103AE00030E04AE754E40E94FA377B018C01A09051
:103AF0003F06B0904006C0904106D09042067F2D10
:103B0000912F2091E0053091E1054091E20550911F
:103B1000E3050E9449393B014C0160E070E080E818
:103B20009FE32E2D3F2D402F512F0E949137A6014C
:103B300095010E9449399B01AC01C401B3010E9467
:103B40009237D62EC72EB82EA92EA6019501852F05
:103B5000942FA32FB22F8093E0059093E105A093BB
:103B6000E205B093E3056091110770911207882771
:103B700077FD8095982F0E94953820E030E04AE745
:103B800054E40E94FA377B018C0160903B067090F0
:103B90003C0680903D0690903E067F2D912F20910F
:103BA00072063091730640917406509175060E941A
:103BB00049391B012C0160E070E080E89FE32E2D65
:103BC0003F2D402F512F0E949137A40193010E9455
:103BD00049399B01AC01C201B1010E949237609347
:103BE000720670937306809374069093750600D0E6
:103BF00000D0A6019501852F942FA32FB22FEDB7EA
:103C0000FEB781839283A383B483C090F706D090DC
:103C1000F806E090F906F090FA060091FB06109184
:103C2000FC062091FD063091FE064091FF06509162
:103C3000000760910107709102078091030790913E
:103C40000407A6E7AA2EA6E0BA2E0E943E1A0E94FA
:103C500062387093360660933506809172069091B3
:103C60007306A0917406B0917506EDB7FEB7818317
:103C70009283A383B483C0900507D0900607E09099
:103C80000707F09008070091090710910A07209193
:103C90000B0730910C0740910D0750910E07609172
:103CA0000F07709110078091110790911207FEE89D
:103CB000AF2EF6E0BF2E0E943E1A0E94623870932B
:103CC000B7056093B6050DB71EB70F5F1F4F609124
:103CD000C2057091C305882777FD8095982F0E94B3
:103CE000953820E030E040E05FE30E9449399B01D5
:103CF000AC0160911D0670911E0680911F06909187
:103D000020060E949137F801608371838283938338
:103D1000C0901307D0901407E0901507F090160795
:103D200000911707109118072091190730911A0771
:103D300040911B0750911C0760911D0770911E0751
:103D400080911F0790912007E6EAAE2EE6E0BE2E96
:103D50000E943E1A0E9462387093E6066093E50660
:103D6000E0904706F09048060091490610914A06F7
:103D700017FB109517F9109560915A07772767FD83
:103D80007095872F972F0E9495389B01AC01C80131
:103D9000B7010E94913769837A838B839C83E0907B
:103DA0004B06F0904C0600914D0610914E0617FB05
:103DB000109517F9109560915B07772767FD70954F
:103DC000872F972F0E9495389B01AC01C801B7013E
:103DD0000E9491376D837E838F839887609143061D
:103DE00070914406809145069091460623ED39ED89
:103DF00049E45AE30E9449397B018C016091E20653
:103E00007091E30680E090E00E9493389B01AC0142
:103E1000C801B7010E9449392FE632E143E85AE36D
:103E20000E94493969877A878B879C872091850012
:103E30008091DC069091DD0630E00F900F900F909E
:103E40000F908217930750F4809185002091DC0633
:103E50003091DD0690E0821B930B0AC08091DC0656
:103E60009091DD062091850080959095820F911D9F
:103E70009093E3068093E2068091DC069091DD0644
:103E80006091E2067091E306860F971F9093DD061E
:103E90008093DC06A0901606B0901706C090180616
:103EA000D0901906E0903F06F09040060091410640
:103EB0001091420680E090E00E9493381B012C0193
:103EC0006091DE067091DF068091E0069091E10638
:103ED0002FE73DE446E55CE30E9449390E94AC3996
:103EE0003B014C01C801B70123ED39ED49E45AE328
:103EF0000E944939A20191010E9449392FE632E11D
:103F000043E85AE30E9449399B01AC01C601B5015F
:103F10000E9492377B018C01C401B301B985AA8547
:103F2000DB84CC842B2F3A2F4D2D5C2D0E944939F8
:103F30009B01AC01C801B7010E9492379B01AC0103
:103F400020931606309317064093180650931906CF
:103F5000A090DE06B090DF06C090E006D090E106AB
:103F6000E0903B06F0903C0600913D0610913E0625
:103F700060911606709117068091180690911906A7
:103F80002FE73DE446E55CE30E9449390E94AC39E5
:103F90003B014C01C801B70123ED39ED49E45AE377
:103FA0000E944939A20191010E9449392FE632E16C
:103FB00043E85AE30E9449399B01AC01C601B501AF
:103FC0000E9492377B018C01C401B301B985AA8597
:103FD000DB84CC842B2F3A2F4D2D5C2D0E94493948
:103FE0009B01AC01C801B7010E9491379B01AC0154
:103FF0002093DE063093DF064093E0065093E106FF
:1040000000912D0710912E0759814A813B812C8107
:10401000652F742F832F922F20E030E04CE053E483
:104020000E94F63787FF52C059814A813B812C811B
:10403000652F742F832F922F20E030E04CE053EC5B
:104040000E94453918160CF041C0B801882777FD49
:104050008095982F0E94953820E030E04AE754E49C
:104060000E94FA37F62E072F182FE92E20911606F8
:104070003091170640911806509119060E9449394F
:104080005B016C0160E070E080E89FE32F2D302F32
:10409000412F5E2D0E949137B981AA811B810C812D
:1040A0002B2F3A2F412F502F0E9449399B01AC01F1
:1040B000C601B5010E9492379B01AC012093160600
:1040C00030931706409318065093190600913B074A
:1040D00010913C075D814E813F812885652F742FAB
:1040E000832F922F20E030E04CE053E40E94F6371B
:1040F00087FF52C05D814E813F812885652F742FD7
:10410000832F922F20E030E04CE053EC0E944539A1
:1041100018160CF041C0B801882777FD8095982FBC
:104120000E94953820E030E04AE754E40E94FA37D4
:10413000F62E072F182FE92E2091DE063091DF068C
:104140004091E0065091E1060E9449395B016C0103
:1041500060E070E080E89FE32F2D302F412F5E2D2F
:104160000E949137BD81AE811F8108852B2F3A2F88
:10417000412F502F0E9449399B01AC01C601B50166
:104180000E9492379B01AC012093DE063093DF063C
:104190004093E0065093E1062C960FB6F894DEBFEC
:1041A0000FBECDBFCF91DF911F910F91FF90EF9088
:1041B000DF90CF90BF90AF909F908F907F906F9047
:1041C0005F904F903F902F900895AF92BF92CF9203
:1041D000DF92EF92FF920F931F9300D000D0809157
:1041E000370690913806A0913906B0913A06B0583A
:1041F000EDB7FEB781839283A383B483C0903D075C
:10420000D0903E07E0903F07F090400700914107B3
:104210001091420720914307309144074091450790
:104220005091460760914707709148078091490770
:1042300090914A07EEE7AE2EE5E0BE2E0E943E1AB0
:10424000609366067093670680936806909369068C
:104250000F900F900F900F908091EB068F3F09F019
:10426000F4C08091F60680FFF0C080911A06843079
:1042700009F0EBC0489AF8946091D0057091D1058F
:1042800080E090E00E9493387B018C0178947F2D30
:10429000912F20E030E849E054E40E94F63787FF90
:1042A000B4C080913505882329F58091330590911C
:1042B00034058330910534F401969093340580934E
:1042C0003305C9C06E2D7F2D802F912F0E94673836
:1042D0007093DB066093DA0680E090E0DC01809367
:1042E000B4079093B507A093B607B093B70781E0E2
:1042F000809335056091DA067091DB0680E090E0EE
:104300000E9493382E2D3F2D402F512F0E94913720
:10431000F62E072F182FE92E862F902FA12FBE2DB6
:104320008093BE069093BF06A093C006B093C106CB
:104330006F2D702F812F9E2D20E030E048E452E455
:104340000E94F63787FF5CC06F2D702F812F9E2D46
:1043500020E030E048E452EC0E94453918160CF099
:104360004FC01092300500D000D08F2D902FA12F7C
:10437000BE2DEDB7FEB781839283A383B483C09033
:104380004B07D0904C07E0904D07F0904E070091FE
:104390004F071091500720915107309152074091DB
:1043A00053075091540760915507709156078091BB
:1043B000570790915807B0EBAB2EB7E0BB2E0E9489
:1043C0003E1A0E9462387B018C0170933405609321
:1043D00033050F900F900F900F906091BE06709173
:1043E000BF068091C0069091C10620E030E0A9018F
:1043F0000E94F637882321F4F0923205E0923105CD
:10440000609133057091340504C06091310570915D
:104410003205882777FD8095982F0E9495389B015B
:10442000AC01609166067091670680916806909174
:1044300069060E94923760936606709367068093C0
:10444000680690936906489806C010923405109249
:10445000330510923505709166066091670690915C
:10446000680680916906AB019C01652F742F832F2C
:10447000922F1F910F91FF90EF90DF90CF90BF9000
:10448000AF9008956F927F928F929F92AF92BF925A
:10449000CF92DF92EF92FF920F931F93CF93DF9310
:1044A000EC016B01BC0197FF04C066277727681BEE
:1044B000790B882777FD8095982F0E9495382FEFEC
:1044C00036EE4BED5EE20E949237162F072FF82E44
:1044D000E92EB601882777FD8095982FD7FC2BC051
:1044E0000E9495385B016C01D801F7012B2F3A2F00
:1044F0004F2F5E2F0E9491373B014C01C601B50141
:10450000D801F7012B2F3A2F4F2F5E2F0E949237A1
:104510009B01AC01C401B3010E94FA3720E030E0F6
:1045200040E053E40E9449399B01AC0160E070E037
:1045300080E093E42AC00E9495385B016C01D801A9
:10454000F7012B2F3A2F4F2F5E2F0E9492373B01FE
:104550004C01A8019701652F742F832F922FA6017C
:1045600095010E9491379B01AC01C401B3010E94E7
:10457000FA3720E030E040E053E40E9449399B01E3
:10458000AC0160E070E080EC93E40E949137D7FDCD
:1045900090580E946238CB01DF91CF911F910F910B
:1045A000FF90EF90DF90CF90BF90AF909F908F9053
:1045B0007F906F900895AF92BF92CF92DF92EF926B
:1045C000FF920F931F93D62EC72EB82EA92E7901D6
:1045D0008A01A6019501652F742F832F922FA801C0
:1045E00097010E9445391816B4F017FB109517F97A
:1045F0001095A6019501652F742F832F922FA80186
:1046000097010E94F63787FD06C09601C501E32E8B
:10461000F22E092F182F6E2D7F2D802F912F1F9195
:104620000F91FF90EF90DF90CF90BF90AF900895E3
:10463000681779073CF0709561957F4F6817790787
:104640000CF4BC01CB01089580E090E008952F9216
:104650003F924F925F926F927F928F929F92AF9212
:10466000BF92CF92DF92EF92FF920F931F935B0165
:104670006C0139014A010E9495387B018C01C4010B
:10468000B3010E9495389B01AC01C801B7010E949B
:10469000FA37F62E072F182FE92E9501B7FE03C023
:1046A000309521953F4FC30177FE03C090958195CA
:1046B0009F4F281739078CF56F2D702F812F9E2D56
:1046C00020E030E44FE054E40E9449391B012C0102
:1046D0006F2D702F812F9E2D29E23CE54FE85EE380
:1046E0000E9449392F2D302F412F5E2D0E944939CC
:1046F00020E030E040E85FE30E9492379B01AC018C
:10470000C201B1010E94FA370E94623897FE35C09B
:10471000D7FC31C0685F784F30C06F2D702F812F6C
:104720009E2D20E030E44FE054E40E9449393B01E3
:104730004C016F2D702F812F9E2D2F2D302F412F4B
:104740005E2D0E94493929E23CE54FE85EE30E9474
:1047500092379B01AC01C401B3010E94FA379B015F
:10476000AC0160E070E081E694E40E9491370E9421
:104770006238D7FE02C068507740CB011F910F917D
:10478000FF90EF90DF90CF90BF90AF909F908F9071
:104790007F906F905F904F903F902F9008956F9211
:1047A0007F928F929F92AF92BF92CF92DF92EF92C1
:1047B000FF920F931F935B016C01DC01CB01B59558
:1047C000A795979587952FEDE22E29E5F22E27E301
:1047D000022F2FE5122FE81AF90A0A0B1B0BC8014A
:1047E000B70120E030E040E05FE30E9449393B013F
:1047F0004C01C601B501A80197010E944939A801E1
:1048000097010E9449399B01AC0160E070E080E4AF
:1048100090E40E9491379B01AC01C401B3010E9456
:1048200049391F910F91FF90EF90DF90CF90BF908B
:10483000AF909F908F907F906F900895F8948091A3
:10484000BB059091BC059093120880931108789451
:104850002091110830911208809104089091050868
:104860002817390738F0281B390B3093FF0720939E
:10487000FE0708C080959095820F931F9093FF07C5
:104880008093FE074091FE075091FF0789E991E070
:10489000489F9001499F300D589F300D112480EAA8
:1048A0009FE0821B930B0DC01092B20085369105DC
:1048B0003CF02091B2002832E0F38055904001C0D6
:1048C000019790930A0880930908809109089091B4
:1048D0000A081816190644F3809136058F5F8093F5
:1048E0003605809196059091970597FF05C0109227
:1048F0000C0810920B080AC024E08F37920714F0BE
:104900008EE794E090930C0880930B0880919805B3
:104910009091990597FF05C0109203081092020824
:104920000AC024E08F37920714F08EE794E090934A
:1049300003088093020880919A0590919B0597FF48
:1049400005C01092100810920F080AC024E08F379B
:10495000920714F08EE794E09093100880930F086C
:1049600080919C0590919D0597FF05C010920108CC
:10497000109200080AC024E08F37920714F08EE7E7
:1049800094E09093010880930008469A449A429AD2
:104990008091F006813011F4439A09C0823039F4D5
:1049A00080913605853019F4439A1092360580912E
:1049B000F40690E0805E9C4F0DC01092B2008536E8
:1049C00091053CF02091B2002D32E0F380559040EB
:1049D00001C0019790930A08809309088091090803
:1049E00090910A081816190644F3109208081092BC
:1049F000070839C0209107083091080880910B08FA
:104A000090910C082817390708F04698209107085C
:104A100030910808809102089091030828173907FF
:104A200008F04498209107083091080880910F08F9
:104A3000909110082817390708F04298209107082C
:104A400030910808809100089091010828173907D3
:104A500008F0439880910708909108080496909375
:104A6000080880930708809107089091080824E0BF
:104A70008238920708F4BECFF8948091BB059091DC
:104A8000BC059093050880930408789408952091BC
:104A900084003091850090E0880F991FFC01EE5D45
:104AA000F74F40815181DC01A453BA4F421753079D
:104AB00048F4209184003091850080819181281BE9
:104AC000390B0AC02081318180918400909185004A
:104AD00020953095280F391F11963C932E930895F9
:104AE000209184003091850090E00596880F991FF1
:104AF000FC01EE5DF74F40815181DC01A453BA4FB8
:104B00004217530740F480819181281B390B11967D
:104B10003C932E9308954081518140955095420FCA
:104B2000531F11965C934E93089520988091EB0645
:104B30008823F1F41092CA055298509853982298FD
:104B400085E18093690087E08DBB8CBB8091680014
:104B50008A608093680080916C00816080936C0013
:104B6000809173008160809373008BB38A608BBBEC
:104B700081E08093CA053D9838983F983998809194
:104B8000680086608093680080916C0081608093EB
:104B90006C0080916D00836A80936D008BB386609A
:104BA0008BBB8091FB0781608093FB078091FB07A3
:104BB00080618093FB07F894809170069091710654
:104BC00090931A088093190880917006909171064D
:104BD00090931C0880931B087894809117089091FB
:104BE00018089093180880931708809113089091E3
:104BF000140890931408809313080895F89490E093
:104C0000FC01EE0FFF1FEE0FFF1FE80FF91FE60F6D
:104C1000F11DEE0FFF1FE453FA4F2081318178948C
:104C2000C9010895F89490E070E09C01220F331FB1
:104C3000220F331F280F391FA901460F571F440F9A
:104C4000551FFA01E453FA4F808191817894445AB8
:104C5000584FFA0140815181841B950B260F371F55
:104C60002C55384FF9016081772767FD70950E94B8
:104C7000433ACB010895F894882311F540917006CA
:104C8000509171066091190870911A08461B570BD4
:104C90004531510520F08091FB07816034C040917F
:104CA00070065091710660911B0870911C08461B9C
:104CB000570B4531510568F18091FB07826023C095
:104CC000813039F540917006509171066091170856
:104CD00070911808461B570B4531510520F0809103
:104CE000FB07806110C04091700650917106609181
:104CF000130870911408461B570B4531510548F0B5
:104D00008091FB0780628093FB07789420E030E07D
:104D100041C0282F30E0C901880F991FA901B3E0D5
:104D2000440F551FBA95E1F7840F951FFC01E4531A
:104D3000FA4F4681578150931E0840931D0878947E
:104D400040911D0850911E088A58984FFC0180819F
:104D50009181481B590B50931E0840931D08809168
:104D60001D0890911E08F901EE0FFF1FEE0FFF1FA7
:104D7000E20FF31FE955F84F6081772767FD7095C3
:104D80000E94433A70931E0860931D0820911D08ED
:104D900030911E08C9010895CF92DF92EF92FF92E1
:104DA0000F931F93CF93DF93C0E0D0E02DC003306B
:104DB000110539F48C2F0E943B26F70191838083E3
:104DC0001AC08C2F602F0E941226F601E00FF11FEF
:104DD000EE0FFF1FEE5FF94F9183808380819181F9
:104DE0008F30910544F4808191813FEF823F93079A
:104DF00014F0118210820F5F1F4F05301105B9F6B4
:104E00002196C230D105C9F000E010E06E01CC0C53
:104E1000DD1CCC0CDD1CCC0EDD1E7E01EE0CFF1C5F
:104E2000CE0153E0880F991F5A95E1F7E80EF91E5D
:104E300088E096E0E80EF91EBACFDF91CF911F917E
:104E40000F91FF90EF90DF90CF90089561E276E0B0
:104E5000282F30E0F901EE0FFF1F93E0220F331FE0
:104E60009A95E1F7E20FF31FE60FF71F1182108208
:104E700042EC56E0282F30E0F901EE0FFF1FA3E0CF
:104E8000220F331FAA95E1F7E20FF31FE40FF51F7E
:104E90002EEF3FEF31832083A82FB0E0FD01EE0F0E
:104EA000FF1F93E0AA0FBB1F9A95E1F7EA0FFB1FC4
:104EB000E60FF71F13821282A82FB0E0FD01EE0F5C
:104EC000FF1F93E0AA0FBB1F9A95E1F7EA0FFB1FA4
:104ED000E40FF51F33832283A82FB0E0FD01EE0F0E
:104EE000FF1F93E0AA0FBB1F9A95E1F7EA0FFB1F84
:104EF000E60FF71F15821482A82FB0E0FD01EE0F18
:104F0000FF1F93E0AA0FBB1F9A95E1F7EA0FFB1F63
:104F1000E40FF51F35832483A82FB0E0FD01EE0FC9
:104F2000FF1F93E0AA0FBB1F9A95E1F7EA0FFB1F43
:104F3000E60FF71F17821682A82FB0E0FD01EE0FD3
:104F4000FF1F93E0AA0FBB1F9A95E1F7EA0FFB1F23
:104F5000E40FF51F37832683A82FB0E0FD01EE0F85
:104F6000FF1F93E0AA0FBB1F9A95E1F7EA0FFB1F03
:104F7000E60FF71F11861086682F70E0FB01EE0F19
:104F8000FF1FB3E0660F771FBA95E1F7E60FF71F33
:104F9000E40FF51F318720870895DF92EF92FF928B
:104FA0000F931F93CF93DF93D82E282F30E08901E2
:104FB000000F111F73E0220F331F7A95E1F7020FE4
:104FC000131F0F5D194F282F30E0E901CC0FDD1FB3
:104FD00053E0220F331F5A95E1F7C20FD31FCE5370
:104FE000D94FEE24FF248D2D6E2D0E94FE259C01AD
:104FF000009781F0F801808191818217930718F45E
:105000003183208307C0888199812817390710F4DC
:10501000398328830894E11CF11C0E5F1F4F2296F0
:10502000F5E0EF16F104F9F6DF91CF911F910F91A2
:10503000FF90EF90DF9008951598169817981198A3
:10504000149812980895EF92FF920F931F93CF93A5
:10505000DF938B017A01C82FD0E00E94FC29CC0F8E
:10506000DD1FC256DA4F99838883888199816EEA61
:1050700075E04AE050E00E94CF3A8881998180171C
:10508000910750F088819981E816F90628F08EEA98
:1050900095E068E071E004C08EEA95E06BE071E0B5
:1050A0000E94A33A8EEA95E0DF91CF911F910F9174
:1050B000FF90EF9008958F929F92AF92BF92CF9200
:1050C000DF92EF92FF920F931F93DF93CF930F9294
:1050D000CDB7DEB725B1269526952695217010927D
:1050E0009F0510929E051092A1051092A0051092A6
:1050F000A3051092A2051092A5051092A405109286
:10510000A7051092A6051092A9051092A80569E1BD
:10511000C62ED12C34C08401000F111F02561A4F25
:10512000F801E080F180F50181915F0129830E94FF
:10513000FC29E80EF91EF801F182E0820894811C36
:10514000911C2981F7E08F16910429F78FE097E2EF
:105150000197F1F700C0000085B186958695869588
:1051600080958170880F880F880F95B1977F982B55
:1051700095B90894C108D108C114D10439F04EE0A2
:10518000A42E41E0B42E88249924C5CF2170220F8B
:10519000220F220F85B1877F822B85B908E817E09F
:1051A000EE24FF24F701EE0FFF1FE256FA4F608155
:1051B000718180E090E00E94933820E030E048EC7C
:1051C00051E40E94FA37F8016193719381939193AE
:1051D0008F010894E11CF11CF6E0EF16F10411F7C1
:1051E0008091EA0684608093EA060F90CF91DF9168
:1051F0001F910F91FF90EF90DF90CF90BF90AF90F5
:105200009F908F90089583E00E94FC2924E630E06F
:10521000AC01429FC001439F900D529F900D1124FD
:1052200064E771E00E942F3ACB0108956F927F925C
:105230008F929F92AF92BF92CF92DF92EF92FF92A6
:105240000F931F93CF93DF930EE011E088E8E82ED1
:1052500087E0F82EC0E0D0E00F2EF0E06F2EF0E0F7
:105260007F2EF0E08F2EF0E09F2EF02DF80181913F
:105270008F010E94FC29F701A190B190C190D190BB
:105280007F01BC0180E090E00E949338A601950167
:105290000E9491379B01AC01FE01EE0FFF1FEE0F44
:1052A000FF1FE55CF94F2083318342835383608184
:1052B0007181828193810E946238272F862F922FDD
:1052C00097FF03C0909581959F4F853091055CF4C1
:1052D000FE01EE0FFF1FEE0FFF1FE55CF94F60822E
:1052E0007182828293822196C330D10509F0BECFAC
:1052F00001E111E0E4E9EE2EE7E0FE2EC3E0D0E0AC
:10530000F80181918F010E94FC29F701A190B190D1
:10531000C190D1907F01BC0180E090E00E94933861
:10532000A60195010E9491379B01AC01FE01EE0F91
:10533000FF1FEE0FFF1FE55CF94F2083318342838F
:1053400053832196C630D105D9F60E9403299C01CA
:10535000B901882777FD8095982F0E949538EBE357
:10536000F6E0608F718F828F938FDF91CF911F91C5
:105370000F91FF90EF90DF90CF90BF90AF909F90F4
:105380008F907F906F90089578941F920F920FB630
:105390000F9211242F938F939F93EF93FF9320915C
:1053A0003705E22FF0E08091780090917900EE0FC0
:1053B000FF1FEA5CF74F91838083822F8F5F877096
:1053C0008093370580937C00EAE7F0E08081806479
:1053D0008083FF91EF919F918F912F910F900FBE3E
:1053E0000F901F9018958FEF80937E0010927C0095
:1053F0008FED80937A000895F894E82FF0E0EE0F97
:10540000FF1FEA5CF74F208131817894C90108952C
:105410008091BA05882311F084FDFFCF089590E0B4
:10542000880F991F8D5F934FFC0125913491C9011D
:105430000895CF93DF93EC01009731F4C0914205BA
:10544000D0914305209739F087E060E00E941F0C5F
:10545000CE010E941C0DDF91CF910895EF920F9322
:105460008091BA0580FD94C085FF23C080E090E064
:10547000DC018093160690931706A0931806B0934C
:1054800019068093DE069093DF06A093E006B093A2
:10549000E10680936C0690936D06A0936E06B09320
:1054A0006F0680933E0590933F05A0934005B0930F
:1054B000410580E062E10E941F0C89E29CE00E94AD
:1054C0001C0D209116063091170640911806509138
:1054D000190681E060E309E0EE240E94C90D2091E5
:1054E000DE063091DF064091E0065091E10682E051
:1054F00060E30E94C90D20916C0630916D064091C9
:105500006E0650916F0683E060E30E94C90D209102
:1055100048053091490540914A0550914B0584E07A
:1055200060E30E94C90D60913E0570913F05809136
:105530004005909141052091370630913806409101
:10554000390650913A060E94923760933E05709357
:105550003F058093400590934105209116063091B8
:105560001706409118065091190685E060E3EE2475
:10557000E3940E94C90D209147063091480640915E
:10558000490650914A0686E060E3EE240E94C90D68
:105590000F91EF900895EF920F931F93CF93DF93A6
:1055A0008091BA05882379F184FF19C015E088EC51
:1055B00090E062E00E94AA0E86E490E061E00E9422
:1055C000A80B1150A1F70E945B280E94DF0F8AE010
:1055D0009DE090934305809342050E94192AC8E8F4
:1055E000D7E010E0812F60E30E941F0C29913991D0
:1055F00049915991812F60E309E0EE240E94C90D81
:105600001F5F163079F7DF91CF911F910F91EF90C7
:1056100008950F931F93CF93DF9305E111E0C0E04E
:10562000D0E08C2F60E30E941F0CF80181918F0164
:1056300062EC71E042E553E00E9423280E94080DCD
:105640002196C630D10569F7DF91CF911F910F9157
:1056500008958091BA0580FF10C087E791E00E940D
:10566000730E80E060E00E941F0C8EE29DE00E94BD
:105670001C0D80E090E00E94730E8091BA0584FFBB
:1056800004C01092EF060E94DF0F83E062E10E94E7
:105690001F0C80919605909197056AEE75E04AE09F
:1056A00050E00E94AE3A8AEE95E065E00E946E0DF1
:1056B00083E06EE40E941F0C80919C0590919D05F3
:1056C0006AEE75E04AE050E00E94AE3A8AEE95E05C
:1056D00065E00E946E0D84E062E10E941F0C8091E3
:1056E0009805909199056AEE75E04AE050E00E94B5
:1056F000AE3A8AEE95E065E00E946E0D84E06EE4BD
:105700000E941F0C80919A0590919B056AEE75E0AE
:105710004AE050E00E94AE3A8AEE95E065E00E94D1
:105720006E0D0895813099F0813018F08230E1F4E7
:1057300015C08091AF07882329F48AEE95E069E1CE
:105740007EE009C08AEE95E06BE07EE004C08AEE60
:1057500095E06DEF7DE00E948A3A08958AEE95E02B
:105760006FEE7DE00E948A3A0895FC0180818130CD
:1057700059F0813018F0823059F409C08091AF0798
:10578000882311F481E001C082E0808308951082B3
:105790000895AF92BF92CF92DF92EF920F931F9333
:1057A000DF93CF930F92CDB7DEB7182F6A0159015F
:1057B0008E2D69830E942A0D812F69810E941F0C02
:1057C000002311F0C60101C0C5010E941C0D80E03C
:1057D0000E942A0D0F90CF91DF911F910F91EF90B2
:1057E000DF90CF90BF90AF900895809138058130C1
:1057F00021F40E94DF0F109238050895EF920F9365
:105800001F93182F2091FB078091CA0530E02F705D
:10581000307001E02115310509F000E091E08130A0
:1058200009F490E0812F62E14CE45DE02EE43DE07C
:10583000E92E0E94C92B8091FB072091CA05807F29
:1058400001E009F000E091E0222309F490E0812FCB
:105850006EE140E55DE02EE43DE0E92E0E94C92BBB
:1058600080E00E942A0D1F910F91EF9008950F93F1
:105870001F93CF93DF931092E5058091BA0580FFC7
:105880000CC08091CA050E94262780E060E040E2BB
:105890005DE022E100E00E94A40D8091BA0584FF42
:1058A000BFC080914608882309F0B5C020E030E0F1
:1058B00008EE13E08091CA054091CA056091CA05BF
:1058C00090E0FC01EE0FFF1FEE0FFF1FE80FF91F26
:1058D000E20FF31FEE0FFF1FE45AF84F70E0CB0109
:1058E000880F991F880F991F860F971F820F931F8C
:1058F000880F991F8E53994F50E0DA01AA0FBB1FF2
:10590000AA0FBB1FA40FB51FA20FB31FAA0FBB1F67
:10591000AF5DB94FEC01888199814D915C91840F05
:10592000951F96958795918380834091CA058091B4
:10593000CA0550E0FA01EE0FFF1FEE0FFF1FE40F44
:10594000F51FE20FF31FEE0FFF1FE059F84F90E035
:10595000DC01AA0FBB1FAA0FBB1FA80FB91FA20F04
:10596000B31FAA0FBB1FAE53B94F8D919C9191836A
:1059700080838091CA056091CA054091CA0590E074
:10598000FC01EE0FFF1FEE0FFF1FE80FF91FE20FE4
:10599000F31FEC55F84F70E0CB01880F991F880F6B
:1059A000991F860F971F820F931F880F991F8F5D76
:1059B000994F50E0DA01AA0FBB1FAA0FBB1FA40F1B
:1059C000B51FA20FB31FAA0FBB1FAE53B94FEC01F7
:1059D000888199814D915C911197841B950BB80139
:1059E0000E942F3A60832F5F3F4F2530310509F029
:1059F00061CF2091CA0581E090E002C0880F991F15
:105A00002A95E2F72091EA06282BE7EEF6E02383B9
:105A10000E94DF0F05C088EC90E063E00E94A80BB5
:105A20008091BA0586FF04C08091CA050E9426278E
:105A3000109246088091CA050E94CD27C0E0D0E0B0
:105A400011E0CE018F5F6EE10E941F0C8091CA05AC
:105A500090E0FC01EE0FFF1FEE0FFF1FE80FF91F94
:105A6000EC0FFD1FEE0FFF1FEF5DF94F808191815D
:105A70006AEE75E04AE050E00E94CF3A8AEE95E087
:105A80000E94080D80E29DE00E941C0D8091CA05D5
:105A900090E0FC01EE0FFF1FEE0FFF1FE80FF91F54
:105AA000EC0FFD1FEE0FFF1FEE53F94F8081918128
:105AB0006AEE75E04AE050E00E94CF3A8AEE95E047
:105AC0000E94080D8091CA05882329F4C43019F476
:105AD0008BE29DE045C02091CA058091CA0530E067
