:100000000C947A0B0C947B0A0C943D0A0C94EA0A2B
:100010000C94970B0C943E0B0C94A4090C94B90A05
:100020000C94970B0C94970B0C94970B0C942E102C
:100030000C94970B0C94970B0C94970B0C94171033
:100040000C94970B0C94970B0C944B090C94970BF6
:100050000C94970B0C94970B0C94970B0C94970B98
:100060000C943D280C94970B0C94970B0C94970BC5
:100070000C94FF100C94970B0C94970BA2A0C84003
:10008000A6A42F248120AF00010204081020408084
:10009000FE900100FF000003000100000096080030
:1000A0001900640000000000FDFF140000001900AA
:1000B000640000000000FDFF1400000032005A0040
:1000C00032005A0000001400C8000A005A00140050
:1000D0000F00FEFF3200E3030A005A0014000F0075
:1000E000FEFF3200E3030F001E00000000000000CE
:1000F000000058020F00190000000000000000007E
:1001000000000000000000000000000000000000EF
:1001100000000000000000000000000000000000DF
:1001200000000000000000000000000000000000CF
:1001300000000000000000000000000000000000BF
:1001400000000000000000000000000000000000AF
:100150000000000000000001000C109011000000E1
:10016000000000000000000000000000000000008F
:10017000000000000000000000000000007C00FF04
:1001800033FF337C0000000000000000000000008E
:100190000000003C003C00000000003C003C00006F
:1001A000000000000000000002101E901FF0037EFF
:1001B000021E1E901FF0037E021E001000000000B1
:1001C000007804FC0CCC0CFF3FFF3FCC0CCC0F881C
:1001D0000700000000000000303838381C380E00DE
:1001E000078003C001E038703838381C0000000078
:1001F00000001FB83FFC31C621E2373E1E1C1C0028
:100200003600220000000000000000000027003F30
:10021000001F0000000000000000000000000000BF
:10022000000000F003FC0FFE1F0738012001200032
:100230000000000000000000000000012001200775
:1002400038FE1FFC0FF0030000000000000000005B
:1002500000980CB80EE003F80FF80FE003B80E9802
:100260000C0000000000000000800180018001F00F
:100270000FF00F80018001800100000000000000ED
:10028000000000000000B800F80078000000000046
:10029000000000000000000000800180018001805B
:1002A0000180018001800180010000000000000049
:1002B0000000000000003800380038000000000096
:1002C000000000000000000018001C000E00078065
:1002D00003C001E000700038001C000E000000F8B0
:1002E00007FE1F061E03338331C330633033301ED5
:1002F00018FE1FF8070000000000000C300C300E44
:1003000030FF3FFF3F003000300030000000001C95
:10031000301E38073C033E03378333C331E3307765
:10032000303E301C3000000C0C0E1C0738C330C3AC
:1003300030C330C330C330E7397E1F3C0E0000C0ED
:1003400003E003700338031C030E030703FF3FFFA2
:100350003F0003000300003F0C7F1C6338633063E1
:1003600030633063306330E338C31F830F0000C055
:100370000FF01FF839DC30CE30C730C330C330C384
:1003800039801F000F000003000300030003300347
:100390003C030FC303F3003F000F00030000000005
:1003A0000FBC1FFE39E730C330C330C330E730FE27
:1003B00039BC1F000F00003C007E00E730C330C393
:1003C00030C338C31CC30EE707FE03FC0000000067
:1003D0000000000000701C701C701C000000000079
:1003E00000000000000000000000000000709C7091
:1003F000FC707C0000000000000000000000000015
:1004000000C000E001F00338071C0E0E1C07380383
:10041000300000000000000000600660066006601A
:1004200006600660066006600660060000000000C8
:1004300000033007380E1C1C0E3807F003E001C023
:10044000000000000000001C001E000700030083E5
:1004500037C337E30077003E001C0000000000F8BF
:100460000FFE1F0718F333FB371B36FB37FB37072D
:1004700036FE03F80100000038003FE007FC061FCD
:10048000061F06FC06E007003F003800000000FFE2
:100490003FFF3FC330C330C330C330E730FE39BC09
:1004A0001F000F00000000F003FC0F0E1C073803B4
:1004B000300330033007380E1C0C0C00000000FF26
:1004C0003FFF3F033003300330033007380E1CFC7E
:1004D0000FF00300000000FF3FFF3FC330C330C3F5
:1004E00030C330C330C3300330033000000000FF9E
:1004F0003FFF3FC300C300C300C300C300C30003EA
:1005000000030000000000F003FC0F0E1C0738037E
:1005100030C330C330C330C73FC63F00000000FFC8
:100520003FFF3FC000C000C000C000C000C000FFCF
:100530003FFF3F000000000000000003300330FFD9
:100540003FFF3F03300330000000000000000000C8
:100550000E001E003800300030003000300038FF40
:100560001FFF0700000000FF3FFF3FC000E001F059
:100570000338071C0E0E1C0738033000000000FF74
:100580003FFF3F00300030003000300030003000CE
:1005900030003000000000FF3FFF3F1E007800E009
:1005A00001E00178001E00FF3FFF3F00000000FF58
:1005B0003FFF3F0E003800F000C0030007001CFFA3
:1005C0003FFF3F00000000F003FC0F0E1C07380344
:1005D00030033007380E1CFC0FF00300000000FF52
:1005E0003FFF3F83018301830183018301C701FE34
:1005F000007C0000000000F003FC0F0E1C07380315
:10060000300336073E0E1CFC3FF03300000000FFB5
:100610003FFF3F8301830183038307830FC71DFED1
:10062000387C30000000003C0C7E1CE738C330C32F
:1006300030C330C330C7398E1F0C0F0000000000DC
:1006400000030003000300FF3FFF3F03000300031C
:1006500000000000000000FF07FF1F00380030000E
:1006600030003000300038FF1FFF07000000000797
:10067000003F00F801C00F003E003EC00FF8013FF0
:1006800000070000000000FF3FFF3F001C00068045
:100690000380030006001CFF3FFF3F000000000333
:1006A000300F3C1C0E3003E001E00130031C0E0F44
:1006B0003C03300000000003000F003C00F000C0CD
:1006C0003FC03FF0003C000F0003000000000003AB
:1006D00030033C033E0333C331E33033301F300F6C
:1006E0003003300000000000000000FF3FFF3F0328
:1006F0003003300330033000000000000000000E23
:10070000001C0038007000E000C0018003000700FA
:100710000E001C001800000000000003300330032E
:10072000300330FF3FFF3F0000000000000000608A
:1007300000700038001C000E0007000E001C00387E
:100740000070006000000000C000C000C000C000D9
:10075000C000C000C000C000C000C000C00608A0AB
:10076000110000000000000000065F060000070303
:1007700000070300247E247E2400242B6A1200003C
:1007800063130864630036495620500000070300D5
:100790000000003E4100000000413E000000083E15
:1007A0001C3E080008083E08080000E06000000049
:1007B0000808080808000060600000002010080415
:1007C00002003E5149453E0000427F400000625118
:1007D000494946002249494936001814127F100041
:1007E0002F49494931003C4A494930000171090506
:1007F0000300364949493600064949291E00006C64
:100800006C00000000EC6C000000081422410000A5
:100810002424242424000041221408000201590940
:1008200006003E415D551E007E1111117E007F497C
:10083000494936003E41414122007F4141413E004D
:100840007F49494941007F09090901003E41494961
:100850007A007F0808087F0000417F410000304097
:1008600040403F007F08142241007F40404040004C
:100870007F0204027F007F0204087F003E41414165
:100880003E007F09090906003E4151215E007F09B3
:100890000919660026494949320001017F0101001A
:1008A0003F4040403F001F2040201F003F403C4051
:1008B0003F006314081463000708700807007149BB
:1008C00045430000007F4141000002040810200061
:1008D0000041417F0000040201020480808080808A
:1008E00080000003070000002054545478007F4427
:1008F00044443800384444442800384444447F0089
:10090000385454540800087E0909000018A4A4A40F
:100910007C007F040478000000007D4000004080DF
:10092000847D00007F102844000000007F4000000C
:100930007C04180478007C040478000038444444A3
:100940003800FC444444380038444444FC004478B3
:1009500044040800085454542000043E4424000079
:100960003C40207C00001C2040201C003C6030608B
:100970003C006C10106C00009CA0603C00006454B3
:10098000544C0000083E4141000000007700000088
:100990000041413E08000201020100003C262326DE
:1009A0003C5D075901080830383C3E3E3C38300871
:1009B00008060E1E3E3E1E0E0609093800FE00FE09
:1009C00000FF01FF01FF01FE00FE003800090300E7
:1009D00000000002020207020503020702020240B1
:1009E00040000000000103030303030303030303A8
:1009F0000303030303070F1F1F3F3F7F7F7F7F7F9B
:100A00003F1F0F0003030303030303030303030355
:100A10000303030307070707070707030301000092
:100A20000000000000FFFF000000000000000000C8
:100A3000011F7FFFFFFFFFFFE7C3E7FFFFFFFFFF90
:100A4000FFFEF0000000000000000000070F3F7FE5
:100A5000FFFFFFFCFCFFFFFFFFFFFFFFFF7CC3006A
:100A60000000000000FFFF00000000000000000088
:100A700000F0F8FCFEFEFEFEFCFCFDFBF7F7EFDFEE
:100A80000B00000000000000010303FFFFFFFFFF59
:100A9000FFFFFF7F7FFFFFFFFEFCF8E0807FFF008E
:100AA0000000000000FFFF00000000000000000048
:100AB0000000000000000000000080FDFFFFFFFFBD
:100AC000FF7F1F3F7F7FFEFEFCF8F8F0F0E0C0C024
:100AD000E0C0C0C0C08080000000000000FFFF0038
:100AE0000000000000FFFF000001010303070707EB
:100AF0000F0707070303070F0F3F7FFFFFFEFEFFF0
:100B0000FFFFFFFFAF030000000000000000000037
:100B100000000000000000000000000000FFFF00D7
:100B20000000000000FFFF3F7FFFFFFCF8FCFFFF1D
:100B3000FFFFFFFFFFFFE8C0C080800000000080D3
:100B4000F9FFFFFFFFFF7F7F7F7FFF7F7F7F3F1FDB
:100B500001000000000000000000000000FFFF0096
:100B600000000000FEFFFFFFFFFFFFFF7FFFFFFF12
:100B7000FFFEFCF0E00000000000000000011F7F0D
:100B8000FFFFFFFFFFC7C7CFFFFFFFFFFFFFFEF025
:100B900000000000000000000000000000FFFF0057
:100BA0000000000000F0F8D8D8F8D8D8D8D89818A5
:100BB0001818181818181818181818181818F8F8F5
:100BC000FCFCFCFEFCFCFCFCF8F0F0D8D818181873
:100BD00018181818181818181818181818F8F000F5
:100BE00000090E730EA70EB70EC50ED30EE10EF060
:100BF0000EFC0E0A0F1D0F2D0F3D0F430F417265A6
:100C000020796F7520737572653F004D65617300C3
:100C100053415645205550202020444F574E202008
:100C2000454E544552002020202020202020202006
:100C30002020202020200043414E43454C202044CA
:100C40004F574E202020555020204F4B004143430A
:100C50002D5A2064616D70696E67005472696D2051
:100C6000503A20202020523A00202020202020200E
:100C70002020202020202020200052004E005265FD
:100C80007665727365204759524F0020202020203E
:100C90002020202020202020202020006E6F2000F7
:100CA00079657300596573004E6F200041205472BE
:100CB00069200059205472692000582051756164E0
:100CC000002B205175616400582051756164002B20
:100CD000205175616400554152542000427564648E
:100CE0007900545249200051756164004241434BE0
:100CF00020202020202020202020202020202020F4
:100D0000200020004572720020202020004E41006B
:100D100041524D4544004865666E79436F70746575
:100D200072322076312E302E30004F4B20003100B1
:100D3000580032002B00580059002B004100580089
:100D40005541525420004275646479005452492040
:100D5000005175616400414C54484C440053544167
:100D6000424C45004143524F202000510F152D6742
:100D70000F9B0FC3350000510FF92CB10FB50FCAEF
:100D800029CB0FB50F812800109B0FB43115109B94
:100D90000FAD2F15109B0F032F15109B0F51345CB7
:100DA0001093109933A910EC0CAA29F310EC0C60E5
:100DB0002C291159116C29F3106F11D82A291159B6
:100DC00011DC2C090EEC0CA72800008511CB2C009F
:100DD0000059415720202020202020202020005290
:100DE0006F6C6C202020202020202020005069746F
:100DF0006368202620526F6C6C2000506974636811
:100E00002020202020202020002D54414B45204F21
:100E100046462050524F50454C4C45525321210AD2
:100E20002D507265737320636F6E74696E75650AF9
:100E30002D5475726E204F66662051756164636F24
:100E4000707465722E0A0A2D517561642077696C81
:100E50006C20737461727465640A696E2041524D2E
:100E600045442054414B45434152452073746174BD
:100E7000650A00507265737320436F6E74696E75F6
:100E8000652061667465722063616C696272617469
:100E9000696F6E2E0A0A756E706C756720626174D8
:100EA000746572792E0A004779726F205049442088
:100EB000456469746F720053656C66204C65766595
:100EC0006C696E6700416C74697475646520486F65
:100ED0006C64004D6F64652053657474696E67734C
:100EE000004D6973632E2053657474696E677300D7
:100EF00053656E736F722054657374005265636539
:100F00006976657220546573740053656E736F72F1
:100F10002043616C6962726174696F6E0053746919
:100F2000636B2043656E746572696E670045534359
:100F30002043616C6962726174696F6E004465621E
:100F4000756700466163746F7279205265736574CA
:100F500000202020202020202020202020202020B1
:100F600020204D454E55000A0A426174743A2020F3
:100F70002020202020760A0A0A52583A202D2020CC
:100F8000534E3A2020202053543A202D0A466C79A3
:100F90003A202020426F6172643A004241434B2064
:100FA0005550202020444F574E2020454E54455246
:100FB000000A0A0A002020202020202020202020B3
:100FC000202020202020444F4E45000A0A0A4D319F
:100FD0003A202020202020204D343A0A4D323A2059
:100FE0002020202020204D333A0A455343204361DE
:100FF0006C6962726174696F6E206D6F64650A005E
:101000000A524553544152540A20202020202042A5
:101010004F415244000A503A202020202020204CEA
:10102000696D3A0A493A202020202020204C696D21
:101030003A0A443A202020202020204C696D3A0AA8
:101040004E6F6973652046696C7465723A0A547212
:10105000696D20503A20202020523A004672616D7E
:101060006520547970653A0A427564647920537931
:101070007374656D3A0A426F617264204469723A12
:101080000A466C792020204469723A0A536F6E61D7
:10109000723A004241434B2050524556204E45582B
:1010A00054204348414E4745004175746F204469C0
:1010B0007361726D3A0A566F6C7420416C61726D87
:1010C0003A2020202020202F3130760A5468726F79
:1010D00074746C65206D696E3A0A537469636B2091
:1010E0005363616C653A0A502D52204C696E6B65F2
:1010F000643A004779726F20523A0A4779726F203A
:10110000503A0A4779726F20593A0A4163632020A6
:10111000503A0A4163632020523A0A416363202017
:101120005A3A0A426174743A0020434820202052FF
:10113000582D312020202052582D320A41696C3A16
:101140000A456C653A0A5275643A0A5468723A0A5A
:101150004175783A0A52583A004241434B202020C8
:10116000202020202020434F4E54494E5545004218
:1011700041434B20434C522020202020202020207F
:10118000444F4E45004E4F2020202020202020207C
:10119000202020202020205945530000407A10F3C1
:1011A0005A00A0724E18090010A5D4E80000E87695
:1011B00048170000E40B54020000CA9A3B000000EC
:1011C000E1F505000080969800000040420F000005
:1011D00000A08601000000102700000000E80300C6
:1011E0000000006400000000000A00000000000190
:1011F00000000000002C76D888DC674F0823DFC190
:10120000DFAE59E1B1B796E5E3E453C63AE651994A
:101210007696E8E6C28426EB898C9B62ED407C6F73
:10122000FCEFBC9C9F40F2BAA56FA5F490055A2A2A
:10123000F75C936B6CF9676DC11BFCE0E40D47FE36
:10124000F520E6B500D0ED902E030094357705002B
:1012500080841E080000204E0A000000C80C3333B2
:1012600033330F986E12831141EF8D2114893BE6C1
:101270005516CFFEE6DB18D1844B381BF77C1D904A
:101280001DA4BBE424203284725E228100C9F124B3
:10129000ECA1E53D270078941F920F920FB60F92B4
:1012A00011242F933F934F935F936F937F938F936B
:1012B0009F93AF93BF93CF93DF93EF93FF9380916F
:1012C000BC059091BD0501969093BD058093BC052A
:1012D000C0912B05D0912C05CE018F77907000978F
:1012E00099F4CE01880F892F881F990B91958770EB
:1012F000806B60E00E94FA0B80E160E00E94FA0BD4
:1013000080E060E00E94FA0BFE01E55DFE4F808107
:1013100061E00E94FA0B2196D370D0932C05C09304
:101320002B05FF91EF91DF91CF91BF91AF919F91ED
:101330008F917F916F915F914F913F912F910F907E
:101340000FBE0F901F9018951F920F920FB60F921D
:1013500011240F931F932F933F934F935F936F939A
:101360007F938F939F93AF93BF93CF93DF93EF932D
:10137000FF9316B180912308182786B18093230824
:10138000C0918400D0918500012F15FF18C086B14F
:1013900085FF05C0D0933108C093300810C080E0AD
:1013A0000E94E92380917406909175069093180825
:1013B000809317088091FF078F718093FF0700FFCC
:1013C0000BC086B180FF05C0D0933308C0933208AC
:1013D00003C081E00E94E92317FF2DC08091F3062E
:1013E000379B0BC0D0933708C0933608813019F56E
:1013F000469A449A429A439A1EC0813061F4809181
:10140000FF07807F41F48091510581FD04C046981B
:1014100044984298439883E00E94E923809174069F
:101420009091750690931C0880931B088091FF078C
:101430008F728093FF0701FF0BC086B181FF05C04B
:10144000D0933508C093340803C082E00E94E9239A
:10145000FF91EF91DF91CF91BF91AF919F918F91CC
:101460007F916F915F914F913F912F911F910F91BC
:101470000F900FBE0F901F9018951F920F920FB6EE
:101480000F9211242F933F934F935F936F937F930A
:101490008F939F93AF93BF93EF93FF9389B183FF94
:1014A00009C0809184009091850090932D088093CD
:1014B0002C0810C083E00E94C02380917406909194
:1014C000750690931E0880931D088091FF07827F08
:1014D0008093FF07FF91EF91BF91AF919F918F9103
:1014E0007F916F915F914F913F912F910F900FBE20
:1014F0000F901F9018951F920F920FB60F92112404
:101500002F933F934F935F936F937F938F939F930B
:10151000AF93BF93EF93FF9389B182FF09C080918E
:10152000840090918500909327088093260810C02E
:1015300080E00E94C023809174069091750690937C
:10154000200880931F088091FF07817F8093FF0709
:10155000FF91EF91BF91AF919F918F917F916F918B
:101560005F914F913F912F910F900FBE0F901F9061
:1015700018951F920F920FB60F9211242F933F933D
:101580004F935F936F937F938F939F93AF93BF938B
:10159000EF93FF9389B180FF09C0809184009091FF
:1015A0008500909329088093280803C081E00E9459
:1015B000C023FF91EF91BF91AF919F918F917F9148
:1015C0006F915F914F913F912F910F900FBE0F90B0
:1015D0001F9018951F920F920FB60F9211242F9300
:1015E0003F934F935F936F937F938F939F93AF93AB
:1015F000BF93EF93FF938091EF068F3FF9F48091B3
:10160000FA0680FF1BC083B182FF09C08091BC0530
:101610009091BD0590932508809324081EC0809169
:10162000BC059091BD052091240830912508821BAE
:10163000930B9093D5058093D4050FC083B182FF9F
:1016400009C0809184009091850090932B0880932D
:101650002A0803C082E00E94C023FF91EF91BF914E
:10166000AF919F918F917F916F915F914F913F913A
:101670002F910F900FBE0F901F9018951F920F92F1
:101680000FB60F9211242F933F934F935F936F9355
:101690007F938F939F93AF93BF93EF93FF9383B108
:1016A00080FF0CC080918400909185009093390850
:1016B0008093380881E08093E8060BC084E00E94A4
:1016C000E9238091E2059091E3059093D9058093F9
:1016D000D805FF91EF91BF91AF919F918F917F912D
:1016E0006F915F914F913F912F910F900FBE0F908F
:1016F0001F90189511241FBECFEFD8E0DEBFCDBFDD
:1017000011E0A0E0B1E0E2E4F7E702C005900D923D
:10171000A232B107D9F718E0A2E2B1E001C01D92F0
:10172000AB34B107E1F70E94B8180C949F3B0C94BE
:101730000000EF92FF920F931F93CF93DF93EC0182
:1017400000E010E0E62EFF240AC0299ACE010E9494
:10175000FD0E2998CE010E94FD0E0F5F1F4F0E1542
:101760001F059CF3DF91CF911F910F91FF90EF9098
:10177000089584B1806F84B985B1806F85B908956B
:101780000F931F9313B11095107F0091C105109214
:10179000CF05112321F18091CC07813011F40E94F3
:1017A0001A0F8091C105811759F0809174069091AC
:1017B0007506845D9E4F90932301809322010FC094
:1017C00020917406309175064091220150912301B9
:1017D0004217530720F491E09093CF0505C0802F66
:1017E00080951093C10581231F910F9108958091D9
:1017F000C10508955D986795662767959BB19F77AA
:10180000962B9BB998E05C9887FF02C0599A01C05B
:1018100059985C9A915011F0880FF5CF5D9A089510
:101820006F7760932A01880F880F880F80932901B2
:10183000089580932A01609329010895262F269503
:101840002695269530E03695322F22273795279515
:10185000280F311DE62FF0E0E770F070E857FF4FDA
:10186000E49191E0411190E0809128018170D901CB
:10187000A55DBE4F891729F0E0958C91E823EC9384
:1018800008958C918E2B8C93089508950895089552
:1018900080E094E0EBE2F1E0DF019C011D92215039
:1018A0003040E1F780E060E00E94100C10922801C7
:1018B00008958F929F92BF92CF92DF92EF92FF9204
:1018C0000F931F93DF93CF930F92CDB7DEB74C01E9
:1018D000E62EF42EC22EDD24BB24042F10E04FC0D0
:1018E000832F877029F4F4010894811C911CB49013
:1018F000CC2079F560912901862F877019F5C801F0
:10190000831B910988309105ECF0630F669566950D
:101910006695A62FB0E0B695BA2FAA27B795A795DA
:1019200080912A018D0DA80FB11D80912801A55D20
:10193000BE4F80FF04C08B2D80958C9301C0BC925C
:10194000395F17C080912A01630F4B2D41708D0DB7
:101950000CC08C2D813069F4B0FE0BC080912A013F
:1019600060912901630F8D0D41E039830E941E0CA7
:101970003981B6943F5F3F1508F4B2CFD394DE149B
:1019800010F430E0F8CF0F90CF91DF911F910F91BD
:10199000FF90EF90DF90CF90BF909F908F90089531
:1019A000262FFC0164913196449102960E94590CB5
:1019B00008958A3051F48091290190912501890F71
:1019C0008093290110922A010895E0912601F09157
:1019D00027010995609124014091250120E00E9492
:1019E000590C80912A0190912401890F80932A013A
:1019F0000895EF92FF92CF93DF93E82EE7017E01E7
:101A0000F92EE70102C00E94D90C89918823D9F7E9
:101A1000DF91CF91FF90EF900895CF93DF93EC018A
:101A200002C00E94D90CFE01219684918823C9F737
:101A3000DF91CF91089590912801882311F0916052
:101A400001C09E7F909328010895EF92FF920F931B
:101A50001F93DF93CF9300D00F92CDB7DEB7182F2F
:101A6000822F4A835B8369830E941B0D812F6981CA
:101A70000E94100C4A815B818A0102C00E94D90C2D
:101A8000F80181918F018823C9F70E941B0D0F90E7
:101A90000F900F90CF91DF911F910F91FF90EF90DA
:101AA00008950F931F93082F10E004C080E20E9456
:101AB000D90C1F5F1017D0F31F910F9108950F934A
:101AC0001F93DF93CF930F92CDB7DEB78C0169835D
:101AD0000E94F90CF80101900020E9F73197E01B12
:101AE000F10B6981862F8E1B0E94510D0F90CF91B3
:101AF000DF911F910F9108950F931F93DF93CF9361
:101B00000F92CDB7DEB78C0169830E940D0DC8011D
:101B10000E94AF386981681B862F0E94510D0F907B
:101B2000CF91DF911F910F910895EF92FF920F9344
:101B30001F93DF93CF9300D0CDB7DEB7182F7A0174
:101B4000802F2A8369830E941B0D812F69810E9447
:101B5000100CC7012A81622F0E947C0D80E00E9438
:101B60001B0D0F900F90CF91DF911F910F91FF9060
:101B7000EF900895BF92CF92DF92EF92FF920F9372
:101B80001F93DF93CF93CDB7DEB762970FB6F8946C
:101B9000DEBF0FBECDBFF82EB62ECA01B901302F61
:101BA0003250432F22E06E010894C11CD11C8601E3
:101BB0003A8B0E947D388E2D0E941B0D8F2D6B2D30
:101BC0000E94100CC6013A89632F0E945F0D80E0CD
:101BD0000E941B0D62960FB6F894DEBF0FBECDBFFC
:101BE000CF91DF911F910F91FF90EF90DF90CF90F9
:101BF000BF900895EF920F93E02E05E00E94BA0D7A
:101C00000F91EF900895DF92EF92FF920F931F9341
:101C1000DF93CF93CDB7DEB728970FB6F894DEBF2A
:101C20000FBECDBFD82E162FCA017E010894E11C2D
:101C3000F11CB7014AE050E028870E94CC38802F81
:101C40000E941B0D8D2D612F0E94100CC70128854D
:101C5000622F0E945F0D80E00E941B0D28960FB638
:101C6000F894DEBF0FBECDBFCF91DF911F910F91D2
:101C7000FF90EF90DF90089516BC81E085BBEEE603
:101C8000F0E08081816080830895EEE6F0E080815D
:101C90008E7F808308950F931F93CF93DF93082F38
:101CA000CEE6D0E018810E94450E81E860E00E94F7
:101CB000FA0B802F8F7360E00E94FA0B1883DF917C
:101CC000CF911F910F910895BC01009711F46DE51C
:101CD00077E084E291E044E050E00E949F3808956C
:101CE000CF93DF93559A569A579A549A519A5E9881
:101CF00089EF90E00197F1F700C000005E9A89EF4C
:101D000090E00197F1F700C00000CCE7D0E003C0FD
:101D100060E00E94FA0BFE01219684918823C1F7AE
:101D200080E090E00E94640E82E085BD0E943C0E3F
:101D3000DF91CF910895CF92DF92EF92FF920F93B0
:101D40001F93DF93CF930F92CDB7DEB76C0125B110
:101D5000269526952695217000E010E0E62EFF24BA
:101D600024C085B186958695869580958170880F6B
:101D7000880F880F95B1977F982B95B9C601298355
:101D80000E94FD0E85B18695869586958095817019
:101D9000880F880F880F95B1977F982B95B9C6014A
:101DA0000E94FD0E0F5F1F4F29810E151F05CCF2FB
:101DB0002170220F220F220F85B1877F822B85B9D8
:101DC0000F90CF91DF911F910F91FF90EF90DF90D7
:101DD000CF9008950FC00000000000000000000038
:101DE00000000000000000000000000000000000F3
:101DF00000000197009779F708951F93CF93DF9321
:101E0000EC0108C01AE084E690E00E94EA0E11504E
:101E1000D1F721972097B1F7DF91CF911F910895C6
:101E2000509A489A229880E18093690084E08DBBA3
:101E30008CBB08951092CC072B981092EB05109252
:101E4000EA0586E490E062E00E94990B80E090E071
:101E50000E94B92C08958091F406823039F4809163
:101E6000F506813019F40E941A0F089581E08093DD
:101E7000CC078EE190E064E070E00E949B0E2B9A0C
:101E80008CEB92E061E00E94990B1092EB051092AE
:101E9000EA051092200610921F0682E090E00E9450
:101EA000B92C80E090E0DC0180937E0690937F0661
:101EB000A0938006B0938106809396069093970630
:101EC000A0939806B09399068093AE069093AF06C0
:101ED000A093B006B093B106809356059093570532
:101EE000A0935805B093590580936E0590936F05A4
:101EF000A0937005B0937105809386059093870534
:101F0000A0938805B093890508958BEE96E060E96B
:101F100070E049EC50E00E949F3808950F931F93A2
:101F2000DF93CF930F92CDB7DEB78C0169830E9408
:101F300013396981861719F0C8010E941B390F9067
:101F4000CF91DF911F910F910895CF92DF92EF9281
:101F5000FF920F931F93CF93DF93EC017B016A01F4
:101F600000E010E008C0C701800F911F69910E9436
:101F70008E0F0F5F1F4F0C151D05A8F3DF91CF913A
:101F80001F910F91FF90EF90DF90CF9008958BEE0F
:101F900096E060E070E049EC50E00E94A50F0895E3
:101FA000F8948BEE96E060E070E049EC50E00E941F
:101FB000A50F78948CEB92E061E00E94990B089554
:101FC0000E94850FE0E6F7E020EF35E080E694E040
:101FD00021933193938B828B31872087958F848FC8
:101FE00047E0EA36F407A1F70E94D00F08958BEE80
:101FF00096E060E070E049EC50E00E940339809187
:10200000EB068E3F41F48091EC069091ED0621E0C5
:102010008039920719F00E94E00F08958BEE96E048
:1020200060E070E049EC50E00E94033908951F928F
:102030000F920FB60F9211248F939F938091740685
:1020400090917506019690937506809374069F9102
:102050008F910F900FBE0F901F9018951F920F92A7
:102060000FB60F9211248F939F938091BF0590918B
:10207000C00501969093C0058093BF059F918F91F5
:102080000F900FBE0F901F90189581E080938100F4
:1020900080936F00109275061092740693E09093EF
:1020A000B1008093700017BA1092B2001092C00570
:1020B0001092BF0508952091EF062F3F61F4109212
:1020C0002D059093CD008093CC0086E08093CA00CC
:1020D00088E98093C90008959091C80095FFFCCFCE
:1020E0008093CE000895EF92FF920F931F93CF93AA
:1020F000DF93082F192FC0E0D0E0E62EFF2406C0A2
:10210000F80181918F010E946C102196CE15DF0598
:10211000BCF3DF91CF911F910F91FF90EF90089545
:102120008091CC07813009F469C080E090E020E024
:10213000FC01E352F84F3081230F0196883091055E
:10214000B9F78091E507281709F058C08091DD079D
:10215000833421F0863509F051C037C08091DE0705
:102160008530E9F0863030F4813051F0823009F06A
:1021700045C00CC0863019F1873009F03FC022C03D
:102180008EE190E064E00E949B0E089580E091E073
:1021900061E00E9473108BEF96E062E608C080E079
:1021A00091E061E00E9473108BEE96E066E50E947C
:1021B000731082E091E061E00E94731008950E9424
:1021C000D00F08950E94D42608958091DE07609173
:1021D000DF074091E0079FEF699FB0011124680F6E
:1021E000711D6551794F242F332727FD3095E1EE7E
:1021F000F7E0CB01BF01532F0E94B83808951F921A
:102200000F920FB60F9211242F933F934F935F932A
:102210006F937F938F939F93AF93BF93EF93FF93AE
:102220008091C80087FFFCCF8091CE008093D807B3
:1022300080912E05882399F08091740690917506FF
:102240002091D9073091DA07821B930B85319105D4
:1022500030F010922E0510922D051092D207E091C9
:102260002D05F0E08091D807E352F84F80838091EC
:102270002E05882319F08130C1F406C010922D0577
:1022800081E080932E0507C080912D05883019F4D8
:102290000E9490100AC0F89480917406909175067F
:1022A0009093DA078093D907789480912D058F5FFA
:1022B00080932D0580912D05893021F410922D05F4
:1022C00010922E05FF91EF91BF91AF919F918F9149
:1022D0007F916F915F914F913F912F910F900FBE22
:1022E0000F901F901895EF92FF920F931F93CF932B
:1022F000DF93082F192FC0E0D0E0E62EFF2406C0A0
:10230000F80181918F010E946C102196CE15DF0596
:10231000BCF3DF91CF911F910F91FF90EF90089543
:1023200090E080979C01220F331F280F391F83E014
:10233000220F331F8A95E1F7235A3E4FC9010895B2
:1023400090E080979C01220F331F280F391F220F26
:10235000331F2F59384FC90108950E9427360E9414
:10236000F70F0E940E248091EF068F3F31F4809189
:10237000FA0680FF02C00E94100F3E9A3C9A3A9AD9
:102380003B9A4698449842984398219A239A1398E6
:102390001092800010928100109282008091EF06CE
:1023A0008F3F21F48AE090E00E945B100E946C282D
:1023B0000E9495260E94B90B0E9445100E94700E43
:1023C0000E94480C0E941F3678948EE190E00E9493
:1023D000FD0E08950E9445258091EC059091ED0534
:1023E000009741F48091BF059091C0059093ED0551
:1023F0008093EC058091BF059091C0052091EC057C
:102400003091ED05821B930B8B30910530F00E94CB
:10241000DC351092ED051092EC05089583E00E94E2
:10242000B92C0E94EA11FDCF1092EB071092EC0735
:102430001092ED071092EF071092F40702C00E946D
:10244000EA118091EE0682FFFACF81FFF8CF08955E
:102450008091E905882309F46CC18091CE05813013
:1024600009F067C18091FF07807F09F062C1809108
:10247000DB068E7F8093DB068091EA059091EB0569
:10248000009741F480916E0690916F069093EB0552
:102490008093EA058091CC07813009F054C02091E7
:1024A000CE05822F90E0FC01EE0FFF1F43E0880F66
:1024B000991F4A95E1F7E80FF91FEA5FF94F848108
:1024C000958121E08139920784F01092690680910C
:1024D0006E0690916F062091EA053091EB05821B04
:1024E000930B21E08233920758F56091F206662340
:1024F00009F41FC180911F0690912006009741F4B6
:1025000080916E0690916F069093200680931F062F
:1025100080916E0690916F0620911F0630912006E3
:10252000821B930B70E048EE53E0649F9001659F1F
:10253000300D749F300D11242817390708F0F9C0A9
:102540000E941A0F0895882309F0F3C02091CE0548
:10255000822F90E0FC01EE0FFF1F23E0880F991FF0
:102560002A95E1F7E80FF91FEA5FF94F8481958119
:102570002EEF80379207FCF41092690680916E0668
:1025800090916F062091EA053091EB05821B930B29
:1025900021E08233920778F08091EF06882341F49E
:1025A0008091FF0790E08F709070009709F0C1C094
:1025B0000E942B0F08952091CE05822F90E0FC0100
:1025C000EE0FFF1FA3E0880F991FAA95E1F7E80F10
:1025D000F91FEA5FF94F8081918121E081399207EB
:1025E000ACF01092690680916E0690916F06209172
:1025F000EA053091EB05821B930B21E082339207B1
:1026000008F497C081E08093F60657C02091CE056C
:10261000822F90E0FC01EE0FFF1F63E0880F991FEF
:102620006A95E1F7E80FF91FEA5FF94F8081918120
:102630002EEF80379207BCF41092690680916E06E7
:1026400090916F062091EA053091EB05821B930B68
:1026500021E08233920708F46CC01092F60680E500
:1026600090E064E02DC02091CE05822F90E0FC0127
:10267000EE0FFF1F43E0880F991F4A95E1F7E80F1F
:10268000F91FEA5FF94F828193812EEF803792071D
:10269000F4F41092690680916E0690916F06209175
:1026A000EA053091EB05821B930B21E08233920700
:1026B00008F43FC082E080931E0680E590E068E069
:1026C0000E949B0E1092EB051092EA05089520914E
:1026D000CE05822F90E0FC01EE0FFF1F23E0880F54
:1026E000991F2A95E1F7E80FF91FEA5FF94F8281F8
:1026F000938121E081399207E4F01092690680917C
:102700006E0690916F062091EA053091EB05821BD1
:10271000930B21E08233920760F081E080931E06E4
:1027200080E590E064E00E949B0E1092EB05109211
:10273000EA0508958091E905882309F487C080910E
:10274000FF07807F09F082C08091EA059091EB0538
:10275000009741F480916E0690916F069093EB057F
:102760008093EA05809112069091130621E0813949
:1027700092078CF01092690680916E0690916F0618
:102780002091EA053091EB05821B930B8135910571
:1027900000F180E218C080911206909113062EEF8E
:1027A00080379207B4F41092690680916E0690917A
:1027B0006F062091EA053091EB05821B930B813562
:1027C000910538F080E48093DA061092EB051092C0
:1027D000EA05809110069091110621E08139920757
:1027E000BCF01092690680916E0690916F06209160
:1027F000EA053091EB05821B930B8135910530F191
:1028000080E18093DA061092EB051092EA050895B4
:1028100080911006909111062EEF80379207B4F444
:102820001092690680916E0690916F062091EA05DC
:102830003091EB05821B930B8135910538F080E8D0
:102840008093DA061092EB051092EA050895109233
:102850009B0510929A0510929D0510929C0510926E
:102860009F0510929E058091F406823039F486E22D
:1028700092E09093A1058093A00504C01092A10559
:102880001092A0050E94972208958F929F92AF9276
:10289000BF92CF92DF92EF92FF920F931F93CF934D
:1028A000DF930E9445252091CE05822F90E0FC0108
:1028B000EE0FFF1F23E0880F991F2A95E1F7E80F1D
:1028C000F91FEA5FF94F868197819093C90580933C
:1028D000C8050E948F27F894809174069091750620
:1028E00090936F0680936E0678940E94B41C21E04A
:1028F000209369068091EF06882389F48091FF0771
:10290000807F69F480911806909119063EEF803718
:1029100093071CF41092CE0502C02093CE0580913F
:10292000EC059091ED0520916E0630916F060097B1
:1029300029F43093ED052093EC0579C0281B390B61
:102940002530310508F473C00E94DC3560915D07C5
:102950006623F1F0E0905706F09058060091590672
:1029600010915A0670E0882777FD8095982F0E9475
:1029700036379B01AC01C801B7010E949736909190
:10298000DB0687FF02C0926001C09D7F9093DB064B
:102990008091DB06882351F085B186958095817002
:1029A000880F95B19D7F982B95B901C0299880918A
:1029B000EF068F3FC1F520912F05222381F08091F2
:1029C0001806909119064EEF8037940734F484E08E
:1029D00080931E0610922F0526C0213071F0809141
:1029E00018069091190651E08139950724F081E08D
:1029F00080931E0616C02B30B1F08091180690917E
:102A0000190621E08039920774F48091180690919C
:102A100019063EEF8137930734F082E080931E065B
:102A20008BE080932F051092ED051092EC05C0917C
:102A3000C805D091C905C233D1052CF40E942812D3
:102A40000E9427146BC38091CC07882329F40E942D
:102A500027140E949A1362C31092200610921F0638
:102A60002091CE05822F90E0FC01EE0FFF1F13E0B6
:102A7000880F991F1A95E1F7E80FF91FEA5FF94FE0
:102A800080819181E090F906FF24E89EB001E99EE3
:102A9000700DF89E700D1124882777FD8095982F72
:102AA0000E9436372DEC3CEC4CE45DE30E94EA37A3
:102AB0000E9403377093C3056093C2052091CE0531
:102AC000822F90E0FC01EE0FFF1FA3E0880F991FFB
:102AD000AA95E1F7E80FF91FEA5FF94F8281938128
:102AE000E89EB001E99E700DF89E700D11248827B4
:102AF00077FD8095982F0E9436372DEC3CEC4CE406
:102B00005DE30E94EA370E9403377093C505609326
:102B1000C4052091CE05822F90E0FC01EE0FFF1F2F
:102B200063E0880F991F6A95E1F7E80FF91FEA5FE4
:102B3000F94F84819581E89EB001E99E700DF89E61
:102B4000700D1124882777FD8095982F0E943637C5
:102B50002DEC3CEC4CE45DE30E94EA370E94033725
:102B60007093C7056093C6058091F406813071F4B7
:102B70004091F5068091390690913A062091BA0568
:102B80003091BB05413009F057C034C0609139061F
:102B900070913A06CB018C0F9D1F90939F058093F7
:102BA0009E05882777FD8095982F0E94363720E074
:102BB00030E040E05FE30E94EA370E9403379B0168
:102BC00070933A06609339064091BA055091BB055F
:102BD000CE01821B930B841B950B90939B058093D6
:102BE0009A05C40FD51FC21BD30BD0939D05C0936C
:102BF0009C053DC0B9016C0F7D1FAE01421B530BFC
:102C0000481B590B50939B0540939A05AB01481BF9
:102C1000590B50939D0540939C05680F791F709345
:102C20009F0560939E05C80FD91FC21BD30BD0937D
:102C3000A105C093A0051BC0A9014C0F5D1F5093B7
:102C40009D0540939C05AE01421B530B5093A1057B
:102C50004093A0059E01281B390B30939B052093C0
:102C60009A05C80FD91FD0939F05C0939E058091E8
:102C70001E06813009F02EC19091F4068091F6066F
:102C8000913009F0A3C06091C2057091C305E09036
:102C9000C405F090C5058090A0059090A105A09076
:102CA0009C05B0909D05C0909E05D0909F05009119
:102CB0009A0510919B05813009F049C0882777FD5E
:102CC0008095982F0E9436372EEA37E441E25FE381
:102CD0000E94EA370E940337EB017093C3056093AB
:102CE000C205B701882777FD8095982F0E94363757
:102CF0002EEA37E441E25FE30E94EA370E9403379D
:102D00009B017093C5056093C4058C0E9D1ECC1A63
:102D1000DD0ACE01820F931F800F911F90939B05B8
:102D200080939A05A20EB31EAC1ABD0AB0929D05FF
:102D3000A0929C05C21AD30AD0929F05C0929E050C
:102D4000821A930A9092A1058092A0052EC188272D
:102D500077FD8095982F0E94363726E636E646E6C0
:102D60005FE30E94EA370E940337EB017093C305CB
:102D70006093C205B701882777FD8095982F0E9440
:102D8000363726E636E646E65FE30E94EA370E94DB
:102D900003377093C5056093C405060F171F109382
:102DA0009B0500939A05C61AD70AD0929F05C09238
:102DB0009E05AC1ABD0AB0929D05A0929C05C80D57
:102DC000D91DD093A105C093A005EFC0813011F0AB
:102DD00001E001C00FEFC091C405D091C50560911D
:102DE0009E0570919F05882777FD8095982F0E94FA
:102DF00036374B015C01602F772767FD7095872F71
:102E0000972F0E9436376B017C01BE01882777FD22
:102E10008095982F0E9436372DEC3CEC4CE85FE310
:102E20000E94EA379B01AC01C701B6010E94EA3754
:102E30009B01AC01C501B4010E9432360E940337E8
:102E400070939F0560939E05E02EFF24E7FCF094AD
:102E5000EC9EB001ED9E700DFC9E700D1124882734
:102E600077FD8095982F0E94363720E030E040E0D3
:102E70005FE30E94EA370E940337FB017093C505A8
:102E80006093C40520919A0530919B0580919C0523
:102E900090919D056091C2057091C305E69EA001C9
:102EA000E79E500DF69E500D11245093C30540939C
:102EB000C205240F351F2E0F3F1F30939B05209313
:102EC0009A05841B950B8E0F9F1F90939D058093F1
:102ED0009C056BC00E945E1F7B018C0160919A056E
:102EE00070919B05882777FD8095982F0E94363733
:102EF000A80197010E9433360E94033770939B0507
:102F000060939A0560919C0570919D05882777FDD7
:102F10008095982F0E943637A80197010E9433367A
:102F20000E94033770939D0560939C058091F40681
:102F3000C0909E05D0909F05813031F5B60188275D
:102F400077FD8095982F0E943637A80197010E943F
:102F500033360E94033770939F0560939E056091FE
:102F6000A0057091A105882777FD8095982F0E9474
:102F70003637A80197010E9433360E9403377093B9
:102F8000A1056093A00511C0B601882777FD809543
:102F9000982F0E943637A80197010E9433360E946D
:102FA000033770939F0560939E050091F40680910E
:102FB000E9069091EA06013049F520919A05309191
:102FC0009B05281B390B30939B0520939A05209174
:102FD0009E0530919F05281B390B30939F05209348
:102FE0009E0520919C0530919D05280F391F309337
:102FF0009D0520939C052091A0053091A105280FE7
:10300000391F3093A1052093A0053AC02091B20743
:10301000C22FDD27C7FDD095C89FB001C99F700D95
:10302000D89F700D11246A5D7D4F882777FD8095AC
:10303000982F0E9436376B017C018091C6059091D4
:10304000C705C89FB001C99F700DD89F700D11248E
:10305000882777FD8095982F0E9436372DEC3CEC21
:103060004CE45EE30E94EA379B01AC01C701B60164
:103070000E9432360E9403377093A1056093A00529
:1030800080919A0590919B058436910534F484E6ED
:1030900090E090939B0580939A0580919C05909178
:1030A0009D058436910534F484E690E090939D0567
:1030B00080939C0580919E0590919F058436910593
:1030C00034F484E690E090939F0580939E05013050
:1030D00069F48091A0059091A1058436910534F49E
:1030E00084E690E09093A1058093A0058091EF067F
:1030F0008F3FA1F484E091E061E00E9473108FE3C0
:1031000096E06CE00E9473108AE995E068E00E9406
:10311000731086E091E061E00E9473108091FF07D8
:10312000807F79F00E9427148091CC07813049F488
:103130000E9497220E941A0F8091DB068160809383
:10314000DB060E94972280916906813021F410925B
:10315000EB051092EA05DF91CF911F910F91FF903F
:10316000EF90DF90CF90BF90AF909F908F90089599
:103170001092E9050E94AD11109251051092DB06E4
:1031800081E080931E0680932F058FE396E0909355
:10319000DC078093DB071092CD078091850090E0DB
:1031A0009093E1068093E0060E9414128091F3064A
:1031B000813011F40E940E120E9427368FE00E9487
:1031C000B92C0E944514FDCF6F927F928F929F92EF
:1031D000AF92BF92CF92DF92EF92FF920F931F9325
:1031E000DF93CF93CDB7DEB72E970FB6F894DEBF3F
:1031F0000FBECDBFC982DA82EB82FC820D831E83B3
:103200002F83388749875A876B877C878D879E876E
:10321000EF8CF8A009A11AA16D807E80C801B701CA
:103220000E9474389C01B901882777FD8095982FFA
:103230000E94363720E030E040E85FE30E94E63746
:103240001816CCF469817A81882777FD8095982FAC
:103250000E9436379B01AC01C801B7010E94EA37D2
:1032600020E030E040E251E40E949B36F5016083AB
:10327000718382839383C801B701F5012485358565
:10328000468557850E9432360E9403376B01C8017C
:10329000B70120E030E040E850E40E94E63718161D
:1032A000BCF4B301882777FD8095982F0E943637AC
:1032B00020E030E048EC52E40E949B369B01AC01D8
:1032C000F50164817581868197810E94333632C011
:1032D000C801B70120E030E040E850EC0E9497368A
:1032E00087FF15C0B301882777FD8095982F0E942E
:1032F000363720E030E048EC52E40E949B369B01D8
:10330000AC01F501648175818681978111C0F50159
:103310006480758086809780C401B3012AE037ED10
:1033200043E25CE30E94EA379B01AC01C401B301B4
:103330000E943236F5016483758386839783B601D4
:10334000882777FD8095982F0E9436373B014C01E6
:1033500069857A85882777FD8095982F0E94363772
:103360009B01AC01C401B3010E94EA3720E030E0C8
:1033700040EA51E40E949B36F5016087718782879D
:103380009387E486F58606871787E480F5800681B3
:1033900017816F817885882777FD8095982F0E9407
:1033A00036379B01AC01C801B7010E945421F501D9
:1033B0006483758386839783E080F1800281138123
:1033C0006B817C81882777FD8095982F0E94363706
:1033D0009B01AC01C801B7010E945421F501608333
:1033E000718382839383E084F184028513856B85E6
:1033F0007C85882777FD8095982F0E9436379B0122
:10340000AC01C801B7010E9454217B018C01F50178
:1034100060877187828793876081718182819381C0
:1034200024813581468157810E943336A801970156
:103430000E9433362E960FB6F894DEBF0FBECDBF76
:10344000CF91DF911F910F91FF90EF90DF90CF9080
:10345000BF90AF909F908F907F906F900895AF92A4
:10346000BF92CF92DF92EF92FF920F931F93DF9361
:10347000CF93CDB7DEB72E970FB6F894DEBF0FBE51
:10348000CDBFC982DA82EB82FC820D831E832F833B
:10349000388749875A876B877C878D879E87EB8C17
:1034A000FC8C0D8D1E8D69817A81882777FD809532
:1034B000982F0E9436379B01AC01C801B7010E94CA
:1034C000EA3720E030E040EA51E40E949B36F50103
:1034D0006083718382839383C801B7012485358516
:1034E000468557850E9432360E9403376B01C8011A
:1034F000B70120E030E040E85FE30E94E6371816AD
:1035000054F0C801B70120E030E040E85FEB0E94D2
:10351000973687FF22C06D817E81882777FD809551
:10352000982F0E9436379B01AC01C801B7010E9459
:10353000EA3720E030E048E453E40E949B369B01E8
:10354000AC01F50164817581868197810E943336D3
:10355000F501648375838683978389859A85C89EE0
:10356000B001C99E700DD89E700D1124882777FD7B
:103570008095982F0E94363720E030E040EA51E4F1
:103580000E949B36F5016087718782879387E48666
:10359000F58606871787E480F580068117816F819D
:1035A0007885882777FD8095982F0E9436379B0174
:1035B000AC01C801B7010E945421F50164837583F1
:1035C00086839783E080F180028113816B817C8107
:1035D000882777FD8095982F0E9436379B01AC0194
:1035E000C801B7010E945421F50160837183828371
:1035F0009383E084F184028513856B857C8588271D
:1036000077FD8095982F0E9436379B01AC01C80149
:10361000B7010E9454217B018C01F50160877187FD
:103620008287938760817181828193812481358132
:10363000468157810E943336A80197010E94333694
:103640002E960FB6F894DEBF0FBECDBFCF91DF919F
:103650001F910F91FF90EF90DF90CF90BF90AF90B0
:10366000089580E090E0DC0180937E0690937F06D1
:10367000A0938006B0938106809396069093970658
:10368000A0939806B09399068093AE069093AF06E8
:10369000A093B006B093B10680935605909357055A
:1036A000A0935805B093590580936E0590936F05CC
:1036B000A0937005B093710580938605909387055C
:1036C000A0938805B09389058093B8079093B907B4
:1036D000A093BA07B093BB0708952F923F924F92E1
:1036E0005F926F927F928F929F92AF92BF92CF9292
:1036F000DF92EF92FF920F931F93DF93CF93CDB79B
:10370000DEB728970FB6F894DEBF0FBECDBF20906E
:10371000700630907106409072065090730660906B
:1037200076067090770680907806909079062091C2
:10373000E2063091E3064091E4065091E50680915F
:10374000E4059091E505A091E605B091E705898330
:103750009A83AB83BC83E0901A06F0901B0600911D
:103760001C0610911D06C401B3010E94EA3723ED27
:1037700039ED49E45AE30E94EA375B016C01698143
:103780007A818B819C81A80197010E94EA3723ED01
:1037900039ED49E45AE30E94EA379B01AC01C601C6
:1037A000B5010E9433369B01AC01C201B1010E94F8
:1037B00032369B01AC012093700630937106409322
:1037C0007206509373068091E2069091E306A091F1
:1037D000E406B091E5068D839E83AF83B887209180
:1037E00070063091710640917206509173062090D8
:1037F0002106309022064090230650902406E09047
:103800001A06F0901B0600911C0610911D06C401BB
:10381000B3010E94EA3723ED39ED49E45AE30E94EF
:10382000EA375B016C01C201B101A80197010E9456
:10383000EA3723ED39ED49E45AE30E94EA379B0168
:10384000AC01C601B5010E9432369B01AC016D810D
:103850007E818F8198850E9433369B01AC01209335
:10386000E2063093E3064093E4065093E506609049
:103870001A0670901B0680901C0690901D062091E1
:103880007006309171064091720650917306E09077
:10389000E206F090E3060091E4061091E5066981E6
:1038A0007A818B819C810E94EA3723ED39ED49E4CE
:1038B0005AE30E94EA375B016C01C201B101A80121
:1038C00097010E94EA3723ED39ED49E45AE30E945B
:1038D000EA379B01AC01C601B5010E9433369B015A
:1038E000AC01C401B3010E9433369B01AC012093AB
:1038F0001A0630931B0640931C0650931D0628960B
:103900000FB6F894DEBF0FBECDBFCF91DF911F91F0
:103910000F91FF90EF90DF90CF90BF90AF909F906E
:103920008F907F906F905F904F903F902F90089571
:1039300080E090E0DC0180931A0690931B06A09330
:103940001C06B0931D068093E2069093E306A093B5
:10395000E406B093E5068093700690937106A093F9
:103960007206B093730608952F923F924F925F9222
:103970006F927F928F929F92AF92BF92CF92DF927F
:10398000EF92FF920F931F93CF93DF9360914D07B8
:1039900070914E07882777FD8095982F0E943637C3
:1039A00020E030E04AE754E40E949B367B018C0122
:1039B000A0905306B0905406C0905506D09056067D
:1039C0007F2D912F20913B0630913C0640913D0682
:1039D00050913E060E94EA373B014C0160E070E0E6
:1039E00080E89FE32E2D3F2D402F512F0E9432362D
:1039F000A60195010E94EA379B01AC01C401B30105
:103A00000E94333660933B0670933C0680933D06DC
:103A100090933E066091230770912407882777FDD5
:103A20008095982F0E94363720E030E04AE754E432
:103A30000E949B367B018C01A0904706B0904806FF
:103A4000C0904906D0904A067F2D912F20912106E3
:103A50003091220640912306509124060E94EA37B5
:103A60003B014C0160E070E080E89FE32E2D3F2D8C
:103A7000402F512F0E943236A60195010E94EA374D
:103A80009B01AC01C401B3010E943336609321064F
:103A90007093220680932306909324066091070773
:103AA00070910807882777FD8095982F0E943637F8
:103AB00020E030E04AE754E40E949B367B018C0111
:103AC000A0904306B0904406C0904506D0904606AC
:103AD0007F2D912F2091E4053091E5054091E60579
:103AE0005091E7050E94EA373B014C0160E070E02D
:103AF00080E89FE32E2D3F2D402F512F0E9432361C
:103B0000A60195010E94EA379B01AC01C401B301F3
:103B10000E943336D62EC72EB82EA92EA6019501A7
:103B2000852F942FA32FB22F8093E4059093E50562
:103B3000A093E605B093E70560911507709116070D
:103B4000882777FD8095982F0E94363720E030E057
:103B50004AE754E40E949B36F62E072F182FE92ED1
:103B600060903F067090400680904106909042061B
:103B7000209176063091770640917806509179062B
:103B80000E94EA371B012C0160E070E080E89FE3AF
:103B90002F2D302F412F5E2D0E943236A40193012C
:103BA0000E94EA379B01AC01C201B1010E94333689
:103BB00060937606709377068093780690937906E3
:103BC00000D000D0A6019501852F942FA32FB22FEE
:103BD000EDB7FEB781839283A383B483C090FB06C5
:103BE000D090FC06E090FD06F090FE060091FF06E6
:103BF00010910007209101073091020740910307BF
:103C0000509104076091050770910607809107079E
:103C100090910807AAE7AA2EA6E0BA2E0E942F1AB2
:103C20000E94033770933A066093390680917606B6
:103C300090917706A0917806B0917906EDB7FEB71E
:103C400081839283A383B483C0900907D0900A072D
:103C5000E0900B07F0900C0700910D0710910E07F4
:103C600020910F07309110074091110750911207D2
:103C700060911307709114078091150790911607B2
:103C8000F2E9AF2EF6E0BF2E0E942F1A0E940337F2
:103C90007093BB056093BA05CDB7DEB721966091EE
:103CA000C6057091C705882777FD8095982F0E94DB
:103CB000363720E030E040E05FE30E94EA379B01C6
:103CC000AC016091210670912206809123069091AB
:103CD00024060E943236688379838A839B83C0904E
:103CE0001707D0901807E0901907F0901A07009175
:103CF0001B0710911C0720911D0730911E07409152
:103D00001F07509120076091210770912207809131
:103D1000230790912407EAEAAE2EE6E0BE2E0E9429
:103D20002F1A0E9403377093EA066093E906809188
:103D30004B0690914C06A0914D06B0914E06809195
:103D40004F0690915006A0915106B0915206809175
:103D5000470690914806A0914906B0914A062091E5
:103D600085008091E0069091E10630E00F900F9081
:103D70000F900F908217930750F480918500209147
:103D8000E0063091E10690E0821B930B0AC080911F
:103D9000E0069091E1062091850080959095820F34
:103DA000911D9093E7068093E6068091E00690913E
:103DB000E1066091E6067091E706860F971F9093E3
:103DC000E1068093E00660901A0670901B068090D2
:103DD0001C0690901D06E0904306F090440600916A
:103DE00045061091460680E090E00E9434375B0162
:103DF0006C01C801B70123ED39ED49E45AE30E9493
:103E0000EA37A60195010E94EA372FE632E143E83E
:103E10005AE30E94EA379B01AC01C401B3010E943E
:103E200033369B01AC0120931A0630931B06409356
:103E30001C0650931D06E090E206F090E306009108
:103E4000E4061091E50660913F067091400680916E
:103E500041069091420623ED39ED49E45AE30E9470
:103E6000EA37A60195010E94EA372FE632E143E8DE
:103E70005AE30E94EA379B01AC01C801B7010E94D6
:103E800033369B01AC012093E2063093E306409366
:103E9000E4065093E506DF91CF911F910F91FF90BB
:103EA000EF90DF90CF90BF90AF909F908F907F90DA
:103EB0006F905F904F903F902F900895AF92BF9278
:103EC000CF92DF92EF92FF920F931F9300D000D01A
:103ED00080913B0690913C06A0913D06B0913E0634
:103EE000B058EDB7FEB781839283A383B483C090AB
:103EF0004107D0904207E0904307F09044070091BB
:103F00004507109146072091470730914807409197
:103F1000490750914A0760914B0770914C07809177
:103F20004D0790914E07E2E8AE2EE5E0BE2E0E94CE
:103F30002F1A60936A0670936B0680936C069093B9
:103F40006D060F900F900F900F908091EF068F3FAE
:103F500009F0F4C08091FA0680FFF0C080911E063F
:103F6000843009F0EBC0489AF8946091D4057091C0
:103F7000D50580E090E00E9434377B018C01789475
:103F80007F2D912F20E030E849E054E40E949736DD
:103F900087FFB4C080913505882329F580913305CA
:103FA000909134058330910534F401969093340553
:103FB00080933305C9C06E2D7F2D802F912F0E94D5
:103FC00008377093DF066093DE0680E090E0DC0146
:103FD0008093B8079093B907A093BA07B093BB0733
:103FE00081E0809335056091DE067091DF0680E008
:103FF00090E00E9434372E2D3F2D402F512F0E94EC
:104000003236F62E072F182FE92E862F902FA12F4C
:10401000BE2D8093C2069093C306A093C406B093AE
:10402000C5066F2D702F812F9E2D20E030E048E4D3
:1040300052E40E94973687FF5CC06F2D702F812F4E
:104040009E2D20E030E048E452EC0E94E63718163E
:104050000CF04FC01092300500D000D08F2D902F63
:10406000A12FBE2DEDB7FEB781839283A383B483C6
:10407000C0904F07D0905007E0905107F090520742
:10408000009153071091540720915507309156071E
:1040900040915707509158076091590770915A07FE
:1040A00080915B0790915C07B4EBAB2EB7E0BB2E21
:1040B0000E942F1A0E9403377B018C0170933405F4
:1040C000609333050F900F900F900F906091C20690
:1040D0007091C3068091C4069091C50620E030E03F
:1040E000A9010E949736882321F4F0923205E092CC
:1040F0003105609133057091340504C0609131053C
:1041000070913205882777FD8095982F0E94363769
:104110009B01AC0160916A0670916B0680916C0600
:1041200090916D060E94333660936A0670936B0619
:1041300080936C0690936D06489806C010923405E3
:10414000109233051092350570916A0660916B06E6
:1041500090916C0680916D06AB019C01652F742FC8
:10416000832F922F1F910F91FF90EF90DF90CF90B0
:10417000BF90AF9008956F927F928F929F92AF926F
:10418000BF92CF92DF92EF92FF920F931F93CF9344
:10419000DF93EC016B01BC0197FF04C06627772712
:1041A000681B790B882777FD8095982F0E943637FA
:1041B0002FEF36EE4BED5EE20E943336162F072FBF
:1041C000F82EE92EB601882777FD8095982FD7FC29
:1041D0002BC00E9436375B016C01D801F7012B2FF1
:1041E0003A2F4F2F5E2F0E9432363B014C01C60101
:1041F000B501D801F7012B2F3A2F4F2F5E2F0E94C8
:1042000033369B01AC01C401B3010E949B3620E010
:1042100030E040E053E40E94EA379B01AC0160E0EB
:1042200070E080E093E42AC00E9436375B016C01A5
:10423000D801F7012B2F3A2F4F2F5E2F0E943336D4
:104240003B014C01A8019701652F742F832F922FFA
:10425000A60195010E9432369B01AC01C401B30155
:104260000E949B3620E030E040E053E40E94EA37B1
:104270009B01AC0160E070E080EC93E40E94323678
:10428000D7FD90580E940337CB01DF91CF911F914A
:104290000F91FF90EF90DF90CF90BF90AF909F90E5
:1042A0008F907F906F900895AF92BF92CF92DF92E0
:1042B000EF92FF920F931F93D62EC72EB82EA92EE2
:1042C00079018A01A6019501652F742F832F922F02
:1042D000A80197010E94E6371816B4F017FB109555
:1042E00017F91095A6019501652F742F832F922F32
:1042F000A80197010E94973687FD06C09601C50167
:10430000E32EF22E092F182F6E2D7F2D802F912F47
:104310001F910F91FF90EF90DF90CF90BF90AF90E3
:104320000895681779073CF0709561957F4F68177D
:1043300079070CF4BC01CB01089580E090E008956A
:104340002F923F924F925F926F927F928F929F92A5
:10435000AF92BF92CF92DF92EF92FF920F931F9393
:104360005B016C0139014A010E9436377B018C01E7
:10437000C401B3010E9436379B01AC01C801B701EB
:104380000E949B36F62E072F182FE92E9501B7FEB7
:1043900003C0309521953F4FC30177FE03C0909530
:1043A00081959F4F281739078CF56F2D702F812F1E
:1043B0009E2D20E030E44FE054E40E94EA371B01D8
:1043C0002C016F2D702F812F9E2D29E23CE54FE8A7
:1043D0005EE30E94EA372F2D302F412F5E2D0E9481
:1043E000EA3720E030E040E85FE30E9433369B018B
:1043F000AC01C201B1010E949B360E94033797FEB7
:1044000035C0D7FC31C0685F784F30C06F2D702F3A
:10441000812F9E2D20E030E44FE054E40E94EA37E3
:104420003B014C016F2D702F812F9E2D2F2D302F92
:10443000412F5E2D0E94EA3729E23CE54FE85EE31A
:104440000E9433369B01AC01C401B3010E949B362C
:104450009B01AC0160E070E081E694E40E9432369A
:104460000E940337D7FE02C068507740CB011F91EE
:104470000F91FF90EF90DF90CF90BF90AF909F9003
:104480008F907F906F905F904F903F902F90089506
:104490006F927F928F929F92AF92BF92CF92DF9254
:1044A000EF92FF920F931F935B016C01DC01CB0134
:1044B000B595A795979587952FEDE22E29E5F22ED4
:1044C00027E3022F2FE5122FE81AF90A0A0B1B0B1C
:1044D000C801B70120E030E040E05FE30E94EA3726
:1044E0003B014C01C601B501A80197010E94EA37C2
:1044F000A80197010E94EA379B01AC0160E070E0DF
:1045000080E490E40E9432369B01AC01C401B30107
:104510000E94EA371F910F91FF90EF90DF90CF90AC
:10452000BF90AF909F908F907F906F900895F89478
:104530008091BF059091C00590931608809315084F
:104540007894209115083091160880910808909170
:1045500009082817390738F0281B390B309303084E
:104560002093020808C080959095820F931F909326
:10457000030880930208409102085091030889E9DA
:1045800091E0489F9001499F300D589F300D1124B4
:1045900080EA9FE0821B930B0DC01092B20085361B
:1045A00091053CF02091B2002832E0F38055904014
:1045B00001C0019790930E0880930D0880910D081B
:1045C00090910E081816190644F3809136058F5FF6
:1045D0008093360580919A0590919B0597FF05C0C1
:1045E0001092100810920F080AC024E08F3792072B
:1045F00014F08EE794E09093100880930F08809158
:104600009C0590919D0597FF05C010920708109298
:1046100006080AC024E08F37920714F08EE794E072
:10462000909307088093060880919E0590919F05BE
:1046300097FF05C010921408109213080AC024E0D6
:104640008F37920714F08EE794E0909314088093CC
:1046500013088091A0059091A10597FF05C01092C5
:104660000508109204080AC024E08F37920714F05E
:104670008EE794E09093050880930408469A449A44
:10468000429A8091F406813011F4439A09C0823035
:1046900039F480913605853019F4439A1092360525
:1046A0008091F80690E0805E9C4F0DC01092B200A1
:1046B000853691053CF02091B2002D32E0F3805513
:1046C000904001C0019790930E0880930D0880914F
:1046D0000D0890910E081816190644F310920C0854
:1046E00010920B0839C020910B0830910C08809172
:1046F0000F08909110082817390708F04698209164
:104700000B0830910C088091060890910708281733
:10471000390708F0449820910B0830910C088091DB
:104720001308909114082817390708F0429820912F
:104730000B0830910C088091040890910508281707
:10474000390708F0439880910B0890910C08049663
:1047500090930C0880930B0880910B0890910C08A3
:1047600024E08238920708F4BECFF8948091BF0508
:104770009091C00590930908809308087894089553
:10478000209184003091850090E0880F991FFC01F2
:10479000EA5DF74F40815181DC01A053BA4F4217C7
:1047A000530748F4209184003091850080819181E5
:1047B000281B390B0AC0208131818091840090919F
:1047C000850020953095280F391F11963C932E9324
:1047D0000895209184003091850090E00596880F1F
:1047E000991FFC01EA5DF74F40815181DC01A05324
:1047F000BA4F4217530740F480819181281B390B2F
:1048000011963C932E930895408151814095509587
:10481000420F531F11965C934E93089520988091F8
:10482000EF068823F1F41092CE05529850985398D1
:10483000229885E18093690087E08DBB8CBB8091D5
:1048400068008A608093680080916C00816080932A
:104850006C00809173008160809373008BB38A60D9
:104860008BBB81E08093CE053D9838983F9839986E
:104870008091680086608093680080916C00816000
:1048800080936C0080916D00836A80936D008BB380
:1048900086608BBB8091FF0781608093FF078091CA
:1048A000FF0780618093FF07F894809174069091D0
:1048B000750690931E0880931D0880917406909150
:1048C00075069093200880931F08789480911B08A8
:1048D00090911C0890931C0880931B0880911708E6
:1048E0009091180890931808809317080895F894E9
:1048F00090E0FC01EE0FFF1FEE0FFF1FE80FF91F06
:10490000E60FF11DEE0FFF1FE053FA4F20813181BA
:104910007894C9010895F89490E070E09C01220F0A
:10492000331F220F331F280F391FA901460F571FAE
:10493000440F551FFA01E053FA4F8081918178941A
:10494000405A584FFA0140815181841B950B260F24
:10495000371F2855384FF9016081772767FD70951B
:104960000E946138CB010895F894882311F5409195
:1049700074065091750660911D0870911E08461BC3
:10498000570B4531510520F08091FF07816034C0FD
:10499000409174065091750660911F08709120082F
:1049A000461B570B4531510568F18091FF07826026
:1049B00023C0813039F5409174065091750660919D
:1049C0001B0870911C08461B570B4531510520F000
:1049D0008091FF07806110C0409174065091750668
:1049E0006091170870911808461B570B4531510507
:1049F00048F08091FF0780628093FF07789420E061
:104A000030E041C0282F30E0C901880F991FA9016B
:104A1000B3E0440F551FBA95E1F7840F951FFC01D1
:104A2000E053FA4F46815781509322084093210862
:104A3000789440912108509122088658984FFC01A3
:104A400080819181481B590B509322084093210883
:104A50008091210890912208F901EE0FFF1FEE0FBF
:104A6000FF1FE20FF31FE555F84F6081772767FDC1
:104A700070950E94613870932208609321082091FC
:104A8000210830912208C9010895CF92DF92EF9258
:104A9000FF920F931F93CF93DF93C0E0D0E02DC020
:104AA0000330110539F48C2F0E94B424F70191834F
:104AB00080831AC08C2F602F0E948B24F601E00F98
:104AC000F11FEE0FFF1FEA5FF94F91838083808112
:104AD00091818F30910544F4808191813FEF823F35
:104AE000930714F0118210820F5F1F4F05301105DC
:104AF000B9F62196C230D105C9F000E010E06E0190
:104B0000CC0CDD1CCC0CDD1CCC0EDD1E7E01EE0CB5
:104B1000FF1CCE0153E0880F991F5A95E1F7E80E6C
:104B2000F91E8CE096E0E80EF91EBACFDF91CF9126
:104B30001F910F91FF90EF90DF90CF90089565E265
:104B400076E0282F30E0F901EE0FFF1F93E0220FEF
:104B5000331F9A95E1F7E20FF31FE60FF71F11825B
:104B6000108246EC56E0282F30E0F901EE0FFF1FCF
:104B7000A3E0220F331FAA95E1F7E20FF31FE40F22
:104B8000F51F2EEF3FEF31832083A82FB0E0FD010A
:104B9000EE0FFF1F93E0AA0FBB1F9A95E1F7EA0FF4
:104BA000FB1FE60FF71F13821282A82FB0E0FD0152
:104BB000EE0FFF1F93E0AA0FBB1F9A95E1F7EA0FD4
:104BC000FB1FE40FF51F33832283A82FB0E0FD0104
:104BD000EE0FFF1F93E0AA0FBB1F9A95E1F7EA0FB4
:104BE000FB1FE60FF71F15821482A82FB0E0FD010E
:104BF000EE0FFF1F93E0AA0FBB1F9A95E1F7EA0F94
:104C0000FB1FE40FF51F35832483A82FB0E0FD01BF
:104C1000EE0FFF1F93E0AA0FBB1F9A95E1F7EA0F73
:104C2000FB1FE60FF71F17821682A82FB0E0FD01C9
:104C3000EE0FFF1F93E0AA0FBB1F9A95E1F7EA0F53
:104C4000FB1FE40FF51F37832683A82FB0E0FD017B
:104C5000EE0FFF1F93E0AA0FBB1F9A95E1F7EA0F33
:104C6000FB1FE60FF71F11861086682F70E0FB010F
:104C7000EE0FFF1FB3E0660F771FBA95E1F7E60F5F
:104C8000F71FE40FF51F318720870895DF92EF9219
:104C9000FF920F931F93CF93DF93D82E282F30E0EE
:104CA0008901000F111F73E0220F331F7A95E1F77E
:104CB000020F131F0B5D194F282F30E0E901CC0FB5
:104CC000DD1F53E0220F331F5A95E1F7C20FD31FA8
:104CD000CA53D94FEE24FF248D2D6E2D0E947724C8
:104CE0009C01009781F0F8018081918182179307E0
:104CF00018F43183208307C08881998128173907E8
:104D000010F4398328830894E11CF11C0E5F1F4FB7
:104D10002296F5E0EF16F104F9F6DF91CF911F919D
:104D20000F91FF90EF90DF900895159816981798BF
:104D30001198149812980895EF92FF920F931F9371
:104D4000CF93DF938B017A01C82FD0E00E947528A2
:104D5000CC0FDD1FCE55DA4F9983888388819981E6
:104D600062EB75E04AE050E00E94ED38888199815D
:104D70008017910750F088819981E816F90628F08C
:104D800082EB95E068E071E004C082EB95E06BE0B7
:104D900071E00E94C13882EB95E0DF91CF911F91C5
:104DA0000F91FF90EF9008958F929F92AF92BF92D4
:104DB000CF92DF92EF92FF920F931F93DF93CF93E7
:104DC0000F92CDB7DEB725B1269526952695217091
:104DD0001092A3051092A2051092A5051092A405A9
:104DE0001092A7051092A6051092A9051092A80589
:104DF0001092AB051092AA051092AD051092AC0569
:104E000069E1C62ED12C34C08401000F111F0E554C
:104E10001A4FF801E080F180F50181915F0129834B
:104E20000E947528E80EF91EF801F182E0820894CC
:104E3000811C911C2981F7E08F16910429F78FE0DE
:104E400097E20197F1F700C0000085B1869586953D
:104E5000869580958170880F880F880F95B1977F10
:104E6000982B95B90894C108D108C114D10439F020
:104E70004EE0A42E41E0B42E88249924C5CF2170A1
:104E8000220F220F220F85B1877F822B85B90CE874
:104E900017E0EE24FF24F701EE0FFF1FEE55FA4F47
:104EA0006081718180E090E00E94343720E030E042
:104EB00048EC51E40E949B36F80161937193819311
:104EC00091938F010894E11CF11CF6E0EF16F104B8
:104ED00011F78091EE0684608093EE060F90CF91DB
:104EE000DF911F910F91FF90EF90DF90CF90BF90D7
:104EF000AF909F908F90089583E00E94752824E6DC
:104F000030E0AC01429FC001439F900D529F900D35
:104F1000112464E771E00E944D38CB0108956F922F
:104F20007F928F929F92AF92BF92CF92DF92EF9239
:104F3000FF920F931F93CF93DF930EE011E08CE865
:104F4000E82E87E0F82EC0E0D0E00F2EF0E06F2EC4
:104F5000F0E07F2EF0E08F2EF0E09F2EF02DF80194
:104F600081918F010E947528F701A190B190C190A5
:104F7000D1907F01BC0180E090E00E943437A6010F
:104F800095010E9432369B01AC01FE01EE0FFF1F1E
:104F9000EE0FFF1FE15CF94F20833183428353837F
:104FA00060817181828193810E940337272F862F30
:104FB000922F97FF03C0909581959F4F8530910563
:104FC0005CF4FE01EE0FFF1FEE0FFF1FE15CF94FD7
:104FD00060827182828293822196C330D10509F06A
:104FE000BECF01E111E0E8E9EE2EE7E0FE2EC3E0DE
:104FF000D0E0F80181918F010E947528F701A190FE
:10500000B190C190D1907F01BC0180E090E00E94FE
:105010003437A60195010E9432369B01AC01FE0196
:10502000EE0FFF1FEE0FFF1FE15CF94F208331836E
:10503000428353832196C630D105D9F60E947C273E
:105040009C01B901882777FD8095982F0E943637FB
:10505000EFE3F6E0608F718F828F938FDF91CF91B6
:105060001F910F91FF90EF90DF90CF90BF90AF9086
:105070009F908F907F906F90089578941F920F92D9
:105080000FB60F9211242F938F939F93EF93FF935B
:1050900020913705E22FF0E080917800909179001F
:1050A000EE0FFF1FE65CF74F91838083822F8F5FA7
:1050B00087708093370580937C00EAE7F0E0808179
:1050C00080648083FF91EF919F918F912F910F903A
:1050D0000FBE0F901F9018958FEF80937E00109257
:1050E0007C008FED80937A000895F894E82FF0E02B
:1050F000EE0FFF1FE65CF74F208131817894C901E4
:1051000008958091BE05882311F084FDFFCF089596
:1051100090E0880F991F8B51944FFC012591349199
:10512000C9010895CF93DF93EC01009731F4C0914A
:105130004605D0914705209739F087E060E00E944E
:10514000100CCE010E940D0DDF91CF910895CF92EA
:10515000DF92EF92FF920F931F93CF93DF93809193
:10516000BE0580FDB0C085FF1BC080E090E0DC0183
:1051700080931A0690931B06A0931C06B0931D06FD
:105180008093E2069093E306A093E406B093E506CD
:105190008093700690937106A0937206B093730685
:1051A00080E062E10E94100C8BE09CE00E940D0DFB
:1051B00020911A0630911B0640911C0650911D0645
:1051C00081E060E309E0EE240E94BA0D2091E2063E
:1051D0003091E3064091E4065091E50682E060E3F9
:1051E0000E94BA0D209170063091710640917206AE
:1051F0005091730683E060E30E94BA0D20914C0544
:1052000030914D0540914E0550914F0584E060E38B
:105210000E94BA0DE0903F06F090400600914106D2
:1052200010914206E0924205F09243050093440536
:105230001093450560913E0570913F0580914005B2
:10524000909141050E940337C62EE6016E01D72ECC
:10525000E601D7FE03C0D095C195DF4FC801B70165
:105260000E940337272F862F922F97FF03C0909518
:1052700081959F4FC817D90744F4E0923E05F092FC
:105280003F05009340051093410520913E05309164
:105290003F05409140055091410585E060E309E0FC
:1052A000EE24E3940E94BA0D6091E6067091E70641
:1052B00080E090E00E9434379B01AC0186E060E31F
:1052C000EE240E94BA0DDF91CF911F910F91FF90B4
:1052D000EF90DF90CF900895EF920F931F93CF93AD
:1052E000DF938091BE05882379F184FF19C015E012
:1052F00088EC90E062E00E949B0E86E490E061E022
:105300000E94990B1150A1F70E94D4260E94D00F41
:105310008CEE9CE090934705809346050E9492286E
:10532000CCE8D7E010E0812F60E30E94100C2991B7
:10533000399149915991812F60E309E0EE240E944F
:10534000BA0D1F5F163079F7DF91CF911F910F9142
:10535000EF9008950F931F93CF93DF9305E111E032
:10536000C0E0D0E08C2F60E30E94100CF801819126
:105370008F0162EC71E042E553E00E949C260E949E
:10538000F90C2196C630D10569F7DF91CF911F91B5
:105390000F9108958091BE0580FF10C089E591E0CE
:1053A0000E94640E80E060E00E94100C80E19DE0AD
:1053B0000E940D0D80E090E00E94640E8091BE0579
:1053C00084FF04C01092F3060E94D00F83E062E1D4
:1053D0000E94100C80919A0590919B056EEE75E0ED
:1053E0004AE050E00E94CC388EEE95E065E00E94E5
:1053F0005F0D83E06EE40E94100C8091A0059091F7
:10540000A1056EEE75E04AE050E00E94CC388EEEC9
:1054100095E065E00E945F0D84E062E10E94100C5F
:1054200080919C0590919D056EEE75E04AE050E0FC
:105430000E94CC388EEE95E065E00E945F0D84E01E
:105440006EE40E94100C80919E0590919F056EEE77
:1054500075E04AE050E00E94CC388EEE95E065E0C1
:105460000E945F0D0895813099F0813018F08230EC
:10547000E1F415C08091B307882329F48EEE95E0FE
:105480006BEF7DE009C08EEE95E06DEE7DE004C02F
:105490008EEE95E06FED7DE00E94A83808958EEEC7
:1054A00095E061ED7DE00E94A8380895FC018081BF
:1054B000813059F0813018F0823059F409C0809160
:1054C000B307882311F481E001C082E0808308954E
:1054D00010820895AF92BF92CF92DF92EF920F9316
:1054E0001F93DF93CF930F92CDB7DEB7182F6A01CA
:1054F00059018E2D69830E941B0D812F69810E94A5
:10550000100C002311F0C60101C0C5010E940D0D51
:1055100080E00E941B0D0F90CF91DF911F910F91A2
:10552000EF90DF90CF90BF90AF90089580913805B5
:10553000813021F40E94D00F109238050895EF9227
:105540000F931F93182F2091FF078091CE0530E015
:105550002F70307001E02115310509F000E091E075
:10556000813009F490E0812F62E14EE25DE020E3BA
:105570003DE0E92E0E946A2A8091FF072091CE0526
:10558000807F01E009F000E091E0222309F490E03F
:10559000812F6EE142E35DE020E33DE0E92E0E94D1
:1055A0006A2A80E00E941B0D1F910F91EF900895D1
:1055B0000F931F93CF93DF931092E9058091BE055F
:1055C00080FF0CC08091CE050E949F2580E060E0A6
:1055D00042E05DE022E100E00E94950D8091BE0571
:1055E00084FFBFC080914A08882309F0B5C020E03D
:1055F00030E008EE13E08091CE054091CE05609139
:10560000CE0590E0FC01EE0FFF1FEE0FFF1FE80F2D
:10561000F91FE20FF31FEE0FFF1FE05AF84F70E083
:10562000CB01880F991F880F991F860F971F820F34
:10563000931F880F991F8A53994F50E0DA01AA0FE0
:10564000BB1FAA0FBB1FA40FB51FA20FB31FAA0F2A
:10565000BB1FAB5DB94FEC01888199814D915C9185
:10566000840F951F96958795918380834091CE05F1
:105670008091CE0550E0FA01EE0FFF1FEE0FFF1FE5
:10568000E40FF51FE20FF31FEE0FFF1FEC58F84F6A
:1056900090E0DC01AA0FBB1FAA0FBB1FA80FB91F08
:1056A000A20FB31FAA0FBB1FAA53B94F8D919C9194
:1056B000918380838091CE056091CE054091CE0587
:1056C00090E0FC01EE0FFF1FEE0FFF1FE80FF91F28
:1056D000E20FF31FE855F84F70E0CB01880F991FD8
:1056E000880F991F860F971F820F931F880F991F8E
:1056F0008B5D994F50E0DA01AA0FBB1FAA0FBB1FA9
:10570000A40FB51FA20FB31FAA0FBB1FAA53B94FF7
:10571000EC01888199814D915C911197841B950BC7
:10572000B8010E944D3860832F5F3F4F253031050F
:1057300009F061CF2091CE0581E090E002C0880F92
:10574000991F2A95E2F72091EE06282BEBEEF6E062
:1057500023830E94D00F05C088EC90E063E00E9494
:10576000990B8091BE0586FF04C08091CE050E94F2
:105770009F2510924A088091CE050E944626C0E0DF
:10578000D0E011E0CE018F5F6EE10E94100C80919D
:10579000CE0590E0FC01EE0FFF1FEE0FFF1FE80F9C
:1057A000F91FEC0FFD1FEE0FFF1FEB5DF94F80811E
:1057B00091816EEE75E04AE050E00E94ED388EEE89
:1057C00095E00E94F90C82E09DE00E940D0D809111
:1057D000CE0590E0FC01EE0FFF1FEE0FFF1FE80F5C
:1057E000F91FEC0FFD1FEE0FFF1FEA53F94F8081E9
:1057F00091816EEE75E04AE050E00E94ED388EEE49
:1058000095E00E94F90C8091CE05882329F4C430DC
:1058100019F48DE09DE045C02091CE058091CE0524
:1058200030E0D901AA0FBB1FAA0FBB1FA20FB31FE5
:10583000AC0FBD1FAA0FBB1FAB5DB94F90E0FC01C1
:10584000EE0FFF1FEE0FFF1FE80FF91FEC0FFD1FFC
:10585000EE0FFF1FEA53F94F2D913C911197808174
:10586000918128173907A0F08091CE0590E0FC01C6
:10587000EE0FFF1FEE0FFF1FE80FF91FEC0FFD1FCC
:10588000EE0FFF1FEA53F94F80819181009739F4A1
:1058900084E09DE00E940D0D10934A0804C088E04A
:1058A0009DE00E940D0D2196C530D10509F06ACF0B
:1058B00086E00E949F2ADF91CF911F910F9108955A
:1058C0000F931F93CF93DF931092E9050E94452514
:1058D000C0E0D0E0CE018F5F182F68E10E94100C6D
:1058E000FE01EE0FFF1FEA5FF94F40815181809169
:1058F000FF0790E08F70907001E0009709F400E0DE
:10590000812F64E225E00E94030EFE01EE0FFF1FCF
:10591000E05FF94F408151818091FF07807F01E076
:1059200009F400E0812F64E525E00E94030E219632
:10593000C530D10579F686E00E949F2ADF91CF918C
:105940001F910F910895CF92EF92FF920F931F93A3
:10595000942F322F2C2D332311F0A80101C0A70161
:10596000092F0E94950D1F910F91FF90EF90CF90FE
:1059700008951F93182F66E0869FB0011124655982
:10598000724F86E495E046E050E00E949F38109305
:105990003B051F9108958091BE0580FF05C08DEFE6
:1059A0009BE00E940D0D089584FF05C00E94E00F4A
:1059B00084E00E94B92C08958091BE058823C1F02F
:1059C00084FF16C08091EE068670863061F482E016
:1059D0008093510581E08093F3060E94D00F84E00C
:1059E0000E94B92C08958EE190E062E00E949B0E27
:1059F00008958091BE0580FF10C089E591E00E9466
:105A0000640E80E060E00E94100C80E19DE00E9446
:105A10000D0D80E090E00E94640E8091BE0584FF31
:105A200003C081E00E94B92C0895CF92EF92FF92BB
:105A30000F931F938091BE0580FF31C080E060E02E
:105A40000E94100C86E19DE00E940D0D8091EE06F3
:105A500001E082FF00E085E06CE34AE25DE024E0E3
:105A60003DE0EE240E946A2A0091EE0610E00170EB
:105A7000107085E066E64EE25DE020E33DE00E94C6
:105A80006A2A8091EE0601E081FF00E085E062E78E
:105A900042E35DE020E33DE0EE240E946A2A80912B
:105AA000BE0584FF04C081E00E94B92C94C00E940E
:105AB0007C279C01B901882777FD8095982F0E944B
:105AC000363720E030E040E251E40E949B369B01F3
:105AD000AC019091DB06927082E064E208E0E92E6E
