:100000000C946D0B0C946E0A0C94300A0C94DD0A5F
:100010000C948A0B0C94310B0C9497090C94AC0A39
:100020000C948A0B0C948A0B0C948A0B0C9413106E
:100030000C948A0B0C948A0B0C948A0B0C94FC0F76
:100040000C948A0B0C948A0B0C943E090C948A0B2A
:100050000C948A0B0C948A0B0C948A0B0C948A0BCC
:100060000C9450290C948A0B0C948A0B0C948A0BD8
:100070000C94E4100C948A0B0C948A0BA2A0C84038
:10008000A6A42F248120AF00010204081020408084
:10009000FE00FF00000300010000009604001900AC
:1000A000640000000000FDFF14000000190064005F
:1000B00000000000FDFF1400000032005A00320072
:1000C0005A0000001400C8000A005A0014000F0073
:1000D000FEFF3200DE030A005A0014000F00FEFF8C
:1000E0003200DE030F001E000000000000000000D0
:1000F00058020F001900000000000000000000007E
:1001000000000000000000000000000000000000EF
:1001100000000000000000000000000000000000DF
:1001200000000000000000000000000000000000CF
:1001300000000000000000000000000000000000BF
:100140000000000000000001000C1075110000000C
:10015000000000000000000000000000000000009F
:10016000000000000000000000000000007C00FF14
:1001700033FF337C0000000000000000000000009E
:100180000000003C003C00000000003C003C00007F
:10019000000000000000000002101E901FF0037E0F
:1001A000021E1E901FF0037E021E001000000000C1
:1001B000007804FC0CCC0CFF3FFF3FCC0CCC0F882C
:1001C0000700000000000000303838381C380E00EE
:1001D000078003C001E038703838381C0000000088
:1001E00000001FB83FFC31C621E2373E1E1C1C0038
:1001F0003600220000000000000000000027003F41
:10020000001F0000000000000000000000000000CF
:10021000000000F003FC0FFE1F0738012001200042
:100220000000000000000000000000012001200785
:1002300038FE1FFC0FF0030000000000000000006B
:1002400000980CB80EE003F80FF80FE003B80E9812
:100250000C0000000000000000800180018001F01F
:100260000FF00F80018001800100000000000000FD
:10027000000000000000B800F80078000000000056
:10028000000000000000000000800180018001806B
:100290000180018001800180010000000000000059
:1002A00000000000000038003800380000000000A6
:1002B000000000000000000018001C000E00078075
:1002C00003C001E000700038001C000E000000F8C0
:1002D00007FE1F061E03338331C330633033301EE5
:1002E00018FE1FF8070000000000000C300C300E54
:1002F00030FF3FFF3F003000300030000000001CA6
:10030000301E38073C033E03378333C331E3307775
:10031000303E301C3000000C0C0E1C0738C330C3BC
:1003200030C330C330C330E7397E1F3C0E0000C0FD
:1003300003E003700338031C030E030703FF3FFFB2
:100340003F0003000300003F0C7F1C6338633063F1
:1003500030633063306330E338C31F830F0000C065
:100360000FF01FF839DC30CE30C730C330C330C394
:1003700039801F000F000003000300030003300357
:100380003C030FC303F3003F000F00030000000015
:100390000FBC1FFE39E730C330C330C330E730FE37
:1003A00039BC1F000F00003C007E00E730C330C3A3
:1003B00030C338C31CC30EE707FE03FC0000000077
:1003C0000000000000701C701C701C000000000089
:1003D00000000000000000000000000000709C70A1
:1003E000FC707C0000000000000000000000000025
:1003F00000C000E001F00338071C0E0E1C07380394
:10040000300000000000000000600660066006602A
:1004100006600660066006600660060000000000D8
:1004200000033007380E1C1C0E3807F003E001C033
:10043000000000000000001C001E000700030083F5
:1004400037C337E30077003E001C0000000000F8CF
:100450000FFE1F0718F333FB371B36FB37FB37073D
:1004600036FE03F80100000038003FE007FC061FDD
:10047000061F06FC06E007003F003800000000FFF2
:100480003FFF3FC330C330C330C330E730FE39BC19
:100490001F000F00000000F003FC0F0E1C073803C4
:1004A000300330033007380E1C0C0C00000000FF36
:1004B0003FFF3F033003300330033007380E1CFC8E
:1004C0000FF00300000000FF3FFF3FC330C330C305
:1004D00030C330C330C3300330033000000000FFAE
:1004E0003FFF3FC300C300C300C300C300C30003FA
:1004F00000030000000000F003FC0F0E1C0738038F
:1005000030C330C330C330C73FC63F00000000FFD8
:100510003FFF3FC000C000C000C000C000C000FFDF
:100520003FFF3F000000000000000003300330FFE9
:100530003FFF3F03300330000000000000000000D8
:100540000E001E003800300030003000300038FF50
:100550001FFF0700000000FF3FFF3FC000E001F069
:100560000338071C0E0E1C0738033000000000FF84
:100570003FFF3F00300030003000300030003000DE
:1005800030003000000000FF3FFF3F1E007800E019
:1005900001E00178001E00FF3FFF3F00000000FF68
:1005A0003FFF3F0E003800F000C0030007001CFFB3
:1005B0003FFF3F00000000F003FC0F0E1C07380354
:1005C00030033007380E1CFC0FF00300000000FF62
:1005D0003FFF3F83018301830183018301C701FE44
:1005E000007C0000000000F003FC0F0E1C07380325
:1005F000300336073E0E1CFC3FF03300000000FFC6
:100600003FFF3F8301830183038307830FC71DFEE1
:10061000387C30000000003C0C7E1CE738C330C33F
:1006200030C330C330C7398E1F0C0F0000000000EC
:1006300000030003000300FF3FFF3F03000300032C
:1006400000000000000000FF07FF1F00380030001E
:1006500030003000300038FF1FFF070000000007A7
:10066000003F00F801C00F003E003EC00FF8013F00
:1006700000070000000000FF3FFF3F001C00068055
:100680000380030006001CFF3FFF3F000000000343
:10069000300F3C1C0E3003E001E00130031C0E0F54
:1006A0003C03300000000003000F003C00F000C0DD
:1006B0003FC03FF0003C000F0003000000000003BB
:1006C00030033C033E0333C331E33033301F300F7C
:1006D0003003300000000000000000FF3FFF3F0338
:1006E0003003300330033000000000000000000E33
:1006F000001C0038007000E000C00180030007000B
:100700000E001C001800000000000003300330033E
:10071000300330FF3FFF3F0000000000000000609A
:1007200000700038001C000E0007000E001C00388E
:100730000070006000000000C000C000C000C000E9
:10074000C000C000C000C000C000C000C0060885D6
:10075000110000000000000000065F060000070313
:1007600000070300247E247E2400242B6A1200004C
:1007700063130864630036495620500000070300E5
:100780000000003E4100000000413E000000083E25
:100790001C3E080008083E08080000E06000000059
:1007A0000808080808000060600000002010080425
:1007B00002003E5149453E0000427F400000625128
:1007C000494946002249494936001814127F100051
:1007D0002F49494931003C4A494930000171090516
:1007E0000300364949493600064949291E00006C74
:1007F0006C00000000EC6C000000081422410000B6
:100800002424242424000041221408000201590950
:1008100006003E415D551E007E1111117E007F498C
:10082000494936003E41414122007F4141413E005D
:100830007F49494941007F09090901003E41494971
:100840007A007F0808087F0000417F4100003040A7
:1008500040403F007F08142241007F40404040005C
:100860007F0204027F007F0204087F003E41414175
:100870003E007F09090906003E4151215E007F09C3
:100880000919660026494949320001017F0101002A
:100890003F4040403F001F2040201F003F403C4061
:1008A0003F006314081463000708700807007149CB
:1008B00045430000007F4141000002040810200071
:1008C0000041417F0000040201020480808080809A
:1008D00080000003070000002054545478007F4437
:1008E00044443800384444442800384444447F0099
:1008F000385454540800087E0909000018A4A4A420
:100900007C007F040478000000007D4000004080EF
:10091000847D00007F102844000000007F4000001C
:100920007C04180478007C040478000038444444B3
:100930003800FC444444380038444444FC004478C3
:1009400044040800085454542000043E4424000089
:100950003C40207C00001C2040201C003C6030609B
:100960003C006C10106C00009CA0603C00006454C3
:10097000544C0000083E4141000000007700000098
:100980000041413E08000201020100003C262326EE
:100990003C4D074901080830383C3E3E3C383008A1
:1009A00008060E1E3E3E1E0E0609093800FE00FE19
:1009B00000FF01FF01FF01FE00FE003800090300F7
:1009C00000000002020207020503020702020240C1
:1009D00040000000000103030303030303030303B8
:1009E0000303030303070F1F1F3F3F7F7F7F7F7FAB
:1009F0003F1F0F0003030303030303030303030366
:100A000003030303070707070707070303010000A2
:100A10000000000000FFFF000000000000000000D8
:100A2000011F7FFFFFFFFFFFE7C3E7FFFFFFFFFFA0
:100A3000FFFEF0000000000000000000070F3F7FF5
:100A4000FFFFFFFCFCFFFFFFFFFFFFFFFF7CC3007A
:100A50000000000000FFFF00000000000000000098
:100A600000F0F8FCFEFEFEFEFCFCFDFBF7F7EFDFFE
:100A70000B00000000000000010303FFFFFFFFFF69
:100A8000FFFFFF7F7FFFFFFFFEFCF8E0807FFF009E
:100A90000000000000FFFF00000000000000000058
:100AA0000000000000000000000080FDFFFFFFFFCD
:100AB000FF7F1F3F7F7FFEFEFCF8F8F0F0E0C0C034
:100AC000E0C0C0C0C08080000000000000FFFF0048
:100AD0000000000000FFFF000001010303070707FB
:100AE0000F0707070303070F0F3F7FFFFFFEFEFF00
:100AF000FFFFFFFFAF030000000000000000000048
:100B000000000000000000000000000000FFFF00E7
:100B10000000000000FFFF3F7FFFFFFCF8FCFFFF2D
:100B2000FFFFFFFFFFFFE8C0C080800000000080E3
:100B3000F9FFFFFFFFFF7F7F7F7FFF7F7F7F3F1FEB
:100B400001000000000000000000000000FFFF00A6
:100B500000000000FEFFFFFFFFFFFFFF7FFFFFFF22
:100B6000FFFEFCF0E00000000000000000011F7F1D
:100B7000FFFFFFFFFFC7C7CFFFFFFFFFFFFFFEF035
:100B800000000000000000000000000000FFFF0067
:100B90000000000000F0F8D8D8F8D8D8D8D89818B5
:100BA0001818181818181818181818181818F8F805
:100BB000FCFCFCFEFCFCFCFCF8F0F0D8D818181883
:100BC00018181818181818181818181818F8F00005
:100BD00000F00D5A0E8E0E9E0EAC0EBA0EC80ED739
:100BE0000EE30EF10E040F140F240F2A0F4172654D
:100BF00020796F7520737572653F0053415645200B
:100C00005550202020444F574E2020454E544552E9
:100C100000202020202020202020202020202020F4
:100C2000200043414E43454C2020444F574E202046
:100C300020555020204F4B004143432D5A206461E2
:100C40006D70696E67005472696D20503A202020E3
:100C500020523A0020202020202020202020202068
:100C6000202020200052004E005265766572736588
:100C7000204759524F0020202020202020202020D3
:100C8000202020202020006E6F20007965730059FD
:100C90006573004E6F200041205472692000592076
:100CA0005472692000582051756164002B205175E1
:100CB000616400582051756164002B205175616496
:100CC00000554152542000427564647900545249E1
:100CD000200051756164004241434B2020202020B8
:100CE000202020202020202020202020002000451F
:100CF00072720020202020004E410041524D454498
:100D0000004865666E79436F707465723220763183
:100D10002E302E30004F4B20003100580032002B77
:100D200000580059002B00410058005541525420F2
:100D30000042756464790054524920005175616421
:100D400000414C54484C4400535441424C450041EE
:100D500043524F202000380F012E4E0F820FA23633
:100D60000000380FE52D980F9C0FB22AB20F9C0F90
:100D70009429E70F820FA032FC0F820F9930FC0FED
:100D8000820FEF2FFC0F820F303543107A1087341B
:100D90009010D70C4C2ADA10D70C482D10114011A6
:100DA000122ADA105611C02B10114011C82DF00D67
:100DB000D70CBA2900006C11B32D000059415720FF
:100DC000202020202020202000526F6C6C2020202A
:100DD0002020202020005069746368202620526F54
:100DE0006C6C005069746368202020202020200053
:100DF0002D54414B45204F46462050524F50454CB4
:100E00004C45525321210A2D507265737320636F34
:100E10006E74696E75650A2D5475726E204F666624
:100E20002051756164636F707465722E0A0A2D51CA
:100E30007561642077696C6C207374617274656489
:100E40000A696E2041524D45442054414B4543416F
:100E500052452073746174650A0050726573732083
:100E6000436F6E74696E7565206166746572206388
:100E7000616C6962726174696F6E2E0A0A756E70B8
:100E80006C756720626174746572792E0A00477907
:100E9000726F2050494420456469746F7200536535
:100EA0006C66204C6576656C696E6700416C746990
:100EB0007475646520486F6C64004D6F64652053E1
:100EC000657474696E6773004D6973632E20536592
:100ED0007474696E67730053656E736F7220546526
:100EE0007374005265636569766572205465737426
:100EF0000053656E736F722043616C696272617436
:100F0000696F6E00537469636B2043656E7465721C
:100F1000696E67004553432043616C696272617476
:100F2000696F6E00446562756700466163746F7235
:100F30007920526573657400202020202020202015
:100F40002020202020202020204D454E55000A0A38
:100F5000426174743A20202020202020760A0A0A58
:100F600052583A202D2020534E3A2020202053540E
:100F70003A202D0A466C793A202020426F61726433
:100F80003A004241434B205550202020444F574EB9
:100F90002020454E544552000A0A0A0020202020F5
:100FA00020202020202020202020202020444F4EC0
:100FB00045000A0A0A4D313A202020202020204DE9
:100FC000343A0A4D323A202020202020204D333A56
:100FD0000A4553432043616C6962726174696F6EA4
:100FE000206D6F64650A000A524553544152540AF9
:100FF000202020202020424F415244000A503A2015
:101000002020202020204C696D3A0A493A202020D7
:10101000202020204C696D3A0A443A2020202020CC
:1010200020204C696D3A0A4E6F6973652046696CE1
:101030007465723A0A5472696D20503A202020205B
:10104000523A004672616D6520547970653A0A42E1
:10105000756464792053797374656D3A0A426F61DF
:101060007264204469723A0A466C792020204469EF
:10107000723A0A536F6E61723A004241434B2050FC
:10108000524556204E455854204348414E4745004E
:101090004175746F2044697361726D3A0A566F6CC2
:1010A0007420416C61726D3A2020202020202F3165
:1010B00030760A5468726F74746C65206D696E3A8C
:1010C0000A537469636B205363616C653A0A502D4F
:1010D00052204C696E6B65643A004779726F2058F4
:1010E0003A0A4779726F20593A0A4779726F205A43
:1010F0003A0A4163632020583A0A41636320205929
:101100003A0A41636320205A3A0A426174743A00F1
:1011100020434820202052582D3120202020525892
:101120002D320A41696C3A0A456C653A0A52756477
:101130003A0A5468723A0A4175783A0A52583A00A3
:101140004241434B202020202020202020434F4E8E
:1011500054494E5545004241434B20434C522020B8
:1011600020202020202020444F4E45004E4F20209C
:101170002020202020202020202020202020594511
:10118000530000407A10F35A00A0724E1809001064
:10119000A5D4E80000E87648170000E40B540200EC
:1011A00000CA9A3B000000E1F50500008096980017
:1011B000000040420F000000A08601000000102740
:1011C00000000000E80300000000640000000000D0
:1011D0000A00000000000100000000002C76D88802
:1011E000DC674F0823DFC1DFAE59E1B1B796E5E315
:1011F000E453C63AE651997696E8E6C28426EB892E
:101200008C9B62ED407C6FFCEFBC9C9F40F2BAA5CA
:101210006FA5F490055A2AF75C936B6CF9676DC162
:101220001BFCE0E40D47FEF520E6B500D0ED902E66
:101230000300943577050080841E080000204E0AC4
:10124000000000C80C333333330F986E1283114102
:10125000EF8D2114893BE65516CFFEE6DB18D184CD
:101260004B381BF77C1D901DA4BBE42420328472F4
:101270005E228100C9F124ECA1E53D2778941F92FC
:101280000F920FB60F9211242F933F934F935F93BA
:101290006F937F938F939F93AF93BF93CF93DF937E
:1012A000EF93FF938091A6059091A70501969093E7
:1012B000A7058093A605C0911D05D0911E05CE01FE
:1012C0008F779070009799F4CE01880F892F881F2F
:1012D000990B91958770806B60E00E94ED0B80E127
:1012E00060E00E94ED0B80E060E00E94ED0BFE01EB
:1012F000E35EFE4F808161E00E94ED0B2196D3708A
:10130000D0931E05C0931D05FF91EF91DF91CF9102
:10131000BF91AF919F918F917F916F915F914F910D
:101320003F912F910F900FBE0F901F9018951F9215
:101330000F920FB60F9211240F931F932F933F9389
:101340004F935F936F937F938F939F93AF93BF93CD
:10135000CF93DF93EF93FF9316B18091E90718279E
:1013600086B18093E907C0918400D0918500012F58
:1013700015FF18C086B185FF05C0D093F707C0934D
:10138000F60710C080E00E94FF2480914E069091E5
:101390004F069093DE078093DD078091C5078F711C
:1013A0008093C50700FF0BC086B180FF05C0D093B6
:1013B000F907C093F80703C081E00E94FF2417FFDC
:1013C0002DC08091DF06379B0BC0D093FD07C093E3
:1013D000FC07813019F5469A449A429A439A1EC0F6
:1013E000813061F48091C507807F41F480913B0595
:1013F00081FD04C0469844984298439883E00E9437
:10140000FF2480914E0690914F069093E2078093BF
:10141000E1078091C5078F728093C50701FF0BC05C
:1014200086B181FF05C0D093FB07C093FA0703C0C4
:1014300082E00E94FF24FF91EF91DF91CF91BF9155
:10144000AF919F918F917F916F915F914F913F915C
:101450002F911F910F910F900FBE0F901F90189515
:101460001F920F920FB60F9211242F933F934F9319
:101470005F936F937F938F939F93AF93BF93EF93FC
:10148000FF9389B183FF09C080918400909185000A
:101490009093F3078093F20710C083E00E94D62454
:1014A00080914E0690914F069093E4078093E30756
:1014B0008091C507827F8093C507FF91EF91BF910F
:1014C000AF919F918F917F916F915F914F913F91DC
:1014D0002F910F900FBE0F901F9018951F920F9293
:1014E0000FB60F9211242F933F934F935F936F93F7
:1014F0007F938F939F93AF93BF93EF93FF9389B1A4
:1015000082FF09C080918400909185009093ED073F
:101510008093EC0710C080E00E94D62480914E0694
:1015200090914F069093E6078093E5078091C50759
:10153000817F8093C507FF91EF91BF91AF919F91FC
:101540008F917F916F915F914F913F912F910F906C
:101550000FBE0F901F9018951F920F920FB60F920B
:1015600011242F933F934F935F936F937F938F93A8
:101570009F93AF93BF93EF93FF9389B180FF09C00F
:1015800080918400909185009093EF078093EE07FF
:1015900003C081E00E94D624FF91EF91BF91AF91EB
:1015A0009F918F917F916F915F914F913F912F917B
:1015B0000F900FBE0F901F9018951F920F920FB6AD
:1015C0000F9211242F933F934F935F936F937F93C9
:1015D0008F939F93AF93BF93EF93FF938091DB061D
:1015E0008F3FF9F48091E60680FF1BC083B182FF34
:1015F00009C08091A6059091A7059093EB07809371
:10160000EA071EC08091A6059091A7052091EA07E0
:101610003091EB07821B930B9093BF058093BE051F
:101620000FC083B182FF09C0809184009091850032
:101630009093F1078093F00703C082E00E94D624C4
:10164000FF91EF91BF91AF919F918F917F916F919A
:101650005F914F913F912F910F900FBE0F901F9070
:1016600018951F920F920FB60F9211242F933F934C
:101670004F935F936F937F938F939F93AF93BF939A
:10168000EF93FF9383B180FF0CC080918400909111
:1016900085009093FF078093FE0781E08093BE064C
:1016A0000BC084E00E94FF248091CC059091CD0571
:1016B0009093C3058093C205FF91EF91BF91AF91C5
:1016C0009F918F917F916F915F914F913F912F915A
:1016D0000F900FBE0F901F90189511241FBECFEFD3
:1016E000D8E0DEBFCDBF11E0A0E0B1E0E0E0F9E777
:1016F00002C005900D92A431B107D9F718E0A4E11A
:10170000B1E001C01D92A131B107E1F70E9492182A
:101710000C947E3C0C940000EF92FF920F931F9369
:10172000CF93DF937C0100E010E0C62FD0E00AC029
:10173000299AC7010E94F00E2998C7010E94F00E55
:101740000F5F1F4F0C171D079CF3DF91CF911F9167
:101750000F91FF90EF90089584B1806F84B985B1A7
:10176000806F85B90895CF93DF93C3B1C095C07FD3
:10177000D091AB051092B905CC2321F1809192074D
:10178000813011F40E940D0F8091AB058C1759F038
:1017900080914E0690914F06845D9E4F9093150167
:1017A000809314010FC020914E0630914F06409156
:1017B0001401509115014217530720F491E09093C2
:1017C000B90505C08D2F8095C093AB058C23DF91A3
:1017D000CF9108958091AB0508955D986795662730
:1017E00067959BB19F77962B9BB998E05C9887FF94
:1017F00002C0599A01C059985C9A915011F0880F13
:10180000F5CF5D9A08956F7760931C01880F880F5C
:10181000880F80931B01089580931C0160931B0126
:101820000895262F26952695269530E03695322F59
:10183000222737952795280F311DE62FF0E0E77016
:10184000F070E857FF4FE49191E0411190E08091F2
:101850001A018170D901A35EBE4F891729F0E09566
:101860008C91E823EC9308958C918E2B8C930895A2
:1018700008950895089580E094E0EDE1F1E0DF013E
:101880009C011D9221503040E1F780E060E00E9411
:10189000030C10921A0108958F929F92BF92CF92DB
:1018A000DF92EF92FF920F931F93DF93CF930F92EC
:1018B000CDB7DEB74C01E62EF42EC22EDD24BB24BC
:1018C000042F10E04FC0832F877029F4F40108948F
:1018D000811C911CB490CC2079F560911B01862F5E
:1018E000877019F5C801831B910988309105ECF0C8
:1018F000630F669566956695A62FB0E0B695BA2FEC
:10190000AA27B795A79580911C018D0DA80FB11D31
:1019100080911A01A35EBE4F80FF04C08B2D80957D
:101920008C9301C0BC92395F17C080911C01630F7A
:101930004B2D41708D0D0CC08C2D813069F4B0FEA3
:101940000BC080911C0160911B01630F8D0D41E064
:1019500039830E94110C3981B6943F5F3F1508F41A
:10196000B2CFD394DE1410F430E0F8CF0F90CF91C3
:10197000DF911F910F91FF90EF90DF90CF90BF907C
:101980009F908F900895262FFC0164913196449189
:1019900002960E944C0C08958A3051F480911B01EC
:1019A00090911701890F80931B0110921C010895DB
:1019B000E0911801F091190109956091160140918B
:1019C000170120E00E944C0C80911C01909116019F
:1019D000890F80931C010895EF92FF92CF93DF93BC
:1019E000E82EE7017E01F92EE70102C00E94CC0C2F
:1019F00089918823D9F7DF91CF91FF90EF900895D7
:101A0000CF93DF93EC0102C00E94CC0CFE01219623
:101A100084918823C9F7DF91CF91089590911A019D
:101A2000882311F0916001C09E7F90931A01089560
:101A3000EF92FF920F931F93DF93CF9300D00F92FB
:101A4000CDB7DEB7182F822F4A835B8369830E944C
:101A50000E0D812F69810E94030C4A815B818A01EE
:101A600002C00E94CC0CF80181918F018823C9F734
:101A70000E940E0D0F900F900F90CF91DF911F914C
:101A80000F91FF90EF9008950F931F93082F10E090
:101A900004C080E20E94CC0C1F5F1017D0F31F918E
:101AA0000F9108950F931F93DF93CF930F92CDB7AC
:101AB000DEB78C0169830E94EC0CF80101900020D4
:101AC000E9F73197E01BF10B6981862F8E1B0E948D
:101AD000440D0F90CF91DF911F910F9108950F93B7
:101AE0001F93DF93CF930F92CDB7DEB78C0169833D
:101AF0000E94000DC8010E948E396981681B862FE3
:101B00000E94440D0F90CF91DF911F910F91089586
:101B1000EF92FF920F931F93DF93CF9300D0CDB737
:101B2000DEB7182F7A01802F2A8369830E940E0D59
:101B3000812F69810E94030CC7012A81622F0E94B4
:101B40006F0D80E00E940E0D0F900F90CF91DF91EE
:101B50001F910F91FF90EF900895BF92CF92DF9267
:101B6000EF92FF920F931F93DF93CF93CDB7DEB722
:101B700062970FB6F894DEBF0FBECDBFF82EB62E1B
:101B8000CA01B901302F3250432F22E06E01089470
:101B9000C11CD11C86013A8B0E945C398E2D0E949B
:101BA0000E0D8F2D6B2D0E94030CC6013A89632FF9
:101BB0000E94520D80E00E940E0D62960FB6F894BE
:101BC000DEBF0FBECDBFCF91DF911F910F91FF9070
:101BD000EF90DF90CF90BF900895EF920F93E02E9B
:101BE00005E00E94AD0D0F91EF900895DF92EF9206
:101BF000FF920F931F93DF93CF93CDB7DEB7289754
:101C00000FB6F894DEBF0FBECDBFD82E162FCA0177
:101C10007E010894E11CF11CB7014AE050E02887DE
:101C20000E94AB39802F0E940E0D8D2D612F0E94D6
:101C3000030CC7012885622F0E94520D80E00E948C
:101C40000E0D28960FB6F894DEBF0FBECDBFCF9114
:101C5000DF911F910F91FF90EF90DF90089516BCD8
:101C600081E085BBEEE6F0E08081816080830895AD
:101C7000EEE6F0E080818E7F808308950F931F93BE
:101C8000CF93DF93082FCEE6D0E018810E94380E64
:101C900081E860E00E94ED0B802F8F7360E00E946E
:101CA000ED0B1883DF91CF911F910F910895BC0127
:101CB000009711F46DE477E086E191E044E050E0B4
:101CC0000E947E390895CF93DF93559A569A579A7A
:101CD000549A519A5E9889EF90E00197F1F700C00D
:101CE00000005E9A89EF90E00197F1F700C00000D4
:101CF000CCE7D0E003C060E00E94ED0BFE0121962E
:101D000084918823C1F780E090E00E94570E82E022
:101D100085BD0E942F0EDF91CF910895CF92DF9263
:101D2000EF92FF920F931F93DF93CF930F92CDB754
:101D3000DEB76C0125B1269526952695217000E029
:101D400010E0E62EFF2424C085B186958695869501
:101D500080958170880F880F880F95B1977F982B99
:101D600095B9C60129830E94F00E85B186958695A6
:101D7000869580958170880F880F880F95B1977F21
:101D8000982B95B9C6010E94F00E0F5F1F4F298155
:101D90000E151F05CCF22170220F220F220F85B1E4
:101DA000877F822B85B90F90CF91DF911F910F9183
:101DB000FF90EF90DF90CF9008950FC000000000DB
:101DC0000000000000000000000000000000000013
:101DD00000000000000000000197009779F70895C7
:101DE0001F93CF93DF93EC0108C01AE084E690E0E4
:101DF0000E94DD0E1150D1F721972097B1F7DF91A6
:101E0000CF911F910895509A489A229880E180932B
:101E1000690084E08DBB8CBB0895109292072B98CB
:101E20001092D5051092D40586E490E062E00E94FD
:101E30008C0B80E090E00E94A12D08958091E00637
:101E4000823039F48091E106813019F40E940D0F3F
:101E5000089581E0809392078EE190E064E070E065
:101E60000E948E0E2B9A8CEB92E061E00E948C0B0C
:101E70001092D5051092D40510920A061092090608
:101E800082E090E00E94A12D80E090E0DC01809350
:101E9000580690935906A0935A06B0935B06809318
:101EA000700690937106A0937206B09373068093A8
:101EB000880690938906A0938A06B0938B06809338
:101EC000400590934105A0934205B093430580934C
:101ED000580590935905A0935A05B0935B058093DC
:101EE000700590937105A0937205B09373050895E2
:101EF00089ED96E060E970E049EB50E00E947E39A0
:101F000008950F931F93DF93CF930F92CDB7DEB752
:101F10008C0169830E94F2396981861719F0C80122
:101F20000E94FA390F90CF91DF911F910F91089580
:101F3000CF92DF92EF92FF920F931F93CF93DF9395
:101F4000EC017B016A0100E010E008C0C701800FCE
:101F5000911F69910E94810F0F5F1F4F0C151D0586
:101F6000A8F3DF91CF911F910F91FF90EF90DF9039
:101F7000CF90089589ED96E060E070E049EB50E085
:101F80000E94980F0895F89489ED96E060E070E063
:101F900049EB50E00E94980F78948CEB92E061E05E
:101FA0000E948C0B08950E94780FECE4F7E020EF7C
:101FB00035E080E694E021933193938B828B3187D7
:101FC0002087958F848F47E0E635F407A1F70E94BC
:101FD000C30F089580E090E00E94F2398E3F19F01F
:101FE0000E94D30F089589ED96E060E070E049EB20
:101FF00050E00E94E23908951F920F920FB60F929F
:1020000011248F939F9380914E0690914F060196D5
:1020100090934F0680934E069F918F910F900FBE25
:102020000F901F9018951F920F920FB60F921124C8
:102030008F939F938091A9059091AA050196909303
:10204000AA058093A9059F918F910F900FBE0F90C5
:102050001F90189581E08093810080936F0010920B
:102060004F0610924E0693E09093B100809370005B
:1020700017BA1092B2001092AA051092A9050895FD
:102080002091DB062F3F61F410921F059093CD0045
:102090008093CC0086E08093CA0088E98093C900D1
:1020A00008959091C80095FFFCCF8093CE000895CD
:1020B000EF92FF920F931F93CF93DF93082F192F67
:1020C000C0E0D0E0E62EFF2406C0F80181918F0128
:1020D0000E9451102196CE15DF05BCF3DF91CF9100
:1020E0001F910F91FF90EF9008958091920781309A
:1020F00009F469C080E090E020E0FC01ED55F84F64
:102100003081230F019688309105B9F78091AB0794
:10211000281709F058C08091A307833421F0863531
:1021200009F051C037C08091A4078530E9F08630AE
:1021300030F4813051F0823009F045C00CC0863057
:1021400019F1873009F03FC022C08EE190E064E0D1
:102150000E948E0E089580E091E061E00E94581088
:1021600087EE96E062E608C080E091E061E00E94C0
:10217000581089ED96E066E50E94581082E091E0E3
:1021800061E00E94581008950E94C30F08950E94B4
:10219000EA2708958091A4076091A5074091A607BA
:1021A0009FEF699FB0011124680F711D6752794F2D
:1021B000242F332727FD3095E7EAF7E0CB01BF0155
:1021C000532F0E94973908951F920F920FB60F92C6
:1021D00011242F933F934F935F936F937F938F932C
:1021E0009F93AF93BF93EF93FF938091C80087FFB6
:1021F000FCCF8091CE0080939E078091200588239C
:1022000099F080914E0690914F0620919F07309152
:10221000A007821B930B8531910530F010922005A9
:1022200010921F0510929807E0911F05F0E0809131
:102230009E07ED55F84F808380912005882319F083
:102240008130C1F406C010921F0581E08093200503
:1022500007C080911F05883019F40E9475100AC0CC
:10226000F89480914E0690914F069093A00780932A
:102270009F07789480911F058F5F80931F05809141
:102280001F05893021F410921F0510922005FF913F
:10229000EF91BF91AF919F918F917F916F915F91DE
:1022A0004F913F912F910F900FBE0F901F90189557
:1022B000EF92FF920F931F93CF93DF93082F192F65
:1022C000C0E0D0E0E62EFF2406C0F80181918F0126
:1022D0000E9451102196CE15DF05BCF3DF91CF91FE
:1022E0001F910F91FF90EF90089590E080979C01CF
:1022F000220F331F280F391F83E0220F331F8A95C7
:10230000E1F7235B3E4FC901089590E080979C015F
:10231000220F331F280F391F220F331F2F5A384F18
:10232000C90108950E9406370E94EA0F0E942425E1
:102330008091DB068F3F31F48091E60680FF02C07A
:102340000E94030F3E9A3C9A3A9A3B9A46984498C8
:1023500042984398219A239A1398109280001092E1
:102360008100109282008091DB068F3F21F48AE089
:1023700090E00E9440100E947F290E94AB270E949B
:10238000AC0B0E942A100E94630E0E943B0C0E941C
:10239000FE3678948EE190E00E94F00E08950E943F
:1023A0005B268091D6059091D705009741F48091E6
:1023B000A9059091AA059093D7058093D6058091A1
:1023C000A9059091AA052091D6053091D705821BC9
:1023D000930B8B30910530F00E94BB361092D705DD
:1023E0001092D605089583E00E94A12D0E94CF117E
:1023F000FDCF1092B1071092B2071092B30710925E
:10240000B5071092BA0702C00E94CF118091DA0678
:1024100082FFFACF81FFF8CF08958091D2058823FB
:1024200009F46CC18091B805813009F067C18091D1
:10243000C507807F09F062C18091B5068E7F8093C9
:10244000B5068091D4059091D505009741F480910F
:102450004806909149069093D5058093D4058091C4
:102460009207813009F054C02091B805822F90E086
:10247000FC01EE0FFF1F43E0880F991F4A95E1F71B
:10248000E80FF91FE051FA4F8481958121E08139ED
:10249000920784F010924306809148069091490675
:1024A0002091D4053091D505821B930B21E0823316
:1024B000920758F56091DE06662309F41FC18091EA
:1024C000090690910A06009741F480914806909180
:1024D000490690930A0680930906809148069091D8
:1024E00049062091090630910A06821B930B70E081
:1024F00048EE53E0649F9001659F300D749F300D4E
:1025000011242817390708F0F9C00E940D0F08950B
:10251000882309F0F3C02091B805822F90E0FC01D8
:10252000EE0FFF1F23E0880F991F2A95E1F7E80FB0
:10253000F91FE051FA4F848195812EEF8037920781
:10254000FCF4109243068091480690914906209130
:10255000D4053091D505821B930B21E0823392077D
:1025600078F08091DB06882341F48091C50790E0E4
:102570008F709070009709F0C1C00E941E0F0895DF
:102580002091B805822F90E0FC01EE0FFF1FA3E021
:10259000880F991FAA95E1F7E80FF91FE051FA4F4C
:1025A0008081918121E081399207ACF0109243063D
:1025B00080914806909149062091D4053091D50527
:1025C000821B930B21E08233920708F497C081E0CD
:1025D0008093E20657C02091B805822F90E0FC015D
:1025E000EE0FFF1F63E0880F991F6A95E1F7E80F70
:1025F000F91FE051FA4F808191812EEF80379207C9
:10260000BCF41092430680914806909149062091AF
:10261000D4053091D505821B930B21E082339207BC
:1026200008F46CC01092E20680E590E064E02DC0F2
:102630002091B805822F90E0FC01EE0FFF1F43E0D0
:10264000880F991F4A95E1F7E80FF91FE051FA4FFB
:10265000828193812EEF80379207F4F41092430623
:1026600080914806909149062091D4053091D50576
:10267000821B930B21E08233920708F43FC082E073
:102680008093080680E590E068E00E948E0E10922C
:10269000D5051092D40508952091B805822F90E0B9
:1026A000FC01EE0FFF1F23E0880F991F2A95E1F729
:1026B000E80FF91FE051FA4F8281938121E08139BF
:1026C0009207E4F0109243068091480690914906E3
:1026D0002091D4053091D505821B930B21E08233E4
:1026E000920760F081E08093080680E590E064E066
:1026F0000E948E0E1092D5051092D40508958091F7
:10270000D205882309F487C08091C507807F09F02E
:1027100082C08091D4059091D505009741F48091B5
:102720004806909149069093D5058093D4058091F1
:10273000FC059091FD0521E0813992078CF0109203
:10274000430680914806909149062091D405309126
:10275000D505821B930B8135910500F180E218C0ED
:102760008091FC059091FD052EEF80379207B4F41F
:102770001092430680914806909149062091D40515
:102780003091D505821B930B8135910538F080E49B
:102790008093B4061092D5051092D4058091FA0565
:1027A0009091FB0521E081399207BCF0109243061D
:1027B00080914806909149062091D4053091D50525
:1027C000821B930B8135910530F180E18093B40633
:1027D0001092D5051092D40508958091FA05909134
:1027E000FB052EEF80379207B4F4109243068091D8
:1027F0004806909149062091D4053091D505821B59
:10280000930B8135910538F080E88093B4061092DF
:10281000D5051092D405089510928505109284056F
:1028200010928705109286051092890510928805EE
:102830008091E006823039F486E292E090938B0535
:1028400080938A0504C010928B0510928A050E941D
:10285000AD2308958F929F92AF92BF92CF92DF9255
:10286000EF92FF920F931F93CF93DF930E945B260B
:102870002091B805822F90E0FC01EE0FFF1F23E0AE
:10288000880F991F2A95E1F7E80FF91FE051FA4FD9
:10289000868197819093B3058093B2050E94CB28DF
:1028A000F89480914E0690914F069093490680933C
:1028B000480678940E94801C21E020934306809172
:1028C000DB06882389F48091C507807F69F48091B5
:1028D0000206909103063EEF803793071CF4109296
:1028E000B80502C02093B8058091D6059091D70510
:1028F0002091480630914906009729F43093D70576
:102900002093D6056AC0281B390B2530310508F401
:1029100064C00E94BB3680914907882379F02091DA
:1029200035063091360690E04091B50628173907F4
:1029300014F4426001C04D7F4093B5068091B50606
:10294000882351F085B1869580958170880F95B167
:102950009D7F982B95B901C029988091DB068F3F08
:10296000C1F520912105222381F0809102069091EA
:1029700003064EEF8037940734F484E08093080612
:102980001092210526C0213071F0809102069091AD
:10299000030651E08139950724F081E08093080611
:1029A00016C02B30B1F0809102069091030621E011
:1029B0008039920774F480910206909103063EEFED
:1029C0008137930734F082E0809308068BE0809390
:1029D00021051092D7051092D605C091B205D0916D
:1029E000B305C233D1054CF40E940D120E940C14A1
:1029F0000E94011B0E94641C6BC380919207882374
:102A000029F40E940C140E947F1362C310920A06DC
:102A1000109209062091B805822F90E0FC01EE0F7C
:102A2000FF1F13E0880F991F1A95E1F7E80FF91FB0
:102A3000E051FA4F80819181E090E506FF24E89E05
:102A4000B001E99E700DF89E700D1124882777FD66
:102A50008095982F0E9415382DEC3CEC4CE45DE3FA
:102A60000E94C9380E94E2377093AD056093AC05AF
:102A70002091B805822F90E0FC01EE0FFF1FA3E02C
:102A8000880F991FAA95E1F7E80FF91FE051FA4F57
:102A900082819381E89EB001E99E700DF89E700DD1
:102AA0001124882777FD8095982F0E9415382DECEA
:102AB0003CEC4CE45DE30E94C9380E94E23770931D
:102AC000AF056093AE052091B805822F90E0FC0120
:102AD000EE0FFF1F63E0880F991F6A95E1F7E80F7B
:102AE000F91FE051FA4F84819581E89EB001E99E7B
:102AF000700DF89E700D1124882777FD8095982F12
:102B00000E9415382DEC3CEC4CE45DE30E94C93882
:102B10000E94E2377093B1056093B0058091E006A2
:102B2000813071F44091E106809123069091240652
:102B30002091A4053091A505413009F057C034C05B
:102B40006091230670912406CB018C0F9D1F9093FA
:102B5000890580938805882777FD8095982F0E94A6
:102B6000153820E030E040E05FE30E94C9380E9461
:102B7000E2379B0170932406609323064091A405DD
:102B80005091A505CE01821B930B841B950B90934E
:102B9000850580938405C40FD51FC21BD30BD0932A
:102BA0008705C09386053DC0B9016C0F7D1FAE013E
:102BB000421B530B481B590B5093850540938405CA
:102BC000AB01481B590B5093870540938605680F4E
:102BD000791F7093890560938805C80FD91FC21BA0
:102BE000D30BD0938B05C0938A051BC0A9014C0F52
:102BF0005D1F5093870540938605AE01421B530B22
:102C000050938B0540938A059E01281B390B309306
:102C1000850520938405C80FD91FD0938905C093DB
:102C2000880580910806813009F02EC19091E00658
:102C30008091E206913009F0A3C06091AC057091DB
:102C4000AD05E090AE05F090AF0580908A059090BC
:102C50008B05A0908605B0908705C0908805D09020
:102C600089050091840510918505813009F049C0DE
:102C7000882777FD8095982F0E9415382EEA37E433
:102C800041E25FE30E94C9380E94E237EB01709392
:102C9000AD056093AC05B701882777FD8095982F27
:102CA0000E9415382EEA37E441E25FE30E94C938FA
:102CB0000E94E2379B017093AF056093AE058C0EC6
:102CC0009D1ECC1ADD0ACE01820F931F800F911F2B
:102CD0009093850580938405A20EB31EAC1ABD0A9D
:102CE000B0928705A0928605C21AD30AD0928905B0
:102CF000C0928805821A930A90928B0580928A0569
:102D00002EC1882777FD8095982F0E94153826E6DA
:102D100036E646E65FE30E94C9380E94E237EB01DF
:102D20007093AD056093AC05B701882777FD80955A
:102D3000982F0E94153826E636E646E65FE30E94A5
:102D4000C9380E94E2377093AF056093AE05060F55
:102D5000171F1093850500938405C61AD70AD092D1
:102D60008905C0928805AC1ABD0AB0928705A09269
:102D70008605C80DD91DD0938B05C0938A05EFC079
:102D8000813011F001E001C00FEFC091AE05D0918C
:102D9000AF056091880570918905882777FD80953A
:102DA000982F0E9415384B015C01602F772767FD33
:102DB0007095872F972F0E9415386B017C01BE01FB
:102DC000882777FD8095982F0E9415382DEC3CECD4
:102DD0004CE85FE30E94C9389B01AC01C701B60112
:102DE0000E94C9389B01AC01C501B4010E94113792
:102DF0000E94E2377093890560938805E02EFF24D6
:102E0000E7FCF094EC9EB001ED9E700DFC9E700D01
:102E10001124882777FD8095982F0E94153820E08F
:102E200030E040E05FE30E94C9380E94E237FB01D6
:102E30007093AF056093AE052091840530918505B0
:102E400080918605909187056091AC057091AD05E4
:102E5000E69EA001E79E500DF69E500D1124509362
:102E6000AD054093AC05240F351F2E0F3F1F309347
:102E7000850520938405841B950B8E0F9F1F9093CF
:102E80008705809386056BC00E9474207B018C01AE
:102E90006091840570918505882777FD8095982F2E
:102EA0000E941538A80197010E9412370E94E2374C
:102EB0007093850560938405609186057091870500
:102EC000882777FD8095982F0E941538A8019701D3
:102ED0000E9412370E94E23770938705609386053F
:102EE0008091E006C0908805D0908905813031F549
:102EF000B601882777FD8095982F0E941538A80184
:102F000097010E9412370E94E237709389056093FF
:102F1000880560918A0570918B05882777FD8095DB
:102F2000982F0E941538A80197010E9412370E941D
:102F3000E23770938B0560938A0511C0B60188272C
:102F400077FD8095982F0E941538A80197010E945F
:102F500012370E94E23770938905609388050091CB
:102F6000E0068091BF069091C006013049F520919E
:102F7000840530918505281B390B309385052093F6
:102F800084052091880530918905281B390B3093E1
:102F90008905209388052091860530918705280FA3
:102FA000391F309387052093860520918A0530913B
:102FB0008B05280F391F30938B0520938A053AC063
:102FC00020919007C22FDD27C7FDD095C89FB00183
:102FD000C99F700DD89F700D11246A5D7D4F8827A1
:102FE00077FD8095982F0E9415386B017C018091A8
:102FF000B0059091B105C89FB001C99F700DD89FD1
:10300000700D1124882777FD8095982F0E94153820
:103010002DEC3CEC4CE45EE30E94C9389B01AC0112
:10302000C701B6010E9411370E94E23770938B05E9
:1030300060938A0580918405909185058436910579
:1030400034F484E690E09093850580938405809124
:103050008605909187058436910534F484E690E0E6
:1030600090938705809386058091880590918905C6
:103070008436910534F484E690E09093890580933A
:103080008805013069F480918A0590918B0584361A
:10309000910534F484E690E090938B0580938A0543
:1030A0008091DB068F3FA1F484E091E061E00E9413
:1030B000581089E296E06CE00E94581084E895E090
:1030C00068E00E94581086E091E061E00E9458108C
:1030D0008091C507807F79F00E940C14809192073F
:1030E000813049F40E94AD230E940D0F8091B506F6
:1030F00081608093B5060E94AD23809143068130A4
:1031000021F41092D5051092D405DF91CF911F9133
:103110000F91FF90EF90DF90CF90BF90AF909F9076
:103120008F9008951092D2050E94921110923B0543
:103130001092B50681E0809308068093210589E20C
:1031400096E09093A2078093A107109293070E94A4
:10315000F9118091DF06813011F40E94F3110E9471
:1031600006370E942A14FDCF6F927F928F929F9212
:10317000AF92BF92CF92DF92EF92FF920F931F9385
:10318000DF93CF93CDB7DEB72E970FB6F894DEBF9F
:103190000FBECDBFC982DA82EB82FC820D831E8313
:1031A0002F83388749875A876B877C878D879E87CF
:1031B000EF8CF8A009A11AA16D807E80C801B7012B
:1031C0000E9453399C01B901882777FD8095982F7B
:1031D0000E94153820E030E040E85FE30E94C538E7
:1031E0001816CCF469817A81882777FD8095982F0D
:1031F0000E9415389B01AC01C801B7010E94C93873
:1032000020E030E040E251E40E947A37F50160832B
:10321000718382839383C801B701F50124853585C5
:10322000468557850E9411370E94E2376B01C8011D
:10323000B70120E030E040E850E40E94C53818169D
:10324000BCF4B301882777FD8095982F0E9415382C
:1032500020E030E048EC52E40E947A379B01AC0158
:10326000F50164817581868197810E94123732C091
:10327000C801B70120E030E040E850EC0E9476370A
:1032800087FF15C0B301882777FD8095982F0E948E
:10329000153820E030E048EC52E40E947A379B0178
:1032A000AC01F501648175818681978111C0F501BA
:1032B0006480758086809780C401B3012AE037ED71
:1032C00043E25CE30E94C9389B01AC01C401B30135
:1032D0000E941137F5016483758386839783B60155
:1032E000882777FD8095982F0E9415383B014C0167
:1032F00069857A85882777FD8095982F0E941538F3
:103300009B01AC01C401B3010E94C93820E030E048
:1033100040EA51E40E947A37F5016087718782871D
:103320009387E486F58606871787E480F580068113
:1033300017816F817885882777FD8095982F0E9467
:1033400015389B01AC01C801B7010E946A22F50142
:103350006483758386839783E080F1800281138183
:103360006B817C81882777FD8095982F0E94153886
:103370009B01AC01C801B7010E946A22F50160837C
:10338000718382839383E084F184028513856B8546
:103390007C85882777FD8095982F0E9415389B01A2
:1033A000AC01C801B7010E946A227B018C01F501C2
:1033B0006087718782879387608171818281938121
:1033C00024813581468157810E941237A8019701D7
:1033D0000E9412372E960FB6F894DEBF0FBECDBFF7
:1033E000CF91DF911F910F91FF90EF90DF90CF90E1
:1033F000BF90AF909F908F907F906F900895AF9205
:10340000BF92CF92DF92EF92FF920F931F93DF93C1
:10341000CF93CDB7DEB72E970FB6F894DEBF0FBEB1
:10342000CDBFC982DA82EB82FC820D831E832F839B
:10343000388749875A876B877C878D879E87EB8C77
:10344000FC8C0D8D1E8D69817A81882777FD809592
:10345000982F0E9415389B01AC01C801B7010E944A
:10346000C93820E030E040EA51E40E947A37F501A3
:103470006083718382839383C801B7012485358576
:10348000468557850E9411370E94E2376B01C801BB
:10349000B70120E030E040E85FE30E94C53818162D
:1034A00054F0C801B70120E030E040E85FEB0E9433
:1034B000763787FF22C06D817E81882777FD8095D2
:1034C000982F0E9415389B01AC01C801B7010E94DA
:1034D000C93820E030E048E453E40E947A379B0189
:1034E000AC01F50164817581868197810E94123754
:1034F000F501648375838683978389859A85C89E41
:10350000B001C99E700DD89E700D1124882777FDDB
:103510008095982F0E94153820E030E040EA51E471
:103520000E947A37F5016087718782879387E486E6
:10353000F58606871787E480F580068117816F81FD
:103540007885882777FD8095982F0E9415389B01F4
:10355000AC01C801B7010E946A22F501648375833A
:1035600086839783E080F180028113816B817C8167
:10357000882777FD8095982F0E9415389B01AC0114
:10358000C801B7010E946A22F501608371838283BA
:103590009383E084F184028513856B857C8588277D
:1035A00077FD8095982F0E9415389B01AC01C801CA
:1035B000B7010E946A227B018C01F5016087718747
:1035C0008287938760817181828193812481358193
:1035D000468157810E941237A80197010E94123735
:1035E0002E960FB6F894DEBF0FBECDBFCF91DF9100
:1035F0001F910F91FF90EF90DF90CF90BF90AF9011
:10360000089580E090E0DC0180935806909359067D
:10361000A0935A06B0935B06809370069093710650
:10362000A0937206B09373068093880690938906E0
:10363000A0938A06B0938B06809340059093410532
:10364000A0934205B0934305809358059093590584
:10365000A0935A05B0935B05809370059093710514
:10366000A0937205B09373058093C5069093C60628
:10367000A093C706B093C80608952F923F924F9229
:103680005F926F927F928F929F92AF92BF92CF92F2
:10369000DF92EF92FF920F931F93DF93CF93CDB7FB
:1036A000DEB728970FB6F894DEBF0FBECDBF60908F
:1036B000040670900506809006069090070680919B
:1036C000BA069091BB06A091BC06B091BD06898355
:1036D0009A83AB83BC8380914A0690914B06A0915C
:1036E0004C06B0914D0620904A0630904B06409013
:1036F0004C0650904D06E0905006F0905106009117
:103700005206109153068091CE059091CF05A0915D
:10371000D005B091D1058D839E83AF83B887C80152
:10372000B70129813A814B815C810E94C9382BE124
:103730003FE24DED5CE30E94C9385B016C016D8195
:103740007E818F819885A40193010E94C9382BE165
:103750003FE24DED5CE30E94C9389B01AC01C6011C
:10376000B5010E9412379B01AC01C201B1010E9458
:1037700011379B01AC0120934A0630934B064093CE
:103780004C0650934D062090BA063090BB064090F0
:10379000BC065090BD0620914A0630914B064091E0
:1037A0004C0650914D06A0900B06B0900C06C090B0
:1037B0000D06D0900E06C801B7010E94C9382BE152
:1037C0003FE24DED5CE30E94C9387B018C01C601EC
:1037D000B501A40193010E94C9382BE13FE24DEDF0
:1037E0005CE30E94C9389B01AC01C801B7010E948B
:1037F00011379B01AC01C201B1010E9412379B013C
:10380000AC012093BA063093BB064093BC0650939C
:10381000BD066090040670900506809006069090A4
:10382000070620914A0630914B0640914C06509174
:103830004D066D817E818F8198850E94C9382BE16C
:103840003FE24DED5CE30E94C9387B018C01C6016B
:10385000B50129813A814B815C810E94C9382BE1F5
:103860003FE24DED5CE30E94C9389B01AC01C80109
:10387000B7010E9412379B01AC01C401B3010E9441
:1038800012379B01AC012093040630930506409348
:1038900006065093070628960FB6F894DEBF0FBEB3
:1038A000CDBFCF91DF911F910F91FF90EF90DF90EF
:1038B000CF90BF90AF909F908F907F906F905F90D0
:1038C0004F903F902F90089580E090E0DC0180932E
:1038D000040690930506A0930606B093070680930E
:1038E000BA069093BB06A093BC06B093BD06809326
:1038F0004A0690934B06A0934C06B0934D0608954C
:103900002F923F924F925F926F927F928F929F92EF
:10391000AF92BF92CF92DF92EF92FF920F931F93DD
:10392000CF93DF936091390770913A07882777FD2D
:103930008095982F0E94153820E030E04AE754E443
:103940000E947A377B018C01C0903306D0903406F8
:103950007F2D912F20912506309126064091270634
:10396000509128060E94C9383B014C0160E070E08C
:1039700080E89FE32E2D3F2D402F512F0E941137BD
:103980007B018C01B601882777FD8095982F0E94D6
:1039900015389B01AC01C801B7010E94C9389B01D1
:1039A000AC01C401B3010E941237609325067093E5
:1039B0002606809327069093280660910F07709142
:1039C0001007882777FD8095982F0E94153820E0F2
:1039D00030E04AE754E40E947A377B018C01C090C2
:1039E0002D06D0902E067F2D912F20910B06309121
:1039F0000C0640910D0650910E060E94C9383B01FD
:103A00004C0160E070E080E89FE32E2D3F2D402FB9
:103A1000512F0E9411377B018C01B601882777FD59
:103A20008095982F0E9415389B01AC01C801B70101
:103A30000E94C9389B01AC01C401B3010E94123736
:103A400060930B0670930C0680930D0690930E0600
:103A50006091F3067091F406882777FD8095982F82
:103A60000E94153820E030E04AE754E40E947A379B
:103A70007B018C01C0902B06D0902C067F2D912FBE
:103A80002091CE053091CF054091D0055091D105C0
:103A90000E94C9383B014C0160E070E080E89FE380
:103AA0002E2D3F2D402F512F0E9411377B018C016D
:103AB000B601882777FD8095982F0E9415389B01C5
:103AC000AC01C801B7010E94C9389B01AC01C40117
:103AD000B3010E941237A62ED72EC82EB92E862FDC
:103AE0009D2DAC2DBB2D8093CE059093CF05A0933B
:103AF000D005B093D1056091010770910207882726
:103B000077FD8095982F0E94153820E030E04AE735
:103B100054E40E947A377B018C01C0912906D09130
:103B20002A067F2D912F2091500630915106409109
:103B30005206509153060E94C9383B014C0160E087
:103B400070E080E89FE32E2D3F2D402F512F0E94E3
:103B500011377B018C01BE01882777FD8095982F56
:103B60000E9415389B01AC01C801B7010E94C938F9
:103B70009B01AC01C401B3010E941237609350064F
:103B800070935106809352069093530600D000D054
:103B90008A2D9D2DAC2DBB2DEDB7FEB78183928371
:103BA000A383B483C090E706D090E806E090E906CE
:103BB000F090EA060091EB061091EC062091ED06DC
:103BC0003091EE064091EF065091F0066091F106BB
:103BD0007091F2068091F3069091F406A4E5AA2E66
:103BE000A6E0BA2E0E94FF190E94E23770932406C5
:103BF000609323068091500690915106A091520641
:103C0000B0915306EDB7FEB781839283A383B4834B
:103C1000C090F506D090F606E090F706F090F80612
:103C20000091F9061091FA062091FB063091FC06EE
:103C30004091FD065091FE066091FF0670910007CD
:103C40008091010790910207FCE6AF2EF6E0BF2EAF
:103C50000E94FF190E94E2377093A5056093A405A6
:103C6000CDB7DEB721966091B0057091B105882778
:103C700077FD8095982F0E94153820E030E040E0D5
:103C80005FE30E94C9389B01AC0160910B06709103
:103C90000C0680910D0690910E060E9411376883E4
:103CA00079838A839B83C0900307D0900407E090B8
:103CB0000507F0900607009107071091080720916B
:103CC000090730910A0740910B0750910C0760914A
:103CD0000D0770910E0780910F0790911007E4E88F
:103CE000AE2EE6E0BE2E0E94FF190E94E2377093CE
:103CF000C0066093BF0660912F06709130067095E4
:103D000061957F4F80914A07992787FD9095681BA1
:103D1000790B882777FD8095982F0E9415388B01A5
:103D20007C016091310670913206709561957F4FEC
:103D300080914B07992787FD9095681B790B882701
:103D400077FD8095982F0E941538262E572E482EE5
:103D5000392E80912D0690912E060F900F900F9086
:103D60000F900E943D1BA0901D07B0901E07602F72
:103D7000712F8E2D9F2D20E030E040E252E40E9412
:103D8000763787FF50C0602F712F8E2D9F2D20E03A
:103D900030E040E252EC0E94C53818160CF043C0E7
:103DA000B501882777FD8095982F0E94153820E06F
:103DB00030E04AE754E40E947A37A62ED72EC82E68
:103DC000B92E2091040630910506409106065091C7
:103DD00007060E94C9383B014C0160E070E080E8B2
:103DE0009FE32A2D3D2D4C2D5B2D0E941137202F56
:103DF000312F4E2D5F2D0E94C93820E030E040E287
:103E000051E40E94C9389B01AC01C401B3010E9476
:103E100012379B01AC0120930406309305064093B2
:103E200006065093070600912B0710912C07622D70
:103E3000752D842D932D20E030E040E252E40E9465
:103E4000763787FF90C0622D752D842D932D20E04D
:103E500030E040E252EC0E94C53818160CF083C0E6
:103E6000B801882777FD8095982F0E94153820E0AB
:103E700030E04AE754E40E947A37F62E072F182FD5
:103E8000E92E60E070E080E89FE32F2D302F412F76
:103E90005E2D0E941137662E972E882E792E209146
:103EA000BA063091BB064091BC065091BD066F2DFD
:103EB000702F812F9E2D0E94C9385B016C01662DE9
:103EC000792D882D972D222D352D442D532D0E948F
:103ED000C93820E030E040E251E40E94C9389B013B
:103EE000AC01C601B5010E9412379B01AC012093C1
:103EF000BA063093BB064093BC065093BD06209192
:103F00004A0630914B0640914C0650914D066F2D5C
:103F1000702F812F9E2D0E94C9387B018C01662D48
:103F2000792D882D972D20912506309126064091D8
:103F30002706509128060E94C93820E030E040E270
:103F400051E40E94C9389B01AC01C801B7010E942D
:103F500012379B01AC0120934A0630934B064093E5
:103F60004C0650934D06A0904A06B0904B06C09068
:103F70004C06D0904D0660904A0670904B0680909B
:103F80004C0690904D066091BA067091BB068091E8
:103F9000BC069091BD062091BA063091BB064091B7
:103FA000BC065091BD06E0900406F0900506009115
:103FB000060610910706E0900406F09005060091B1
:103FC0000606109107060E94C9380E94E2377B015D
:103FD0008C01C601B501A40193010E94C9380E9459
:103FE000E2376E0D7F1D801F911F0E9415385B0107
:103FF0006C010E945E231B012C016091BA06709136
:10400000BB068091BC069091BD06E0904A06F090F8
:104010004B0600914C0610914D060E94E2373B0181
:104020004C01C801B7010E94E2379B01AC01C401F9
:10403000B3010E94B6229C01B901882777FD8095C3
:10404000982F0E94153820E030E048EC52E40E949E
:104050007A376093360570933705809338059093CF
:1040600039056091040670910506809106069091CD
:1040700007060E94E2377B018C01C201B101A60153
:1040800095010E94C9380E94E2379B01AC01C8012A
:10409000B7010E94B622FC01BF01882777FD8095F9
:1040A000982F0E94153820E030E048EC52E40E943E
:1040B0007A376093EC057093ED058093EE0590934D
:1040C000EF05DF91CF911F910F91FF90EF90DF905F
:1040D000CF90BF90AF909F908F907F906F905F90A8
:1040E0004F903F902F900895AF92BF92CF92DF9262
:1040F000EF92FF920F931F9300D000D0809125067E
:1041000090912606A0912706B0912806B058EDB7E9
:10411000FEB781839283A383B483C0902D07D09090
:104120002E07E0902F07F090300700913107109193
:104130003207209133073091340740913507509171
:104140003607609137077091380780913907909151
:104150003A07ECE6AE2EE5E0BE2E0E94FF19609312
:1041600044067093450680934606909347060F9049
:104170000F900F900F908091DB068F3F09F0F4C0F5
:104180008091E60680FFF0C080910806843009F037
:10419000EBC0489AF8946091BE057091BF0580E02D
:1041A00090E00E9413387B018C0178947F2D912F31
:1041B00020E030E849E054E40E94763787FFB4C03D
:1041C00080912705882329F5809125059091260562
:1041D0008330910534F4019690932605809325054C
:1041E000C9C06E2D7F2D802F912F0E94E7377093CD
:1041F000B9066093B80680E090E0DC018093C506C4
:104200009093C606A093C706B093C80681E080933A
:1042100027056091B8067091B90680E090E00E9491
:1042200013382E2D3F2D402F512F0E941137F62E7F
:10423000072F182FE92E862F902FA12FBE2D8093A8
:104240009C0690939D06A0939E06B0939F066F2DAB
:10425000702F812F9E2D20E030E048E452E40E9430
:10426000763787FF5CC06F2D702F812F9E2D20E049
:1042700030E048E452EC0E94C53818160CF04FC0EC
:104280001092220500D000D08F2D902FA12FBE2D8F
:10429000EDB7FEB781839283A383B483C0903B07BD
:1042A000D0903C07E0903D07F0903E0700913F071B
:1042B00010914007209141073091420740914307F8
:1042C00050914407609145077091460780914707D8
:1042D00090914807B1ECAB2EB6E0BB2E0E94FF19BF
:1042E0000E94E2377B018C017093260560932505BF
:1042F0000F900F900F900F9060919C0670919D060B
:1043000080919E0690919F0620E030E0A9010E94D6
:104310007637882321F4F0922405E09223056091FA
:1043200025057091260504C0609123057091240530
:10433000882777FD8095982F0E9415389B01AC0146
:10434000609144067091450680914606909147061B
:104350000E94123760934406709345068093460688
:1043600090934706489806C010922605109225059E
:10437000109227057091440660914506909146067B
:1043800080914706AB019C01652F742F832F922FDC
:104390001F910F91FF90EF90DF90CF90BF90AF9063
:1043A00008956F927F928F929F92AF92BF92CF9219
:1043B000DF92EF92FF920F931F93CF93DF93EC0165
:1043C0006B01BC0197FF04C066277727681B790B38
:1043D000882777FD8095982F0E9415382FEF36EEAD
:1043E0004BED5EE20E941237162F072FF82EE92EB2
:1043F000B601882777FD8095982FD7FC2BC00E94A7
:1044000015385B016C01D801F7012B2F3A2F4F2F84
:104410005E2F0E9411373B014C01C601B501D80146
:10442000F7012B2F3A2F4F2F5E2F0E9412379B013F
:10443000AC01C401B3010E947A3720E030E040E0D3
:1044400053E40E94C9389B01AC0160E070E080E059
:1044500093E42AC00E9415385B016C01D801F70172
:104460002B2F3A2F4F2F5E2F0E9412373B014C010A
:10447000A8019701652F742F832F922FA601950114
:104480000E9411379B01AC01C401B3010E947A372D
:1044900020E030E040E053E40E94C9389B01AC01C9
:1044A00060E070E080EC93E40E941137D7FD9058F3
:1044B0000E94E237CB01DF91CF911F910F91FF90C6
:1044C000EF90DF90CF90BF90AF909F908F907F90B4
:1044D0006F900895AF92BF92CF92DF92EF92FF92CA
:1044E0000F931F93D62EC72EB82EA92E79018A01BD
:1044F000A6019501652F742F832F922FA801970194
:104500000E94C5381816B4F017FB109517F91095CE
:10451000A6019501652F742F832F922FA801970173
:104520000E94763787FD06C09601C501E32EF22E64
:10453000092F182F6E2D7F2D802F912F1F910F91F6
:10454000FF90EF90DF90CF90BF90AF9008956817E5
:1045500079073CF0709561957F4F681779070CF4E7
:10456000BC01CB01089580E090E008952F923F9226
:104570004F925F926F927F928F929F92AF92BF9273
:10458000CF92DF92EF92FF920F931F935B016C012A
:1045900039014A010E9415387B018C01C401B30125
:1045A0000E9415389B01AC01C801B7010E947A37FF
:1045B000F62E072F182FE92E9501B7FE03C0309570
:1045C00021953F4FC30177FE03C0909581959F4F82
:1045D000281739078CF56F2D702F812F9E2D20E025
:1045E00030E44FE054E40E94C9381B012C016F2DC8
:1045F000702F812F9E2D29E23CE54FE85EE30E945B
:10460000C9382F2D302F412F5E2D0E94C93820E050
:1046100030E040E85FE30E9412379B01AC01C20129
:10462000B1010E947A370E94E23797FE35C0D7FC6D
:1046300031C0685F784F30C06F2D702F812F9E2D55
:1046400020E030E44FE054E40E94C9383B014C01C3
:104650006F2D702F812F9E2D2F2D302F412F5E2DEE
:104660000E94C93829E23CE54FE85EE30E94123718
:104670009B01AC01C401B3010E947A379B01AC01DC
:1046800060E070E081E694E40E9411370E94E23716
:10469000D7FE02C068507740CB011F910F91FF9069
:1046A000EF90DF90CF90BF90AF909F908F907F90D2
:1046B0006F905F904F903F902F9008956F927F92F0
:1046C0008F929F92AF92BF92CF92DF92EF92FF9222
:1046D0000F931F935B016C01DC01CB01B595A7958E
:1046E000979587952FEDE22E29E5F22E27E3022FED
:1046F0002FE5122FE81AF90A0A0B1B0BC801B701A4
:1047000020E030E040E05FE30E94C9383B014C010B
:10471000C601B501A80197010E94C938A8019701F7
:104720000E94C9389B01AC0160E070E080E490E435
:104730000E9411379B01AC01C401B3010E94C9382A
:104740001F910F91FF90EF90DF90CF90BF90AF90AF
:104750009F908F907F906F900895F8948091A90515
:104760009091AA059093DC078093DB0778942091C1
:10477000DB073091DC078091CE079091CF07281797
:10478000390738F0281B390B3093C9072093C80725
:1047900008C080959095820F931F9093C9078093CE
:1047A000C8074091C8075091C90789E991E0489F1F
:1047B0009001499F300D589F300D112480EA9FE0F1
:1047C000821B930B0DC01092B200853691053CF010
:1047D0002091B2002832E0F38055904001C001974B
:1047E0009093D4078093D3078091D3079091D407F7
:1047F0001816190644F3809128058F5F80932805C9
:10480000809184059091850597FF05C01092D60789
:104810001092D5070AC024E08F37920714F08EE774
:1048200094E09093D6078093D50780918605909168
:10483000870597FF05C01092CD071092CC070AC0DC
:1048400024E08F37920714F08EE794E09093CD0721
:104850008093CC07809188059091890597FF05C0CA
:104860001092DA071092D9070AC024E08F37920716
:1048700014F08EE794E09093DA078093D907809143
:104880008A0590918B0597FF05C01092CB07109277
:10489000CA070AC024E08F37920714F08EE794E02D
:1048A0009093CB078093CA07469A449A429A809184
:1048B000E006813011F4439A09C0823039F48091C6
:1048C0002805853019F4439A109228058091E40652
:1048D00090E0805E9C4F0DC01092B200853691052D
:1048E0003CF02091B2002D32E0F38055904001C0A1
:1048F00001979093D4078093D3078091D307909129
:10490000D4071816190644F31092D2071092D10753
:1049100039C02091D1073091D2078091D50790916D
:10492000D6072817390708F046982091D10730910B
:10493000D2078091CC079091CD072817390708F04E
:1049400044982091D1073091D2078091D907909156
:10495000DA072817390708F042982091D1073091DB
:10496000D2078091CA079091CB072817390708F022
:1049700043988091D1079091D20704969093D207E3
:104980008093D1078091D1079091D20724E082389B
:10499000920708F4BECFF8948091A9059091AA05DA
:1049A0009093CF078093CE07789408952091840048
:1049B0003091850090E0880F991FFC01E451F84F79
:1049C00040815181DC01A654BA4F4217530748F485
:1049D000209184003091850080819181281B390BC2
:1049E0000AC02081318180918400909185002095BA
:1049F0003095280F391F11963C932E9308952091DE
:104A000084003091850090E00596880F991FFC0185
:104A1000E451F84F40815181DC01A654BA4F42174E
:104A2000530740F480819181281B390B11963C93E8
:104A30002E9308954081518140955095420F531F08
:104A400011965C934E93089520988091DB068823FD
:104A5000F1F41092B805529850985398229885E135
:104A60008093690087E08DBB8CBB809168008A6071
:104A70008093680080916C00816080936C008091CD
:104A800073008160809373008BB38A608BBB81E07D
:104A90008093B8053D9838983F9839988091680080
:104AA00086608093680080916C00816080936C00C8
:104AB00080916D00836A80936D008BB386608BBBA1
:104AC0008091C50781608093C5078091C50780618B
:104AD0008093C507F89480914E0690914F0690936D
:104AE000E4078093E30780914E0690914F069093E0
:104AF000E6078093E50778948091E1079091E207BB
:104B00009093E2078093E1078091DD079091DE07A3
:104B10009093DE078093DD070895F89490E0FC0100
:104B2000EE0FFF1FEE0FFF1FE80FF91FE60FF11D3D
:104B3000EE0FFF1FE654FA4F208131817894C901AE
:104B40000895F89490E070E09C01220F331F220F2B
:104B5000331F280F391FA901460F571F440F551F38
:104B6000FA01E654FA4F808191817894445B584F62
:104B7000FA0140815181841B950B260F371F2A575C
:104B8000384FF9016081772767FD70950E944039A1
:104B9000CB010895F894882311F540914E06509169
:104BA0004F066091E3077091E407461B570B4531B0
:104BB000510520F08091C507816034C040914E06B8
:104BC00050914F066091E5077091E607461B570B21
:104BD0004531510568F18091C507826023C081305D
:104BE00039F540914E0650914F066091E107709162
:104BF000E207461B570B4531510520F08091C50750
:104C0000806110C040914E0650914F066091DD07C3
:104C10007091DE07461B570B4531510548F08091D6
:104C2000C50780628093C507789420E030E041C0DA
:104C3000282F30E0C901880F991FA901B3E0440F64
:104C4000551FBA95E1F7840F951FFC01E654FA4F02
:104C5000468157815093E8074093E7077894409145
:104C6000E7075091E8078A59984FFC0180819181AC
:104C7000481B590B5093E8074093E7078091E707DB
:104C80009091E807F901EE0FFF1FEE0FFF1FE20FF3
:104C9000F31FE757F84F6081772767FD70950E94F3
:104CA00040397093E8076093E7072091E707309158
:104CB000E807C9010895CF92DF92EF92FF920F9318
:104CC0001F93CF93DF93C0E0D0E02DC003301105D8
:104CD00039F48C2F0E94CA25F701918380831AC072
:104CE0008C2F602F0E94A125F601E00FF11FEE0F1F
:104CF000FF1FE051FA4F91838083808191818F3033
:104D0000910544F4808191813FEF823F930714F035
:104D1000118210820F5F1F4F05301105B9F62196E1
:104D2000C230D105C9F000E010E06E01CC0CDD1CF2
:104D3000CC0CDD1CCC0EDD1E7E01EE0CFF1CCE016A
:104D400053E0880F991F5A95E1F7E80EF91E86EF98
:104D500095E0E80EF91EBACFDF91CF911F910F9128
:104D6000FF90EF90DF90CF9008956FE076E0282FCE
:104D700030E0F901EE0FFF1F93E0220F331F9A95E9
:104D8000E1F7E20FF31FE60FF71F1182108240EAEE
:104D900056E0282F30E0F901EE0FFF1FA3E0220FAD
:104DA000331FAA95E1F7E20FF31FE40FF51F2EEF73
:104DB0003FEF31832083A82FB0E0FD01EE0FFF1FEE
:104DC00093E0AA0FBB1F9A95E1F7EA0FFB1FE60FCE
:104DD000F71F13821282A82FB0E0FD01EE0FFF1F14
:104DE00093E0AA0FBB1F9A95E1F7EA0FFB1FE40FB0
:104DF000F51F33832283A82FB0E0FD01EE0FFF1FC4
:104E000093E0AA0FBB1F9A95E1F7EA0FFB1FE60F8D
:104E1000F71F15821482A82FB0E0FD01EE0FFF1FCF
:104E200093E0AA0FBB1F9A95E1F7EA0FFB1FE40F6F
:104E3000F51F35832483A82FB0E0FD01EE0FFF1F7F
:104E400093E0AA0FBB1F9A95E1F7EA0FFB1FE60F4D
:104E5000F71F17821682A82FB0E0FD01EE0FFF1F8B
:104E600093E0AA0FBB1F9A95E1F7EA0FFB1FE40F2F
:104E7000F51F37832683A82FB0E0FD01EE0FFF1F3B
:104E800093E0AA0FBB1F9A95E1F7EA0FFB1FE60F0D
:104E9000F71F11861086682F70E0FB01EE0FFF1FD1
:104EA000B3E0660F771FBA95E1F7E60FF71FE40F3F
:104EB000F51F318720870895DF92EF92FF920F93BD
:104EC0001F93CF93DF93D82E282F30E08901000F56
:104ED000111F73E0220F331F7A95E1F7020F131FA2
:104EE000015F194F282F30E0E901CC0FDD1F53E09F
:104EF000220F331F5A95E1F7C20FD31FC056D94F67
:104F0000EE24FF248D2D6E2D0E948D259C0100978F
:104F100081F0F801808191818217930718F4318321
:104F2000208307C0888199812817390710F43983B5
:104F300028830894E11CF11C0E5F1F4F2296F5E0B8
:104F4000EF16F104F9F6DF91CF911F910F91FF90C9
:104F5000EF90DF9008951598169817981198149867
:104F600012980895EF92FF920F931F93CF93DF93C0
:104F70008B017A01C82FD0E00E948829CC0FDD1F59
:104F8000C457DA4F99838883888199816CE975E0E9
:104F90004AE050E00E94CC398881998180179107BE
:104FA00050F088819981E816F90628F08CE995E09F
:104FB00068E071E004C08CE995E06BE071E00E946C
:104FC000A0398CE995E0DF91CF911F910F91FF906F
:104FD000EF900895EF92FF920F931F93DF93CF937B
:104FE0000F92CDB7DEB725B126952695269521706F
:104FF00010928D0510928C0510928F0510928E05DF
:1050000010929105109290051092930510929205BE
:10501000109295051092940510929705109296059E
:1050200059E1E52EF12C009192051091930585E050
:1050300029830E948829080F191F10939305009354
:105040009205009194051091950586E00E948829AB
:10505000080F191F1093950500939405009196056C
:105060001091970587E00E948829080F191F109357
:1050700097050093960500918C0510918D0581E0B0
:105080000E948829080F191F10938D0500938C0525
:1050900000918E0510918F0584E00E948829080FE9
:1050A000191F10938F0500938E05009190051091A4
:1050B000910582E00E948829080F191F109391051D
:1050C000009390058FE097E20197F1F700C0000090
:1050D00085B186958695869580958170880F880F15
:1050E000880F95B1977F982B95B90894E108F1083E
:1050F0002981E114F10409F096CF2170220F220FCB
:10510000220F85B1877F822B85B920E030E009E14D
:1051100010E0F901EE0FFF1FE457FA4F80819181F3
:10512000B8010E942C39718360832F5F3F4F263076
:10513000310579F78091DA0684608093DA06A8E772
:10514000B7E080E090E0FC01EE0FFF1FE457FA4F5C
:10515000208131812D933D9301968630910599F7F9
:105160000F90CF91DF911F910F91FF90EF900895D5
:1051700083E00E94882924E630E0AC01429FC00110
:10518000439F900D529F900D112464E771E00E949F
:105190002C39CB01089585E00E94882920917E0753
:1051A00030917F07821B930B9093300680932F06DC
:1051B00086E00E9488292091800730918107821B18
:1051C000930B909332068093310687E00E948829E2
:1051D0002091820730918307821B930B90933406B2
:1051E0008093330681E00E948829209178073091CE
:1051F0007907821B930B90932A068093290680914E
:10520000290690912A0697FF03C0909581959F4F9C
:105210008230910524F410922A061092290684E027
:105220000E94882920917A0730917B07821B930B7B
:1052300090932C0680932B0680912B0690912C0640
:1052400097FF03C0909581959F4F8230910524F47C
:1052500010922C0610922B0682E00E948829209141
:105260007C0730917D07821B930B90932E068093D1
:105270002D0680912D0690912E0697FF03C09095E4
:1052800081959F4F8230910524F410922E06109242
:105290002D060E94B828909336068093350608950F
:1052A00078941F920F920FB60F9211242F938F9321
:1052B0009F93EF93FF9320912905E22FF0E08091D7
:1052C000780090917900EE0FFF1FE050F84F918326
:1052D0008083822F8F5F87708093290580937C0065
:1052E000EAE7F0E0808180648083FF91EF919F91F5
:1052F0008F912F910F900FBE0F901F9018958FEFE9
:1053000080937E0010927C008FED80937A00089548
:10531000F894E82FF0E0EE0FFF1FE050F84F2081E7
:1053200031817894C90108958091A805882311F0EE
:1053300084FDFFCF089590E0880F991F8B52944F02
:10534000FC0125913491C9010895CF93DF93EC01BD
:10535000009731F4C0913005D0913105209739F094
:1053600087E060E00E94030CCE010E94000DDF91F7
:10537000CF910895EF920F938091A80580FD4FC0C3
:1053800085FF1BC080E090E0DC01809304069093D1
:105390000506A0930606B09307068093BA0690937D
:1053A000BB06A093BC06B093BD0680934A069093BB
:1053B0004B06A0934C06B0934D0620910406309105
:1053C0000506409106065091070680E060E309E07B
:1053D000EE240E94AD0D2091BA063091BB0640919B
:1053E000BC065091BD0681E060E30E94AD0D2091A6
:1053F0004A0630914B0640914C0650914D0682E092
:1054000060E30E94AD0D2091360530913705409143
:1054100038055091390583E060E30E94AD0D0F918E
:10542000EF9008950F931F93CF93DF938091A8057A
:10543000882369F184FF19C015E088EC90E062E0F0
:105440000E948E0E86E490E061E00E948C0B115069
:10545000A1F70E94EA270E94C30F87ED9CE090937A
:105460003105809330050E94A529C8E7D7E010E0F8
:10547000812F60E30E94030C49915991812F60E3D1
:1054800025E000E00E94F60D1F5F163089F7DF91DE
:10549000CF911F910F9108950F9380E060E30E94D8
:1054A000030C81E064EF71E046E752E00E94B2270E
:1054B0000E94EC0C81E060E30E94030C84E064EF46
:1054C00071E046E752E00E94B2270E94EC0C82E0B5
:1054D00060E30E94030C82E064EF71E046E752E073
:1054E0000E94B2270E94EC0C83E060E30E94030C50
:1054F00085E062EC71E042E553E00E94B2270E9431
:10550000EC0C84E060E30E94030C86E062EC71E046
:1055100042E553E00E94B2270E94EC0C85E060E374
:105520000E94030C87E062EC71E042E553E00E94C8
:10553000B2270E94EC0C86E060E30E94030C0E94FC
:10554000B8289C01B901882777FD8095982F0E9483
:1055500015389B01AC0186E060E300E00E94ED0D90
:105560000F9108958091A80580FF10C089E491E013
:105570000E94570E80E060E00E94030C8BEF9CE0DD
:105580000E94000D80E090E00E94570E8091A805D7
:1055900084FF04C01092DF060E94C30F83E062E123
:1055A0000E94030C809184059091850568ED75E05B
:1055B0004AE050E00E94AB3988ED95E065E00E943A
:1055C000520D83E06EE40E94030C80918A05909155
:1055D0008B0568ED75E04AE050E00E94AB3988ED3C
:1055E00095E065E00E94520D84E062E10E94030CA8
:1055F000809186059091870568ED75E04AE050E05E
:105600000E94AB3988ED95E065E00E94520D84E080
:105610006EE40E94030C809188059091890568EDE5
:1056200075E04AE050E00E94AB3988ED95E065E016
:105630000E94520D0895813099F0813018F0823027
:10564000E1F415C080919107882329F488ED95E055
:1056500063EE7DE009C088ED95E066ED7DE004C075
:1056600088ED95E069EC7DE00E948739089588ED2A
:1056700095E06CEB7DE00E9487390895FC01808104
:10568000813059F0813018F0823059F409C080918E
:105690009107882311F481E001C082E0808308959E
:1056A00010820895AF92BF92CF92DF92EF920F9344
:1056B0001F93DF93CF930F92CDB7DEB7182F6A01F8
:1056C00059018E2D69830E940E0D812F69810E94E0
:1056D000030C002311F0C60101C0C5010E94000D9A
:1056E00080E00E940E0D0F90CF91DF911F910F91DE
:1056F000EF90DF90CF90BF90AF90089580912A05F2
:10570000813021F40E94C30F10922A050895EF9270
:105710000F931F93182F2091C5078091B80530E093
:105720002F70307001E02115310509F000E091E0A3
:10573000813009F490E0812F62E149E15DE02BE1E5
:105740003DE0E92E0E94522B8091C5072091B805BB
:10575000807F01E009F000E091E0222309F490E06D
:10576000812F6EE14DE15DE02BE13DE0E92E0E94ED
:10577000522B80E00E940E0D1F910F91EF90089523
:105780000F931F93CF93DF931092D2058091A805BA
:1057900080FF0CC08091B8050E94B52680E060E0D3
:1057A0004DEE5CE022E100E00E94880D8091A805AA
:1057B00084FFBFC080911008882309F0B5C020E0A5
:1057C00030E008EE13E08091B8054091B805609193
:1057D000B80590E0FC01EE0FFF1FEE0FFF1FE80F72
:1057E000F91FE20FF31FEE0FFF1FE45BF84F70E0AD
:1057F000CB01880F991F880F991F860F971F820F63
:10580000931F880F991F8056994F50E0DA01AA0F15
:10581000BB1FAA0FBB1FA40FB51FA20FB31FAA0F58
:10582000BB1FA15FB94FEC01888199814D915C91BB
:10583000840F951F96958795918380834091B80535
:105840008091B80550E0FA01EE0FFF1FEE0FFF1F29
:10585000E40FF51FE20FF31FEE0FFF1FE05AF84FA2
:1058600090E0DC01AA0FBB1FAA0FBB1FA80FB91F36
:10587000A20FB31FAA0FBB1FA056B94F8D919C91C9
:10588000918380838091B8056091B8054091B805F7
:1058900090E0FC01EE0FFF1FEE0FFF1FE80FF91F56
:1058A000E20FF31FEA57F84F70E0CB01880F991F02
:1058B000880F991F860F971F820F931F880F991FBC
:1058C000815F994F50E0DA01AA0FBB1FAA0FBB1FDF
:1058D000A40FB51FA20FB31FAA0FBB1FA056B94F2D
:1058E000EC01888199814D915C911197841B950BF6
:1058F000B8010E942C3960832F5F3F4F253031055E
:1059000009F061CF2091B80581E090E002C0880FD6
:10591000991F2A95E2F72091DA06282BE9EDF6E0A7
:1059200021830E94C30F05C088EC90E063E00E94D1
:105930008C0B8091A80586FF04C08091B8050E9459
:10594000B526109210088091B8050E945C27C0E02F
:10595000D0E011E0CE018F5F6EE10E94030C8091D8
:10596000B80590E0FC01EE0FFF1FEE0FFF1FE80FE0
:10597000F91FEC0FFD1FEE0FFF1FE15FF94F808154
:10598000918168ED75E04AE050E00E94CC3988EDE5
:1059900095E00E94EC0C8DEE9CE00E94000D809141
:1059A000B80590E0FC01EE0FFF1FEE0FFF1FE80FA0
:1059B000F91FEC0FFD1FEE0FFF1FE056F94F80811E
:1059C000918168ED75E04AE050E00E94CC3988EDA5
:1059D00095E00E94EC0C8091B805882329F4C4302E
:1059E00019F488EF9CE045C02091B8058091B80576
:1059F00030E0D901AA0FBB1FAA0FBB1FA20FB31F14
:105A0000AC0FBD1FAA0FBB1FA15FB94F90E0FC01F7
:105A1000EE0FFF1FEE0FFF1FE80FF91FEC0FFD1F2A
:105A2000EE0FFF1FE056F94F2D913C9111978081A9
:105A3000918128173907A0F08091B80590E0FC010A
:105A4000EE0FFF1FEE0FFF1FE80FF91FEC0FFD1FFA
:105A5000EE0FFF1FE056F94F80819181009739F4D6
:105A60008FEE9CE00E94000D1093100804C083EF9D
:105A70009CE00E94000D2196C530D10509F06ACF47
:105A800086E00E94872BDF91CF911F910F9108959F
:105A90000F931F93CF93DF931092D2050E945B2642
:105AA000C0E0D0E0CE018F5F182F68E10E94030CA8
:105AB000FE01EE0FFF1FE051FA4F408151818091AE
:105AC000C50790E08F70907001E0009709F400E046
:105AD000812F64E225E00E94F60DFE01EE0FFF1F0C
