:100000000C94510B0C94520A0C94140A0C94C10ACF
:100010000C946E0B0C94150B0C947B090C94900AA9
:100020000C946E0B0C946E0B0C946E0B0C94FA0FDC
:100030000C946E0B0C946E0B0C946E0B0C94E30FE3
:100040000C946E0B0C946E0B0C9422090C946E0B9A
:100050000C946E0B0C946E0B0C946E0B0C946E0B3C
:100060000C946C2A0C946E0B0C946E0B0C946E0B0F
:100070000C94BE100C946E0B0C946E0BAF40A0A6AB
:10008000A4A2EEC82F24AC00F800E3FF010204088C
:1000900010204080FE00FF000003000100000096D9
:1000A00004001900640000000000FDFF14000000BF
:1000B00032005A0032005A0000001400C8000A0042
:1000C0005A0014000F00FEFF3200DE030F001E0076
:1000D000000000000000000058020F00190000009E
:1000E0000000000000000000000000000000000010
:1000F0000000000000000000000000000000000000
:1001000000000000000000000000000000000000EF
:1001100000000000000000000000000000000000DF
:1001200000000000000000000000000000000001CE
:100130000C104F1100000000000000000000000043
:1001400000000000000000000000000000000000AF
:10015000000000007C00FF33FF337C000000000043
:10016000000000000000000000003C003C00000017
:1001700000003C003C000000000000000000000205
:10018000101E901FF0037E021E1E901FF0037E02C1
:100190001E001000000000007804FC0CCC0CFF3F97
:1001A000FF3FCC0CCC0F880700000000000000309F
:1001B0003838381C380E00078003C001E03870382A
:1001C00038381C0000000000001FB83FFC31C62179
:1001D000E2373E1E1C1C003600220000000000001A
:1001E0000000000027003F001F000000000000008A
:1001F00000000000000000000000F003FC0FFE1FE4
:10020000073801200120000000000000000000006D
:100210000000012001200738FE1FFC0FF003000042
:100220000000000000000000980CB80EE003F80F7A
:10023000F80FE003B80E980C00000000000000006A
:10024000800180018001F00FF00F800180018001AA
:1002500000000000000000000000000000B800F8EE
:100260000078000000000000000000000000000016
:100270008001800180018001800180018001800176
:1002800000000000000000000000000000380038FE
:10029000003800000000000000000000000000180E
:1002A000001C000E00078003C001E0007000380051
:1002B0001C000E000000F807FE1F061E03338331EA
:1002C000C330633033301E18FE1FF80700000000F3
:1002D00000000C300C300E30FF3FFF3F003000308C
:1002E0000030000000001C301E38073C033E03377E
:1002F0008333C331E33077303E301C3000000C0CC8
:100300000E1C0738C330C330C330C330C330E739A5
:100310007E1F3C0E0000C003E003700338031C0383
:100320000E030703FF3FFF3F0003000300003F0CE5
:100330007F1C633863306330633063306330E3388D
:10034000C31F830F0000C00FF01FF839DC30CE3020
:10035000C730C330C330C339801F000F0000030013
:10036000030003000330033C030FC303F3003F000B
:100370000F0003000000000FBC1FFE39E730C33040
:10038000C330C330E730FE39BC1F000F00003C0013
:100390007E00E730C330C330C338C31CC30EE70749
:1003A000FE03FC000000000000000000701C701C38
:1003B000701C0000000000000000000000000000B1
:1003C00000000000709C70FC707C000000000000C9
:1003D0000000000000000000C000E001F00338074A
:1003E0001C0E0E1C07380330000000000000000047
:1003F00060066006600660066006600660066006CD
:100400006006000000000000033007380E1C1C0EC0
:100410003807F003E001C0000000000000001C00ED
:100420001E00070003008337C337E30077003E0058
:100430001C0000000000F80FFE1F0718F333FB3705
:100440001B36FB37FB370736FE03F8010000003888
:10045000003FE007FC061F061F06FC06E007003F02
:10046000003800000000FF3FFF3FC330C330C330FF
:10047000C330E730FE39BC1F000F00000000F0035E
:10048000FC0F0E1C073803300330033007380E1CF6
:100490000C0C00000000FF3FFF3F0330033003302F
:1004A000033007380E1CFC0FF00300000000FF3F74
:1004B000FF3FC330C330C330C330C330C330033019
:1004C000033000000000FF3FFF3FC300C300C30034
:1004D000C300C300C3000300030000000000F003DA
:1004E000FC0F0E1C07380330C330C330C330C73F86
:1004F000C63F00000000FF3FFF3FC000C000C0003B
:10050000C000C000C000FF3FFF3F0000000000002F
:10051000000003300330FF3FFF3F03300330000093
:10052000000000000000000E001E00380030003007
:10053000003000300038FF1FFF0700000000FF3FC1
:10054000FF3FC000E001F00338071C0E0E1C073807
:10055000033000000000FF3FFF3F0030003000305C
:100560000030003000300030003000000000FF3F5D
:10057000FF3F1E007800E001E00178001E00FF3F11
:10058000FF3F00000000FF3FFF3F0E003800F0007B
:10059000C0030007001CFF3FFF3F00000000F00306
:1005A000FC0F0E1C07380330033007380E1CFC0FFD
:1005B000F00300000000FF3FFF3F83018301830140
:1005C00083018301C701FE007C0000000000F003EE
:1005D000FC0F0E1C073803300336073E0E1CFC3F91
:1005E000F03300000000FF3FFF3F830183018303DE
:1005F0008307830FC71DFE387C30000000003C0CD1
:100600007E1CE738C330C330C330C330C7398E1FB8
:100610000C0F000000000000030003000300FF3F78
:10062000FF3F030003000300000000000000FF077D
:10063000FF1F003800300030003000300038FF1F4E
:10064000FF070000000007003F00F801C00F003E58
:10065000003EC00FF8013F00070000000000FF3F10
:10066000FF3F001C0006800380030006001CFF3FC4
:10067000FF3F0000000003300F3C1C0E3003E00180
:10068000E00130031C0E0F3C0330000000000300AB
:100690000F003C00F000C03FC03FF0003C000F00E6
:1006A0000300000000000330033C033E0333C3316A
:1006B000E33033301F300F30033000000000000003
:1006C0000000FF3FFF3F03300330033003300000E2
:1006D0000000000000000E001C0038007000E00068
:1006E000C00180030007000E001C0018000000007D
:1006F00000000330033003300330FF3FFF3F0000B2
:100700000000000000006000700038001C000E00B7
:1007100007000E001C00380070006000000000C0E0
:1007200000C000C000C000C000C000C000C000C0C9
:1007300000C000C006085F110000000000000000BB
:10074000065F060000070300070300247E247E24C2
:1007500000242B6A120000631308646300364956B4
:10076000205000000703000000003E410000000090
:10077000413E000000083E1C3E080008083E0808F4
:100780000000E06000000008080808080000606041
:100790000000002010080402003E5149453E0000C0
:1007A000427F40000062514949460022494949368A
:1007B000001814127F10002F49494931003C4A4962
:1007C00049300001710905030036494949360006E0
:1007D0004949291E00006C6C00000000EC6C000010
:1007E0000008142241000024242424240000412273
:1007F0001408000201590906003E415D551E007EA5
:100800001111117E007F49494936003E4141412284
:10081000007F4141413E007F49494941007F09092C
:100820000901003E4149497A007F0808087F00001D
:10083000417F410000304040403F007F081422418A
:10084000007F40404040007F0204027F007F02049E
:10085000087F003E4141413E007F09090906003EF4
:100860004151215E007F0909196600264949493234
:100870000001017F0101003F4040403F001F204038
:10088000201F003F403C403F0063140814630007F2
:100890000870080700714945430000007F4141008E
:1008A000000204081020000041417F000004020102
:1008B0000204808080808080000003070000002008
:1008C00054545478007F4444443800384444442805
:1008D00000384444447F00385454540800087E09CA
:1008E00009000018A4A4A47C007F04047800000080
:1008F000007D4000004080847D00007F102844007F
:100900000000007F4000007C04180478007C040490
:10091000780000384444443800FC444444380038EB
:10092000444444FC004478440408000854545420CF
:1009300000043E442400003C40207C00001C204079
:10094000201C003C6030603C006C10106C00009C6F
:10095000A0603C00006454544C0000083E4141003B
:10096000000000770000000041413E080002010243
:100970000100003C2623263C3407300108083038AB
:100980003C3E3E3C38300808060E1E3E3E1E0E061B
:1009900009093800FE00FE00FF01FF01FF01FE0013
:1009A000FE003800090300000000020202070205F1
:1009B000030207020202404000000000010303039B
:1009C000030303030303030303030303070F1F1FAF
:1009D0003F3F7F7F7F7F7F3F1F0F000303030303A2
:1009E00003030303030303030303030707070707C3
:1009F000070703030100000000000000FFFF0000E4
:100A000000000000000000011F7FFFFFFFFFFFE765
:100A1000C3E7FFFFFFFFFFFFFEF000000000000044
:100A2000000000070F3F7FFFFFFFFCFCFFFFFFFF01
:100A3000FFFFFFFF7CC3000000000000FFFF00007D
:100A40000000000000000000F0F8FCFEFEFEFEFCCE
:100A5000FCFDFBF7F7EFDF0B0000000000000001DA
:100A60000303FFFFFFFFFFFFFFFF7F7FFFFFFFFE8F
:100A7000FCF8E0807FFF000000000000FFFF0000A6
:100A80000000000000000000000000000000000066
:100A90000080FDFFFFFFFFFF7F1F3F7F7FFEFEFC0B
:100AA000F8F8F0F0E0C0C0E0C0C0C0C08080000036
:100AB00000000000FFFF000000000000FFFF00003A
:100AC000010103030707070F0707070303070F0FBA
:100AD0003F7FFFFFFEFEFFFFFFFFFFAF03000000B1
:100AE0000000000000000000000000000000000006
:100AF00000000000FFFF000000000000FFFF3F7F3C
:100B0000FFFFFCF8FCFFFFFFFFFFFFFFFFE8C0C097
:100B100080800000000080F9FFFFFFFFFF7F7F7FE4
:100B20007FFF7F7F7F3F1F0100000000000000006B
:100B300000000000FFFF0000000000FEFFFFFFFFBD
:100B4000FFFFFF7FFFFFFFFFFEFCF0E00000000063
:100B500000000000011F7FFFFFFFFFFFC7C7CFFF9F
:100B6000FFFFFFFFFFFEF00000000000000000009C
:100B700000000000FFFF000000000000F0F8D8D8DF
:100B8000F8D8D8D8D8981818181818181818181885
:100B90001818181818F8F8FCFCFCFEFCFCFCFCF813
:100BA000F0F0D8D818181818181818181818181895
:100BB00018181818F8F00000C40D2E0E620E720EF0
:100BC000800E8E0E9C0EAB0EB70EC50ED80EE80E24
:100BD000F80EFE0E41726520796F7520737572658F
:100BE0003F0053415645205550202020444F574E3A
:100BF0002020454E54455200202020202020202037
:100C000020202020202020200043414E43454C201E
:100C100020444F574E202020555020204F4B00415C
:100C200043432D5A2064616D70696E6700414343F0
:100C300020582026205920202020005472696D2041
:100C4000503A20202020523A00202020202020202E
:100C50002020202020202020200052004E0052651D
:100C60007665727365204759524F005941572020CD
:100C70002020202020202000202020202020202094
:100C80002020202020202020005069746368202626
:100C900020526F6C6C00596573004E6F200041202C
:100CA00054726920005920547269200058205175EF
:100CB0006164002B20517561640058205175616496
:100CC000002B20517561640055415254200042753B
:100CD00064647900545249200051756164004241B6
:100CE000434B2020202020202020202020202020B6
:100CF0002020200020004572720020202020004E7D
:100D0000410041524D4544004865666E79436F701D
:100D1000746572322076302E392E3962004F4B20A6
:100D2000003100580032002B00580059002B0041C0
:100D300000580055415254200042756464790054B3
:100D4000524920005175616400414C54484C4400A4
:100D5000535441424C45004143524F2020000C0F58
:100D60003E2F220F560FB53700000C0F222F6C0FAD
:100D7000700F262C860F700FB02ABB0F560FD3337F
:100D8000D00F560FD631D00F560F2C31D00F560F33
:100D9000433617104E10C6356410DE0CC02BA2105F
:100DA000DE0C852ED8100811862BA2101E11FD2CEA
:100DB000D8100811052FC40DDE0CD62A00003411FE
:100DC000F02E00002D54414B45204F4646205052F6
:100DD0004F50454C4C45525321210A2D507265739A
:100DE0007320636F6E74696E75650A2D5475726E2B
:100DF000204F66662051756164636F707465722E52
:100E00000A0A2D517561642077696C6C20737461D6
:100E1000727465640A696E2041524D454420544104
:100E20004B45434152452073746174650A0050720A
:100E300065737320436F6E74696E756520616674A7
:100E400065722063616C6962726174696F6E2E0AEB
:100E50000A756E706C756720626174746572792EA4
:100E60000A004779726F2050494420456469746FC5
:100E7000720053656C66204C6576656C696E670020
:100E8000416C74697475646520486F6C64004D6FC3
:100E900064652053657474696E6773004D6973638C
:100EA0002E2053657474696E67730053656E736F9B
:100EB00072205465737400526563656976657220AB
:100EC000546573740053656E736F722043616C696F
:100ED00062726174696F6E00537469636B2043655D
:100EE0006E746572696E67004553432043616C6997
:100EF00062726174696F6E00446562756700466175
:100F000063746F727920526573657400202020200D
:100F1000202020202020202020202020204D454E51
:100F200055000A0A426174743A20202020202020B3
:100F3000760A0A0A52583A202D2020534E3A202091
:100F4000202053543A202D0A466C793A2020204222
:100F50006F6172643A004241434B2055502020207B
:100F6000444F574E2020454E544552000A0A0A006D
:100F70002020202020202020202020202020202071
:100F800020444F4E45000A0A0A4D313A20202020C5
:100F90002020204D343A0A4D323A202020202020B3
:100FA000204D333A0A4553432043616C69627261B4
:100FB00074696F6E206D6F64650A000A5245535460
:100FC0004152540A202020202020424F4152440008
:100FD0000A503A202020202020204C696D3A0A49EE
:100FE0003A202020202020204C696D3A0A443A20E3
:100FF0002020202020204C696D3A0A4E6F697365CD
:101000002046696C7465723A0A5472696D20503AD0
:1010100020202020523A004672616D65205479707C
:10102000653A0A42756464792053797374656D3A40
:101030000A426F617264204469723A0A466C7920F0
:1010400020204469723A0A536F6E61723A0042413D
:10105000434B2050524556204E455854204348415A
:101060004E4745004175746F2044697361726D3A53
:101070000A566F6C7420416C61726D3A20202020FA
:1010800020202F3130760A5468726F74746C65209A
:101090006D696E3A0A537469636B205363616C65C2
:1010A0003A004779726F20583A0A4779726F20598F
:1010B0003A0A4779726F205A3A0A416363202058EE
:1010C0003A0A4163632020593A0A41636320205A57
:1010D0003A0A426174743A00204348202020525852
:1010E0002D312020202052582D320A41696C3A0AB5
:1010F000456C653A0A5275643A0A5468723A0A4174
:1011000075783A0A52583A004241434B2020202039
:101110002020202020434F4E54494E554500424147
:10112000434B20434C5220202020202020202044CC
:101130004F4E45004E4F20202020202020202020F0
:101140002020202020205945530000407A10F35AD7
:1011500000A0724E18090010A5D4E80000E87648F7
:10116000170000E40B54020000CA9A3B000000E1A3
:10117000F505000080969800000040420F00000036
:10118000A08601000000102700000000E803000016
:1011900000006400000000000A00000000000100E0
:1011A000000000002C76D888DC674F0823DFC1DF01
:1011B000AE59E1B1B796E5E3E453C63AE651997604
:1011C00096E8E6C28426EB898C9B62ED407C6FFC3E
:1011D000EFBC9C9F40F2BAA56FA5F490055A2AF780
:1011E0005C936B6CF9676DC11BFCE0E40D47FEF589
:1011F00020E6B500D0ED902E0300943577050080F1
:10120000841E080000204E0A000000C80C3333334F
:10121000330F986E12831141EF8D2114893BE655EF
:1012200016CFFEE6DB18D1844B381BF77C1D901DD2
:10123000A4BBE424203284725E228100C9F124EC34
:10124000A1E53D2778941F920F920FB60F921124BB
:101250002F933F934F935F936F937F938F939F93BE
:10126000AF93BF93CF93DF93EF93FF938091BA0532
:101270009091BB0501969093BB058093BA05C091F0
:101280001D05D0911E05CE018F779070009799F4BF
:10129000CE01880F892F881F990B91958770806BDD
:1012A00060E00E94D10B80E160E00E94D10B80E001
:1012B00060E00E94D10BFE01E35EFE4F808161E0A1
:1012C0000E94D10B2196D370D0931E05C0931D05AB
:1012D000FF91EF91DF91CF91BF91AF919F918F914E
:1012E0007F916F915F914F913F912F910F900FBE22
:1012F0000F901F9018951F920F920FB60F92112406
:101300000F931F932F933F934F935F936F937F930D
:101310008F939F93AF93BF93CF93DF93EF93FF93FD
:1013200016B18091DC07182786B18093DC07C09145
:101330008400D0918500012F15FF18C086B185FF6C
:1013400005C0D093EA07C093E90710C080E00E946F
:101350001B2680915E0690915F069093D107809343
:10136000D0078091B8078F718093B80700FF0BC03A
:1013700086B180FF05C0D093EC07C093EB0703C094
:1013800081E00E941B2617FF2DC08091D706379B56
:101390000BC0D093F007C093EF07813019F5469A40
:1013A000449A429A439A1EC0813061F48091B807F2
:1013B000807F41F480914F0581FD04C04698449898
:1013C0004298439883E00E941B2680915E0690918C
:1013D0005F069093D5078093D4078091B8078F72EA
:1013E0008093B80701FF0BC086B181FF05C0D09381
:1013F000EE07C093ED0703C082E00E941B26FF9119
:10140000EF91DF91CF91BF91AF919F918F917F919C
:101410006F915F914F913F912F911F910F910F907D
:101420000FBE0F901F9018951F920F920FB60F923C
:1014300011242F933F934F935F936F937F938F93D9
:101440009F93AF93BF93EF93FF9389B183FF09C03D
:1014500080918400909185009093E6078093E50742
:1014600010C083E00E94F22580915E0690915F0695
:101470009093D7078093D6078091B807827F809397
:10148000B807FF91EF91BF91AF919F918F917F919D
:101490006F915F914F913F912F910F900FBE0F90E1
:1014A0001F9018951F920F920FB60F9211242F9331
:1014B0003F934F935F936F937F938F939F93AF93DC
:1014C000BF93EF93FF9389B182FF09C0809184009D
:1014D000909185009093E0078093DF0710C080E033
:1014E0000E94F22580915E0690915F069093D90745
:1014F0008093D8078091B807817F8093B807FF91C8
:10150000EF91BF91AF919F918F917F916F915F917B
:101510004F913F912F910F900FBE0F901F901895F4
:101520001F920F920FB60F9211242F933F934F9358
:101530005F936F937F938F939F93AF93BF93EF933B
:10154000FF9389B180FF09C080918400909185004C
:101550009093E2078093E10703C081E00E94F225A7
:10156000FF91EF91BF91AF919F918F917F916F917B
:101570005F914F913F912F910F900FBE0F901F9051
:1015800018951F920F920FB60F9211242F933F932D
:101590004F935F936F937F938F939F93AF93BF937B
:1015A000EF93FF938091D3068F3FF9F48091DE068D
:1015B00080FF1BC083B182FF09C08091BA05909162
:1015C000BB059093DE078093DD071EC08091BA05AE
:1015D0009091BB052091DD073091DE07821B930BB4
:1015E0009093D3058093D2050FC083B182FF09C0C9
:1015F00080918400909185009093E4078093E307A5
:1016000003C082E00E94F225FF91EF91BF91AF915C
:101610009F918F917F916F915F914F913F912F910A
:101620000F900FBE0F901F9018951F920F920FB63C
:101630000F9211242F933F934F935F936F937F9358
:101640008F939F93AF93BF93EF93FF9383B180FFEB
:101650000CC080918400909185009093F207809354
:10166000F10781E08093CE060BC084E00E941B2628
:101670008091E0059091E1059093D7058093D60580
:10168000FF91EF91BF91AF919F918F917F916F915A
:101690005F914F913F912F910F900FBE0F901F9030
:1016A000189511241FBECFEFD8E0DEBFCDBF11E0EB
:1016B000A0E0B1E0E4EDFBE702C005900D92A4319B
:1016C000B107D9F718E0A4E1B1E001C01D92A43040
:1016D000B107E1F70E946C180C94E83D0C940000EF
:1016E000EF92FF920F931F93CF93DF93EC0100E0F3
:1016F00010E0E62EFF240AC0299ACE010E94D70EE0
:101700002998CE010E94D70E0F5F1F4F0E151F059F
:101710009CF3DF91CF911F910F91FF90EF9008956F
:1017200084B1806F84B985B1806F85B908950F93B6
:101730001F9313B11095107F0091BF051092CD0536
:10174000112321F180918507813011F40E94F40E5C
:101750008091BF05811759F080915E0690915F06D8
:10176000845D9E4F90931501809314010FC02091CA
:101770005E0630915F0640911401509115014217A9
:10178000530720F491E09093CD0505C0802F8095FC
:101790001093BF0581231F910F9108958091BF057C
:1017A00008955D986795662767959BB19F77962BFF
:1017B0009BB998E05C9887FF02C0599A01C059987C
:1017C0005C9A915011F0880FF5CF5D9A08956F776C
:1017D00060931C01880F880F880F80931B01089568
:1017E00080931C0160931B010895262F2695269552
:1017F000269530E03695322F222737952795280FEA
:10180000311DE62FF0E0E770F070E457FF4FE491F0
:1018100091E0411190E080911A018170D901A35E9D
:10182000BE4F891729F0E0958C91E823EC93089539
:101830008C918E2B8C93089508950895089580E0DF
:1018400094E0EDE1F1E0DF019C011D922150304078
:10185000E1F780E060E00E94E70B10921A01089522
:101860008F929F92BF92CF92DF92EF92FF920F934F
:101870001F93DF93CF930F92CDB7DEB74C01E62EC7
:10188000F42EC22EDD24BB24042F10E04FC0832F82
:10189000877029F4F4010894811C911CB490CC2029
:1018A00079F560911B01862F877019F5C801831B9C
:1018B000910988309105ECF0630F66956695669501
:1018C000A62FB0E0B695BA2FAA27B795A795809115
:1018D0001C018D0DA80FB11D80911A01A35EBE4F92
:1018E00080FF04C08B2D80958C9301C0BC92395F22
:1018F00017C080911C01630F4B2D41708D0D0CC0E2
:101900008C2D813069F4B0FE0BC080911C01609178
:101910001B01630F8D0D41E039830E94F50B398166
:10192000B6943F5F3F1508F4B2CFD394DE1410F4A1
:1019300030E0F8CF0F90CF91DF911F910F91FF9082
:10194000EF90DF90CF90BF909F908F900895262FBB
:10195000FC0164913196449102960E94300C0895E6
:101960008A3051F480911B0190911701890F809367
:101970001B0110921C010895E0911801F0911901CA
:101980000995609116014091170120E00E94300CEA
:1019900080911C0190911601890F80931C0108957C
:1019A000EF92FF92CF93DF93E82EE7017E01F92EAD
:1019B000E70102C00E94B00C89918823D9F7DF911A
:1019C000CF91FF90EF900895CF93DF93EC0102C089
:1019D0000E94B00CFE01219684918823C9F7DF9103
:1019E000CF91089590911A01882311F0916001C060
:1019F0009E7F90931A010895EF92FF920F931F9389
:101A0000DF93CF9300D00F92CDB7DEB7182F822F80
:101A10004A835B8369830E94F20C812F69810E9453
:101A2000E70B4A815B818A0102C00E94B00CF80179
:101A300081918F018823C9F70E94F20C0F900F90BB
:101A40000F90CF91DF911F910F91FF90EF9008952C
:101A50000F931F93082F10E004C080E20E94B00C87
:101A60001F5F1017D0F31F910F9108950F931F93CD
:101A7000DF93CF930F92CDB7DEB78C0169830E94BD
:101A8000D00CF80101900020E9F73197E01BF10B31
:101A90006981862F8E1B0E94280D0F90CF91DF91B8
:101AA0001F910F9108950F931F93DF93CF930F9280
:101AB000CDB7DEB78C0169830E94E40CC8010E9497
:101AC000F83A6981681B862F0E94280D0F90CF91EC
:101AD000DF911F910F910895EF92FF920F931F9343
:101AE000DF93CF9300D0CDB7DEB7182F7A01802FC8
:101AF0002A8369830E94F20C812F69810E94E70B7F
:101B0000C7012A81622F0E94530D80E00E94F20CCF
:101B10000F900F90CF91DF911F910F91FF90EF9059
:101B20000895BF92CF92DF92EF92FF920F931F938F
:101B3000DF93CF93CDB7DEB762970FB6F894DEBFD1
:101B40000FBECDBFF82EB62ECA01B901302F3250CC
:101B5000432F22E06E010894C11CD11C86013A8BF0
:101B60000E94C63A8E2D0E94F20C8F2D6B2D0E9482
:101B7000E70BC6013A89632F0E94360D80E00E9470
:101B8000F20C62960FB6F894DEBF0FBECDBFCF91B8
:101B9000DF911F910F91FF90EF90DF90CF90BF905A
:101BA0000895EF920F93E02E05E00E94910D0F91A2
:101BB000EF900895DF92EF92FF920F931F93DF93C0
:101BC000CF93CDB7DEB728970FB6F894DEBF0FBE20
:101BD000CDBFD82E162FCA017E010894E11CF11C3E
:101BE000B7014AE050E028870E94153B802F0E94F1
:101BF000F20C8D2D612F0E94E70BC7012885622F03
:101C00000E94360D80E00E94F20C28960FB6F894E0
:101C1000DEBF0FBECDBFCF91DF911F910F91FF901F
:101C2000EF90DF90089516BC81E085BBEEE6F0E012
:101C30008081816080830895EEE6F0E080818E7F70
:101C4000808308950F931F93CF93DF93082FCEE6E1
:101C5000D0E018810E941C0E81E860E00E94D10B48
:101C6000802F8F7360E00E94D10B1883DF91CF919A
:101C70001F910F910895BC01009711F464E377E080
:101C800086E191E044E050E00E94E83A0895CF9365
:101C9000DF93559A569A579A549A519A5E9889EFBB
:101CA00090E00197F1F700C000005E9AE9EFF0E0E4
:101CB0003197F1F700C00000CCE7D0E0FE0184913D
:101CC000219606C060E00E94D10BFE01219684910E
:101CD0008F3FC1F780E090E00E943B0E82E085BD1F
:101CE0000E94130EDF91CF910895CF92DF92EF9271
:101CF000FF920F931F93DF93CF930F92CDB7DEB771
:101D00006C0125B1269526952695217000E010E0FE
:101D1000E62EFF2424C085B186958695869580950C
:101D20008170880F880F880F95B1977F982B95B990
:101D3000C60129830E94D70E85B186958695869522
:101D400080958170880F880F880F95B1977F982BA9
:101D500095B9C6010E94D70E0F5F1F4F29810E153E
:101D60001F05CCF22170220F220F220F85B1877F31
:101D7000822B85B90F90CF91DF911F910F91FF902A
:101D8000EF90DF90CF9008950FC00000000000009A
:101D90000000000000000000000000000000000043
:101DA0000000000000000197009779F708951F9345
:101DB000CF93DF93EC0108C01AE084E690E00E9424
:101DC000C40E1150D1F721972097B1F7DF91CF9131
:101DD0001F910895509A489A229880E18093690053
:101DE00084E08DBB8CBB0895109285072B981092D0
:101DF000E9051092E80586E490E062E00E94700B2D
:101E000080E090E00E94DE2E08958091D806823016
:101E100039F48091D906813019F40E94F40E0895A6
:101E200081E0809385078EE190E064E070E00E949D
:101E3000750E2B9A8CEB92E061E00E94700B109271
:101E4000E9051092E80510921E0610921D0682E028
:101E500090E00E94DE2E80E090E0DC018093680636
:101E600090936906A0936A06B0936B0680938006F0
:101E700090938106A0938206B09383068093980680
:101E800090939906A0939A06B0939B06809354056D
:101E900090935505A0935605B093570580936C0514
:101EA00090936D05A0936E05B0936F0580938405A4
:101EB00090938505A0938605B0938705089581EDDD
:101EC00096E064E970E04CE950E00E94E83A089539
:101ED0000F931F93DF93CF930F92CDB7DEB78C0193
:101EE00069830E945C3B6981861719F0C8010E94D2
:101EF000643B0F90CF91DF911F910F910895CF9286
:101F0000DF92EF92FF920F931F93CF93DF93EC0139
:101F10007B016A0100E010E008C0C701800F911F3B
:101F200069910E94680F0F5F1F4F0C151D05A8F3E4
:101F3000DF91CF911F910F91FF90EF90DF90CF90A5
:101F4000089581ED96E060E070E04CE950E00E9479
:101F50007F0F0895F89481ED96E060E070E04CE921
:101F600050E00E947F0F78948CEB92E061E00E9439
:101F7000700B08950E945F0FE8E2F7E020EF35E074
:101F800080E694E021933193938B828B3187208775
:101F9000958F848F47E0E233F407A1F70E94AA0FE0
:101FA000089580E090E00E945C3B8E3F19F00E9413
:101FB000BA0F089581ED96E060E070E04CE950E0E2
:101FC0000E944C3B08951F920F920FB60F9211245E
:101FD0008F939F9380915E0690915F0601969093F8
:101FE0005F0680935E069F918F910F900FBE0F90BA
:101FF0001F9018951F920F920FB60F9211248F9376
:102000009F938091BD059091BE0501969093BE056A
:102010008093BD059F918F910F900FBE0F901F90E1
:10202000189581E08093810080936F0010925F0685
:1020300010925E0693E09093B1008093700017BAFF
:102040001092B2001092BE051092BD050895209125
:10205000D3062F3F61F410921F059093CD0080931B
:10206000CC0086E08093CA0088E98093C900089577
:102070009091C80095FFFCCF8093CE000895EF9219
:10208000FF920F931F93CF93DF93082F192FC0E078
:10209000D0E0E62EFF2406C0F80181918F010E9456
:1020A00038102196CE15DF05BCF3DF91CF911F913B
:1020B0000F91FF90EF90089580918507813009F48A
:1020C0005CC080E090E020E0FC01EA56F84F3081EF
:1020D000230F019688309105B9F780919E07281744
:1020E00009F04BC080919607833421F0863509F0C2
:1020F00044C02AC080919707853081F0863018F45B
:102100008130D9F505C08630C9F08730B1F519C0E6
:102110008EE190E064E00E94750E089580E091E009
:1021200061E00E943F1081ED96E066E50E943F105D
:1021300082E091E061E00E943F1008950E94AA0FA2
:1021400008950E9406290895809197076091980745
:10215000409199079FEF699FB0011124680F711D8D
:102160006F52794F242F332727FD3095EAE9F7E0A6
:10217000CB01BF01532F0E94013B08951F920F9284
:102180000FB60F9211242F933F934F935F936F934A
:102190007F938F939F93AF93BF93EF93FF93809120
:1021A000C80087FFFCCF8091CE008093910780917B
:1021B0002005882399F080915E0690915F0620911A
:1021C000920730919307821B930B8531910530F074
:1021D0001092200510921F0510928B07E0911F05A9
:1021E000F0E080919107EA56F84F808380912005B6
:1021F000882319F08130C1F406C010921F0581E0D8
:102200008093200507C080911F05883019F40E9433
:102210005C100AC0F89480915E0690915F069093DE
:10222000930780939207789480911F058F5F809326
:102230001F0580911F05893021F410921F0510920F
:102240002005FF91EF91BF91AF919F918F917F9169
:102250006F915F914F913F912F910F900FBE0F9013
:102260001F901895EF92FF920F931F93CF93DF93D8
:10227000082F192FC0E0D0E0E62EFF2406C0F80199
:1022800081918F010E9438102196CE15DF05BCF395
:10229000DF91CF911F910F91FF90EF90089590E003
:1022A00080979C01220F331F280F391F83E0220FD4
:1022B000331F8A95E1F72C5C3E4FC901089590E0E9
:1022C00080979C01220F331F280F391F220F331FC5
:1022D000285C384FC90108950E9419380E94D10F17
:1022E0000E9440268091D3068F3F31F48091DE0614
:1022F00080FF02C00E94EA0E3E9A3C9A3A9A3B9AAC
:102300004698449842984398219A239A1398109299
:10231000800010928100109282008091D3068F3F3E
:1023200021F48AE090E00E9427100E949B2A0E94DC
:10233000C7280E94900B0E9411100E94470E0E9415
:102340001F0C0E94113878948EE190E00E94D70E05
:1023500008950E9477278091EA059091EB050097F8
:1023600041F48091BD059091BE059093EB0580935B
:10237000EA058091BD059091BE052091EA05309156
:10238000EB05821B930B8B30910530F00E94CE370A
:102390001092EB051092EA05089583E00E94DE2E6C
:1023A0000E94A911FDCF1092A4071092A5071092C8
:1023B000A6071092A8071092AD0702C00E94A911AB
:1023C0008091D20682FFFACF81FFF8CF08958091E5
:1023D000E705882309F46CC18091CC05813009F0B0
:1023E00067C18091B807807F09F062C18091C506FE
:1023F0008E7F8093C5068091E8059091E90500974E
:1024000041F480915C0690915D069093E90580937C
:10241000E80580918507813009F054C02091CC05F2
:10242000822F90E0FC01EE0FFF1F43E0880F991F01
:102430004A95E1F7E80FF91FEC5FF94F8481958128
:1024400021E08139920784F01092570680915C0652
:1024500090915D062091E8053091E905821B930B70
:1024600021E08233920758F56091D606662309F47D
:102470001FC180911D0690911E06009741F4809126
:102480005C0690915D0690931E0680931D068091D8
:102490005C0690915D0620911D0630911E06821B00
:1024A000930B70E048EE53E0649F9001659F300D00
:1024B000749F300D11242817390708F0F9C00E94C5
:1024C000F40E0895882309F0F3C02091CC05822FE3
:1024D00090E0FC01EE0FFF1F23E0880F991F2A9563
:1024E000E1F7E80FF91FEC5FF94F848195812EEF3A
:1024F00080379207FCF41092570680915C06909109
:102500005D062091E8053091E905821B930B21E0DF
:102510008233920778F08091D306882341F480912A
:10252000B80790E08F709070009709F0C1C00E94CA
:10253000050F08952091CC05822F90E0FC01EE0F4D
:10254000FF1FA3E0880F991FAA95E1F7E80FF91F75
:10255000EC5FF94F8081918121E081399207ACF0E5
:102560001092570680915C0690915D062091E805D7
:102570003091E905821B930B21E08233920708F426
:1025800097C081E08093DA0657C02091CC05822F56
:1025900090E0FC01EE0FFF1F63E0880F991F6A9522
:1025A000E1F7E80FF91FEC5FF94F808191812EEF81
:1025B00080379207BCF41092570680915C06909188
:1025C0005D062091E8053091E905821B930B21E01F
:1025D0008233920708F46CC01092DA0680E590E02E
:1025E00064E02DC02091CC05822F90E0FC01EE0F1D
:1025F000FF1F43E0880F991F4A95E1F7E80FF91F85
:10260000EC5FF94F828193812EEF80379207F4F4CB
:102610001092570680915C0690915D062091E80526
:102620003091E905821B930B21E08233920708F475
:102630003FC082E080931C0680E590E068E00E9445
:10264000750E1092E9051092E80508952091CC05C9
:10265000822F90E0FC01EE0FFF1F23E0880F991FEF
:102660002A95E1F7E80FF91FEC5FF94F828193811A
:1026700021E081399207E4F01092570680915C06C0
:1026800090915D062091E8053091E905821B930B3E
:1026900021E08233920760F081E080931C0680E5A0
:1026A00090E064E00E94750E1092E9051092E80532
:1026B00008958091E705882309F487C08091B807C1
:1026C000807F09F082C08091E8059091E90500972C
:1026D00041F480915C0690915D069093E9058093AA
:1026E000E805809110069091110621E0813992074A
:1026F0008CF01092570680915C0690915D062091B7
:10270000E8053091E905821B930B8135910500F1B5
:1027100080E218C080911006909111062EEF80374C
:102720009207B4F41092570680915C0690915D0672
:102730002091E8053091E905821B930B81359105C5
:1027400038F080E48093C4061092E9051092E80501
:1027500080910E0690910F0621E081399207BCF01E
:102760001092570680915C0690915D062091E805D5
:102770003091E905821B930B8135910530F180E1A1
:102780008093C4061092E9051092E805089580919F
:102790000E0690910F062EEF80379207B4F4109238
:1027A000570680915C0690915D062091E805309176
:1027B000E905821B930B8135910538F080E8809301
:1027C000C4061092E9051092E80508951092990543
:1027D0001092980510929B0510929A0510929D05F3
:1027E00010929C058091D806823039F486E292E0FE
:1027F00090939F0580939E0504C010929F051092B0
:102800009E050E94C92408958F929F92AF92BF9215
:10281000CF92DF92EF92FF920F931F93CF93DF93AC
:102820000E9477272091CC05822F90E0FC01EE0FCB
:10283000FF1F23E0880F991F2A95E1F7E80FF91F82
:10284000EC5FF94F868197819093C7058093C60509
:102850000E94E729F89480915E0690915F0690931C
:102860005D0680935C0678940E941B1B21E02093F8
:1028700057068091D306882389F48091B807807F1A
:1028800069F480911606909117063EEF8037930702
:102890001CF41092CC0502C02093CC058091EA056F
:1028A0009091EB0520915C0630915D06009729F42C
:1028B0003093EB052093EA056AC0281B390B2530BD
:1028C000310508F464C00E94CE3780912507882323
:1028D00079F02091490630914A0690E04091C50672
:1028E0002817390714F4426001C04D7F4093C50694
:1028F0008091C506882351F085B1869580958170B9
:10290000880F95B19D7F982B95B901C0299880912A
:10291000D3068F3FC1F520912105222381F08091BC
:102920001606909117064EEF8037940734F484E032
:1029300080931C061092210526C0213071F08091F1
:1029400016069091170651E08139950724F081E031
:1029500080931C0616C02B30B1F080911606909122
:10296000170621E08039920774F480911606909141
:1029700017063EEF8137930734F082E080931C0600
:102980008BE0809321051092EB051092EA05C0912F
:10299000C605D091C705C233D1054CF40E94E7119A
:1029A0000E94E6130E94DB1A0E94071B6BC38091F2
:1029B0008507882329F40E94E6130E94591362C3F5
:1029C00010921E0610921D062091CC05822F90E0D9
:1029D000FC01EE0FFF1F13E0880F991F1A95E1F716
:1029E000E80FF91FEC5FF94F80819181E090DD06DF
:1029F000FF24E89EB001E99E700DF89E700D112431
:102A0000882777FD8095982F0E9428392DEC3CEC83
:102A10004CE45DE30E94DC390E94F5387093C105F7
:102A20006093C0052091CC05822F90E0FC01EE0F51
:102A3000FF1FA3E0880F991FAA95E1F7E80FF91F80
:102A4000EC5FF94F82819381E89EB001E99E700DA1
:102A5000F89E700D1124882777FD8095982F0E948D
:102A600028392DEC3CEC4CE45DE30E94DC390E94FB
:102A7000F5387093C3056093C2052091CC05822F71
:102A800090E0FC01EE0FFF1F63E0880F991F6A952D
:102A9000E1F7E80FF91FEC5FF94F84819581E89E1B
:102AA000B001E99E700DF89E700D1124882777FD06
:102AB0008095982F0E9428392DEC3CEC4CE45DE386
:102AC0000E94DC390E94F5387093C5056093C405F7
:102AD0008091D806813071F44091D90680913706F3
:102AE000909138062091B8053091B905413009F030
:102AF00057C034C06091370670913806CB018C0FF7
:102B00009D1F90939D0580939C05882777FD809558
:102B1000982F0E94283920E030E040E05FE30E94D7
:102B2000DC390E94F5389B017093380660933706B4
:102B30004091B8055091B905CE01821B930B841BBF
:102B4000950B9093990580939805C40FD51FC21BD0
:102B5000D30BD0939B05C0939A053DC0B9016C0F70
:102B60007D1FAE01421B530B481B590B5093990517
:102B700040939805AB01481B590B50939B0540931C
:102B80009A05680F791F70939D0560939C05C80F87
:102B9000D91FC21BD30BD0939F05C0939E051BC0AA
:102BA000A9014C0F5D1F50939B0540939A05AE0100
:102BB000421B530B50939F0540939E059E01281B7B
:102BC000390B3093990520939805C80FD91FD093DE
:102BD0009D05C0939C0580911C06813009F02EC193
:102BE0009091D8068091DA06913009F0A3C06091E7
:102BF000C0057091C105E090C205F090C3058090BA
:102C00009E0590909F05A0909A05B0909B05C0905E
:102C10009C05D0909D0500919805109199058130F3
:102C200009F049C0882777FD8095982F0E942839A0
:102C30002EEA37E441E25FE30E94DC390E94F53876
:102C4000EB017093C1056093C005B701882777FD3C
:102C50008095982F0E9428392EEA37E441E25FE3FD
:102C60000E94DC390E94F5389B017093C305609384
:102C7000C2058C0E9D1ECC1ADD0ACE01820F931F59
:102C8000800F911F9093990580939805A20EB31E13
:102C9000AC1ABD0AB0929B05A0929A05C21AD30A3B
:102CA000D0929D05C0929C05821A930A90929F052E
:102CB00080929E052EC1882777FD8095982F0E94CF
:102CC000283926E636E646E65FE30E94DC390E94B4
:102CD000F538EB017093C1056093C005B7018827F3
:102CE00077FD8095982F0E94283926E636E646E63D
:102CF0005FE30E94DC390E94F5387093C30560934E
:102D0000C205060F171F1093990500939805C61A60
:102D1000D70AD0929D05C0929C05AC1ABD0AB0920C
:102D20009B05A0929A05C80DD91DD0939F05C0930D
:102D30009E05EFC0813011F001E001C00FEFC0919E
:102D4000C205D091C30560919C0570919D058827AF
:102D500077FD8095982F0E9428394B015C01602FE8
:102D6000772767FD7095872F972F0E9428396B0171
:102D70007C01BE01882777FD8095982F0E94283915
:102D80002DEC3CEC4CE85FE30E94DC399B01AC018C
:102D9000C701B6010E94DC399B01AC01C501B40139
:102DA0000E9424380E94F53870939D0560939C051D
:102DB000E02EFF24E7FCF094EC9EB001ED9E700D38
:102DC000FC9E700D1124882777FD8095982F0E9416
:102DD000283920E030E040E05FE30E94DC390E94C7
:102DE000F538FB017093C3056093C20520919805E7
:102DF0003091990580919A0590919B056091C0054D
:102E00007091C105E69EA001E79E500DF69E500D03
:102E100011245093C1054093C005240F351F2E0F78
:102E20003F1F3093990520939805841B950B8E0FB7
:102E30009F1F90939B0580939A056BC00E945B2017
:102E40007B018C016091980570919905882777FD29
:102E50008095982F0E942839A80197010E94253853
:102E60000E94F538709399056093980560919A05D2
:102E700070919B05882777FD8095982F0E942839AF
:102E8000A80197010E9425380E94F53870939B0590
:102E900060939A058091D806C0909C05D0909D05BE
:102EA000813031F5B601882777FD8095982F0E94F3
:102EB0002839A80197010E9425380E94F53870939F
:102EC0009D0560939C0560919E0570919F058827E4
:102ED00077FD8095982F0E942839A80197010E94BC
:102EE00025380E94F53870939F0560939E0511C0A8
:102EF000B601882777FD8095982F0E942839A80170
:102F000097010E9425380E94F53870939D056093C3
:102F10009C050091D8068091CF069091D006013093
:102F200049F52091980530919905281B390B30936C
:102F300099052093980520919C0530919D05281BAB
:102F4000390B30939D0520939C0520919A05309173
:102F50009B05280F391F30939B0520939A052091DC
:102F60009E0530919F05280F391F30939F052093B0
:102F70009E053AC020916C07C22FDD27C7FDD09572
:102F8000C89FB001C99F700DD89F700D11246A5D54
:102F90007D4F882777FD8095982F0E9428396B01F7
:102FA0007C018091C4059091C505C89FB001C99F5F
:102FB000700DD89F700D1124882777FD8095982F6C
:102FC0000E9428392DEC3CEC4CE45EE30E94DC3995
:102FD0009B01AC01C701B6010E9424380E94F5385C
:102FE00070939F0560939E05809198059091990537
:102FF0008436910534F484E690E0909399058093AB
:10300000980580919A0590919B058436910534F43A
:1030100084E690E090939B0580939A0580919C05AF
:1030200090919D058436910534F484E690E0909368
:103030009D0580939C05013069F480919E059091D7
:103040009F058436910534F484E690E090939F05C3
:1030500080939E058091D3068F3FA1F484E091E098
:1030600061E00E943F108DE396E06CE00E943F100B
:1030700088E995E068E00E943F1086E091E061E019
:103080000E943F108091B807807F79F00E94E6137C
:1030900080918507813049F40E94C9240E94F40E72
:1030A0008091C50681608093C5060E94C9248091E5
:1030B0005706813021F41092E9051092E805DF915E
:1030C000CF911F910F91FF90EF90DF90CF90BF9025
:1030D000AF909F908F9008951092E7050E946C1119
:1030E00010924F051092C50681E080931C068093D4
:1030F00021058DE396E090939507809394071092B5
:1031000086070E94D3118091D706813011F40E9466
:10311000CD110E9419380E940414FDCF6F927F9246
:103120008F929F92AF92BF92CF92DF92EF92FF92D7
:103130000F931F93DF93CF93CDB7DEB72E970FB6C4
:10314000F894DEBF0FBECDBFC982DA82EB82FC826B
:103150000D831E832F83388749875A876B877C8727
:103160008D879E87EF8CF8A009A11AA16D807E80C3
:10317000C801B7010E94BD3A9C01B901882777FDBB
:103180008095982F0E94283920E030E040E85FE3E6
:103190000E94D8391816CCF469817A81882777FD86
:1031A0008095982F0E9428399B01AC01C801B70176
:1031B0000E94DC3920E030E040E251E40E948D388A
:1031C000F5016083718382839383C801B701F501A0
:1031D00024853585468557850E9424380E94F53818
:1031E0006B01C801B70120E030E040E850E40E94E4
:1031F000D8391816BCF4B301882777FD8095982F2D
:103200000E94283920E030E048EC52E40E948D38DA
:103210009B01AC01F50164817581868197810E94D3
:10322000253832C0C801B70120E030E040E850EC5A
:103230000E94893887FF15C0B301882777FD8095E4
:10324000982F0E94283920E030E048EC52E40E9498
:103250008D389B01AC01F501648175818681978170
:1032600011C0F5016480758086809780C401B30128
:103270002AE037ED43E25CE30E94DC399B01AC01BC
:10328000C401B3010E942438F501648375838683E9
:103290009783B601882777FD8095982F0E9428395B
:1032A0003B014C0169857A85882777FD8095982FA9
:1032B0000E9428399B01AC01C401B3010E94DC3992
:1032C00020E030E040EA51E40E948D38F50160874B
:1032D000718782879387E486F58606871787E4805F
:1032E000F580068117816F817885882777FD809525
:1032F000982F0E9428399B01AC01C801B7010E9498
:103300005122F5016483758386839783E080F18081
:10331000028113816B817C81882777FD8095982FAE
:103320000E9428399B01AC01C801B7010E945122BB
:10333000F5016083718382839383E084F184028545
:1033400013856B857C85882777FD8095982F0E9453
:1033500028399B01AC01C801B7010E9451227B01B1
:103360008C01F50160877187828793876081718105
:103370008281938124813581468157810E9425383D
:10338000A80197010E9425382E960FB6F894DEBF4B
:103390000FBECDBFCF91DF911F910F91FF90EF90A6
:1033A000DF90CF90BF90AF909F908F907F906F9065
:1033B0000895AF92BF92CF92DF92EF92FF920F9358
:1033C0001F93DF93CF93CDB7DEB72E970FB6F89448
:1033D000DEBF0FBECDBFC982DA82EB82FC820D83D5
:1033E0001E832F83388749875A876B877C878D8711
:1033F0009E87EB8CFC8C0D8D1E8D69817A818827D0
:1034000077FD8095982F0E9428399B01AC01C80157
:10341000B7010E94DC3920E030E040EA51E40E942C
:103420008D38F5016083718382839383C801B7016E
:1034300024853585468557850E9424380E94F538B5
:103440006B01C801B70120E030E040E85FE30E9473
:10345000D839181654F0C801B70120E030E040E830
:103460005FEB0E94893887FF22C06D817E818827AB
:1034700077FD8095982F0E9428399B01AC01C801E7
:10348000B7010E94DC3920E030E048E453E40E94B8
:103490008D389B01AC01F50164817581868197812E
:1034A0000E942538F5016483758386839783898517
:1034B0009A85C89EB001C99E700DD89E700D1124CA
:1034C000882777FD8095982F0E94283920E030E0EA
:1034D00040EA51E40E948D38F50160877187828748
:1034E0009387E486F58606871787E480F580068152
:1034F00017816F817885882777FD8095982F0E94A6
:1035000028399B01AC01C801B7010E945122F50185
:103510006483758386839783E080F18002811381C1
:103520006B817C81882777FD8095982F0E942839B0
:103530009B01AC01C801B7010E945122F5016083D3
:10354000718382839383E084F184028513856B8584
:103550007C85882777FD8095982F0E9428399B01CC
:10356000AC01C801B7010E9451227B018C01F50119
:10357000608771878287938760817181828193815F
:1035800024813581468157810E942538A801970101
:103590000E9425382E960FB6F894DEBF0FBECDBF21
:1035A000CF91DF911F910F91FF90EF90DF90CF901F
:1035B000BF90AF90089580E090E0DC0180936806B2
:1035C00090936906A0936A06B0936B068093800679
:1035D00090938106A0938206B0938306809354054E
:1035E00090935505A0935605B093570580936C05AD
:1035F00090936D05A0936E05B0936F05809371074E
:1036000090937207A0937307B0937407089580E0B6
:1036100090E0DC018093180690931906A0931A0697
:10362000B0931B068093CA069093CB06A093CC065A
:10363000B093CD0608952F923F924F925F926F9272
:103640007F928F929F92AF92BF92CF92DF92EF9232
:10365000FF920F931F93DF93CF9300D000D000D041
:10366000CDB7DEB76091150770911607882777FDF3
:103670008095982F0E94283920E030E04AE754E4F2
:103680000E948D387B018C01A0901F06B09020060F
:10369000C0902106D09022064090470650904806E0
:1036A0007F2D912FA60195010E94DC393B014C0131
:1036B00060E070E080E89FE32E2D3F2D402F512FDA
:1036C0000E9424387B018C01B201882777FD809508
:1036D000982F0E9428399B01AC01C801B7010E94B4
:1036E000DC399B01AC01C401B3010E942538609311
:1036F000390670933A0680933B0690933C0660919E
:10370000F9067091FA06882777FD8095982F0E9418
:10371000283920E030E04AE754E40E948D387B01EC
:103720008C0180904106909042067F2D912FA6013A
:1037300095010E94DC395B016C0160E070E080E87B
:103740009FE32E2D3F2D402F512F0E9424387B01C7
:103750008C01B401882777FD8095982F0E94283925
:103760009B01AC01C801B7010E94DC399B01AC018F
:10377000C601B5010E94253860931F06709320068C
:1037800080932106909322066091EB067091EC06DF
:10379000882777FD8095982F0E94283920E030E017
:1037A0004AE754E40E948D388B01E82EB92E60E080
:1037B00070E080E89FE3202F312F4E2D5B2D0E947B
:1037C0002438562E472E382E292EC0903F06D090F2
:1037D0004006602F712F8E2D9B2D2091E205309198
:1037E000E3054091E4055091E5050E94DC393B0179
:1037F0004C01B601882777FD8095982F0E942839C3
:103800009B01AC01D201F1016B2F7A2F8F2F9E2FDC
:103810000E94DC399B01AC01C401B3010E94253830
:10382000F62ED72EC82EA92E862F9D2DAC2DBA2D63
:103830008093E2059093E305A093E405B093E5053A
:1038400020913D0630913E063E832D83602F712FDF
:103850008E2D9B2D2091600630916106409162066D
:10386000509163060E94DC393B014C01ED81FE81E1
:10387000BF01882777FD8095982F0E9428399B01EA
:10388000AC01D201F1016B2F7A2F8F2F9E2F0E9456
:10389000DC399B01AC01C401B3010E94253860935F
:1038A000600670936106809362069093630600D071
:1038B00000D08F2D9D2DAC2DBA2DEDB7FEB7818395
:1038C0009283A383B483C090DF06D090E006E0909B
:1038D000E106F090E2060091E3061091E4062091E3
:1038E000E5063091E6064091E7065091E8066091C2
:1038F000E9067091EA068091EB069091EC06E4E609
:10390000AE2EE6E0BE2E0E94D9190E94F5387093C3
:103910003806609337068091600690916106A09109
:103920006206B0916306EDB7FEB781839283A383ED
:10393000B483C090DF06D090E006E090E106F090FE
:10394000E2060091E3061091E4062091E50630912D
:10395000E6064091E7065091E8066091E90670910D
:10396000EA068091EB069091EC06BCE7AB2EB6E040
:10397000BB2E0E94D9190E94F5387093B905609347
:10398000B8050DB71EB70F5F1F4F6091C40570914A
:10399000C505882777FD8095982F0E94283920E05B
:1039A00030E040E05FE30E94DC399B01AC016091B4
:1039B0001F067091200680912106909122060E9498
:1039C0002438F8016083718382839383C090ED066D
:1039D000D090EE06E090EF06F090F0060091F10630
:1039E0001091F2062091F3063091F4064091F5060D
:1039F0005091F6066091F7067091F8068091F906ED
:103A00009091FA06A4E9AA2EA6E0BA2E0E94D9192E
:103A10000E94F5387093D0066093CF0660914306FC
:103A200070914406709561957F4F80912607992784
:103A300087FD9095681B790B882777FD8095982FD7
:103A40000E942839D62EC72EB82EA92E6091450681
:103A500070914606709561957F4F80912707992751
:103A600087FD9095681B790B882777FD8095982FA7
:103A70000E942839562E79838A839B838091410640
:103A800090914206E0901806F090190600911A06EF
:103A900010911B0660913F0670914006882777FDC4
:103AA0008095982F0E9428392BE13FE24DED5CE391
:103AB0000E94DC399B01AC01C801B7010E94253886
:103AC0009B01AC01209318063093190640931A0607
:103AD00050931B06E090CA06F090CB060091CC06EE
:103AE0001091CD0660913D0670913E06882777FDC6
:103AF0008095982F0E9428392BE13FE24DED5CE341
:103B00000E94DC399B01AC01C801B7010E94253835
:103B10009B01AC012093CA063093CB064093CC06A0
:103B20005093CD066091070770910807882777FDAD
:103B30008095982F0E94283920E030E04AE754E42D
:103B40000E948D38F62E072F182FE92E60E070E0C6
:103B500080E89FE32F2D302F412F5E2D0E942438C7
:103B6000462E372E282E9C830F900F900F900F908B
:103B7000A6019501652F742F832F922F20E030E04E
:103B800040E252E40E94893887FF3BC0A6019501BC
:103B9000652F742F832F922F20E030E040E252EC0B
:103BA0000E94D83918166CF5209118063091190624
:103BB00040911A0650911B066F2D702F812F9E2D5C
:103BC0000E94DC393B014C012C81642D732D822D28
:103BD000922FD601F5012B2F3A2F4F2F5E2F0E94E7
:103BE000DC399B01AC01C401B3010E9425389B0163
:103BF000AC01209318063093190640931A0650938F
:103C00001B0649813A812B81652D742F832F922FBA
:103C100020E030E040E252E40E94893887FF3DC056
:103C200049813A812B81652D742F832F922F20E0BB
:103C300030E040E252EC0E94D839181674F5209119
:103C4000CA063091CB064091CC065091CD066F2D1F
:103C5000702F812F9E2D0E94DC397B018C012C81DD
:103C6000642D732D822D922FA981DA80CB80252D92
:103C70003A2F4D2D5C2D0E94DC399B01AC01C8010F
:103C8000B7010E9425389B01AC012093CA063093EE
:103C9000CB064093CC065093CD06E0901806F090EA
:103CA000190600911A0610911B06E0920006F09288
:103CB000010600930206109303062090CA06309076
:103CC000CB064090CC065090CD0620924A0530920B
:103CD0004B0540924C0550924D058091D9068823A2
:103CE00009F09DC09091DA06913009F098C080915A
:103CF000D8066091C0057091C105C090C205D090F2
:103D0000C305813009F048C0882777FD8095982F3A
:103D10000E94283920E030E040E05FE30E94DC3977
:103D2000A62E972E882E792EB601882777FD8095AE
:103D3000982F0E94283920E030E040E05FE30E94A5
:103D4000DC39D62EC72EB82E692EC801B7012A2D10
:103D5000392D482D572D0E942438D6012B2F3A2F6C
:103D60004B2D562D0E942438609300067093010657
:103D70008093020690930306C201B1012A2D392DCA
:103D8000482D572D0E942438D6012B2F3A2F4B2D2A
:103D9000562D0E942538D4C0882777FD8095982F0E
:103DA0000E94283920E030E040E05FE30E94DC39E7
:103DB000A62E972E882E792EB601882777FD80951E
:103DC000982F0E94283920E030E040E05FE30E9415
:103DD000DC39D62EC72EB82E692EC801B7012A2D80
:103DE000392D482D572D0E942538D6012B2F3A2FDB
:103DF0004B2D562D0E9425386093000670930106C6
:103E00008093020690930306C201B1012A2D392D39
:103E1000482D572D0E942538D601FB2D8BC090913F
:103E2000DA06891799F56091C2057091C305882754
:103E300077FD8095982F0E94283920E030E040E0FF
:103E40005FE30E94DC399B01AC01C801B7010E940D
:103E500024386093000670930106809302069093C5
:103E600003066091C0057091C105882777FD809594
:103E7000982F0E94283920E030E040E05FE30E9464
:103E8000DC399B01AC01C201B10158C0813009F09D
:103E90005FC0992309F05CC06091C0057091C105B5
:103EA000882777FD8095982F0E94283920E030E000
:103EB00040E05FE30E94DC39D62EC72EB82EA92E33
:103EC0006091C2057091C305882777FD8095982F72
:103ED0000E94283920E030E040E05FE30E94DC39B6
:103EE000962E872E782E692EC801B701D601F501CE
:103EF0002B2F3A2F4F2F5E2F0E942538D401F3012C
:103F00002B2F3A2F4F2F5E2F0E94243860930006EC
:103F1000709301068093020690930306C201B101DB
:103F2000D601F5012B2F3A2F4F2F5E2F0E942438F8
:103F3000D401F72D2B2F3A2F4F2F562D0E942438C6
:103F400060934A0570934B0580934C0590934D0503
:103F500080911C0680FD96C06091370670913806EE
:103F6000882777FD8095982F0E9428393B014C01C6
:103F700000D000D08091000690910106A091020629
:103F8000B0910306EDB7FEB781839283A383B48318
:103F9000C090FB06D090FC06E090FD06F090FE0677
:103FA0000091FF0610910007209101073091020750
:103FB000409103075091040760910507709106072F
:103FC0008091070790910807F0E5AF2EF5E0BF2E2E
:103FD0000E948E189B01AC01C401B3010E942538D8
:103FE0000E94F53870933806609337066091B805E3
:103FF0007091B905882777FD8095982F0E94283900
:104000003B014C0180914A0590914B05A0914C05D4
:10401000B0914D05EDB7FEB781839283A383B4833E
:10402000C090FB06D090FC06E090FD06F090FE06E6
:104030000091FF06109100072091010730910207BF
:10404000409103075091040760910507709106079E
:104050008091070790910807E8E6AE2EE5E0BE2EB6
:104060000E948E189B01AC01C401B3010E94253847
:104070000E94F5387093B9056093B8050F900F90C2
:104080000F900F9026960FB6F894DEBF0FBECDBFEF
:10409000CF91DF911F910F91FF90EF90DF90CF9024
:1040A000BF90AF909F908F907F906F905F904F9058
:1040B0003F902F900895AF92BF92CF92DF92EF92F0
:1040C000FF920F931F9300D000D0809139069091FA
:1040D0003A06A0913B06B0913C06B058EDB7FEB74A
:1040E00081839283A383B483C0900907D0900A0789
:1040F000E0900B07F0900C0700910D0710910E0750
:1041000020910F073091100740911107509112072D
:10411000609113077091140780911507909116070D
:10412000A0E8AA2EA5E0BA2E0E94D91960935806DD
:104130007093590680935A0690935B060F900F90E8
:104140000F900F908091D3068F3F09F0F4C08091BB
:10415000DE0680FFF0C080911C06843009F0EBC0C1
:10416000489AF8946091D2057091D30580E090E070
:104170000E9426397B018C0178947F2D912F20E0BD
:1041800030E849E054E40E94893887FFB4C0809148
:104190002705882329F580912505909126058330F0
:1041A000910534F401969093260580932505C9C0A6
:1041B0006E2D7F2D802F912F0E94FA387093C906A3
:1041C0006093C80680E090E0DC01809371079093D3
:1041D0007207A0937307B093740781E0809327055B
:1041E0006091C8067091C90680E090E00E9426396F
:1041F0002E2D3F2D402F512F0E942438F62E072FB1
:10420000182FE92E862F902FA12FBE2D8093AC065C
:104210009093AD06A093AE06B093AF066F2D702FAE
:10422000812F9E2D20E030E048E452E40E9489383E
:1042300087FF5CC06F2D702F812F9E2D20E030E016
:1042400048E452EC0E94D83918160CF04FC0109276
:10425000220500D000D08F2D902FA12FBE2DEDB7BD
:10426000FEB781839283A383B483C0901707D09055
:104270001807E0901907F0901A0700911B0710919A
:104280001C0720911D0730911E0740911F07509178
:104290002007609121077091220780912307909158
:1042A0002407FDE6AF2EF7E0BF2E0E94D9190E9429
:1042B000F5387B018C0170932605609325050F90DE
:1042C0000F900F900F906091AC067091AD068091A9
:1042D000AE069091AF0620E030E0A9010E94893837
:1042E000882321F4F0922405E092230560912505AE
:1042F0007091260504C060912305709124058827DC
:1043000077FD8095982F0E9428399B01AC01609120
:1043100058067091590680915A0690915B060E944A
:104320002538609358067093590680935A069093E7
:104330005B06489806C0109226051092250510923B
:104340002705709158066091590690915A06809100
:104350005B06AB019C01652F742F832F922F1F9159
:104360000F91FF90EF90DF90CF90BF90AF900895A6
:104370006F927F928F929F92AF92BF92CF92DF9275
:10438000EF92FF920F931F93CF93DF93EC016B019A
:10439000BC0197FF04C066277727681B790B882725
:1043A00077FD8095982F0E9428392FEF36EE4BED40
:1043B0005EE20E942538162F072FF82EE92EB6014F
:1043C000882777FD8095982FD7FC2BC00E9428392D
:1043D0005B016C01D801F7012B2F3A2F4F2F5E2F75
:1043E0000E9424383B014C01C601B501D801F701F8
:1043F0002B2F3A2F4F2F5E2F0E9425389B01AC01A7
:10440000C401B3010E948D3820E030E040E053E465
:104410000E94DC399B01AC0160E070E080E093E435
:104420002AC00E9428395B016C01D801F7012B2FAB
:104430003A2F4F2F5E2F0E9425383B014C01A801D7
:104440009701652F742F832F922FA60195010E944B
:1044500024389B01AC01C401B3010E948D3820E0D7
:1044600030E040E053E40E94DC399B01AC0160E0A5
:1044700070E080EC93E40E942438D7FD90580E94AD
:10448000F538CB01DF91CF911F910F91FF90EF9005
:10449000DF90CF90BF90AF909F908F907F906F9064
:1044A0000895AF92BF92CF92DF92EF92FF920F9357
:1044B0001F93D62EC72EB82EA92E79018A01A601E8
:1044C0009501652F742F832F922FA80197010E94C9
:1044D000D8391816B4F017FB109517F91095A601E6
:1044E0009501652F742F832F922FA80197010E94A9
:1044F000893887FD06C09601C501E32EF22E092FEB
:10450000182F6E2D7F2D802F912F1F910F91FF90CF
:10451000EF90DF90CF90BF90AF9008956817790724
:104520003CF0709561957F4F681779070CF4BC01DA
:10453000CB01089580E090E008956F927F928F9272
:104540009F92AF92BF92CF92DF92EF92FF920F9322
:104550001F93FC012081318142815381E480F580E9
:1045600006811781A084B184C284D384CA01B901B1
:104570000E94DC393B014C01C801B701A801970139
:104580000E94DC399B01AC01C401B3010E942538B3
:104590007B018C01C601B501A60195010E94DC39A1
:1045A0009B01AC01C801B7010E942538262F372F87
:1045B000482F592F20932C0530932D0540932E051D
:1045C00050932F050E94433A1F910F91FF90EF9057
:1045D000DF90CF90BF90AF909F908F907F906F9023
:1045E0000895EF92FF920F931F93CF93DF93EC0107
:1045F0000E949D227B018C01609328057093290500
:1046000080932A0590932B05688179818A819B810B
:10461000A80197010E948D38688379838A839B83E0
:104620006C817D818E819F81A80197010E948D38C8
:104630006C837D838E839F83688579858A859B853E
:10464000A80197010E948D38688779878A879B87A0
:10465000DF91CF911F910F91FF90EF900895CF922E
:10466000DF92EF92FF920F931F93CF93DF93EC01B2
:104670008B01688179818A819B81F8012081318158
:10468000428153810E94DC396B017C016C817D8108
:104690008E819F81F80124813581468157810E9456
:1046A000DC399B01AC01C701B6010E9425386B01C2
:1046B0007C01688579858A859B85F801208531850F
:1046C000428553850E94DC399B01AC01C701B601CC
:1046D0000E942538DF91CF911F910F91FF90EF90AD
:1046E000DF90CF900895AF92BF92CF92DF92EF927A
:1046F000FF920F931F93CF93DF93EC018B017A010D
:104700006C817D818E819F81F80120853185428574
:1047100053850E94DC395B016C01688579858A8547
:104720009B85F80124813581468157810E94DC39BF
:104730009B01AC01C601B5010E942438F7016083DA
:10474000718382839383688579858A859B85F80147
:1047500020813181428153810E94DC395B016C01EF
:10476000688179818A819B81F80120853185428524
:1047700053850E94DC399B01AC01C601B5010E9442
:104780002438F701648375838683978368817981F0
:104790008A819B81F80124813581468157810E945D
:1047A000DC395B016C016C817D818E819F81F80118
:1047B00020813181428153810E94DC399B01AC010F
:1047C000C601B5010E942438F7016087718782878E
:1047D0009387DF91CF911F910F91FF90EF90DF9022
:1047E000CF90BF90AF900895CF92DF92EF92FF925B
:1047F0000F931F93CF93DF937B018C01EA01690133
:10480000288139814A815B810E94DC39F60160830D
:10481000718382839383C801B7012C813D814E81CE
:104820005F810E94DC39F6016483758386839783F8
:10483000C801B701288539854A855B850E94DC3926
:10484000F6016087718782879387DF91CF911F91EF
:104850000F91FF90EF90DF90CF900895EF92FF922D
:104860000F931F93CF93DF93EC018B017A01688143
:1048700079818A819B81F801208131814281538134
:104880000E942538F70160837183828393836C8152
:104890007D818E819F81F8012481358146815781F8
:1048A0000E942538F7016483758386839783688522
:1048B00079858A859B85F8012085318542855385D8
:1048C0000E942538F7016087718782879387DF917F
:1048D000CF911F910F91FF90EF900895EF92FF926B
:1048E0000F931F93DC01FB0120E030E040E85FE321
:1048F000208331834283538318966D917D918D91EE
:104900009C911B9790586483758386839783149634
:104910006D917D918D919C911797608771878287AA
:10492000938718966D917D918D919C911B976487CB
:10493000758786879787208B318B428B538B6D9140
:104940007D918D919C9113979058648B758B868B7C
:10495000978B1496ED90FD900D911C91179717FB76
:10496000109517F91095E08EF18E028F138F8D91AF
:104970009D910D90BC91A02D848F958FA68FB78FA0
:1049800020A331A342A353A31F910F91FF90EF9057
:104990000895F8948091BD059091BE059093CF073E
:1049A0008093CE0778942091CE073091CF078091E5
:1049B000C1079091C2072817390738F0281B390B17
:1049C0003093BC072093BB0708C080959095820F59
:1049D000931F9093BC078093BB074091BB075091F6
:1049E000BC0789E991E0489F9001499F300D589F8D
:1049F000300D112480EA9FE0821B930B0DC01092B2
:104A0000B200853691053CF02091B2002832E0F3E7
:104A10008055904001C001979093C7078093C607C7
:104A20008091C6079091C7071816190644F3809124
:104A300030058F5F8093300580919805909199059E
:104A400097FF05C01092C9071092C8070AC024E05A
:104A50008F37920714F08EE794E09093C907809304
:104A6000C80780919A0590919B0597FF05C0109209
:104A7000C0071092BF070AC024E08F37920714F0D6
:104A80008EE794E09093C0078093BF0780919C05C8
:104A900090919D0597FF05C01092CD071092CC070D
:104AA0000AC024E08F37920714F08EE794E09093C9
:104AB000CD078093CC0780919E0590919F0597FF2D
:104AC00005C01092BE071092BD070AC024E08F37C0
:104AD000920714F08EE794E09093BE078093BD0791
:104AE000469A449A429A8091D806813011F4439AAA
:104AF00009C0823039F480913005853019F4439A29
:104B0000109230058091DC0690E0805E9C4F0DC0D5
:104B10001092B200853691053CF02091B2002D3202
:104B2000E0F38055904001C001979093C7078093B0
:104B3000C6078091C6079091C7071816190644F357
:104B40001092C5071092C40739C02091C407309154
:104B5000C5078091C8079091C9072817390708F041
:104B600046982091C4073091C5078091BF07909166
:104B7000C0072817390708F044982091C4073091DE
:104B8000C5078091CC079091CD072817390708F009
:104B900042982091C4073091C5078091BD0790913C
:104BA000BE072817390708F043988091C4079091F1
:104BB000C50704969093C5078093C4078091C407E6
:104BC0009091C50724E08238920708F4BECFF8948C
:104BD0008091BD059091BE059093C2078093C10757
:104BE00078940895209184003091850090E0880F9A
:104BF000991FFC01E152F84F40815181DC01A25321
:104C0000BA4F4217530748F4209184003091850031
:104C100080819181281B390B0AC0208131818091CC
:104C200084009091850020953095280F391F1196AA
:104C30003C932E930895209184003091850090E05C
:104C40000596880F991FFC01E152F84F4081518170
:104C5000DC01A253BA4F4217530740F4808191817F
:104C6000281B390B11963C932E9308954081518156
:104C700040955095420F531F11965C934E930895A3
:104C800020988091D3068823F1F41092CC05529895
:104C900050985398229885E18093690087E08DBBF6
:104CA0008CBB809168008A608093680080916C0062
:104CB000816080936C0080917300816080937300A9
:104CC0008BB38A608BBB81E08093CC053D9838988C
:104CD0003F98399880916800866080936800809141
:104CE0006C00816080936C0080916D00836A80937A
:104CF0006D008BB386608BBB8091B8078160809319
:104D0000B8078091B80780618093B807F8948091C4
:104D10005E0690915F069093D7078093D6078091A7
:104D20005E0690915F069093D9078093D807789498
:104D30008091D4079091D5079093D5078093D4079D
:104D40008091D0079091D1079093D1078093D0079D
:104D50000895F89490E0FC01EE0FFF1FEE0FFF1F87
:104D6000E80FF91FE60FF11DEE0FFF1FE253FA4F98
:104D7000208131817894C9010895F89490E070E021
:104D80009C01220F331F220F331F280F391FA90147
:104D9000460F571F440F551FFA01E253FA4F808107
:104DA00091817894485D584FFA0140815181841B6C
:104DB000950B260F371F2E59384FF9016081772741
:104DC00067FD70950E94AA3ACB010895F894882354
:104DD00011F540915E0650915F066091D607709183
:104DE000D707461B570B4531510520F08091B80776
:104DF000816034C040915E0650915F066091D80793
:104E00007091D907461B570B4531510568F18091C8
:104E1000B807826023C0813039F540915E06509119
:104E20005F066091D4077091D507461B570B45313B
:104E3000510520F08091B807806110C040915E0656
:104E400050915F066091D0077091D107461B570BB8
:104E50004531510548F08091B80780628093B807CA
:104E6000789420E030E041C0282F30E0C901880F5D
:104E7000991FA901B3E0440F551FBA95E1F7840FBC
:104E8000951FFC01E253FA4F468157815093DB078F
:104E90004093DA0778944091DA075091DB078E5BF4
:104EA000984FFC0180819181481B590B5093DB077F
:104EB0004093DA078091DA079091DB07F901EE0F52
:104EC000FF1FEE0FFF1FE20FF31FEB59F84F60813A
:104ED000772767FD70950E94AA3A7093DB0760936D
:104EE000DA072091DA073091DB07C9010895CF92E4
:104EF000DF92EF92FF920F931F93CF93DF93C0E067
:104F0000D0E02DC00330110539F48C2F0E94E62625
:104F1000F701918380831AC08C2F602F0E94BD26D9
:104F2000F601E00FF11FEE0FFF1FEC5FF94F9183C9
:104F30008083808191818F30910544F480819181BB
:104F40003FEF823F930714F0118210820F5F1F4FD3
:104F500005301105B9F62196C230D105C9F000E03F
:104F600010E06E01CC0CDD1CCC0CDD1CCC0EDD1E6B
:104F70007E01EE0CFF1CCE0153E0880F991F5A955D
:104F8000E1F7E80EF91E8AE096E0E80EF91EBACFC6
:104F9000DF91CF911F910F91FF90EF90DF90CF9015
:104FA000089563E276E0282F30E0F901EE0FFF1F4D
:104FB00093E0220F331F9A95E1F7E20FF31FE60FFC
:104FC000F71F1182108240EB56E0282F30E0F901E4
:104FD000EE0FFF1FA3E0220F331FAA95E1F7E20FA8
:104FE000F31FE40FF51F2EEF3FEF31832083A82F2F
:104FF000B0E0FD01EE0FFF1F93E0AA0FBB1F9A95D3
:10500000E1F7EA0FFB1FE60FF71F13821282A82FAA
:10501000B0E0FD01EE0FFF1F93E0AA0FBB1F9A95B2
:10502000E1F7EA0FFB1FE40FF51F33832283A82F5C
:10503000B0E0FD01EE0FFF1F93E0AA0FBB1F9A9592
:10504000E1F7EA0FFB1FE60FF71F15821482A82F66
:10505000B0E0FD01EE0FFF1F93E0AA0FBB1F9A9572
:10506000E1F7EA0FFB1FE40FF51F35832483A82F18
:10507000B0E0FD01EE0FFF1F93E0AA0FBB1F9A9552
:10508000E1F7EA0FFB1FE60FF71F17821682A82F22
:10509000B0E0FD01EE0FFF1F93E0AA0FBB1F9A9532
:1050A000E1F7EA0FFB1FE40FF51F37832683A82FD4
:1050B000B0E0FD01EE0FFF1F93E0AA0FBB1F9A9512
:1050C000E1F7EA0FFB1FE60FF71F11861086682F26
:1050D00070E0FB01EE0FFF1FB3E0660F771FBA957C
:1050E000E1F7E60FF71FE40FF51F318720870895DA
:1050F000DF92EF92FF920F931F93CF93DF93D82EFF
:10510000282F30E08901000F111F73E0220F331F99
:105110007A95E1F7020F131F0D5D194F282F30E02C
:10512000E901CC0FDD1F53E0220F331F5A95E1F741
:10513000C20FD31FC055D94FEE24FF248D2D6E2DE5
:105140000E94A9269C01009781F0F801808191813D
:105150008217930718F43183208307C088819981CF
:105160002817390710F4398328830894E11CF11CAF
:105170000E5F1F4F2296F5E0EF16F104F9F6DF916E
:10518000CF911F910F91FF90EF90DF9008951598A8
:10519000169817981198149812980895EF92FF9204
:1051A0000F931F93CF93DF938B017A01C82FD0E029
:1051B0000E94A42ACC0FDD1FC056DA4F9983888342
:1051C0008881998160EB75E04AE050E00E94363BAF
:1051D000888199818017910750F088819981E8161C
:1051E000F90628F080EB95E068E071E004C080EB00
:1051F00095E06BE071E00E940A3B80EB95E0DF9167
:10520000CF911F910F91FF90EF900895EF92FF9231
:105210000F931F93DF93CF930F92CDB7DEB725B1D6
:1052200026952695269521701092A1051092A0052D
:105230001092A3051092A2051092A5051092A40544
:105240001092A7051092A6051092A9051092A80524
:105250001092AB051092AA0559E1E52EF12C0091B0
:10526000A6051091A70585E029830E94A42A080FAE
:10527000191F1093A7050093A6050091A80510918A
:10528000A90586E00E94A42A080F191F1093A905FA
:105290000093A8050091AA051091AB0587E00E9434
:1052A000A42A080F191F1093AB050093AA050091BB
:1052B000A0051091A10581E00E94A42A080F191FE2
:1052C0001093A1050093A0050091A2051091A305DC
:1052D00084E00E94A42A080F191F1093A3050093CD
:1052E000A2050091A4051091A50582E00E94A42AC0
:1052F000080F191F1093A5050093A4058FE097E2EE
:105300000197F1F700C0000085B1869586958695D6
:1053100080958170880F880F880F95B1977F982BA3
:1053200095B90894E108F1082981E114F10409F024
:1053300096CF2170220F220F220F85B1877F822BFB
:1053400085B920E030E009E110E0F901EE0FFF1F20
:10535000E056FA4F80819181B8010E94963A71839C
:1053600060832F5F3F4F2630310579F78091D20659
:1053700084608093D206A4E5B7E080E090E0FC0171
:10538000EE0FFF1FE056FA4F208131812D933D93A0
:1053900001968630910599F70F90CF91DF911F917B
:1053A0000F91FF90EF90089583E00E94A42A24E6D5
:1053B00030E0AC01429FC001439F900D529F900D81
:1053C000112464E771E00E94963ACB01089585E0CC
:1053D0000E94A42A20915A0730915B07821B930BED
:1053E000909344068093430686E00E94A42A20916D
:1053F0005C0730915D07821B930B90934606809368
:10540000450687E00E94A42A20915E0730915F073D
:10541000821B930B909348068093470681E00E947D
:10542000A42A2091540730915507821B930B909327
:105430003E0680933D0680913D0690913E0697FF83
:1054400003C0909581959F4F8230910524F410926E
:105450003E0610923D0684E00E94A42A2091560741
:1054600030915707821B930B9093400680933F0621
:1054700080913F069091400697FF03C090958195DB
:105480009F4F8230910524F41092400610923F06FF
:1054900082E00E94A42A2091580730915907821B6C
:1054A000930B909342068093410680914106909120
:1054B000420697FF03C0909581959F4F82309105DA
:1054C00024F410924206109241060E94D42990932F
:1054D0004A0680934906089578941F920F920FB65A
:1054E0000F9211242F938F939F93EF93FF9320910B
:1054F0003105E22FF0E08091780090917900EE0F75
:10550000FF1FED50F84F91838083822F8F5F87704C
:105510008093310580937C00EAE7F0E0808180642D
:105520008083FF91EF919F918F912F910F900FBEEC
:105530000F901F9018958FEF80937E0010927C0043
:105540008FED80937A000895F894E82FF0E0EE0F45
:10555000FF1FED50F84F208131817894C9010895E3
:105560008091BC05882311F084FDFFCF089590E061
:10557000880F991F8454944FFC0125913491C901DF
:105580000895CF93DF93EC01009731F4C091440567
:10559000D0914505209739F087E060E00E94E70B45
:1055A000CE010E94E40CDF91CF910895CF92DF925B
:1055B000EF92FF920F931F93CF93DF938091BC05DF
:1055C00080FD9BC085FF2BC080E090E0DC018093D4
:1055D000180690931906A0931A06B0931B068093A1
:1055E000CA069093CB06A093CC06B093CD068093C9
:1055F000380590933905A0933A05B0933B05809305
:105600003C0590933D05A0933E05B0933F058093E4
:10561000400590934105A0934205B0934305209126
:10562000CC05822F90E0FC01EE0FFF1F43E0880FB6
:10563000991F4A95E1F7E80FF91FEC5FF94F2481B4
:1056400035814091DD0650E0429FC001439F900D9F
:10565000529F900D112464E170E00E94AA3A8B01E0
:105660007093C5056093C405C091CF06D091D00654
:10567000CC0FDD1FCC0FDD1FD093D006C093CF061B
:10568000BE016A5D7D4F882777FD8095982F0E9427
:1056900028396B017C01B801882777FD8095982F08
:1056A0000E94283920E030E040E05FE30E94DC39CE
:1056B0009B01AC01C701B6010E9424380E94F53855
:1056C00070939F0560939E0581E060E3AE0129E041
:1056D00000E00E94DA0D4091C4055091C50582E0BA
:1056E00060E329E00E94DA0D40919E0550919F05EC
:1056F00084E060E329E00E94DA0DDF91CF911F91F1
:105700000F91FF90EF90DF90CF9008950F931F932C
:10571000CF93DF938091BC05882369F184FF19C082
:1057200015E088EC90E062E00E94750E86E490E05F
:1057300061E00E94700B1150A1F70E9406290E949F
:10574000AA0F8EED9CE090934505809344050E943E
:10575000C12AC4E5D7E010E0812F60E30E94E70B87
:1057600049915991812F60E325E000E00E94DA0D14
:105770001F5F163089F7DF91CF911F910F91089528
:105780000F9380E060E30E94E70B81E064EF71E03B
:1057900046E752E00E94CE280E94D00C81E060E3F0
:1057A0000E94E70B84E064EF71E046E752E00E945C
:1057B000CE280E94D00C82E060E30E94E70B82E0DA
:1057C00064EF71E046E752E00E94CE280E94D00CC0
:1057D00083E060E30E94E70B85E062EC71E042E564
:1057E00053E00E94CE280E94D00C84E060E30E9427
:1057F000E70B86E062EC71E042E553E00E94CE28C0
:105800000E94D00C85E060E30E94E70B87E062EC29
:1058100071E042E553E00E94CE280E94D00C86E061
:1058200060E30E94E70B0E94D4299C01B9018827FC
:1058300077FD8095982F0E9428399B01AC0186E066
:1058400060E300E00E94D10D0F9108958091BC05A6
:1058500080FF10C080E391E00E943B0E80E060E09A
:105860000E94E70B82E09DE00E94E40C80E090E063
:105870000E943B0E8091BC0584FF04C01092D706A5
:105880000E94AA0F83E062E10E94E70B80919805D5
:10589000909199056CEE75E04AE050E00E94153B4E
:1058A0008CEE95E065E00E94360D83E06EE40E9488
:1058B000E70B80919E0590919F056CEE75E04AE0A4
:1058C00050E00E94153B8CEE95E065E00E94360D9D
:1058D00084E062E10E94E70B80919A0590919B051C
:1058E0006CEE75E04AE050E00E94153B8CEE95E0CE
:1058F00065E00E94360D84E06EE40E94E70B809123
:105900009C0590919D056CEE75E04AE050E00E9488
:10591000153B8CEE95E065E00E94360D0895AF9240
:10592000BF92CF92DF92EF920F931F93DF93CF93AB
:105930000F92CDB7DEB7182F6A0159018E2D6983FA
:105940000E94F20C812F69810E94E70B002311F065
:10595000C60101C0C5010E94E40C80E00E94F20C67
:105960000F90CF91DF911F910F91EF90DF90CF902B
:10597000BF90AF90089580913205813021F40E944C
:10598000AA0F109232050895EF920F931F93182FCC
:105990002091B8078091CC0530E02F70307001E085
:1059A0002115310509F000E091E0813009F490E023
:1059B000812F62E141E25DE023E23DE0E92E0E94B9
:1059C0008F2C8091B8072091CC05807F01E009F0F1
:1059D00000E091E0222309F490E0812F6EE145E29E
:1059E0005DE023E23DE0E92E0E948F2C80E00E94E2
:1059F000F20C1F910F91EF9008950F931F93CF9387
:105A0000DF931092E7058091BC0580FF0CC0809168
:105A1000CC050E94D12780E060E044EF5CE022E109
:105A200000E00E946C0D8091BC0584FFBFC0809196
:105A30000308882309F0B5C020E030E008EE13E049
:105A40008091CC054091CC056091CC0590E0FC01A3
:105A5000EE0FFF1FEE0FFF1FE80FF91FE20FF31FFE
:105A6000EE0FFF1FE85DF84F70E0CB01880F991F24
:105A7000880F991F860F971F820F931F880F991FFA
:105A80008055994F50E0DA01AA0FBB1FAA0FBB1F28
:105A9000A40FB51FA20FB31FAA0FBB1FAD5DB94F57
:105AA000EC01888199814D915C91840F951F9695A9
:105AB0008795918380834091CC058091CC0550E0FF
:105AC000FA01EE0FFF1FEE0FFF1FE40FF51FE20FAD
:105AD000F31FEE0FFF1FE45CF84F90E0DC01AA0F0C
