:100000000C941C0B0C94200A0C94E2090C948F0A9B
:100010000C94390B0C94E30A0C9449090C945E0A75
:100020000C94390B0C94390B0C94390B0C94B10FC4
:100030000C94390B0C94390B0C94390B0C949A0FCB
:100040000C94390B0C94390B0C94F1080C94390B6B
:100050000C94390B0C94390B0C94390B0C94390B10
:100060000C9474280C94390B0C94390B0C94390BA8
:100070000C9475100C94390B0C94390BA2A0C84049
:10008000A6A42F248120AF00010204081020408084
:10009000FE00FF00000300000000009604001900AD
:1000A000640000000000FDFF1400000032005A0050
:1000B00032005A0000001400C8000A005A00140060
:1000C0000F00FEFF3200DE030F001E0000000000E4
:1000D0000000000058020F0019000000000000009E
:1000E0000000000000000000000000000000000010
:1000F0000000000000000000000000000000000000
:1001000000000000000000000000000000000000EF
:1001100000000000000000000000000000000000DF
:1001200000000000000000000000000C100611009C
:1001300000000000000000000000000000000000BF
:100140000000000000000000000000000000007C33
:1001500000FF33FF337C00000000000000000000BF
:1001600000000000003C003C00000000003C003C9F
:100170000000000000000000000002101E901FF0B0
:10018000037E021E1E901FF0037E021E0010000060
:100190000000007804FC0CCC0CFF3FFF3FCC0CCCE3
:1001A0000F880700000000000000303838381C3885
:1001B0000E00078003C001E038703838381C00009A
:1001C000000000001FB83FFC31C621E2373E1E1C74
:1001D0001C00360022000000000000000000002784
:1001E000003F001F000000000000000000000000B1
:1001F0000000000000F003FC0FFE1F073801200183
:1002000020000000000000000000000000012001AC
:10021000200738FE1FFC0FF0030000000000000064
:10022000000000980CB80EE003F80FF80FE003B8D8
:100230000E980C000000000000000080018001808A
:1002400001F00FF00F80018001800100000000002C
:100250000000000000000000B800F8007800000076
:10026000000000000000000000000080018001800C
:1002700001800180018001800180010000000000F8
:1002800000000000000000003800380038000000C6
:100290000000000000000000000018001C000E001C
:1002A000078003C001E000700038001C000E000051
:1002B00000F807FE1F061E03338331C3306330335B
:1002C000301E18FE1FF8070000000000000C300C64
:1002D000300E30FF3FFF3F003000300030000000A4
:1002E000001C301E38073C033E03378333C331E321
:1002F0003077303E301C3000000C0C0E1C0738C329
:1003000030C330C330C330C330E7397E1F3C0E00EA
:1003100000C003E003700338031C030E030703FF50
:100320003FFF3F0003000300003F0C7F1C63386366
:10033000306330633063306330E338C31F830F00B2
:1003400000C00FF01FF839DC30CE30C730C330C3E7
:1003500030C339801F000F000003000300030003B7
:1003600030033C030FC303F3003F000F0003000002
:1003700000000FBC1FFE39E730C330C330C330E785
:1003800030FE39BC1F000F00003C007E00E730C388
:1003900030C330C338C31CC30EE707FE03FC0000A4
:1003A00000000000000000701C701C701C000000A9
:1003B00000000000000000000000000000000070CD
:1003C0009C70FC707C000000000000000000000039
:1003D000000000C000E001F00338071C0E0E1C07EF
:1003E0003803300000000000000000600660066076
:1003F0000660066006600660066006600600000093
:10040000000000033007380E1C1C0E3807F003E014
:1004100001C0000000000000001C001E00070003D7
:10042000008337C337E30077003E001C0000000064
:1004300000F80FFE1F0718F333FB371B36FB37FBA3
:10044000370736FE03F80100000038003FE007FCE4
:10045000061F061F06FC06E007003F0038000000EC
:1004600000FF3FFF3FC330C330C330C330E730FE2F
:1004700039BC1F000F00000000F003FC0F0E1C072A
:100480003803300330033007380E1C0C0C0000001A
:1004900000FF3FFF3F033003300330033007380EC7
:1004A0001CFC0FF00300000000FF3FFF3FC330C300
:1004B00030C330C330C330C33003300330000000DA
:1004C00000FF3FFF3FC300C300C300C300C300C31E
:1004D000000300030000000000F003FC0F0E1C07E7
:1004E000380330C330C330C330C73FC63F000000BD
:1004F00000FF3FFF3FC000C000C000C000C000C000
:1005000000FF3FFF3F000000000000000003300339
:1005100030FF3FFF3F0330033000000000000000C9
:1005200000000E001E0038003000300030003000A7
:1005300038FF1FFF0700000000FF3FFF3FC000E043
:1005400001F00338071C0E0E1C07380330000000B2
:1005500000FF3FFF3F00300030003000300030002F
:10056000300030003000000000FF3FFF3F1E0078E9
:1005700000E001E00178001E00FF3FFF3F000000A7
:1005800000FF3FFF3F0E003800F000C003000700EF
:100590001CFF3FFF3F00000000F003FC0F0E1C0794
:1005A000380330033007380E1CFC0FF00300000046
:1005B00000FF3FFF3F83018301830183018301C764
:1005C00001FE007C0000000000F003FC0F0E1C0781
:1005D0003803300336073E0E1CFC3FF033000000AA
:1005E00000FF3FFF3F8301830183038307830FC71E
:1005F0001DFE387C30000000003C0C7E1CE738C338
:1006000030C330C330C330C7398E1F0C0F00000019
:10061000000000030003000300FF3FFF3F0300034F
:10062000000300000000000000FF07FF1F0038006B
:10063000300030003000300038FF1FFF070000009E
:100640000007003F00F801C00F003E003EC00FF859
:10065000013F00070000000000FF3FFF3F001C00BB
:1006600006800380030006001CFF3FFF3F000000E0
:100670000003300F3C1C0E3003E001E00130031C8E
:100680000E0F3C03300000000003000F003C00F0A0
:1006900000C03FC03FF0003C000F0003000000001E
:1006A000000330033C033E0333C331E33033301FD8
:1006B000300F3003300000000000000000FF3FFF5B
:1006C0003F0330033003300330000000000000001F
:1006D000000E001C0038007000E000C00180030024
:1006E00007000E001C00180000000000000330038B
:1006F0003003300330FF3FFF3F00000000000000E8
:10070000006000700038001C000E0007000E001C86
:1007100000380070006000000000C000C000C00091
:10072000C000C000C000C000C000C000C000C006C3
:100730000816110000000000000000065F0600001F
:10074000070300070300247E247E2400242B6A1262
:100750000000631308646300364956205000000708
:1007600003000000003E4100000000413E00000088
:10077000083E1C3E080008083E08080000E0600033
:100780000000080808080800006060000000201051
:10079000080402003E5149453E0000427F400000EF
:1007A0006251494946002249494936001814127FCE
:1007B00010002F49494931003C4A49493000017134
:1007C00009050300364949493600064949291E00F2
:1007D000006C6C00000000EC6C000000081422416A
:1007E00000002424242424000041221408000201D3
:1007F000590906003E415D551E007E1111117E0013
:100800007F49494936003E41414122007F414141F3
:100810003E007F49494941007F09090901003E41E5
:1008200049497A007F0808087F0000417F410000A5
:10083000304040403F007F08142241007F4040404C
:1008400040007F0204027F007F0204087F003E41D7
:1008500041413E007F09090906003E4151215E00E9
:100860007F090919660026494949320001017F01C3
:1008700001003F4040403F001F2040201F003F40FC
:100880003C403F0063140814630007087008070029
:10089000714945430000007F4141000002040810F7
:1008A00020000041417F000004020102048080809A
:1008B000808080000003070000002054545478001A
:1008C0007F44444438003844444428003844444475
:1008D0007F00385454540800087E0909000018A409
:1008E000A4A47C007F040478000000007D40000088
:1008F0004080847D00007F102844000000007F407D
:1009000000007C04180478007C040478000038445B
:1009100044443800FC444444380038444444FC0017
:10092000447844040800085454542000043E4424ED
:1009300000003C40207C00001C2040201C003C604B
:1009400030603C006C10106C00009CA0603C00000B
:100950006454544C0000083E414100000000770000
:1009600000000041413E08000201020100003C2657
:1009700023263C2F072B01080830383C3E3E3C38EC
:10098000300808060E1E3E3E1E0E0609093800FEFF
:1009900000FE00FF01FF01FF01FE00FE003800091C
:1009A0000300000000020202070205030207020220
:1009B000024040000000000103030303030303039C
:1009C00003030303030303070F1F1F3F3F7F7F7FC3
:1009D0007F7F3F1F0F00030303030303030303038E
:1009E00003030303030307070707070707030301BD
:1009F00000000000000000FFFF00000000000000F9
:100A00000000011F7FFFFFFFFFFFE7C3E7FFFFFFBE
:100A1000FFFFFFFEF0000000000000000000070FD5
:100A20003F7FFFFFFFFCFCFFFFFFFFFFFFFFFF7C9F
:100A3000C3000000000000FFFF00000000000000F5
:100A4000000000F0F8FCFEFEFEFEFCFCFDFBF7F7EC
:100A5000EFDF0B00000000000000010303FFFFFFB9
:100A6000FFFFFFFFFF7F7FFFFFFFFEFCF8E0807FBF
:100A7000FF000000000000FFFF0000000000000079
:100A800000000000000000000000000080FDFFFFEB
:100A9000FFFFFF7F1F3F7F7FFEFEFCF8F8F0F0E0D6
:100AA000C0C0E0C0C0C0C08080000000000000FFE7
:100AB000FF000000000000FFFF000001010303072A
:100AC00007070F0707070303070F0F3F7FFFFFFE0F
:100AD000FEFFFFFFFFFFAF0300000000000000006B
:100AE000000000000000000000000000000000FF07
:100AF000FF000000000000FFFF3F7FFFFFFCF8FC4D
:100B0000FFFFFFFFFFFFFFFFE8C0C0808000000085
:100B10000080F9FFFFFFFFFF7F7F7F7FFF7F7F7FE9
:100B20003F1F01000000000000000000000000FF67
:100B3000FF0000000000FEFFFFFFFFFFFFFF7FFF41
:100B4000FFFFFFFEFCF0E0000000000000000001DD
:100B50001F7FFFFFFFFFFFC7C7CFFFFFFFFFFFFFA5
:100B6000FEF000000000000000000000000000FF98
:100B7000FF000000000000F0F8D8D8F8D8D8D8D886
:100B80009818181818181818181818181818181865
:100B9000F8F8FCFCFCFEFCFCFCFCF8F0F0D8D818E3
:100BA000181818181818181818181818181818F8E5
:100BB000F000006D0DD70D0B0E1B0E290E370E45E4
:100BC0000E540E600E6E0E810E910EA10EA70E41F8
:100BD000726520796F7520737572653F00534156B9
:100BE00045205550202020444F574E2020454E543C
:100BF00045520020202020202020202020202020BE
:100C00002020200043414E43454C2020444F574E66
:100C1000202020555020204F4B004143432D5A2087
:100C200064616D70696E670041434320582026203F
:100C30005920202020005472696D20503A20202035
:100C400020523A0020202020202020202020202078
:100C50002020202000594157202020202020202023
:100C600020005069746368202620526F6C6C00204D
:100C70002020202020202020202020202020200094
:100C8000596573004E6F20004241434B20202020C5
:100C90002020202020202020202020202000200094
:100CA0004572720020202020004E410041524D45E7
:100CB00044004865666E79436F70746572322076C1
:100CC000302E392E38004F4B2000310058003200B2
:100CD0002B0058002B005800414C54484C44005302
:100CE0005441424C45004143524F202000B50EA1D3
:100CF0002DCB0EFF0E44350000B50E852D150F19B6
:100D00000F7C2A2F0F190FB828640FFF0E063279B7
:100D10000FFF0E0930790FFF0E5F2F790FFF0E3591
:100D200034C00FEB0FBA330110880C162A3F10881D
:100D30000CDB2C7510A510DC293F10BB10532B7554
:100D400010A510682D6D0D880CDE280000D1105301
:100D50002D0000582051756164002B20517561648D
:100D6000005541525420004275646479002D54416D
:100D70004B45204F46462050524F50454C4C455213
:100D80005321210A2D507265737320636F6E74694D
:100D90006E75650A2D5475726E204F66662051750A
:100DA0006164636F707465722E0A0A2D51756164F7
:100DB0002077696C6C20737461727465640A696E63
:100DC0002041524D45442054414B4543415245201A
:100DD00073746174650A00507265737320436F6E9B
:100DE00074696E75652061667465722063616C69F3
:100DF00062726174696F6E2E0A0A756E706C756727
:100E000020626174746572792E0A004779726F20CE
:100E100050494420456469746F720053656C6620C4
:100E20004C6576656C696E6700416C7469747564B5
:100E30006520486F6C64004D6F6465205365747461
:100E4000696E6773004D6973632E2053657474690E
:100E50006E67730053656E736F7220546573740010
:100E600052656365697665722054657374005365D5
:100E70006E736F722043616C6962726174696F6E28
:100E800000537469636B2043656E746572696E67A5
:100E9000004553432043616C6962726174696F6EEF
:100EA00000446562756700466163746F7279205211
:100EB0006573657400202020202020202020202021
:100EC0002020202020204D454E55000A0A42617402
:100ED000743A20202020202020760A0A0A52583A0C
:100EE000202D2020534E3A2020202053543A202DEC
:100EF0000A466C793A202020426F6172643A0042BF
:100F000041434B205550202020444F574E20204530
:100F10004E544552000A0A0A00202020202020209A
:100F200020202020202020202020444F4E45000A51
:100F30000A0A4D313A202020202020204D343A0A40
:100F40004D323A202020202020204D333A0A4553AC
:100F5000432043616C6962726174696F6E206D6FCA
:100F600064650A000A524553544152540A20202015
:100F7000202020424F415244000A503A2020202095
:100F80002020204C696D3A0A493A20202020202058
:100F9000204C696D3A0A443A202020202020204C21
:100FA000696D3A0A4E6F6973652046696C746572A3
:100FB0003A0A5472696D20503A20202020523A009B
:100FC00042756464792053797374656D3A0A426F8F
:100FD000617264204469723A0A466C792020204488
:100FE00069723A0A536F6E61723A004241434B2074
:100FF00050524556204E455854204348414E47458F
:10100000004175746F2044697361726D3A0A566FBE
:101010006C7420416C61726D3A2020202020202FBA
:101020003130760A5468726F74746C65206D696E25
:101030003A0A537469636B205363616C653A0047E5
:1010400079726F20583A0A4779726F20593A0A47E5
:1010500079726F205A3A0A4163632020583A0A4154
:1010600063632020593A0A41636320205A3A0A42B6
:101070006174743A0020434820202052582D3120BA
:1010800020202052582D320A41696C3A0A456C657D
:101090003A0A5275643A0A5468723A0A4175783AC3
:1010A0000A52583A004241434B2020202020202061
:1010B0002020434F4E54494E5545004241434B205A
:1010C000434C52202020202020202020444F4E45F9
:1010D000004E4F20202020202020202020202020D3
:1010E0002020205945530000407A10F35A00A07286
:1010F0004E18090010A5D4E80000E8764817000053
:10110000E40B54020000CA9A3B000000E1F5050020
:101110000080969800000040420F000000A0860169
:10112000000000102700000000E803000000006439
:1011300000000000000A00000000000100000000A4
:10114000002C76D888DC674F0823DFC1DFAE59E179
:10115000B1B796E5E3E453C63AE651997696E8E6E8
:10116000C28426EB898C9B62ED407C6FFCEFBC9CBB
:101170009F40F2BAA56FA5F490055A2AF75C936BCD
:101180006CF9676DC11BFCE0E40D47FEF520E6B588
:1011900000D0ED902E0300943577050080841E0862
:1011A0000000204E0A000000C80C333333330F9880
:1011B0006E12831141EF8D2114893BE65516CFFE47
:1011C000E6DB18D1844B381BF77C1D901DA4BBE4D3
:1011D00024203284725E228100C9F124ECA1E53D15
:1011E000270078941F920F920FB60F9211242F931D
:1011F0003F934F935F936F937F938F939F93AF939F
:10120000BF93CF93DF93EF93FF938091B9059091B4
:10121000BA0501969093BA058093B905C0911D0552
:10122000D0911E05CE018F779070009781F4CE018A
:10123000880F892F881F990B91958770806B0E946A
:10124000A90B80E10E94A90B80E00E94A90BFE017E
:10125000E35EFE4F80815D985F9A0E949C0B5D9AD1
:101260002196D370D0931E05C0931D05FF91EF9179
:10127000DF91CF91BF91AF919F918F917F916F91AE
:101280005F914F913F912F910F900FBE0F901F9044
:1012900018951F920F920FB60F9211240F931F9360
:1012A0002F933F934F935F936F937F938F939F936E
:1012B000AF93BF93CF93DF93EF93FF9316B18091DA
:1012C000D907182786B18093D907C0918400D0919F
:1012D0008500012F15FF18C086B185FF05C0D0938A
:1012E000E707C093E60710C080E00E9423248091A6
:1012F0005D0690915E069093CE078093CD07809116
:10130000B5078F718093B50700FF0BC086B180FFD2
:1013100005C0D093E907C093E80703C081E00E94AD
:10132000232417FF2DC08091D506379B0BC0D09387
:10133000ED07C093EC07813019F5469A449A429A1A
:10134000439A1EC0813061F48091B507807F41F4DB
:1013500080914E0581FD04C0469844984298439878
:1013600083E00E94232480915D0690915E06909315
:10137000D2078093D1078091B5078F728093B5070C
:1013800001FF0BC086B181FF05C0D093EB07C0936E
:10139000EA0703C082E00E942324FF91EF91DF91CE
:1013A000CF91BF91AF919F918F917F916F915F91FD
:1013B0004F913F912F911F910F910F900FBE0F9062
:1013C0001F9018951F920F920FB60F9211242F9312
:1013D0003F934F935F936F937F938F939F93AF93BD
:1013E000BF93EF93FF9389B183FF09C0809184007D
:1013F000909185009093E3078093E20710C083E00B
:101400000E94FA2380915D0690915E069093D40726
:101410008093D3078091B507827F8093B507FF91B2
:10142000EF91BF91AF919F918F917F916F915F915C
:101430004F913F912F910F900FBE0F901F901895D5
:101440001F920F920FB60F9211242F933F934F9339
:101450005F936F937F938F939F93AF93BF93EF931C
:10146000FF9389B182FF09C080918400909185002B
:101470009093DD078093DC0710C080E00E94FA2380
:1014800080915D0690915E069093D6078093D50774
:101490008091B507817F8093B507FF91EF91BF9150
:1014A000AF919F918F917F916F915F914F913F91FC
:1014B0002F910F900FBE0F901F9018951F920F92B3
:1014C0000FB60F9211242F933F934F935F936F9317
:1014D0007F938F939F93AF93BF93EF93FF9389B1C4
:1014E00080FF09C080918400909185009093DF0770
:1014F0008093DE0703C081E00E94FA23FF91EF9101
:10150000BF91AF919F918F917F916F915F914F911B
:101510003F912F910F900FBE0F901F9018951F9223
:101520000F920FB60F9211242F933F934F935F9317
:101530006F937F938F939F93AF93BF93EF93FF939B
:101540008091D1068F3FF9F48091DC0680FF1BC0AB
:1015500083B182FF09C08091B9059091BA0590933B
:10156000DB078093DA071EC08091B9059091BA0518
:101570002091DA073091DB07821B930B9093D20501
:101580008093D1050FC083B182FF09C08091840090
:10159000909185009093E1078093E00703C082E07B
:1015A0000E94FA23FF91EF91BF91AF919F918F918C
:1015B0007F916F915F914F913F912F910F900FBE4F
:1015C0000F901F9018951F920F920FB60F92112433
:1015D0002F933F934F935F936F937F938F939F933B
:1015E000AF93BF93EF93FF9383B180FF09C08091C6
:1015F0008400909185009093EF078093EE070BC0D5
:1016000084E00E9423248091DF059091E00590936F
:10161000D6058093D505FF91EF91BF91AF919F9132
:101620008F917F916F915F914F913F912F910F908B
:101630000FBE0F901F90189511241FBECFEFD8E05A
:10164000DEBFCDBF11E0A0E0B1E0E2EFF6E702C0FF
:1016500005900D92A431B107D9F718E0A4E1B1E0EB
:1016600001C01D92A130B107E1F70E94CF160C9482
:10167000773B0C940000EF92FF920F931F93CF9350
:10168000DF93EC0100E010E0E62EFF240AC0299A67
:10169000CE010E94990E2998CE010E94990E0F5FEB
:1016A0001F4F0E151F059CF3DF91CF911F910F91D6
:1016B000FF90EF90089584B1806F84B985B1806FF9
:1016C00085B908950F931F9313B11095107F009162
:1016D000BE051092CC05112321F180918207813043
:1016E00011F40E94B60E8091BE05811759F08091C9
:1016F0005D0690915E06845D9E4F909315018093E8
:1017000014010FC020915D0630915E0640911401D6
:10171000509115014217530720F491E09093CC05A6
:1017200005C0802F80951093BE0581231F910F91D6
:1017300008958091BE05089598E05C9887FF02C0E7
:10174000599A01C059985C9A915011F0880FF5CFC1
:1017500008955D985F980E949C0B5D9A08956F773D
:1017600060931C01880F880F880F80931B010895D8
:1017700080931C0160931B010895262F26952695C2
:10178000269530E03695322F222737952795280F5A
:10179000311DE62FF0E0E770F070E857FF4FE4915D
:1017A00091E0411190E080911A018170D901A35E0E
:1017B000BE4F891729F0E0958C91E823EC930895AA
:1017C0008C918E2B8C93089508950895089580E050
:1017D00094E0EDE1F1E0DF019C011D9221503040E9
:1017E000E1F780E060E00E94AF0B10921A010895CB
:1017F0008F929F92BF92CF92DF92EF92FF920F93C0
:101800001F93DF93CF930F92CDB7DEB74C01E62E37
:10181000F42EC22EDD24BB24042F10E04FC0832FF2
:10182000877029F4F4010894811C911CB490CC2099
:1018300079F560911B01862F877019F5C801831B0C
:10184000910988309105ECF0630F66956695669571
:10185000A62FB0E0B695BA2FAA27B795A795809185
:101860001C018D0DA80FB11D80911A01A35EBE4F02
:1018700080FF04C08B2D80958C9301C0BC92395F92
:1018800017C080911C01630F4B2D41708D0D0CC052
:101890008C2D813069F4B0FE0BC080911C016091E9
:1018A0001B01630F8D0D41E039830E94BD0B39810F
:1018B000B6943F5F3F1508F4B2CFD394DE1410F412
:1018C00030E0F8CF0F90CF91DF911F910F91FF90F3
:1018D000EF90DF90CF90BF909F908F900895262F2C
:1018E000FC0164913196449102960E94F80B089590
:1018F0008A3051F480911B0190911701890F8093D8
:101900001B0110921C010895E0911801F09119013A
:101910000995609116014091170120E00E94F80B93
:1019200080911C0190911601890F80931C010895EC
:10193000EF92FF92CF93DF93E82EE7017E01F92E1D
:10194000E70102C00E94780C89918823D9F7DF91C2
:10195000CF91FF90EF900895CF93DF93EC0102C0F9
:101960000E94780CFE01219684918823C9F7DF91AB
:10197000CF91089590911A01882311F0916001C0D0
:101980009E7F90931A010895EF92FF920F931F93F9
:10199000DF93CF9300D00F92CDB7DEB7182F822FF1
:1019A0004A835B8369830E94BA0C812F69810E94FC
:1019B000AF0B4A815B818A0102C00E94780CF8015A
:1019C00081918F018823C9F70E94BA0C0F900F9064
:1019D0000F90CF91DF911F910F91FF90EF9008959D
:1019E0000F931F93082F10E004C080E20E94780C30
:1019F0001F5F1017D0F31F910F9108950F931F933E
:101A0000DF93CF930F92CDB7DEB78C0169830E942D
:101A1000980CF80101900020E9F73197E01BF10BD9
:101A20006981862F8E1B0E94F00C0F90CF91DF9161
:101A30001F910F9108950F931F93DF93CF930F92F0
:101A4000CDB7DEB78C0169830E94AC0CC8010E943F
:101A500087386981681B862F0E94F00C0F90CF9108
:101A6000DF911F910F910895EF92FF920F931F93B3
:101A7000DF93CF9300D0CDB7DEB7182F7A01802F38
:101A80002A8369830E94BA0C812F69810E94AF0B5F
:101A9000C7012A81622F0E941B0D80E00E94BA0CB0
:101AA0000F900F90CF91DF911F910F91FF90EF90CA
:101AB0000895BF92CF92DF92EF92FF920F931F9300
:101AC000DF93CF93CDB7DEB762970FB6F894DEBF42
:101AD0000FBECDBFF82EB62ECA01B901302F32503D
:101AE000432F22E06E010894C11CD11C86013A8B61
:101AF0000E9455388E2D0E94BA0C8F2D6B2D0E949E
:101B0000AF0BC6013A89632F0E94FE0C80E00E9451
:101B1000BA0C62960FB6F894DEBF0FBECDBFCF9160
:101B2000DF911F910F91FF90EF90DF90CF90BF90CA
:101B30000895EF920F93E02E05E00E94590D0F914A
:101B4000EF900895DF92EF92FF920F931F93DF9330
:101B5000CF93CDB7DEB728970FB6F894DEBF0FBE90
:101B6000CDBFD82E162FCA017E010894E11CF11CAE
:101B7000B7014AE050E028870E94A438802F0E94D5
:101B8000BA0C8D2D612F0E94AF0BC7012885622FE3
:101B90000E94FE0C80E00E94BA0C28960FB6F894C2
:101BA000DEBF0FBECDBFCF91DF911F910F91FF9090
:101BB000EF90DF90089516BC81E085BBEEE6F0E083
:101BC0008081816080830895EEE6F0E080818E7FE1
:101BD000808308950F931F93CF93DF93082FCEE652
:101BE000D0E018810E94E40D81E80E94A90B802FAB
:101BF0008F730E94A90B1883DF91CF911F910F91D2
:101C00000895BC01009711F46FE277E086E191E05E
:101C100044E050E00E9477380895CF93DF93559ABF
:101C2000569A579A549A519A5E9889EF90E0019784
:101C3000F1F700C000005E9A89EF90E00197F1F79C
:101C400000C00000CCE7D0E002C00E94A90BFE015A
:101C5000219684918823C9F780E090E00E94010ECC
:101C600082E085BD0E94DB0DDF91CF910895CF9278
:101C7000DF92EF92FF920F931F93DF93CF930F9218
:101C8000CDB7DEB76C0125B1269526952695217036
:101C900000E010E0E62EFF2424C085B186958695ED
:101CA000869580958170880F880F880F95B1977FF2
:101CB000982B95B9C60129830E94990E85B1869506
:101CC0008695869580958170880F880F880F95B1CD
:101CD000977F982B95B9C6010E94990E0F5F1F4FF1
:101CE00029810E151F05CCF22170220F220F220F21
:101CF00085B1877F822B85B90F90CF91DF911F919E
:101D00000F91FF90EF90DF90CF9008950FC00000EB
:101D100000000000000000000000000000000000C3
:101D2000000000000000000000000197009779F714
:101D300008951F93CF93DF93EC0108C01AE084E667
:101D400090E00E94860E1150D1F721972097B1F7AD
:101D5000DF91CF911F910895509A489A229880E17F
:101D60008093690084E08DBB8CBB0895109282073C
:101D70002B981092E8051092E70586E490E062E067
:101D80000E943B0B80E090E00E94412D089581E08D
:101D9000809382078EE190E064E070E00E94370E4D
:101DA0002B9A8CEB92E061E00E943B0B1092E805CD
:101DB0001092E70510921D0610921C0682E090E03A
:101DC0000E94412D80E090E0DC01809367069093B3
:101DD0006806A0936906B0936A0680937F06909385
:101DE0008006A0938106B093820680939706909315
:101DF0009806A0939906B0939A0680935305909302
:101E00005405A0935505B093560580936B059093A8
:101E10006C05A0936D05B0936E0580938305909338
:101E20008405A0938505B093860508958FEC96E010
:101E300060E970E04BE950E00E94773808950F9315
:101E40001F93DF93CF930F92CDB7DEB78C016983D9
:101E50000E94EB386981861719F0C8010E94F33897
:101E60000F90CF91DF911F910F910895CF92DF9244
:101E7000EF92FF920F931F93CF93DF93EC017B01BF
:101E80006A0100E010E008C0C701800F911F69914E
:101E90000E941F0F0F5F1F4F0C151D05A8F3DF9148
:101EA000CF911F910F91FF90EF90DF90CF90089509
:101EB0008FEC96E060E070E04BE950E00E94360F56
:101EC0000895F8948FEC96E060E070E04BE950E004
:101ED0000E94360F78948CEB92E061E00E943B0BFD
:101EE00008950E94160FE6E2F7E020EF35E080E665
:101EF00094E021933193938B828B31872087958F48
:101F0000848F47E0E033F407A1F70E94610F089542
:101F100080E090E00E94EB388E3F19F00E94710F34
:101F200008958FEC96E060E070E04BE950E00E948D
:101F3000DB3808951F920F920FB60F9211248F93E2
:101F40009F9380915D0690915E06019690935E0648
:101F500080935D069F918F910F900FBE0F901F9001
:101F600018951F920F920FB60F9211248F939F9383
:101F70008091BC059091BD0501969093BD0580931D
:101F8000BC059F918F910F900FBE0F901F901895D9
:101F900081E08093810080936F0010925E06109222
:101FA0005D0693E09093B1008093700017BA109291
:101FB000B2001092BD051092BC0508952091D10683
:101FC0002F3F61F410921F059093CD008093CC00B9
:101FD00086E08093CA0088E98093C90008959091B3
:101FE000C80095FFFCCF8093CE000895EF92FF923A
:101FF0000F931F93CF93DF93082F192FC0E0D0E0EA
:10200000E62EFF2406C0F80181918F010E94EF0F98
:102010002196CE15DF05BCF3DF91CF911F910F9173
:10202000FF90EF90089580918207813009F45CC0A1
:1020300080E090E020E0FC01ED56F84F3081230F66
:10204000019688309105B9F780919B07281709F010
:102050004BC080919307833421F0863509F044C04A
:102060002AC080919407853081F0863018F4813041
:10207000D9F505C08630C9F08730B1F519C08EE1B9
:1020800090E064E00E94370E089580E091E061E006
:102090000E94F60F8FEC96E066E50E94F60F82E054
:1020A00091E061E00E94F60F08950E94610F08958B
:1020B0000E940E27089580919407609195074091A2
:1020C00096079FEF699FB0011124680F711D61533E
:1020D000794F242F332727FD3095E7E9F7E0CB012F
:1020E000BF01532F0E94903808951F920F920FB690
:1020F0000F9211242F933F934F935F936F937F938E
:102100008F939F93AF93BF93EF93FF938091C800FA
:1021100087FFFCCF8091CE0080938E0780912005B1
:10212000882399F080915D0690915E0620918F073B
:1021300030919007821B930B8531910530F01092FE
:10214000200510921F0510928807E0911F05F0E00E
:1021500080918E07ED56F84F80838091200588236B
:1021600019F08130C1F406C010921F0581E0809300
:10217000200507C080911F05883019F40E941310B4
:102180000AC0F89480915D0690915E069093900746
:1021900080938F07789480911F058F5F80931F0530
:1021A00080911F05893021F410921F05109220059F
:1021B000FF91EF91BF91AF919F918F917F916F911F
:1021C0005F914F913F912F910F900FBE0F901F90F5
:1021D0001895EF92FF920F931F93CF93DF93082FE1
:1021E000192FC0E0D0E0E62EFF2406C0F80181914F
:1021F0008F010E94EF0F2196CE15DF05BCF3DF9112
:10220000CF911F910F91FF90EF90089590E08097EC
:102210009C01220F331F280F391F83E0220F331F29
:102220008A95E1F7215D3E4FC901089590E08097BE
:102230009C01220F331F280F391F220F331F2D5CE3
:10224000384FC90108950E94A8350E94880F0E9446
:1022500048248091D1068F3F31F48091DC0680FFC5
:1022600002C00E94AC0E3E9A3C9A3A9A3B9A46981B
:10227000449842984398219A239A13981092800088
:1022800010928100109282008091D1068F3F21F43C
:102290008AE090E00E94DE0F0E94A3280E94CF26D1
:1022A0000E945B0B0E94C80F0E940D0E0E94E70B5C
:1022B0000E94A03578948EE190E00E94990E0895D6
:1022C0000E947F258091E9059091EA05009741F4ED
:1022D0008091BC059091BD059093EA058093E90536
:1022E0008091BC059091BD052091E9053091EA05EA
:1022F000821B930B8B30910530F00E945D3510925C
:10230000EA051092E905089583E00E94412D0E949C
:102310006011FDCF1092A1071092A2071092A3079F
:102320001092A5071092AA0702C00E946011809126
:10233000D00682FFFACF81FFF8CF08958091E6059D
:10234000882309F46CC18091CB05813009F067C105
:102350008091B507807F09F062C18091C4068E7FAD
:102360008093C4068091E7059091E805009741F4B9
:1023700080915B0690915C069093E8058093E70559
:1023800080918207813009F054C02091CB05822FC3
:1023900090E0FC01EE0FFF1F43E0880F991F4A9564
:1023A000E1F7E80FF91FED5FF94F8481958121E096
:1023B0008139920784F01092560680915B069091C5
:1023C0005C062091E7053091E805821B930B21E024
:1023D0008233920758F56091D406662309F41FC131
:1023E00080911C0690911D06009741F480915B0638
:1023F00090915C0690931D0680931C0680915B066D
:1024000090915C0620911C0630911D06821B930B57
:1024100070E048EE53E0649F9001659F300D749F1B
:10242000300D11242817390708F0F9C00E94B60EA4
:102430000895882309F0F3C02091CB05822F90E006
:10244000FC01EE0FFF1F23E0880F991F2A95E1F78B
:10245000E80FF91FED5FF94F848195812EEF8037EA
:102460009207FCF41092560680915B0690915C06F0
:102470002091E7053091E805821B930B21E0823320
:10248000920778F08091D106882341F48091B507B6
:1024900090E08F709070009709F0C1C00E94C70E45
:1024A00008952091CB05822F90E0FC01EE0FFF1FD5
:1024B000A3E0880F991FAA95E1F7E80FF91FED5FD8
:1024C000F94F8081918121E081399207ACF010921F
:1024D000560680915B0690915C062091E70530914D
:1024E000E805821B930B21E08233920708F497C022
:1024F00081E08093D80657C02091CB05822F90E0D1
:10250000FC01EE0FFF1F63E0880F991F6A95E1F74A
:10251000E80FF91FED5FF94F808191812EEF803731
:102520009207BCF41092560680915B0690915C066F
:102530002091E7053091E805821B930B21E082335F
:10254000920708F46CC01092D80680E590E064E031
:102550002DC02091CB05822F90E0FC01EE0FFF1FD4
:1025600043E0880F991F4A95E1F7E80FF91FED5FE7
:10257000F94F828193812EEF80379207F4F4109205
:10258000560680915B0690915C062091E70530919C
:10259000E805821B930B21E08233920708F43FC0C9
:1025A00082E080931B0680E590E068E00E94370E91
:1025B0001092E8051092E70508952091CB05822F2F
:1025C00090E0FC01EE0FFF1F23E0880F991F2A9572
:1025D000E1F7E80FF91FED5FF94F8281938121E068
:1025E00081399207E4F01092560680915B06909133
:1025F0005C062091E7053091E805821B930B21E0F2
:102600008233920760F081E080931B0680E590E0C2
:1026100064E00E94370E1092E8051092E7050895D5
:102620008091E605882309F487C08091B507807FF3
:1026300009F082C08091E7059091E805009741F488
:1026400080915B0690915C069093E8058093E70586
:1026500080910F069091100621E0813992078CF04D
:102660001092560680915B0690915C062091E705DA
:102670003091E805821B930B8135910500F180E2D2
:1026800018C080910F06909110062EEF80379207A8
:10269000B4F41092560680915B0690915C062091EE
:1026A000E7053091E805821B930B8135910538F0E1
:1026B00080E48093C3061092E8051092E7058091AC
:1026C0000D0690910E0621E081399207BCF0109220
:1026D000560680915B0690915C062091E70530914B
:1026E000E805821B930B8135910530F180E18093E1
:1026F000C3061092E8051092E705089580910D0633
:1027000090910E062EEF80379207B4F41092560681
:1027100080915B0690915C062091E7053091E80579
:10272000821B930B8135910538F080E88093C306B6
:102730001092E8051092E7050895109298051092FE
:10274000970510929A051092990510929C05109287
:102750009B0510929E0510929D050E94DC22089513
:102760008F929F92AF92BF92CF92DF92EF92FF92A1
:102770000F931F93CF93DF930E947F252091CB056A
:10278000822F90E0FC01EE0FFF1F63E0880F991F7E
:102790006A95E1F7E80FF91FED5FF94F86819781A0
:1027A0009093C6058093C5050E94EF27F894809109
:1027B0005D0690915E0690935C0680935B0678942C
:1027C0000E947E1921E0209356068091D10688232D
:1027D00089F48091B507807F69F480911506909106
:1027E00016063EEF803793071CF41092CB0502C00B
:1027F0002093CB058091E9059091EA0520915B0635
:1028000030915C06009729F43093EA052093E9059E
:102810006AC0281B390B2530310508F464C00E94BA
:102820005D3580912307882379F020914806309107
:10283000490690E04091C4062817390714F4426015
:1028400001C04D7F4093C4068091C406882351F097
:1028500085B1869580958170880F95B19D7F982B65
:1028600095B901C029988091D1068F3FC1F520917B
:102870002105222381F080911506909116063EEFE6
:102880008037930734F484E080931B06109221056F
:1028900026C0213071F0809115069091160631E026
:1028A0008139930724F081E080931B0616C02B30FA
:1028B000B1F0809115069091160621E080399207BB
:1028C00074F480911506909116063EEF81379307B8
:1028D00034F082E080931B068BE0809321051092F8
:1028E000EA051092E9052091C5053091C60522330D
:1028F00031054CF40E949E110E949D130E943E19C6
:102900000E946A1922C280918207882329F40E94BA
:102910009D130E94101319C210921D0610921C06DE
:102920004091CB05842F90E0FC01EE0FFF1F43E0A8
:10293000880F991F4A95E1F7E80FF91FED5FF94FEE
:1029400040815181E090DB06FF24E49EC001E59EBA
:10295000900DF49E900D1124EAE0F0E0BF010E947A
:1029600039387093C0056093BF054091CB05842F23
:1029700090E0DC01AA0FBB1F13E0880F991F1A9586
:10298000E1F7A80FB91FAD5FB94F12964D915C9159
:102990001397E49EC001E59E900DF49E900D1124C6
:1029A000BF010E9439387093C2056093C105409100
:1029B000CB05842F90E0DC01AA0FBB1F63E0880FDA
:1029C000991F6A95E1F7A80FB91FAD5FB94F14962B
:1029D0004D915C911597E49EC001E59E900DF49E8B
:1029E000900D1124BF010E9439387093C405609383
:1029F000C3056091D7064091B7055091B805809105
:102A0000360690913706613001F5B901641B750BEC
:102A1000240F351FAB01481B590B50939805409369
:102A20009705A901481B590B50939A0540939905A6
:102A3000280F391F30939C0520939B05860F971F05
:102A400090939E0580939D051AC0B901681B790B70
:102A50007093980560939705820F931F90939C0540
:102A600080939B05CA01820F931F90939A058093D0
:102A70009905241B350B30939E0520939D0580916D
:102A80001B06813009F0A5C08091D8066091BF0572
:102A90007091C005C091C105D091C20580909D057F
:102AA00090909E05A0909905B0909A05C0909B05C6
:102AB000D0909C050091970510919805813009F000
:102AC00049C0882777FD8095982F0E94B7362EEA57
:102AD00037E441E25FE30E946B370E9484367B015A
:102AE0007093C0056093BF05BE01882777FD809570
:102AF000982F0E94B7362EEA37E441E25FE30E9446
:102B00006B370E9484369B017093C2056093C105A8
:102B10008E0C9F1CCE18DF08C701820F931F800FF9
:102B2000911F9093980580939705A20EB31EAE183F
:102B3000BF08B0929A05A0929905C21AD30AD09202
:102B40009C05C0929B05821A930A90929E058092E2
:102B50009D0593C0882777FD8095982F0E94B736F2
:102B600026E636E646E65FE30E946B370E9484362F
:102B70007B017093C0056093BF05BE01882777FD78
:102B80008095982F0E94B73626E636E646E65FE344
:102B90000E946B370E9484367093C2056093C10512
:102BA000060F171F1093980500939705C61AD70AAA
:102BB000D0929C05C0929B05AE18BF08B0929A05B2
:102BC000A0929905E80CF91CF0929E05E0929D05F3
:102BD00054C00E946E1E7B018C016091970570911C
:102BE0009805882777FD8095982F0E94B736A80111
:102BF00097010E94B4350E948436709398056093C3
:102C000097056091990570919A05882777FD8095C1
:102C1000982F0E94B736A80197010E94B4350E94F0
:102C2000843670939A056093990560919B05709125
:102C30009C05882777FD8095982F0E94B736A801BC
:102C400097010E94B4350E94843670939C0560936E
:102C50009B0560919D0570919E05882777FD809565
:102C6000982F0E94B736A80197010E94B4350E94A0
:102C7000843670939E0560939D05E091CD06F0919A
:102C8000CE0660919705709198056E1B7F0B70932F
:102C900098056093970520919B0530919C052E1B0C
:102CA0003F0B30939C0520939B05409199055091D3
:102CB0009A054E0F5F1F50939A0540939905809196
:102CC0009D0590919E058E0F9F1F90939E0580936A
:102CD0009D056436710534F464E670E070939805E0
:102CE000609397054436510534F444E650E0509320
:102CF0009A05409399052436310534F424E630E0F2
:102D000030939C0520939B058436910534F484E62A
:102D100090E090939E0580939D058091D1068F3F12
:102D2000A1F484E091E061E00E94F60F8CE396E06C
:102D30006CE00E94F60F87E995E068E00E94F60FCC
:102D400086E091E061E00E94F60F8091B507807FF8
:102D500079F00E949D1380918207813049F40E948E
:102D6000DC220E94B60E8091C40681608093C40666
:102D70000E94DC2280915606813021F41092E805F1
:102D80001092E705DF91CF911F910F91FF90EF9087
:102D9000DF90CF90BF90AF909F908F90089510924A
:102DA000E6050E94231110924E051092C40681E0A0
:102DB00080931B06809321058CE396E09093920705
:102DC00080939107109283070E948A118091D50603
:102DD000813011F40E9484110E94A8350E94B01322
:102DE000FDCF6F927F928F929F92AF92BF92CF92C0
:102DF000DF92EF92FF920F931F93DF93CF93CDB7A4
:102E0000DEB72E970FB6F894DEBF0FBECDBFC982D6
:102E1000DA82EB82FC820D831E832F8338874987F9
:102E20005A876B877C878D879E87EF8CF8A009A1D6
:102E30001AA16D807E80C801B7010E944C389C01A8
:102E4000B901882777FD8095982F0E94B73620E03A
:102E500030E040E85FE30E9467371816CCF46981E0
:102E60007A81882777FD8095982F0E94B7369B013D
:102E7000AC01C801B7010E946B3720E030E040E2AE
:102E800051E40E941C36F501608371838283938331
:102E9000C801B701F50124853585468557850E940F
:102EA000B3350E9484366B01C801B70120E030E0E1
:102EB00040E850E40E9467371816BCF4B301882735
:102EC00077FD8095982F0E94B73620E030E048ECDF
:102ED00052E40E941C369B01AC01F50164817581AE
:102EE000868197810E94B43532C0C801B70120E0C5
:102EF00030E040E850EC0E94183687FF15C0B3015F
:102F0000882777FD8095982F0E94B73620E030E023
:102F100048EC52E40E941C369B01AC01F50164812F
:102F200075818681978111C0F501648075808680E6
:102F30009780C401B3012AE037ED43E25CE30E94CD
:102F40006B379B01AC01C401B3010E94B335F5019D
:102F50006483758386839783B601882777FD809580
:102F6000982F0E94B7363B014C0169857A858827E6
:102F700077FD8095982F0E94B7369B01AC01C40164
:102F8000B3010E946B3720E030E040EA51E40E9438
:102F90001C36F5016087718782879387E486F58602
:102FA00006871787E480F580068117816F81788511
:102FB000882777FD8095982F0E94B7369B01AC013A
:102FC000C801B7010E946420F5016483758386837C
:102FD0009783E080F180028113816B817C81882757
:102FE00077FD8095982F0E94B7369B01AC01C801F0
:102FF000B7010E946420F50160837183828393830B
:10300000E084F184028513856B857C85882777FDB4
:103010008095982F0E94B7369B01AC01C801B7017B
:103020000E9464207B018C01F50160877187828793
:10303000938760817181828193812481358146816A
:1030400057810E94B435A80197010E94B4352E968D
:103050000FB6F894DEBF0FBECDBFCF91DF911F91A9
:103060000F91FF90EF90DF90CF90BF90AF909F9027
:103070008F907F906F900895AF92BF92CF92DF9222
:10308000EF92FF920F931F93DF93CF93CDB7DEB7ED
:103090002E970FB6F894DEBF0FBECDBFC982DA827D
:1030A000EB82FC820D831E832F83388749875A87E2
:1030B0006B877C878D879E87EB8CFC8C0D8D1E8D9E
:1030C00069817A81882777FD8095982F0E94B7368D
:1030D0009B01AC01C801B7010E946B3720E030E0D2
:1030E00040EA51E40E941C36F501608371838283BB
:1030F0009383C801B70124853585468557850E948D
:10310000B3350E9484366B01C801B70120E030E07E
:1031100040E85FE30E946737181654F0C801B70112
:1031200020E030E040E85FEB0E94183687FF22C0C5
:103130006D817E81882777FD8095982F0E94B73614
:103140009B01AC01C801B7010E946B3720E030E061
:1031500048E453E40E941C369B01AC01F5016481F4
:103160007581868197810E94B435F50164837583EA
:103170008683978389859A85C89EB001C99E700D04
:10318000D89E700D1124882777FD8095982F0E9476
:10319000B73620E030E040EA51E40E941C36F501E9
:1031A0006087718782879387E486F586068717870D
:1031B000E480F580068117816F817885882777FD07
:1031C0008095982F0E94B7369B01AC01C801B701CA
:1031D0000E946420F5016483758386839783E08071
:1031E000F180028113816B817C81882777FD809536
:1031F000982F0E94B7369B01AC01C801B7010E940D
:103200006420F5016083718382839383E084F18479
:10321000028513856B857C85882777FD8095982F9F
:103220000E94B7369B01AC01C801B7010E9464201F
:103230007B018C01F50160877187828793876081AC
:1032400071818281938124813581468157810E94D9
:10325000B435A80197010E94B4352E960FB6F894A4
:10326000DEBF0FBECDBFCF91DF911F910F91FF90B9
:10327000EF90DF90CF90BF90AF90089580E090E006
:10328000DC018093670690936806A0936906B0936B
:103290006A0680937F0690938006A0938106B09380
:1032A00082068093530590935405A0935505B093DF
:1032B000560580936B0590936C05A0936D05B093B4
:1032C0006E0580936E0790936F07A0937007B0937D
:1032D0007107089580E090E0DC01809317069093D9
:1032E0001806A0931906B0931A068093C906909306
:1032F000CA06A093CB06B093CC0608952F923F92B6
:103300004F925F926F927F928F929F92AF92BF92F5
:10331000CF92DF92EF92FF920F931F93DF93CF93A1
:1033200000D000D0CDB7DEB76091130770911407BD
:10333000882777FD8095982F0E94B73620E030E0EF
:103340004AE754E40E941C367B018C01A0901E06C3
:10335000B0901F06C0902006D090210640904606EF
:10336000509047067F2D912FA60195010E946B3743
:103370003B014C0160E070E080E89FE32E2D3F2D83
:10338000402F512F0E94B3357B018C01B201882759
:1033900077FD8095982F0E94B7369B01AC01C8013C
:1033A000B7010E946B379B01AC01C401B3010E94BD
:1033B000B435609338067093390680933A0690933B
:1033C0003B066091F7067091F806882777FD809597
:1033D000982F0E94B73620E030E04AE754E40E947C
:1033E0001C367B018C0180904006909041067F2D19
:1033F000912FA60195010E946B375B016C0160E083
:1034000070E080E89FE32E2D3F2D402F512F0E942A
:10341000B3357B018C01B401882777FD8095982F07
:103420000E94B7369B01AC01C801B7010E946B37FF
:103430009B01AC01C601B5010E94B43560931E0624
:1034400070931F0680932006909321066091E906F1
:103450007091EA06882777FD8095982F0E94B736ED
:1034600020E030E04AE754E40E941C368B01E82E4D
:10347000A92E60E070E080E89FE3202F312F4E2DD1
:103480005A2D0E94B335362E272E89839A83C090F9
:103490003E06D0903F06602F712F8E2D9A2D2091E1
:1034A000E1053091E2054091E3055091E4050E9469
:1034B0006B373B014C01B601882777FD8095982F2B
:1034C0000E94B7369B01AC01D101F980DA806B2FE5
:1034D0007A2F8F2D9D2D0E946B379B01AC01C4016B
:1034E000B3010E94B435F62ED72EC82EB92E862FE2
:1034F0009D2DAC2DBB2D8093E1059093E205A0930B
:10350000E305B093E40580903C0690903D06602F63
:10351000712F8E2D9A2D20915F063091600640917B
:103520006106509162060E946B372B013C01B40189
:10353000882777FD8095982F0E94B7369B01AC01B4
:10354000D10119810A816B2F7A2F812F902F0E9430
:103550006B379B01AC01C301B2010E94B43560938B
:103560005F0670936006809361069093620600D0B8
:1035700000D08F2D9D2DAC2DBB2DEDB7FEB78183D7
:103580009283A383B483C090DD06D090DE06E090E2
:10359000DF06F090E0060091E1061091E20620912E
:1035A000E3063091E4064091E5065091E60660910D
:1035B000E7067091E8068091E9069091EA06E3E655
:1035C000AE2EE6E0BE2E0E943C180E948436709318
:1035D00037066093360680915F0690916006A09151
:1035E0006106B0916206EDB7FEB781839283A38333
:1035F000B483C090DD06D090DE06E090DF06F09048
:10360000E0060091E1061091E2062091E306309178
:10361000E4064091E5065091E6066091E706709158
:10362000E8068091E9069091EA06BBE7AB2EB6E08A
:10363000BB2E0E943C180E9484367093B80560939C
:10364000B7050DB71EB70F5F1F4F6091C30570918F
:10365000C405882777FD8095982F0E94B73620E013
:1036600030E040E05FE30E946B379B01AC0160916A
:103670001E0670911F0680912006909121060E94DF
:10368000B335F8016083718382839383C090EB0626
:10369000D090EC06E090ED06F090EE060091EF067B
:1036A0001091F0062091F1063091F2064091F30658
:1036B0005091F4066091F5067091F6068091F70638
:1036C0009091F806A3E9AA2EA6E0BA2E0E943C1813
:1036D0000E9484367093CE066093CD0660914206B8
:1036E00070914306709561957F4F809124079927CB
:1036F00087FD9095681B790B882777FD8095982F1B
:103700000E94B736D62EC72EB82EA92E6091440639
:1037100070914506709561957F4F80912507992797
:1037200087FD9095681B790B882777FD8095982FEA
:103730000E94B736562E79838A839B8380914006F8
:1037400090914106E0901706F09018060091190636
:1037500010911A0660913E0670913F06882777FD0A
:103760008095982F0E94B7362BE13FE24DED5CE348
:103770000E946B379B01AC01C801B7010E94B435B0
:103780009B01AC012093170630931806409319064D
:1037900050931A06E090C906F090CA060091CB0635
:1037A0001091CC0660913C0670913D06882777FD0C
:1037B0008095982F0E94B7362BE13FE24DED5CE3F8
:1037C0000E946B379B01AC01C801B7010E94B43560
:1037D0009B01AC012093C9063093CA064093CB06E7
:1037E0005093CC066091050770910607882777FDF6
:1037F0008095982F0E94B73620E030E04AE754E4E5
:103800000E941C36F62E072F182FE92E60E070E07C
:1038100080E89FE32F2D302F412F5E2D0E94B3357E
:10382000462E372E282E9C830F900F900F900F90CE
:10383000A6019501652F742F832F922F20E030E091
:1038400040E252E40E94183687FF3BC0A601950172
:10385000652F742F832F922F20E030E040E252EC4E
:103860000E94673718166CF52091170630911806DC
:103870004091190650911A066F2D702F812F9E2DA1
:103880000E946B373B014C012C81642D732D822DDE
:10389000922FD601F5012B2F3A2F4F2F5E2F0E942A
:1038A0006B379B01AC01C401B3010E94B4359B018D
:1038B000AC012093170630931806409319065093D5
:1038C0001A0649813A812B81652D742F832F922FFF
:1038D00020E030E040E252E40E94183687FF3DC00D
:1038E00049813A812B81652D742F832F922F20E0FF
:1038F00030E040E252EC0E946737181674F52091D0
:10390000C9063091CA064091CB065091CC066F2D66
:10391000702F812F9E2D0E946B377B018C012C8193
:10392000642D732D822D922FA981DA80CB80252DD5
:103930003A2F4D2D5C2D0E946B379B01AC01C801C5
:10394000B7010E94B4359B01AC012093C9063093A6
:10395000CA064093CB065093CC06E0901706F09031
:1039600018060091190610911A06E092FF05F092D0
:1039700000060093010610930206A090C906B090BD
:10398000CA06C090CB06D090CC06A0924905B09252
:103990004A05C0924B05D0924C058091D7068823EA
:1039A00009F058C08091D806813009F04FC060916D
:1039B000BF057091C005882777FD8095982F0E94DC
:1039C000B73620E030E040E05FE30E946B37962E90
:1039D000472E382E292E6091C1057091C205882787
:1039E00077FD8095982F0E94B73620E030E040E0C8
:1039F0005FE30E946B37862E772E682E592EC80102
:103A0000B701F101292D342D4F2F5E2F0E94B335C0
:103A1000282D372D462D552D0E94B3356093FF0577
:103A2000709300068093010690930206C601B501CB
:103A3000F101292D342D4F2F5E2F0E94B335282DF3
:103A4000372D462D552D0E94B4358FC0882309F09F
:103A500094C007C0813009F090C08091D8068130B1
:103A600099F56091C1057091C205882777FD809511
:103A7000982F0E94B73620E030E040E05FE30E94DC
:103A80006B379B01AC01C801B7010E94B33560934D
:103A9000FF057093000680930106909302066091E3
:103AA000BF057091C005882777FD8095982F0E94EB
:103AB000B73620E030E040E05FE30E946B379B01C7
:103AC000AC01C601B5014FC0882309F056C0609112
:103AD000BF057091C005882777FD8095982F0E94BB
:103AE000B73620E030E040E05FE30E946B37962E6F
:103AF000472E382E292E6091C1057091C205882766
:103B000077FD8095982F0E94B73620E030E040E0A6
:103B10005FE30E946B37862E772E682E592EC801E0
:103B2000B701F101292D342D4F2F5E2F0E94B4359E
:103B3000282D372D462D552D0E94B3356093FF0556
:103B4000709300068093010690930206C601B501AA
:103B5000F101292D342D4F2F5E2F0E94B335282DD2
:103B6000372D462D552D0E94B3356093490570932E
:103B70004A0580934B0590934C0580911B0680FD70
:103B800096C06091360670913706882777FD80953C
:103B9000982F0E94B7363B014C0100D000D0809195
:103BA000FF0590910006A0910106B0910206EDB7C5
:103BB000FEB781839283A383B483C090F906D0902B
:103BC000FA06E090FB06F090FC060091FD061091CD
:103BD000FE062091FF0630910007409101075091A9
:103BE0000207609103077091040780910507909187
:103BF0000607FFE4AF2EF5E0BF2E0E94F1169B01F1
:103C0000AC01C401B3010E94B4350E9484367093A4
:103C10003706609336066091B7057091B80588271E
:103C200077FD8095982F0E94B7363B014C0180911B
:103C3000490590914A05A0914B05B0914C05EDB70F
:103C4000FEB781839283A383B483C090F906D0909A
:103C5000FA06E090FB06F090FC060091FD0610913C
:103C6000FE062091FF063091000740910107509118
:103C700002076091030770910407809105079091F6
:103C80000607E7E6AE2EE5E0BE2E0E94F1169B0188
:103C9000AC01C401B3010E94B4350E948436709314
:103CA000B8056093B7050F900F900F900F900F908D
:103CB0000F900F900F90CF91DF911F910F91FF9078
:103CC000EF90DF90CF90BF90AF909F908F907F90BC
:103CD0006F905F904F903F902F900895AF92BF925A
:103CE000CF92DF92EF92FF920F931F9300D000D0FC
:103CF0008091380690913906A0913A06B0913B0622
:103D0000B058EDB7FEB781839283A383B483C0908C
:103D10000707D0900807E0900907F0900A07009184
:103D20000B0710910C0720910D0730910E07409161
:103D30000F07509110076091110770911207809141
:103D4000130790911407AFE7AA2EA5E0BA2E0E94A0
:103D50003C186093570670935806809359069093C9
:103D60005A060F900F900F900F908091D1068F3FC1
:103D700009F0F4C08091DC0680FFF0C080911B0642
:103D8000843009F0EBC0489AF8946091D1057091A5
:103D9000D20580E090E00E94B5367B018C017894DA
:103DA0007F2D912F20E030E849E054E40E9418363E
:103DB00087FFB4C080912705882329F580912505C8
:103DC000909126058330910534F401969093260551
:103DD00080932505C9C06E2D7F2D802F912F0E94C5
:103DE00089367093C8066093C70680E090E0DC01D6
:103DF00080936E0790936F07A0937007B09371073D
:103E000081E0809327056091C7067091C80680E025
:103E100090E00E94B5362E2D3F2D402F512F0E944D
:103E2000B335F62E072F182FE92E862F902FA12FAE
:103E3000BE2D8093AB069093AC06A093AD06B093D5
:103E4000AE066F2D702F812F9E2D20E030E048E4CC
:103E500052E40E94183687FF5CC06F2D702F812FAF
:103E60009E2D20E030E048E452EC0E94673718169F
:103E70000CF04FC01092220500D000D08F2D902F53
:103E8000A12FBE2DEDB7FEB781839283A383B483A8
:103E9000C0901507D0901607E0901707F09018070C
:103EA0000091190710911A0720911B0730911C07E8
:103EB00040911D0750911E0760911F0770912007C8
:103EC0008091210790912207FAE6AF2EF7E0BF2EEE
:103ED0000E943C180E9484367B018C017093260559
:103EE000609325050F900F900F900F906091AB0697
:103EF0007091AC068091AD069091AE0620E030E066
:103F0000A9010E941836882321F4F0922405E0923A
:103F10002305609125057091260504C06091230555
:103F200070912405882777FD8095982F0E94B736D9
:103F30009B01AC016091570670915806809159061B
:103F400090915A060E94B4356093570670935806B4
:103F50008093590690935A06489806C010922605F9
:103F6000109225051092270570915706609158060A
:103F70009091590680915A06AB019C01652F742FD0
:103F8000832F922F1F910F91FF90EF90DF90CF9092
:103F9000BF90AF9008956F927F928F929F92AF9251
:103FA000BF92CF92DF92EF92FF920F931F93CF9326
:103FB000DF93EC016B01BC0197FF04C066277727F4
:103FC000681B790B882777FD8095982F0E94B7365C
:103FD0002FEF36EE4BED5EE20E94B435162F072F21
:103FE000F82EE92EB601882777FD8095982FD7FC0B
:103FF0002BC00E94B7365B016C01D801F7012B2F53
:104000003A2F4F2F5E2F0E94B3353B014C01C60162
:10401000B501D801F7012B2F3A2F4F2F5E2F0E94A9
:10402000B4359B01AC01C401B3010E941C3620E0F1
:1040300030E040E053E40E946B379B01AC0160E04C
:1040400070E080E093E42AC00E94B7365B016C0107
:10405000D801F7012B2F3A2F4F2F5E2F0E94B43536
:104060003B014C01A8019701652F742F832F922FDC
:10407000A60195010E94B3359B01AC01C401B301B7
:104080000E941C3620E030E040E053E40E946B3791
:104090009B01AC0160E070E080EC93E40E94B335DA
:1040A000D7FD90580E948436CB01DF91CF911F91AC
:1040B0000F91FF90EF90DF90CF90BF90AF909F90C7
:1040C0008F907F906F900895AF92BF92CF92DF92C2
:1040D000EF92FF920F931F93D62EC72EB82EA92EC4
:1040E00079018A01A6019501652F742F832F922FE4
:1040F000A80197010E9467371816B4F017FB1095B6
:1041000017F91095A6019501652F742F832F922F13
:10411000A80197010E94183687FD06C09601C501C7
:10412000E32EF22E092F182F6E2D7F2D802F912F29
:104130001F910F91FF90EF90DF90CF90BF90AF90C5
:104140000895681779073CF0709561957F4F68175F
:1041500079070CF4BC01CB01089580E090E008954C
:104160006F927F928F929F92AF92BF92CF92DF9287
:10417000EF92FF920F931F93FC01208131814281C6
:104180005381E480F58006811781A084B184C284C4
:10419000D384CA01B9010E946B373B014C01C801AD
:1041A000B701A80197010E946B379B01AC01C401C4
:1041B000B3010E94B4357B018C01C601B501A60193
:1041C00095010E946B379B01AC01C801B7010E94A9
:1041D000B435262F372F482F592F20932C05309395
:1041E0002D0540932E0550932F050E94D2371F9125
:1041F0000F91FF90EF90DF90CF90BF90AF909F9086
:104200008F907F906F900895EF92FF920F931F937E
:10421000CF93DF93EC010E94B0207B018C0160936F
:1042200028057093290580932A0590932B056881B2
:1042300079818A819B81A80197010E941C3668833D
:1042400079838A839B836C817D818E819F81A80184
:1042500097010E941C366C837D838E839F836885C3
:1042600079858A859B85A80197010E941C366887FD
:1042700079878A879B87DF91CF911F910F91FF905C
:10428000EF900895CF92DF92EF92FF920F931F93DA
:10429000CF93DF93EC018B01688179818A819B81C7
:1042A000F80120813181428153810E946B376B017B
:1042B0007C016C817D818E819F81F8012481358113
:1042C000468157810E946B379B01AC01C701B60143
:1042D0000E94B4356B017C01688579858A859B8550
:1042E000F80120853185428553850E946B379B01FB
:1042F000AC01C701B6010E94B435DF91CF911F9187
:104300000F91FF90EF90DF90CF900895AF92BF9202
:10431000CF92DF92EF92FF920F931F93CF93DF9391
:10432000EC018B017A016C817D818E819F81F80186
:1043300020853185428553850E946B375B016C0176
:10434000688579858A859B85F80124813581468138
:1043500057810E946B379B01AC01C601B5010E94D9
:10436000B335F70160837183828393836885798590
:104370008A859B85F80120813181428153810E9489
:104380006B375B016C01688179818A819B81F801BF
:1043900020853185428553850E946B379B01AC0196
:1043A000C601B5010E94B335F70164837583868326
:1043B0009783688179818A819B81F8012481358185
:1043C000468157810E946B375B016C016C817D8156
:1043D0008E819F81F80120813181428153810E9429
:1043E0006B379B01AC01C601B5010E94B335F701E3
:1043F0006087718782879387DF91CF911F910F919B
:10440000FF90EF90DF90CF90BF90AF900895CF9244
:10441000DF92EF92FF920F931F93CF93DF937B0175
:104420008C01EA016901288139814A815B810E94FE
:104430006B37F6016083718382839383C801B70170
:104440002C813D814E815F810E946B37F601648330
:10445000758386839783C801B701288539854A8586
:104460005B850E946B37F60160877187828793872F
:10447000DF91CF911F910F91FF90EF90DF90CF9040
:104480000895EF92FF920F931F93CF93DF93EC0168
:104490008B017A01688179818A819B81F801208171
:1044A0003181428153810E94B435F7016083718369
:1044B000828393836C817D818E819F81F801248129
:1044C0003581468157810E94B435F7016483758335
:1044D00086839783688579858A859B85F801208501
:1044E0003185428553850E94B435F7016087718715
:1044F00082879387DF91CF911F910F91FF90EF906B
:104500000895EF92FF920F931F93DC01FB0120E0CF
:1045100030E040E85FE32083318342835383189681
:104520006D917D918D919C911B97905864837583BB
:104530008683978314966D917D918D919C911797A9
:10454000608771878287938718966D917D918D9191
:104550009C911B976487758786879787208B318B03
:10456000428B538B6D917D918D919C9113979058B7
:10457000648B758B868B978B1496ED90FD900D91C7
:104580001C91179717FB109517F91095E08EF18E77
:10459000028F138F8D919D910D90BC91A02D848FD2
:1045A000958FA68FB78F20A331A342A353A31F914A
:1045B0000F91FF90EF900895F8948091BC05909131
:1045C000BD059093CC078093CB0778942091CB07BF
:1045D0003091CC078091BE079091BF07281739070B
:1045E00038F0281B390B3093B9072093B80708C05F
:1045F00080959095820F931F9093B9078093B80789
:104600004091B8075091B90789E991E0489F90011E
:10461000499F300D589F300D112480EA9FE0821B86
:10462000930B11C01092B200853691053CF0209199
:10463000B2002832E0F38055904005C02091B200CE
:104640002530E0F308979093C4078093C3078091C7
:10465000C3079091C4071816190624F38091970593
:104660009091980597FF05C01092C6071092C50754
:104670000AC024E08F37920714F08EE794E09093FD
:10468000C6078093C5078091990590919A0597FF79
:1046900005C01092BD071092BC070AC024E08F37F6
:1046A000920714F08EE794E09093BD078093BC07C7
:1046B00080919B0590919C0597FF05C01092CA07B9
:1046C0001092C9070AC024E08F37920714F08EE7D2
:1046D00094E09093CA078093C90780919D059091BB
:1046E0009E0597FF05C01092BB071092BA070AC03B
:1046F00024E08F37920714F08EE794E09093BB0785
:104700008093BA07469A449A429A439A8091DA066D
:1047100090E0805E9C4F11C01092B20085369105EA
:104720003CF02091B2002D32E0F38055904005C05E
:104730002091B2002530E0F308979093C40780934E
:10474000C3078091C3079091C4071816190624F374
:104750001092C2071092C10739C02091C107309151
:10476000C2078091C5079091C6072817390708F03E
:1047700046982091C1073091C2078091BC07909163
:10478000BD072817390708F044982091C1073091D8
:10479000C2078091C9079091CA072817390708F006
:1047A00042982091C1073091C2078091BA07909139
:1047B000BB072817390708F043988091C1079091EB
:1047C000C20704969093C2078093C1078091C107E6
:1047D0009091C20724E08238920708F4BECFF89483
:1047E0008091BC059091BD059093BF078093BE0753
:1047F00078940895209184003091850090E0880F8E
:10480000991FFC01E452F84F40815181DC01A35310
:10481000BA4F4217530748F4209184003091850025
:1048200080819181281B390B0AC0208131818091C0
:1048300084009091850020953095280F391F11969E
:104840003C932E930895209184003091850090E050
:104850000596880F991FFC01E452F84F4081518161
:10486000DC01A353BA4F4217530740F48081918172
:10487000281B390B11963C932E930895408151814A
:1048800040955095420F531F11965C934E93089597
:1048900020988091D1068823F1F41092CB0552988C
:1048A00050985398229885E18093690087E08DBBEA
:1048B0008CBB809168008A608093680080916C0056
:1048C000816080936C00809173008160809373009D
:1048D0008BB38A608BBB81E08093CB053D98389881
:1048E0003F98399880916800866080936800809135
:1048F0006C00816080936C0080916D00836A80936E
:104900006D008BB386608BBB8091B507816080930F
:10491000B5078091B50780618093B507F8948091C1
:104920005D0690915E069093D4078093D3078091A3
:104930005D0690915E069093D6078093D507789494
:104940008091D1079091D2079093D2078093D1079D
:104950008091CD079091CE079093CE078093CD079D
:104960000895F89490E0FC01EE0FFF1FEE0FFF1F7B
:10497000E80FF91FE60FF11DEE0FFF1FE353FA4F8B
:10498000208131817894C9010895F89490E070E015
:104990009C01220F331F220F331F280F391FA9013B
:1049A000460F571F440F551FFA01E353FA4F8081FA
:1049B000918178944A5D584FFA0140815181841B5E
:1049C000950B260F371F205A384FF9016081772742
:1049D00067FD70950E943938CB010895F8948823BB
:1049E00011F540915D0650915E066091D30770917C
:1049F000D407461B570B4531510520F08091B50770
:104A0000816034C040915D0650915E066091D5078B
:104A10007091D607461B570B4531510568F18091BF
:104A2000B507826023C0813039F540915D06509111
:104A30005E066091D1077091D207461B570B453136
:104A4000510520F08091B507806110C040915D064E
:104A500050915E066091CD077091CE07461B570BB3
:104A60004531510548F08091B50780628093B507C4
:104A7000789420E030E041C0282F30E0C901880F51
:104A8000991FA901B3E0440F551FBA95E1F7840FB0
:104A9000951FFC01E353FA4F468157815093D80785
:104AA0004093D70778944091D7075091D807805CFE
:104AB000984FFC0180819181481B590B5093D80776
:104AC0004093D7078091D7079091D807F901EE0F4F
:104AD000FF1FEE0FFF1FE20FF31FED59F84F60812C
:104AE000772767FD70950E9439387093D8076093D7
:104AF000D7072091D7073091D807C9010895CF92E1
:104B0000DF92EF92FF920F931F93CF93DF93C0E05A
:104B1000D0E02DC00330110539F48C2F0E94EE2413
:104B2000F701918380831AC08C2F602F0E94C524C7
:104B3000F601E00FF11FEE0FFF1FED5FF94F9183BC
:104B40008083808191818F30910544F480819181AF
:104B50003FEF823F930714F0118210820F5F1F4FC7
:104B600005301105B9F62196C230D105C9F000E033
:104B700010E06E01CC0CDD1CCC0CDD1CCC0EDD1E5F
:104B80007E01EE0CFF1CCE0153E0880F991F5A9551
:104B9000E1F7E80EF91E89E096E0E80EF91EBACFBB
:104BA000DF91CF911F910F91FF90EF90DF90CF9009
:104BB000089562E276E0282F30E0F901EE0FFF1F42
:104BC00093E0220F331F9A95E1F7E20FF31FE60FF0
:104BD000F71F118210824FEA56E0282F30E0F901CA
:104BE000EE0FFF1FA3E0220F331FAA95E1F7E20F9C
:104BF000F31FE40FF51F2EEF3FEF31832083A82F23
:104C0000B0E0FD01EE0FFF1F93E0AA0FBB1F9A95C6
:104C1000E1F7EA0FFB1FE60FF71F13821282A82F9E
:104C2000B0E0FD01EE0FFF1F93E0AA0FBB1F9A95A6
:104C3000E1F7EA0FFB1FE40FF51F33832283A82F50
:104C4000B0E0FD01EE0FFF1F93E0AA0FBB1F9A9586
:104C5000E1F7EA0FFB1FE60FF71F15821482A82F5A
:104C6000B0E0FD01EE0FFF1F93E0AA0FBB1F9A9566
:104C7000E1F7EA0FFB1FE40FF51F35832483A82F0C
:104C8000B0E0FD01EE0FFF1F93E0AA0FBB1F9A9546
:104C9000E1F7EA0FFB1FE60FF71F17821682A82F16
:104CA000B0E0FD01EE0FFF1F93E0AA0FBB1F9A9526
:104CB000E1F7EA0FFB1FE40FF51F37832683A82FC8
:104CC000B0E0FD01EE0FFF1F93E0AA0FBB1F9A9506
:104CD000E1F7EA0FFB1FE60FF71F11861086682F1A
:104CE00070E0FB01EE0FFF1FB3E0660F771FBA9570
:104CF000E1F7E60FF71FE40FF51F318720870895CE
:104D0000DF92EF92FF920F931F93CF93DF93D82EF2
:104D1000282F30E08901000F111F73E0220F331F8D
:104D20007A95E1F7020F131F0E5D194F282F30E01F
:104D3000E901CC0FDD1F53E0220F331F5A95E1F735
:104D4000C20FD31FC155D94FEE24FF248D2D6E2DD8
:104D50000E94B1249C01009781F0F801808191812B
:104D60008217930718F43183208307C088819981C3
:104D70002817390710F4398328830894E11CF11CA3
:104D80000E5F1F4F2296F5E0EF16F104F9F6DF9162
:104D9000CF911F910F91FF90EF90DF90089515989C
:104DA000169817981198149812980895EF92FF92F8
:104DB0000F931F93CF93DF938B017A01C82FD0E01D
:104DC0000E94AC28CC0FDD1FC156DA4F998388832F
:104DD000888199816FEA75E04AE050E00E94C53809
:104DE000888199818017910750F088819981E81610
:104DF000F90628F08FEA95E068E071E004C08FEAD8
:104E000095E06BE071E00E9499388FEA95E0DF91C0
:104E1000CF911F910F91FF90EF900895EF92FF9225
:104E20000F931F93DF93CF930F92CDB7DEB725B1CA
:104E300026952695269521701092A00510929F0523
:104E40001092A2051092A1051092A4051092A3053C
:104E50001092A6051092A5051092A8051092A7051C
:104E60001092AA051092A90559E1E52EF12C0091A6
:104E7000A5051091A60585E029830E94AC28080F9E
:104E8000191F1093A6050093A5050091A705109181
:104E9000A80586E00E94AC28080F191F1093A805EA
:104EA0000093A7050091A9051091AA0587E00E942B
:104EB000AC28080F191F1093AA050093A9050091AB
:104EC0009F051091A00581E00E94AC28080F191FD2
:104ED0001093A00500939F050091A1051091A205D4
:104EE00084E00E94AC28080F191F1093A2050093BC
:104EF000A1050091A3051091A40582E00E94AC28B1
:104F0000080F191F1093A4050093A3058FE097E2E3
:104F10000197F1F700C0000085B1869586958695CA
:104F200080958170880F880F880F95B1977F982B97
:104F300095B90894E108F1082981E114F10409F018
:104F400096CF2170220F220F220F85B1877F822BEF
:104F500085B920E030E009E110E0F901EE0FFF1F14
:104F6000E156FA4F80819181B8010E942538718302
:104F700060832F5F3F4F2630310579F78091D0064F
:104F800084608093D006A2E5B7E080E090E0FC0169
:104F9000EE0FFF1FE156FA4F208131812D933D9393
:104FA00001968630910599F70F90CF91DF911F916F
:104FB0000F91FF90EF90089583E00E94AC2824E6C3
:104FC00030E0AC01429FC001439F900D529F900D75
:104FD000112464E771E00E942538CB01089585E033
:104FE0000E94AC282091580730915907821B930BDF
:104FF000909343068093420686E00E94AC2820915D
:105000005A0730915B07821B930B90934506809360
:10501000440687E00E94AC2820915C0730915D0730
:10502000821B930B909347068093460681E00E9473
:10503000AC282091520730915307821B930B909319
:105040003D0680933C0680913C0690913D0697FF7B
:1050500003C0909581959F4F8230910524F4109262
:105060003D0610923C0684E00E94AC282091540733
:1050700030915507821B930B90933F0680933E0619
:1050800080913E0690913F0697FF03C090958195D1
:105090009F4F8230910524F410923F0610923E06F5
:1050A00082E00E94AC282091560730915707821B5E
:1050B000930B909341068093400680914006909117
:1050C000410697FF03C0909581959F4F82309105CF
:1050D00024F410924106109240060E94DC2790931F
:1050E000490680934806089578941F920F920FB650
:1050F0000F9211242F938F939F93EF93FF932091FF
:105100003005E22FF0E08091780090917900EE0F69
:10511000FF1FE051F84F91838083822F8F5F87704C
:105120008093300580937C00EAE7F0E08081806422
:105130008083FF91EF919F918F912F910F900FBEE0
:105140000F901F9018958FEF80937E0010927C0037
:105150008FED80937A000895F894E82FF0E0EE0F39
:10516000FF1FE051F84F208131817894C9010895E3
:105170008091BB05882311F084FDFFCF089590E056
:10518000880F991F8954944FFC0125913491C901CE
:105190000895CF93DF93EC01009731F4C09143055C
:1051A000D0914405209739F087E060E00E94AF0B72
:1051B000CE010E94AC0CDF91CF910895EF920F9336
:1051C0001F93CF93DF938091BB0580FDEFC085FFD8
:1051D0002BC080E090E0DC018093170690931806C6
:1051E000A0931906B0931A068093C9069093CA0635
:1051F000A093CB06B093CC068093370590933805E7
:10520000A0933905B0933A0580933B0590933C05F4
:10521000A0933D05B0933E0580933F0590934005D4
:10522000A0934105B0934205C0914006D09141063C
:1052300060913E0670913F06882777FD8095982FF4
:105240000E94B7362BE13FE24DED5CE30E946B37E5
:105250009B01AC0160913B0570913C0580913D053F
:1052600090913E050E94B43560933B0570933C05D8
:1052700080933D0590933E052091170630911806C6
:105280004091190650911A0681E060E309E0EE248E
:105290000E94590D2091C9063091CA064091CB0653
:1052A0005091CC0682E060E30E94590D20913B05AD
:1052B00030913C0540913D0550913E0584E060E30E
:1052C0000E94590D6091400670914106882777FD34
:1052D0008095982F0E94B7362BE13FE24DED5CE3BD
:1052E0000E946B3720913705309138054091390580
:1052F00050913A050E94B435E62FF82F2E2F372F04
:105300004F2F592F20933705309338054093390597
:1053100050933A0581E060E009E00E94590DBE011A
:10532000882777FD8095982F0E94B7362BE13FE2C2
:105330004DED5CE30E946B379B01AC0182E060E0C5
:105340000E94590D609142067091430670956195D7
:105350007F4F80912407992787FD9095681B790BD3
:10536000882777FD8095982F0E94B7369B01AC0166
:1053700083E060E00E94590D6091440670914506FB
:10538000709561957F4F80912507992787FD9095AE
:10539000681B790B882777FD8095982F0E94B73678
:1053A0009B01AC0184E060E00E94590DDF91CF9138
:1053B0001F910F91EF9008950F931F93CF93DF9359
:1053C0008091BB05882369F184FF19C015E088EC42
:1053D00090E062E00E94370E86E490E061E00E9477
:1053E0003B0B1150A1F70E940E270E94610F88E825
:1053F0009CE090934405809343050E94C928C2E530
:10540000D7E010E0812F60E30E94AF0B49915991E2
:10541000812F60E325E000E00E94A20D1F5F16309F
:1054200089F7DF91CF911F910F9108950F9380E03D
:1054300060E30E94AF0B81E064EF71E046E752E069
:105440000E94D6260E94980C81E060E30E94AF0B78
:1054500084E064EF71E046E752E00E94D6260E94A5
:10546000980C82E060E30E94AF0B82E064EF71E091
:1054700046E752E00E94D6260E94980C83E060E343
:105480000E94AF0B85E062EC71E042E553E00E94C0
:10549000D6260E94980C84E060E30E94AF0B86E061
:1054A00062EC71E042E553E00E94D6260E94980C1F
:1054B00085E060E30E94AF0B87E062EC71E042E5BB
:1054C00053E00E94D6260E94980C86E060E30E947A
:1054D000AF0B0E94DC279C01B901882777FD8095DE
:1054E000982F0E94B7369B01AC0186E060E300E094
:1054F0000E94990D0F9108958091BB0580FF10C007
:105500008BE291E00E94010E80E060E00E94AF0B10
:105510008CEA9CE00E94AC0C80E090E00E94010EBE
:105520008091BB0584FF04C01092D5060E94610FD4
:1055300083E062E10E94AF0B8091970590919805FE
:105540006BEE75E04AE050E00E94A4388BEE95E0E7
:1055500065E00E94FE0C83E06EE40E94AF0B809138
:105560009D0590919E056BEE75E04AE050E00E942B
:10557000A4388BEE95E065E00E94FE0C84E062E1C9
:105580000E94AF0B8091990590919A056BEE75E0A2
:105590004AE050E00E94A4388BEE95E065E00E945E
:1055A000FE0C84E06EE40E94AF0B80919B0590910D
:1055B0009C056BEE75E04AE050E00E94A4388BEE4B
:1055C00095E065E00E94FE0C0895AF92BF92CF92E5
:1055D000DF92EF920F931F93DF93CF930F92CDB78C
:1055E000DEB7182F6A0159018E2D69830E94BA0C0B
:1055F000812F69810E94AF0B002311F0C60101C009
:10560000C5010E94AC0C80E00E94BA0C0F90CF91B3
:10561000DF911F910F91EF90DF90CF90BF90AF90EF
:10562000089580913105813021F40E94610F10921C
:1056300031050895EF920F931F93182F2091B5070E
:105640008091CB0530E02F70307001E021153105DD
:1056500009F000E091E0813009F490E0812F62E1EF
:105660004AEC5CE02CEC3CE0E92E0E94E52A8091BB
:10567000B5072091CB05807F01E009F000E091E0C3
:10568000222309F490E0812F6EE14EEC5CE02CECDB
:105690003CE0E92E0E94E52A80E00E94BA0C1F91AE
:1056A0000F91EF9008950F931F93CF93DF93109274
:1056B000E6058091BB0580FF0CC08091CB050E9460
:1056C000D92580E060E04EE95CE022E100E00E9444
:1056D000340D8091BB0584FFBFC0809100088823F2
:1056E00009F0B5C020E030E008EE13E08091CB0572
:1056F0004091CB056091CB0590E0FC01EE0FFF1FC0
:10570000EE0FFF1FE80FF91FE20FF31FEE0FFF1F51
:10571000EA5DF84F70E0CB01880F991F880F991F41
:10572000860F971F820F931F880F991F8155994FDE
:1057300050E0DA01AA0FBB1FAA0FBB1FA40FB51FB1
:10574000A20FB31FAA0FBB1FAE5DB94FEC0188813A
:1057500099814D915C91840F951F969587959183C2
:1057600080834091CB058091CB0550E0FA01EE0F8C
:10577000FF1FEE0FFF1FE40FF51FE20FF31FEE0FE9
:10578000FF1FE65CF84F90E0DC01AA0FBB1FAA0FD9
:10579000BB1FA80FB91FA20FB31FAA0FBB1FA15594
:1057A000B94F8D919C91918380838091CB056091BD
:1057B000CB054091CB0590E0FC01EE0FFF1FEE0FF3
:1057C000FF1FE80FF91FE20FF31FE05AF84F70E0D8
:1057D000CB01880F991F880F991F860F971F820F83
:1057E000931F880F991F8E5D994F50E0DA01AA0F21
:1057F000BB1FAA0FBB1FA40FB51FA20FB31FAA0F79
:10580000BB1FA155B94FEC01888199814D915C91E5
:105810001197841B950BB8010E94253860832F5F78
:105820003F4F2530310509F061CF2091CB0581E054
:1058300090E002C0880F991F2A95E2F72091D006C8
:10584000282BEFECF6E021830E94610F05C088EC65
:1058500090E063E00E943B0B8091BB0586FF04C093
:105860008091CB050E94D925109200088091CB052C
:105870000E948026C0E0D0E011E0CE018F5F6EE193
:105880000E94AF0B8091CB0590E0FC01EE0FFF1F53
:10589000EE0FFF1FE80FF91FEC0FFD1FEE0FFF1FAC
:1058A000EE5DF94F808191816BEE75E04AE050E04A
:1058B0000E94C5388BEE95E00E94980C8EE99CE022
:1058C0000E94AC0C8091CB0590E0FC01EE0FFF1F15
:1058D000EE0FFF1FE80FF91FEC0FFD1FEE0FFF1F6C
:1058E000E155F94F808191816BEE75E04AE050E01F
:1058F0000E94C5388BEE95E00E94980C8091CB05F4
:10590000882329F4C43019F489EA9CE045C0209129
:10591000CB058091CB0530E0D901AA0FBB1FAA0FA0
:10592000BB1FA20FB31FAC0FBD1FAA0FBB1FAE5DE5
:10593000B94F90E0FC01EE0FFF1FEE0FFF1FE80FC5
:10594000F91FEC0FFD1FEE0FFF1FE155F94F2D91D1
:105950003C9111978081918128173907A0F080919F
:10596000CB0590E0FC01EE0FFF1FEE0FFF1FE80FCD
:10597000F91FEC0FFD1FEE0FFF1FE155F94F80815E
:105980009181009739F480EA9CE00E94AC0C10935E
:10599000000804C084EA9CE00E94AC0C2196C5304B
:1059A000D10509F06ACF86E00E941A2BDF91CF91D2
:1059B0001F910F9108950F931F93CF93DF93109230
:1059C000E6050E947F25C0E0D0E0CE018F5F182F52
:1059D00068E10E94AF0BFE01EE0FFF1FED5FF94F74
:1059E000408151818091B50790E08F70907001E007
:1059F000009709F400E0812F64E225E00E94A20DE7
:105A0000FE01EE0FFF1FE35FF94F4081518180914E
:105A1000B507807F01E009F400E0812F64E525E00F
:105A20000E94A20D2196C530D10579F686E00E942C
:105A30001A2BDF91CF911F910F9108950F939091A1
:105A40003505442331F401E0911100E047E65DE0C3
:105A500005C001E0911100E041E65DE025E00E9413
:105A6000340D0F9108950F93022F442319F44AE542
:105A70005DE002C043E55DE026E00E94340D0F9139
:105A800008951F93182F66E0869FB001112463517B
:105A9000734F83E495E046E050E00E94773810931E
:105AA00034051F9108958091BB0580FF09C083E0F4
:105AB00062E10E94AF0B8FEC9BE00E94AC0C08955A
:105AC00084FF05C00E94710F84E00E94412D08955B
:105AD0008091BB058823C1F084FF16C08091D00659
